{"abi":[{"type":"constructor","inputs":[],"stateMutability":"nonpayable"},{"type":"function","name":"UPGRADE_INTERFACE_VERSION","inputs":[],"outputs":[{"name":"","type":"string","internalType":"string"}],"stateMutability":"view"},{"type":"function","name":"addressOf","inputs":[{"name":"node","type":"bytes32","internalType":"bytes32"}],"outputs":[{"name":"value","type":"address","internalType":"address"}],"stateMutability":"view"},{"type":"function","name":"initialize","inputs":[{"name":"_registry","type":"address","internalType":"contract IDotnsRegistry"}],"outputs":[],"stateMutability":"nonpayable"},{"type":"function","name":"owner","inputs":[],"outputs":[{"name":"","type":"address","internalType":"address"}],"stateMutability":"view"},{"type":"function","name":"proxiableUUID","inputs":[],"outputs":[{"name":"","type":"bytes32","internalType":"bytes32"}],"stateMutability":"view"},{"type":"function","name":"registry","inputs":[],"outputs":[{"name":"","type":"address","internalType":"contract IDotnsRegistry"}],"stateMutability":"view"},{"type":"function","name":"renounceOwnership","inputs":[],"outputs":[],"stateMutability":"nonpayable"},{"type":"function","name":"setAddress","inputs":[{"name":"node","type":"bytes32","internalType":"bytes32"},{"name":"value","type":"address","internalType":"address"}],"outputs":[],"stateMutability":"nonpayable"},{"type":"function","name":"supportsInterface","inputs":[{"name":"interfaceId","type":"bytes4","internalType":"bytes4"}],"outputs":[{"name":"","type":"bool","internalType":"bool"}],"stateMutability":"view"},{"type":"function","name":"transferOwnership","inputs":[{"name":"newOwner","type":"address","internalType":"address"}],"outputs":[],"stateMutability":"nonpayable"},{"type":"function","name":"upgradeToAndCall","inputs":[{"name":"newImplementation","type":"address","internalType":"address"},{"name":"data","type":"bytes","internalType":"bytes"}],"outputs":[],"stateMutability":"payable"},{"type":"function","name":"version","inputs":[],"outputs":[{"name":"versionString","type":"string","internalType":"string"}],"stateMutability":"pure"},{"type":"event","name":"AddressSet","inputs":[{"name":"node","type":"bytes32","indexed":true,"internalType":"bytes32"},{"name":"value","type":"address","indexed":false,"internalType":"address"}],"anonymous":false},{"type":"event","name":"Initialized","inputs":[{"name":"version","type":"uint64","indexed":false,"internalType":"uint64"}],"anonymous":false},{"type":"event","name":"OwnershipTransferred","inputs":[{"name":"previousOwner","type":"address","indexed":true,"internalType":"address"},{"name":"newOwner","type":"address","indexed":true,"internalType":"address"}],"anonymous":false},{"type":"event","name":"Upgraded","inputs":[{"name":"implementation","type":"address","indexed":true,"internalType":"address"}],"anonymous":false},{"type":"error","name":"AddressEmptyCode","inputs":[{"name":"target","type":"address","internalType":"address"}]},{"type":"error","name":"ERC1967InvalidImplementation","inputs":[{"name":"implementation","type":"address","internalType":"address"}]},{"type":"error","name":"ERC1967NonPayable","inputs":[]},{"type":"error","name":"FailedCall","inputs":[]},{"type":"error","name":"InvalidInitialization","inputs":[]},{"type":"error","name":"NotAuthorised","inputs":[{"name":"node","type":"bytes32","internalType":"bytes32"},{"name":"caller","type":"address","internalType":"address"}]},{"type":"error","name":"NotInitializing","inputs":[]},{"type":"error","name":"OwnableInvalidOwner","inputs":[{"name":"owner","type":"address","internalType":"address"}]},{"type":"error","name":"OwnableUnauthorizedAccount","inputs":[{"name":"account","type":"address","internalType":"address"}]},{"type":"error","name":"UUPSUnauthorizedCallContext","inputs":[]},{"type":"error","name":"UUPSUnsupportedProxiableUUID","inputs":[{"name":"slot","type":"bytes32","internalType":"bytes32"}]}],"bytecode":{"object":"0x60a080604052346100c257306080525f516020610e2f5f395f51905f525460ff8160401c166100b3576002600160401b03196001600160401b03821601610060575b604051610d6890816100c7823960805181818161066f015261076f0152f35b6001600160401b0319166001600160401b039081175f516020610e2f5f395f51905f525581527fc7f505b2f371ae2175ee4913f4499e1f2633a7b5936321eed1cdaeb6115181d290602090a15f80610041565b63f92ee8a960e01b5f5260045ffd5b5f80fdfe6080806040526004361015610012575f80fd5b5f3560e01c90816301ffc9a7146109f9575080634f1ef286146106e757806352d1902d1461065557806354fd4d50146105fe578063715018a61461055a5780637b103999146105355780638da5cb5b146104f0578063ad3cb1cc14610495578063bb34534c14610462578063c4d66de814610229578063ca446dd9146100cf5763f2fde38b146100a0575f80fd5b346100cb5760206003193601126100cb576100c96100bc610a97565b6100c4610bc2565b610afa565b005b5f80fd5b346100cb5760406003193601126100cb576004356024356001600160a01b0381168091036100cb57602460206001600160a01b035f5416604051928380927f02571be30000000000000000000000000000000000000000000000000000000082528760048301525afa90811561021e575f916101dc575b506001600160a01b03339116036101ac5760207fb37614c7d254ea8d16eb81fa11dddaeb266aa8ba4917980859c7740aff30c69191835f526033825260405f208173ffffffffffffffffffffffffffffffffffffffff19825416179055604051908152a2005b507f14c417b5000000000000000000000000000000000000000000000000000000005f526004523360245260445ffd5b90506020813d602011610216575b816101f760209383610aad565b810103126100cb57516001600160a01b03811681036100cb5783610146565b3d91506101ea565b6040513d5f823e3d90fd5b346100cb5760206003193601126100cb576004356001600160a01b0381168091036100cb577ff0c57e16840df040f15088dc2f81fe391c3923bec73e23a9662efc9c229c6a00549060ff8260401c16159167ffffffffffffffff81168015908161045a575b6001149081610450575b159081610447575b5061041f578260017fffffffffffffffffffffffffffffffffffffffffffffffff00000000000000008316177ff0c57e16840df040f15088dc2f81fe391c3923bec73e23a9662efc9c229c6a00556103ca575b506102fc610c21565b610304610c21565b61030d33610afa565b610315610c21565b73ffffffffffffffffffffffffffffffffffffffff195f5416175f5561033757005b7fffffffffffffffffffffffffffffffffffffffffffffff00ffffffffffffffff7ff0c57e16840df040f15088dc2f81fe391c3923bec73e23a9662efc9c229c6a0054167ff0c57e16840df040f15088dc2f81fe391c3923bec73e23a9662efc9c229c6a00557fc7f505b2f371ae2175ee4913f4499e1f2633a7b5936321eed1cdaeb6115181d2602060405160018152a1005b7fffffffffffffffffffffffffffffffffffffffffffffff0000000000000000001668010000000000000001177ff0c57e16840df040f15088dc2f81fe391c3923bec73e23a9662efc9c229c6a0055826102f3565b7ff92ee8a9000000000000000000000000000000000000000000000000000000005f5260045ffd5b905015846102a0565b303b159150610298565b84915061028e565b346100cb5760206003193601126100cb576004355f52603360205260206001600160a01b0360405f205416604051908152f35b346100cb575f6003193601126100cb576104ec6040516104b6604082610aad565b600581527f352e302e30000000000000000000000000000000000000000000000000000000602082015260405191829182610ad0565b0390f35b346100cb575f6003193601126100cb5760206001600160a01b037f9016d09d72d40fdae2fd8ceac6b6234c7706214fd39c1cd1e609a0528c1993005416604051908152f35b346100cb575f6003193601126100cb5760206001600160a01b035f5416604051908152f35b346100cb575f6003193601126100cb57610572610bc2565b5f6001600160a01b037f9016d09d72d40fdae2fd8ceac6b6234c7706214fd39c1cd1e609a0528c1993005473ffffffffffffffffffffffffffffffffffffffff1981167f9016d09d72d40fdae2fd8ceac6b6234c7706214fd39c1cd1e609a0528c19930055167f8be0079c531659141344cd1fd0a4f28419497f9722a3daafe3b4186f6b6457e08280a3005b346100cb575f6003193601126100cb576104ec60405161061f604082610aad565b600581527f312e302e30000000000000000000000000000000000000000000000000000000602082015260405191829182610ad0565b346100cb575f6003193601126100cb576001600160a01b037f00000000000000000000000000000000000000000000000000000000000000001630036106bf5760206040517f360894a13ba1a3210667c828492db98dca3e2076cc3735a920a3ca505d382bbc8152f35b7fe07c8dba000000000000000000000000000000000000000000000000000000005f5260045ffd5b60406003193601126100cb576106fb610a97565b6024359067ffffffffffffffff82116100cb57366023830112156100cb57816004013567ffffffffffffffff81116109cc5760405192610745601f8301601f191660200185610aad565b81845236602483830101116100cb57815f9260246020930183870137840101526001600160a01b037f000000000000000000000000000000000000000000000000000000000000000016803014908115610997575b506106bf576107a7610bc2565b6001600160a01b038116916040517f52d1902d000000000000000000000000000000000000000000000000000000008152602081600481875afa5f9181610963575b5061081a57837f4c9c8ce3000000000000000000000000000000000000000000000000000000005f5260045260245ffd5b807f360894a13ba1a3210667c828492db98dca3e2076cc3735a920a3ca505d382bbc8592036109385750823b1561090d578073ffffffffffffffffffffffffffffffffffffffff197f360894a13ba1a3210667c828492db98dca3e2076cc3735a920a3ca505d382bbc5416177f360894a13ba1a3210667c828492db98dca3e2076cc3735a920a3ca505d382bbc557fbc7cd75a20ee27fd9adebab32041f755214dbc6bffa90cc0225b39da2e5c2d3b5f80a28051156108dc576100c991610c78565b5050346108e557005b7fb398979f000000000000000000000000000000000000000000000000000000005f5260045ffd5b7f4c9c8ce3000000000000000000000000000000000000000000000000000000005f5260045260245ffd5b7faa1d49a4000000000000000000000000000000000000000000000000000000005f5260045260245ffd5b9091506020813d60201161098f575b8161097f60209383610aad565b810103126100cb575190856107e9565b3d9150610972565b90506001600160a01b037f360894a13ba1a3210667c828492db98dca3e2076cc3735a920a3ca505d382bbc541614158361079a565b7f4e487b71000000000000000000000000000000000000000000000000000000005f52604160045260245ffd5b346100cb5760206003193601126100cb57600435907fffffffff0000000000000000000000000000000000000000000000000000000082168092036100cb57817f71703e950000000000000000000000000000000000000000000000000000000060209314908115610a6d575b5015158152f35b7f01ffc9a70000000000000000000000000000000000000000000000000000000091501483610a66565b600435906001600160a01b03821682036100cb57565b90601f601f19910116810190811067ffffffffffffffff8211176109cc57604052565b601f19601f602060409481855280519182918282880152018686015e5f8582860101520116010190565b6001600160a01b03168015610b96576001600160a01b037f9016d09d72d40fdae2fd8ceac6b6234c7706214fd39c1cd1e609a0528c199300548273ffffffffffffffffffffffffffffffffffffffff198216177f9016d09d72d40fdae2fd8ceac6b6234c7706214fd39c1cd1e609a0528c19930055167f8be0079c531659141344cd1fd0a4f28419497f9722a3daafe3b4186f6b6457e05f80a3565b7f1e4fbdf7000000000000000000000000000000000000000000000000000000005f525f60045260245ffd5b6001600160a01b037f9016d09d72d40fdae2fd8ceac6b6234c7706214fd39c1cd1e609a0528c19930054163303610bf557565b7f118cdaa7000000000000000000000000000000000000000000000000000000005f523360045260245ffd5b60ff7ff0c57e16840df040f15088dc2f81fe391c3923bec73e23a9662efc9c229c6a005460401c1615610c5057565b7fd7e6bcf8000000000000000000000000000000000000000000000000000000005f5260045ffd5b905f8091602081519101845af48080610d1f575b15610cac5750506040513d81523d5f602083013e60203d82010160405290565b15610ce6576001600160a01b03907f9996b315000000000000000000000000000000000000000000000000000000005f521660045260245ffd5b3d15610cf7576040513d5f823e3d90fd5b7fd6bda275000000000000000000000000000000000000000000000000000000005f5260045ffd5b503d151580610c8c5750813b1515610c8c56fea26469706673582212207eba52e1e1d772873b591edef630dae751830fe1ebdb5c49bbbc89679dba5bb864736f6c634300081e0033f0c57e16840df040f15088dc2f81fe391c3923bec73e23a9662efc9c229c6a00","linkReferences":{}},"methodIdentifiers":{"UPGRADE_INTERFACE_VERSION()":"ad3cb1cc","addressOf(bytes32)":"bb34534c","initialize(address)":"c4d66de8","owner()":"8da5cb5b","proxiableUUID()":"52d1902d","registry()":"7b103999","renounceOwnership()":"715018a6","setAddress(bytes32,address)":"ca446dd9","supportsInterface(bytes4)":"01ffc9a7","transferOwnership(address)":"f2fde38b","upgradeToAndCall(address,bytes)":"4f1ef286","version()":"54fd4d50"},"storageLayout":{"storage":[{"astId":3267,"contract":"contracts/resolvers/DotnsResolver.sol:DotnsResolver","label":"registry","offset":0,"slot":"0","type":"t_contract(IDotnsRegistry)2947"},{"astId":3272,"contract":"contracts/resolvers/DotnsResolver.sol:DotnsResolver","label":"__gap","offset":0,"slot":"1","type":"t_array(t_uint256)50_storage"},{"astId":3277,"contract":"contracts/resolvers/DotnsResolver.sol:DotnsResolver","label":"addresses","offset":0,"slot":"51","type":"t_mapping(t_bytes32,t_address)"}],"types":{"t_address":{"encoding":"inplace","label":"address","numberOfBytes":"20"},"t_array(t_uint256)50_storage":{"encoding":"inplace","label":"uint256[50]","numberOfBytes":"1600","base":"t_uint256"},"t_bytes32":{"encoding":"inplace","label":"bytes32","numberOfBytes":"32"},"t_contract(IDotnsRegistry)2947":{"encoding":"inplace","label":"contract IDotnsRegistry","numberOfBytes":"20"},"t_mapping(t_bytes32,t_address)":{"encoding":"mapping","key":"t_bytes32","label":"mapping(bytes32 => address)","numberOfBytes":"32","value":"t_address"},"t_uint256":{"encoding":"inplace","label":"uint256","numberOfBytes":"32"}}},"id":10}