{"abi":[{"type":"constructor","inputs":[],"stateMutability":"nonpayable"},{"type":"function","name":"MAX_RESERVATION_TIME","inputs":[],"outputs":[{"name":"","type":"uint256","internalType":"uint256"}],"stateMutability":"view"},{"type":"function","name":"UPGRADE_INTERFACE_VERSION","inputs":[],"outputs":[{"name":"","type":"string","internalType":"string"}],"stateMutability":"view"},{"type":"function","name":"classifyName","inputs":[{"name":"name","type":"string","internalType":"string"}],"outputs":[{"name":"requirement","type":"uint8","internalType":"enum IPopRules.PopStatus"},{"name":"message","type":"string","internalType":"string"}],"stateMutability":"pure"},{"type":"function","name":"getBaseNameReservation","inputs":[{"name":"baseName","type":"string","internalType":"string"}],"outputs":[{"name":"reservationOwner","type":"address","internalType":"address"},{"name":"expiryTimestamp","type":"uint64","internalType":"uint64"}],"stateMutability":"view"},{"type":"function","name":"initialize","inputs":[{"name":"_startingPrice","type":"uint256","internalType":"uint256"},{"name":"registry","type":"address","internalType":"contract IDotnsProtocolRegistry"}],"outputs":[],"stateMutability":"nonpayable"},{"type":"function","name":"isBaseName","inputs":[{"name":"baseName","type":"string","internalType":"string"}],"outputs":[{"name":"isBase","type":"bool","internalType":"bool"}],"stateMutability":"pure"},{"type":"function","name":"isBaseNameReserved","inputs":[{"name":"baseName","type":"string","internalType":"string"}],"outputs":[{"name":"isReserved","type":"bool","internalType":"bool"},{"name":"reservationOwner","type":"address","internalType":"address"},{"name":"expiryTimestamp","type":"uint64","internalType":"uint64"}],"stateMutability":"view"},{"type":"function","name":"owner","inputs":[],"outputs":[{"name":"","type":"address","internalType":"address"}],"stateMutability":"view"},{"type":"function","name":"price","inputs":[{"name":"name","type":"string","internalType":"string"}],"outputs":[{"name":"","type":"uint256","internalType":"uint256"}],"stateMutability":"view"},{"type":"function","name":"priceWithCheck","inputs":[{"name":"name","type":"string","internalType":"string"},{"name":"userAddress","type":"address","internalType":"address"}],"outputs":[{"name":"metadata","type":"tuple","internalType":"struct IPopRules.PriceWithMeta","components":[{"name":"price","type":"uint256","internalType":"uint256"},{"name":"status","type":"uint8","internalType":"enum IPopRules.PopStatus"},{"name":"userStatus","type":"uint8","internalType":"enum IPopRules.PopStatus"},{"name":"message","type":"string","internalType":"string"}]}],"stateMutability":"view"},{"type":"function","name":"priceWithoutCheck","inputs":[{"name":"name","type":"string","internalType":"string"},{"name":"userAddress","type":"address","internalType":"address"}],"outputs":[{"name":"metadata","type":"tuple","internalType":"struct IPopRules.PriceWithMeta","components":[{"name":"price","type":"uint256","internalType":"uint256"},{"name":"status","type":"uint8","internalType":"enum IPopRules.PopStatus"},{"name":"userStatus","type":"uint8","internalType":"enum IPopRules.PopStatus"},{"name":"message","type":"string","internalType":"string"}]}],"stateMutability":"view"},{"type":"function","name":"protocolRegistry","inputs":[],"outputs":[{"name":"","type":"address","internalType":"contract IDotnsProtocolRegistry"}],"stateMutability":"view"},{"type":"function","name":"proxiableUUID","inputs":[],"outputs":[{"name":"","type":"bytes32","internalType":"bytes32"}],"stateMutability":"view"},{"type":"function","name":"reachFee","inputs":[{"name":"name","type":"string","internalType":"string"},{"name":"account","type":"address","internalType":"address"}],"outputs":[{"name":"fee","type":"uint256","internalType":"uint256"}],"stateMutability":"view"},{"type":"function","name":"releaseBaseName","inputs":[{"name":"baseName","type":"string","internalType":"string"}],"outputs":[],"stateMutability":"nonpayable"},{"type":"function","name":"renounceOwnership","inputs":[],"outputs":[],"stateMutability":"nonpayable"},{"type":"function","name":"reservations","inputs":[{"name":"baseName","type":"string","internalType":"string"}],"outputs":[{"name":"owner","type":"address","internalType":"address"},{"name":"expires","type":"uint64","internalType":"uint64"},{"name":"controller","type":"address","internalType":"address"}],"stateMutability":"view"},{"type":"function","name":"reserveBaseName","inputs":[{"name":"name","type":"string","internalType":"string"},{"name":"userAddress","type":"address","internalType":"address"}],"outputs":[],"stateMutability":"nonpayable"},{"type":"function","name":"reserveBaseNameForPop","inputs":[{"name":"baseName","type":"string","internalType":"string"},{"name":"userAddress","type":"address","internalType":"address"}],"outputs":[],"stateMutability":"nonpayable"},{"type":"function","name":"startingPrice","inputs":[],"outputs":[{"name":"","type":"uint256","internalType":"uint256"}],"stateMutability":"view"},{"type":"function","name":"supportsInterface","inputs":[{"name":"interfaceId","type":"bytes4","internalType":"bytes4"}],"outputs":[{"name":"supported","type":"bool","internalType":"bool"}],"stateMutability":"view"},{"type":"function","name":"transferOwnership","inputs":[{"name":"newOwner","type":"address","internalType":"address"}],"outputs":[],"stateMutability":"nonpayable"},{"type":"function","name":"updateStartingPrice","inputs":[{"name":"newStartingPrice","type":"uint256","internalType":"uint256"}],"outputs":[],"stateMutability":"nonpayable"},{"type":"function","name":"upgradeToAndCall","inputs":[{"name":"newImplementation","type":"address","internalType":"address"},{"name":"data","type":"bytes","internalType":"bytes"}],"outputs":[],"stateMutability":"payable"},{"type":"function","name":"version","inputs":[],"outputs":[{"name":"versionString","type":"string","internalType":"string"}],"stateMutability":"pure"},{"type":"event","name":"BaseNameReleased","inputs":[{"name":"baseName","type":"string","indexed":true,"internalType":"string"}],"anonymous":false},{"type":"event","name":"BaseNameReserved","inputs":[{"name":"baseName","type":"string","indexed":true,"internalType":"string"},{"name":"owner","type":"address","indexed":true,"internalType":"address"},{"name":"expires","type":"uint64","indexed":false,"internalType":"uint64"}],"anonymous":false},{"type":"event","name":"Initialized","inputs":[{"name":"version","type":"uint64","indexed":false,"internalType":"uint64"}],"anonymous":false},{"type":"event","name":"OwnershipTransferred","inputs":[{"name":"previousOwner","type":"address","indexed":true,"internalType":"address"},{"name":"newOwner","type":"address","indexed":true,"internalType":"address"}],"anonymous":false},{"type":"event","name":"StartingPriceUpdated","inputs":[{"name":"oldPrice","type":"uint256","indexed":false,"internalType":"uint256"},{"name":"newPrice","type":"uint256","indexed":false,"internalType":"uint256"}],"anonymous":false},{"type":"event","name":"Upgraded","inputs":[{"name":"implementation","type":"address","indexed":true,"internalType":"address"}],"anonymous":false},{"type":"error","name":"AddressEmptyCode","inputs":[{"name":"target","type":"address","internalType":"address"}]},{"type":"error","name":"ERC1967InvalidImplementation","inputs":[{"name":"implementation","type":"address","internalType":"address"}]},{"type":"error","name":"ERC1967NonPayable","inputs":[]},{"type":"error","name":"FailedCall","inputs":[]},{"type":"error","name":"InvalidInitialization","inputs":[]},{"type":"error","name":"NotInitializing","inputs":[]},{"type":"error","name":"NotRegistry","inputs":[]},{"type":"error","name":"OwnableInvalidOwner","inputs":[{"name":"owner","type":"address","internalType":"address"}]},{"type":"error","name":"OwnableUnauthorizedAccount","inputs":[{"name":"account","type":"address","internalType":"address"}]},{"type":"error","name":"PopError","inputs":[{"name":"reason","type":"string","internalType":"string"}]},{"type":"error","name":"UUPSUnauthorizedCallContext","inputs":[]},{"type":"error","name":"UUPSUnsupportedProxiableUUID","inputs":[{"name":"slot","type":"bytes32","internalType":"bytes32"}]}],"bytecode":{"object":"0x60a080604052346100c257306080525f51602061201e5f395f51905f525460ff8160401c166100b3576002600160401b03196001600160401b03821601610060575b604051611f5790816100c78239608051818181610cfe0152610da10152f35b6001600160401b0319166001600160401b039081175f51602061201e5f395f51905f525581527fc7f505b2f371ae2175ee4913f4499e1f2633a7b5936321eed1cdaeb6115181d290602090a15f80610041565b63f92ee8a960e01b5f5260045ffd5b5f80fdfe6080806040526004361015610012575f80fd5b5f3560e01c90816301ffc9a714611364575080632b0282ae146111be5780633017fa331461115657806335696fa714610f36578063453fa0f414610f1d5780634f1ef28614610d5257806352d1902d14610cec57806354fd4d5014610ca557806368e344e914610c885780636bbfce2b14610a39578063715018a6146109d25780637656419f146109aa5780638ac7f0f51461090d5780638da5cb5b146108d95780639180999414610828578063ad3cb1cc146107e1578063b4956ade14610793578063c5c95048146106ff578063d6fbf202146106e3578063da35a26f1461051d578063dbc13dda146103c5578063dcd6257314610248578063f2fde38b1461021d578063f6d3dec2146101805763fe2c61981461012f575f80fd5b3461017c57602036600319011261017c576004356001600160401b03811161017c5761017461016f61016760209336906004016113b7565b80929161177b565b611c08565b604051908152f35b5f80fd5b3461017c57602036600319011261017c5760043561019c611c44565b80156101d7577f0747cfd0d41ccd9050f767151ed72d19992387e6295320adbcb8bd37b84eec3f60405f548151908152836020820152a15f55005b6040516305bf8fb360e31b815260206004820152601c60248201527f5072696365206d7573742062652067726561746572207468616e2030000000006044820152606490fd5b3461017c57602036600319011261017c576102466102396113e4565b610241611c44565b6115ec565b005b3461017c57610256366113fa565b6102619291926115ac565b9161026c848261177b565b6102768482611856565b92909161028282611aec565b60048110156103b157610337966102d5926102c46102d09380155f146103ab576102ab84611c08565b8a526102bb60208b0198896115e0565b60408a016115e0565b606088019687526119f6565b611557565b61031b6040516102e48161146d565b82546001600160a01b0380821680845260a09290921c6001600160401b0316602084015260019094015490931660408201526117e2565b9182610397575b505061033b575b50506040519182918261150e565b0390f35b60405160039261034c60608361149c565b602f82527f42617365206e616d6520726573657276656420666f72206f726967696e616c2060208301526e131a5d19481c9959da5cdd1c985b9d608a1b604083015252528280610329565b6001600160a01b0316141590508580610322565b5f6102ab565b634e487b7160e01b5f52602160045260245ffd5b3461017c57602036600319011261017c576004356001600160401b03811161017c576103f59036906004016113b7565b906103fe61165d565b610408828261177b565b6040518282823760208184810160018152030190206104646040519161042d8361146d565b80546001600160a01b03808216855260a09190911c6001600160401b031660208501526001909101541660408301819052916117e2565b6104bd575b505f60016040518484823760208186810184815203019020828155015581604051928392833781015f81520390207f6ec7cc3dd7f658564fa4443ff7200db64f1eef479f7e2aefae0c716e35502cd45f80a2005b33036104c95782610469565b6040516305bf8fb360e31b815260206004820152602560248201527f4f6e6c7920726573657276696e6720636f6e74726f6c6c65722063616e2072656044820152646c6561736560d81b6064820152608490fd5b3461017c57604036600319011261017c576004356024356001600160a01b0381169081900361017c575f516020611f025f395f51905f52549160ff8360401c1615926001600160401b038116801590816106db575b60011490816106d1575b1590816106c8575b506106b95767ffffffffffffffff1981166001175f516020611f025f395f51905f52558361068d575b506105b6611d0d565b6105be611d0d565b6105c6611d0d565b6105cf336115ec565b6105d7611d0d565b6105df611c44565b80156101d7577f0747cfd0d41ccd9050f767151ed72d19992387e6295320adbcb8bd37b84eec3f60405f548151908152836020820152a15f556bffffffffffffffffffffffff60a01b600254161760025561063657005b68ff0000000000000000195f516020611f025f395f51905f5254165f516020611f025f395f51905f52557fc7f505b2f371ae2175ee4913f4499e1f2633a7b5936321eed1cdaeb6115181d2602060405160018152a1005b68ffffffffffffffffff191668010000000000000001175f516020611f025f395f51905f5255836105ad565b63f92ee8a960e01b5f5260045ffd5b90501585610584565b303b15915061057c565b859150610572565b3461017c575f36600319011261017c5760205f54604051908152f35b3461017c57602036600319011261017c576004356001600160401b03811161017c573660238201121561017c5760208061074560609336906024816004013591016114d8565b604051928184925191829101835e810160018152030190208054906001808060a01b03910154166001600160401b036040519260018060a01b038116845260a01c1660208301526040820152f35b3461017c57602036600319011261017c576004356001600160401b03811161017c576107d86107c860209236906004016113b7565b906107d3828261177b565b611c77565b15604051908152f35b3461017c575f36600319011261017c5761033760405161080260408261149c565b60058152640352e302e360dc1b6020820152604051918291602083526020830190611449565b3461017c57602036600319011261017c576004356001600160401b03811161017c57602061085c60609236906004016113b7565b9190610868838261177b565b82604051938492833781016001815203019020604051906108888261146d565b80546001600160a01b0380821680855260a09290921c6001600160401b031660208501819052600190930154166040840152916108c4906117e2565b91604051921515835260208301526040820152f35b3461017c575f36600319011261017c575f516020611ec25f395f51905f52546040516001600160a01b039091168152602090f35b3461017c57602036600319011261017c576004356001600160401b03811161017c57602061094160409236906004016113b7565b919061094d838261177b565b82845193849283378101600181520301902081519061096b8261146d565b805491836001600160401b0360018060a01b0385169485845260a01c16928360208401526001808060a01b039101541691015282519182526020820152f35b3461017c575f36600319011261017c576002546040516001600160a01b039091168152602090f35b3461017c575f36600319011261017c576109ea611c44565b5f516020611ec25f395f51905f5280546001600160a01b031981169091555f906001600160a01b03167f8be0079c531659141344cd1fd0a4f28419497f9722a3daafe3b4186f6b6457e08280a3005b3461017c57610a47366113fa565b9190610a516115ac565b92610a5c828461177b565b610a696102d083856119f6565b610a786040516102e48161146d565b610c15575b50610a8b82610a9394611856565b939091611aec565b92600484101592836103b15784610c0e57610aad90611c08565b8552610abc82602087016115e0565b610ac984604087016115e0565b80606086015260048210156103b15760038214610be5575060028103610b5a57506103b157600203610b0657610337905b6040519182918261150e565b6040516305bf8fb360e31b815260206004820152602560248201527f52657175697265732046756c6c20506572736f6e686f6f64207665726966696360448201526430ba34b7b760d91b6064820152608490fd5b6001915014610b6e575b5061033790610afa565b60018114908115610bda575b5015610b865781610b64565b6040516305bf8fb360e31b815260206004820152602560248201527f526571756972657320506572736f6e686f6f64204c697465207665726966696360448201526430ba34b7b760d91b6064820152608490fd5b600291501482610b7a565b6040516305bf8fb360e31b815260206004820152908190610c0a906024830190611449565b0390fd5b505f610aad565b6001600160a01b03821603610c2a5784610a7d565b6040516305bf8fb360e31b815260206004820152602f60248201527f42617365206e616d6520726573657276656420666f72206f726967696e616c2060448201526e131a5d19481c9959da5cdd1c985b9d608a1b6064820152608490fd5b3461017c575f36600319011261017c576020604051626ebe008152f35b3461017c575f36600319011261017c57610337604051610cc660408261149c565b60058152640312e302e360dc1b6020820152604051918291602083526020830190611449565b3461017c575f36600319011261017c577f00000000000000000000000000000000000000000000000000000000000000006001600160a01b03163003610d435760206040515f516020611ee25f395f51905f528152f35b63703e46dd60e11b5f5260045ffd5b604036600319011261017c57610d666113e4565b6024356001600160401b03811161017c573660238201121561017c57610d969036906024816004013591016114d8565b906001600160a01b037f000000000000000000000000000000000000000000000000000000000000000016308114908115610efb575b50610d4357610dd9611c44565b6040516352d1902d60e01b81526001600160a01b0382169290602081600481875afa5f9181610ec7575b50610e1b5783634c9c8ce360e01b5f5260045260245ffd5b805f516020611ee25f395f51905f52859203610eb55750823b15610ea3575f516020611ee25f395f51905f5280546001600160a01b031916821790557fbc7cd75a20ee27fd9adebab32041f755214dbc6bffa90cc0225b39da2e5c2d3b5f80a2805115610e8b5761024691611e35565b505034610e9457005b63b398979f60e01b5f5260045ffd5b634c9c8ce360e01b5f5260045260245ffd5b632a87526960e21b5f5260045260245ffd5b9091506020813d602011610ef3575b81610ee36020938361149c565b8101031261017c57519085610e03565b3d9150610ed6565b5f516020611ee25f395f51905f52546001600160a01b03161415905083610dcc565b3461017c576020610174610f30366113fa565b91611576565b3461017c57610f44366113fa565b9190610f4e61165d565b610f58818361177b565b610f628183611856565b5060048110156103b1576001036110f957610f7c916119f6565b604051610fdb825191602081818601948086835e8101600181520301902060405190610fa78261146d565b80546001600160a01b03808216845260a09190911c6001600160401b031660208401526001909101541660408201526117e2565b15610fe257005b626ebe0042018042116110e5577f4d72f477fa240edc1a91eaafd5ec14ee8c94142aa248fafb508ac804c9c5362d916001600160401b0360209216936040519561102b8761146d565b60018060a01b0316958681526001848201878152604083019033825260405187818751808a835e81018681520301902093518454915167ffffffffffffffff60a01b60a091821b166001600160e01b03199093169085901b85900391821667ffffffffffffffff60a01b1916179190911784559051929091018054929091166001600160a01b03166001600160a01b0319909216919091179055604051905190918291908190835e81015f815203902092604051908152a3005b634e487b7160e01b5f52601160045260245ffd5b6040516305bf8fb360e31b815260206004820152602e60248201527f42617365207265736572766174696f6e2072657175697265732061206c69746560448201526d2d656c696769626c65206e616d6560901b6064820152608490fd5b3461017c57602036600319011261017c576004356001600160401b03811161017c5761033761119f61118f6111ad9336906004016113b7565b9061119a828261177b565b611856565b60405193849392849061143c565b604060208401526040830190611449565b3461017c576111cc366113fa565b91906111d661165d565b6111e0818361177b565b6040518183823760208183810160018152030190206112046040516102e48161146d565b611309575b50626ebe0042018042116110e5577f4d72f477fa240edc1a91eaafd5ec14ee8c94142aa248fafb508ac804c9c5362d916001600160401b036020921693604051956112538761146d565b60018060a01b03169586815260018482018781526040830190338252604051868682378087018481528190038801902093518454915167ffffffffffffffff60a01b60a091821b166001600160e01b03199093169085901b85900391821667ffffffffffffffff60a01b1916179190911784559051929091018054929091166001600160a01b03166001600160a01b03199092169190911790556040519182918190833781015f815203902092604051908152a3005b6001600160a01b0384160361131e5783611209565b6040516305bf8fb360e31b815260206004820152601e60248201527f42617365206e616d652068656c6420627920616e6f74686572207573657200006044820152606490fd5b3461017c57602036600319011261017c576004359063ffffffff60e01b821680920361017c5760209163a0c6dda960e01b81149081156113a6575b5015158152f35b6301ffc9a760e01b1490508361139f565b9181601f8401121561017c578235916001600160401b03831161017c576020838186019501011161017c57565b600435906001600160a01b038216820361017c57565b604060031982011261017c57600435906001600160401b03821161017c57611424916004016113b7565b90916024356001600160a01b038116810361017c5790565b9060048210156103b15752565b805180835260209291819084018484015e5f828201840152601f01601f1916010190565b606081019081106001600160401b0382111761148857604052565b634e487b7160e01b5f52604160045260245ffd5b90601f801991011681019081106001600160401b0382111761148857604052565b6001600160401b03811161148857601f01601f191660200190565b9291926114e4826114bd565b916114f2604051938461149c565b82948184528183011161017c578281602093845f960137010152565b60a060606115549360208452805160208501526115336020820151604086019061143c565b61154460408201518386019061143c565b0151916080808201520190611449565b90565b60208091604051928184925191829101835e8101600181520301902090565b9161159461158d8361159a949561119a828261177b565b5091611aec565b90611bba565b6115a75761155490611c08565b505f90565b60405190608082018281106001600160401b0382111761148857604052606080835f81525f60208201525f60408201520152565b60048210156103b15752565b6001600160a01b0316801561164a575f516020611ec25f395f51905f5280546001600160a01b0319811683179091556001600160a01b03167f8be0079c531659141344cd1fd0a4f28419497f9722a3daafe3b4186f6b6457e05f80a3565b631e4fbdf760e01b5f525f60045260245ffd5b60025460405163023aa9ab60e61b8152683932b3b4b9ba3930b960b91b600482015290602090829060249082906001600160a01b03165afa90811561172d575f91611738575b50604051636d46114f60e11b815233600482015290602090829060249082906001600160a01b03165afa90811561172d575f916116f2575b50156116e357565b633217675b60e21b5f5260045ffd5b90506020813d602011611725575b8161170d6020938361149c565b8101031261017c5751801515810361017c575f6116db565b3d9150611700565b6040513d5f823e3d90fd5b90506020813d602011611773575b816117536020938361149c565b8101031261017c57516001600160a01b038116810361017c5760206116a3565b3d9150611746565b908061178692611d38565b1561178d57565b6040516305bf8fb360e31b815260206004820152602660248201527f4e616d65206d757374206265206c6f7765726361736520415343494920444e53604482015265081b1858995b60d21b6064820152608490fd5b80516001600160a01b0316151590816117f9575090565b6001600160401b0391506020015116421090565b6040519061181c60608361149c565b602582526430ba34b7b760d91b6040837f52657175697265732046756c6c20706572736f6e686f6f64207665726966696360208201520152565b8161186091611c77565b60028111611978578082039182116110e5576005821115611938578160066002931015908161192c575b506118cf571461189f5760029061155461180d565b5f906040516118af60408261149c565b601081526f105d985a5b18589b19481d1bc8185b1b60821b602082015290565b146118df5760029061155461180d565b6001906040516118f060608261149c565b602681527f5265717569726573204c6967687420706572736f6e686f6f642076657269666960208201526531b0ba34b7b760d11b604082015290565b6008915011155f61188a565b505060039060405161194b60408261149c565b601781527f526573657276656420666f7220476f7665726e616e6365000000000000000000602082015290565b6040516305bf8fb360e31b8152602060048201526024808201527f4e616d652063616e2068617665206d6178696d756d20322064696769742073756044820152630ccccd2f60e31b6064820152608490fd5b908210156119d6570190565b634e487b7160e01b5f52603260045260245ffd5b80156110e5575f190190565b90805b80151580611abc575b80611a8c575b15611a1b57611a16906119ea565b6119f9565b9091611a26826114bd565b92611a34604051948561149c565b828452601f19611a43846114bd565b013660208601375f5b838110611a5a575050505090565b6001600160f81b0319611a6e8284866119ca565b35165f1a9085518110156119d6576001916020828801015301611a4c565b505f1981018181116110e557603960f81b906001600160f81b031990611ab39085876119ca565b35161115611a08565b505f1981018181116110e557600360fc1b906001600160f81b031990611ae39085876119ca565b35161015611a02565b6040805163886af13360e01b81526001600160a01b03909216600483015264646f746e7360d81b602483015281604481630a0100005afa801561172d575f90611b54575b60ff9150511660028114611b4e57600114611b49575f90565b600190565b50600290565b506040813d604011611bb2575b81611b6e6040938361149c565b8101031261017c57604051604081018181106001600160401b0382111761148857604052815160ff8116810361017c5760ff92602091835201516020820152611b30565b3d9150611b61565b60048110156103b15760028114611bf857600114611bd85750600190565b60048110156103b15760018114908115611bf0575090565b600291501490565b5060048110156103b15760021490565b600981106115a757600f811015611c3b575f5490600f0390600f82116110e5578181029181830414901517156110e55790565b505f5460011c90565b5f516020611ec25f395f51905f52546001600160a01b03163303611c6457565b63118cdaa760e01b5f523360045260245ffd5b5f9291908190815b611c8857505050565b909291935f1985018581116110e557600360fc1b6001600160f81b0319611cb08388876119ca565b351610159081611ce7575b5015611cdf575f1981146110e5576001611cd69101946119ea565b91929082611c7f565b935090915050565b603960f81b91506001600160f81b031990611d039087866119ca565b351611155f611cbb565b60ff5f516020611f025f395f51905f525460401c1615611d2957565b631afcd79f60e31b5f5260045ffd5b908215611dff5780156119d65781356001600160f81b031916602d60f81b148015611e06575b611dff575f5b838110611d745750505050600190565b6001600160f81b0319611d888284866119ca565b3516606160f81b8110159081611df0575b600360fc1b81101580611de2575b8215611dda575b508115611dcc575b5015611dc457600101611d64565b505050505f90565b602d60f81b1490505f611db6565b91505f611dae565b50603960f81b811115611da7565b603d60f91b8111159150611d99565b5050505f90565b505f1983018381116110e557602d60f81b906001600160f81b031990611e2d9084866119ca565b351614611d5e565b905f8091602081519101845af48080611eae575b15611e695750506040513d81523d5f602083013e60203d82010160405290565b15611e8e57639996b31560e01b5f9081526001600160a01b0391909116600452602490fd5b3d15611e9f576040513d5f823e3d90fd5b63d6bda27560e01b5f5260045ffd5b503d151580611e495750813b1515611e4956fe9016d09d72d40fdae2fd8ceac6b6234c7706214fd39c1cd1e609a0528c199300360894a13ba1a3210667c828492db98dca3e2076cc3735a920a3ca505d382bbcf0c57e16840df040f15088dc2f81fe391c3923bec73e23a9662efc9c229c6a00a26469706673582212203bb05b17ebd03e61457d78bd4b4821d2da326b08f0c17dd203cd8c9dd922de0e64736f6c63430008220033f0c57e16840df040f15088dc2f81fe391c3923bec73e23a9662efc9c229c6a00","linkReferences":{}},"methodIdentifiers":{"MAX_RESERVATION_TIME()":"68e344e9","UPGRADE_INTERFACE_VERSION()":"ad3cb1cc","classifyName(string)":"3017fa33","getBaseNameReservation(string)":"8ac7f0f5","initialize(uint256,address)":"da35a26f","isBaseName(string)":"b4956ade","isBaseNameReserved(string)":"91809994","owner()":"8da5cb5b","price(string)":"fe2c6198","priceWithCheck(string,address)":"6bbfce2b","priceWithoutCheck(string,address)":"dcd62573","protocolRegistry()":"7656419f","proxiableUUID()":"52d1902d","reachFee(string,address)":"453fa0f4","releaseBaseName(string)":"dbc13dda","renounceOwnership()":"715018a6","reservations(string)":"c5c95048","reserveBaseName(string,address)":"35696fa7","reserveBaseNameForPop(string,address)":"2b0282ae","startingPrice()":"d6fbf202","supportsInterface(bytes4)":"01ffc9a7","transferOwnership(address)":"f2fde38b","updateStartingPrice(uint256)":"f6d3dec2","upgradeToAndCall(address,bytes)":"4f1ef286","version()":"54fd4d50"},"storageLayout":{"storage":[{"astId":2235,"contract":"contracts/pop/PopRules.sol:PopRules","label":"startingPrice","offset":0,"slot":"0","type":"t_uint256"},{"astId":2241,"contract":"contracts/pop/PopRules.sol:PopRules","label":"reservations","offset":0,"slot":"1","type":"t_mapping(t_string_memory_ptr,t_struct(Reservation)2080_storage)"},{"astId":2249,"contract":"contracts/pop/PopRules.sol:PopRules","label":"protocolRegistry","offset":0,"slot":"2","type":"t_contract(IDotnsProtocolRegistry)8949"},{"astId":2253,"contract":"contracts/pop/PopRules.sol:PopRules","label":"__gap","offset":0,"slot":"3","type":"t_array(t_uint256)50_storage"}],"types":{"t_address":{"encoding":"inplace","label":"address","numberOfBytes":"20"},"t_array(t_uint256)50_storage":{"encoding":"inplace","label":"uint256[50]","numberOfBytes":"1600","base":"t_uint256"},"t_contract(IDotnsProtocolRegistry)8949":{"encoding":"inplace","label":"contract IDotnsProtocolRegistry","numberOfBytes":"20"},"t_mapping(t_string_memory_ptr,t_struct(Reservation)2080_storage)":{"encoding":"mapping","key":"t_string_memory_ptr","label":"mapping(string => struct IPopRules.Reservation)","numberOfBytes":"32","value":"t_struct(Reservation)2080_storage"},"t_string_memory_ptr":{"encoding":"bytes","label":"string","numberOfBytes":"32"},"t_struct(Reservation)2080_storage":{"encoding":"inplace","label":"struct IPopRules.Reservation","numberOfBytes":"64","members":[{"astId":2075,"contract":"contracts/pop/PopRules.sol:PopRules","label":"owner","offset":0,"slot":"0","type":"t_address"},{"astId":2077,"contract":"contracts/pop/PopRules.sol:PopRules","label":"expires","offset":20,"slot":"0","type":"t_uint64"},{"astId":2079,"contract":"contracts/pop/PopRules.sol:PopRules","label":"controller","offset":0,"slot":"1","type":"t_address"}]},"t_uint256":{"encoding":"inplace","label":"uint256","numberOfBytes":"32"},"t_uint64":{"encoding":"inplace","label":"uint64","numberOfBytes":"8"}}},"id":7}