{
  "abi": [
    {
      "type": "constructor",
      "inputs": [],
      "stateMutability": "nonpayable"
    },
    {
      "type": "function",
      "name": "UPGRADE_INTERFACE_VERSION",
      "inputs": [],
      "outputs": [
        {
          "name": "",
          "type": "string",
          "internalType": "string"
        }
      ],
      "stateMutability": "view"
    },
    {
      "type": "function",
      "name": "initialize",
      "inputs": [
        {
          "name": "_reverseResolver",
          "type": "address",
          "internalType": "contract IDotnsReverseResolver"
        }
      ],
      "outputs": [],
      "stateMutability": "nonpayable"
    },
    {
      "type": "function",
      "name": "owner",
      "inputs": [
        {
          "name": "node",
          "type": "bytes32",
          "internalType": "bytes32"
        }
      ],
      "outputs": [
        {
          "name": "",
          "type": "address",
          "internalType": "address"
        }
      ],
      "stateMutability": "view"
    },
    {
      "type": "function",
      "name": "owner",
      "inputs": [],
      "outputs": [
        {
          "name": "",
          "type": "address",
          "internalType": "address"
        }
      ],
      "stateMutability": "view"
    },
    {
      "type": "function",
      "name": "proxiableUUID",
      "inputs": [],
      "outputs": [
        {
          "name": "",
          "type": "bytes32",
          "internalType": "bytes32"
        }
      ],
      "stateMutability": "view"
    },
    {
      "type": "function",
      "name": "recordExists",
      "inputs": [
        {
          "name": "node",
          "type": "bytes32",
          "internalType": "bytes32"
        }
      ],
      "outputs": [
        {
          "name": "",
          "type": "bool",
          "internalType": "bool"
        }
      ],
      "stateMutability": "view"
    },
    {
      "type": "function",
      "name": "registrarController",
      "inputs": [],
      "outputs": [
        {
          "name": "",
          "type": "address",
          "internalType": "contract IDotnsRegistrarController"
        }
      ],
      "stateMutability": "view"
    },
    {
      "type": "function",
      "name": "renounceOwnership",
      "inputs": [],
      "outputs": [],
      "stateMutability": "nonpayable"
    },
    {
      "type": "function",
      "name": "resolver",
      "inputs": [
        {
          "name": "node",
          "type": "bytes32",
          "internalType": "bytes32"
        }
      ],
      "outputs": [
        {
          "name": "",
          "type": "address",
          "internalType": "address"
        }
      ],
      "stateMutability": "view"
    },
    {
      "type": "function",
      "name": "reverseResolver",
      "inputs": [],
      "outputs": [
        {
          "name": "",
          "type": "address",
          "internalType": "contract IDotnsReverseResolver"
        }
      ],
      "stateMutability": "view"
    },
    {
      "type": "function",
      "name": "setOwner",
      "inputs": [
        {
          "name": "node",
          "type": "bytes32",
          "internalType": "bytes32"
        },
        {
          "name": "newOwner",
          "type": "address",
          "internalType": "address"
        },
        {
          "name": "resolverAddr",
          "type": "address",
          "internalType": "address"
        }
      ],
      "outputs": [],
      "stateMutability": "nonpayable"
    },
    {
      "type": "function",
      "name": "setResolver",
      "inputs": [
        {
          "name": "node",
          "type": "bytes32",
          "internalType": "bytes32"
        },
        {
          "name": "newResolver",
          "type": "address",
          "internalType": "address"
        }
      ],
      "outputs": [],
      "stateMutability": "nonpayable"
    },
    {
      "type": "function",
      "name": "setSubnodeOwner",
      "inputs": [
        {
          "name": "record",
          "type": "tuple",
          "internalType": "struct IDotnsRegistry.SubnodeRecord",
          "components": [
            {
              "name": "parentNode",
              "type": "bytes32",
              "internalType": "bytes32"
            },
            {
              "name": "subLabel",
              "type": "string",
              "internalType": "string"
            },
            {
              "name": "parentLabel",
              "type": "string",
              "internalType": "string"
            },
            {
              "name": "owner",
              "type": "address",
              "internalType": "address"
            }
          ]
        }
      ],
      "outputs": [
        {
          "name": "subnode",
          "type": "bytes32",
          "internalType": "bytes32"
        }
      ],
      "stateMutability": "nonpayable"
    },
    {
      "type": "function",
      "name": "transferOwnership",
      "inputs": [
        {
          "name": "newOwner",
          "type": "address",
          "internalType": "address"
        }
      ],
      "outputs": [],
      "stateMutability": "nonpayable"
    },
    {
      "type": "function",
      "name": "updateRegistrarController",
      "inputs": [
        {
          "name": "newRegistrarController",
          "type": "address",
          "internalType": "contract IDotnsRegistrarController"
        }
      ],
      "outputs": [],
      "stateMutability": "nonpayable"
    },
    {
      "type": "function",
      "name": "upgradeToAndCall",
      "inputs": [
        {
          "name": "newImplementation",
          "type": "address",
          "internalType": "address"
        },
        {
          "name": "data",
          "type": "bytes",
          "internalType": "bytes"
        }
      ],
      "outputs": [],
      "stateMutability": "payable"
    },
    {
      "type": "function",
      "name": "version",
      "inputs": [],
      "outputs": [
        {
          "name": "versionString",
          "type": "string",
          "internalType": "string"
        }
      ],
      "stateMutability": "pure"
    },
    {
      "type": "event",
      "name": "Initialized",
      "inputs": [
        {
          "name": "version",
          "type": "uint64",
          "indexed": false,
          "internalType": "uint64"
        }
      ],
      "anonymous": false
    },
    {
      "type": "event",
      "name": "NewOwner",
      "inputs": [
        {
          "name": "node",
          "type": "bytes32",
          "indexed": true,
          "internalType": "bytes32"
        },
        {
          "name": "label",
          "type": "bytes32",
          "indexed": true,
          "internalType": "bytes32"
        },
        {
          "name": "owner",
          "type": "address",
          "indexed": false,
          "internalType": "address"
        }
      ],
      "anonymous": false
    },
    {
      "type": "event",
      "name": "NewResolver",
      "inputs": [
        {
          "name": "node",
          "type": "bytes32",
          "indexed": true,
          "internalType": "bytes32"
        },
        {
          "name": "resolver",
          "type": "address",
          "indexed": false,
          "internalType": "address"
        }
      ],
      "anonymous": false
    },
    {
      "type": "event",
      "name": "NodeTransferred",
      "inputs": [
        {
          "name": "node",
          "type": "bytes32",
          "indexed": true,
          "internalType": "bytes32"
        },
        {
          "name": "owner",
          "type": "address",
          "indexed": false,
          "internalType": "address"
        }
      ],
      "anonymous": false
    },
    {
      "type": "event",
      "name": "OwnershipTransferred",
      "inputs": [
        {
          "name": "previousOwner",
          "type": "address",
          "indexed": true,
          "internalType": "address"
        },
        {
          "name": "newOwner",
          "type": "address",
          "indexed": true,
          "internalType": "address"
        }
      ],
      "anonymous": false
    },
    {
      "type": "event",
      "name": "RegistrarControllerUpdated",
      "inputs": [
        {
          "name": "oldRegistrarController",
          "type": "address",
          "indexed": true,
          "internalType": "contract IDotnsRegistrarController"
        },
        {
          "name": "newRegistrarController",
          "type": "address",
          "indexed": true,
          "internalType": "contract IDotnsRegistrarController"
        }
      ],
      "anonymous": false
    },
    {
      "type": "event",
      "name": "Upgraded",
      "inputs": [
        {
          "name": "implementation",
          "type": "address",
          "indexed": true,
          "internalType": "address"
        }
      ],
      "anonymous": false
    },
    {
      "type": "error",
      "name": "AddressEmptyCode",
      "inputs": [
        {
          "name": "target",
          "type": "address",
          "internalType": "address"
        }
      ]
    },
    {
      "type": "error",
      "name": "ERC1967InvalidImplementation",
      "inputs": [
        {
          "name": "implementation",
          "type": "address",
          "internalType": "address"
        }
      ]
    },
    {
      "type": "error",
      "name": "ERC1967NonPayable",
      "inputs": []
    },
    {
      "type": "error",
      "name": "FailedCall",
      "inputs": []
    },
    {
      "type": "error",
      "name": "InvalidInitialization",
      "inputs": []
    },
    {
      "type": "error",
      "name": "NodeAlreadyExists",
      "inputs": [
        {
          "name": "subnode",
          "type": "bytes32",
          "internalType": "bytes32"
        }
      ]
    },
    {
      "type": "error",
      "name": "NodeAlreadyOwned",
      "inputs": [
        {
          "name": "node",
          "type": "bytes32",
          "internalType": "bytes32"
        }
      ]
    },
    {
      "type": "error",
      "name": "NotAllowed",
      "inputs": []
    },
    {
      "type": "error",
      "name": "NotAuthorised",
      "inputs": []
    },
    {
      "type": "error",
      "name": "NotInitializing",
      "inputs": []
    },
    {
      "type": "error",
      "name": "NotRegistryController",
      "inputs": []
    },
    {
      "type": "error",
      "name": "OwnableInvalidOwner",
      "inputs": [
        {
          "name": "owner",
          "type": "address",
          "internalType": "address"
        }
      ]
    },
    {
      "type": "error",
      "name": "OwnableUnauthorizedAccount",
      "inputs": [
        {
          "name": "account",
          "type": "address",
          "internalType": "address"
        }
      ]
    },
    {
      "type": "error",
      "name": "UUPSUnauthorizedCallContext",
      "inputs": []
    },
    {
      "type": "error",
      "name": "UUPSUnsupportedProxiableUUID",
      "inputs": [
        {
          "name": "slot",
          "type": "bytes32",
          "internalType": "bytes32"
        }
      ]
    }
  ],
  "bytecode": {
    "object": "0x60a080604052346100c257306080525f51602061152d5f395f51905f525460ff8160401c166100b3576002600160401b03196001600160401b03821601610060575b60405161146690816100c7823960805181818161034d0152610c770152f35b6001600160401b0319166001600160401b039081175f51602061152d5f395f51905f525581527fc7f505b2f371ae2175ee4913f4499e1f2633a7b5936321eed1cdaeb6115181d290602090a15f80610041565b63f92ee8a960e01b5f5260045ffd5b5f80fdfe60806040526004361015610011575f80fd5b5f3560e01c80630178b8bf1461012457806302571be31461011f5780631896f70a1461011a5780634f1ef2861461011557806352d1902d1461011057806354fd4d501461010b57806355de9e381461010657806361738a901461010157806364609517146100fc578063715018a6146100f75780638da5cb5b146100f2578063ad3cb1cc146100ed578063bef42f3c146100e8578063c4d66de8146100e3578063f2fde38b146100de578063f79fe538146100d95763f9cd32c5146100d4575f80fd5b610c45565b610c11565b610be4565b6109b2565b6107b3565b61075c565b610717565b610680565b61065a565b6104c5565b61044a565b6103ef565b610333565b6102ac565b6101a0565b61015d565b34610159576020600319360112610159576004355f525f60205260206001600160a01b03600160405f20015416604051908152f35b5f80fd5b34610159576020600319360112610159576004355f525f60205260206001600160a01b0360405f205416604051908152f35b6001600160a01b0381160361015957565b34610159576040600319360112610159576004357f335721b01866dc23fbee8b6b2c7b1e14d6f05c28cd35a2c934239f94095602a060206024356101e38161018f565b6101ec84611194565b835f525f825261021881600160405f2001906001600160a01b03166001600160a01b0319825416179055565b6001600160a01b0360405191168152a2005b7f4e487b71000000000000000000000000000000000000000000000000000000005f52604160045260245ffd5b90601f601f19910116810190811067ffffffffffffffff82111761027a57604052565b61022a565b6040519061028e606083610257565b565b67ffffffffffffffff811161027a57601f01601f191660200190565b6040600319360112610159576004356102c48161018f565b6024359067ffffffffffffffff82116101595736602383011215610159578160040135906102f182610290565b916102ff6040519384610257565b8083523660248286010111610159576020815f92602461032797018387013784010152610c6b565b005b5f91031261015957565b34610159575f600319360112610159576001600160a01b037f000000000000000000000000000000000000000000000000000000000000000016300361039d5760206040517f360894a13ba1a3210667c828492db98dca3e2076cc3735a920a3ca505d382bbc8152f35b7fe07c8dba000000000000000000000000000000000000000000000000000000005f5260045ffd5b601f19601f602060409481855280519182918282880152018686015e5f8582860101520116010190565b34610159575f60031936011261015957610446604051610410604082610257565b600581527f312e302e300000000000000000000000000000000000000000000000000000006020820152604051918291826103c5565b0390f35b34610159576020600319360112610159576001600160a01b0360043561046f8161018f565b6104776111c1565b16610483811515610df1565b6001600160a01b0319600154826001600160a01b0382167f879a6313220e84781223605c43cd05357d5617bacb3dbdd9643e08901c4400915f80a31617600155005b34610159576060600319360112610159576004356024356104e58161018f565b6044356104f18161018f565b6105076001600160a01b03600154163314611165565b6001600160a01b03821615610632577fa5ff845b75dfe7d5e35676ce0c05f1353fc610ccc698a00ec24bc1eccc2c9ba8916105bd61062d92855f525f60205261055e8660ff600160405f20015460a01c1615610e20565b61058e83610573885f525f60205260405f2090565b906001600160a01b03166001600160a01b0319825416179055565b60016105a1875f525f60205260405f2090565b01906001600160a01b03166001600160a01b0319825416179055565b61061360016105d3865f525f60205260405f2090565b01740100000000000000000000000000000000000000007fffffffffffffffffffffff00ffffffffffffffffffffffffffffffffffffffff825416179055565b6040516001600160a01b0390911681529081906020820190565b0390a2005b7f2a027fc9000000000000000000000000000000000000000000000000000000005f5260045ffd5b34610159575f6003193601126101595760206001600160a01b0360025416604051908152f35b34610159575f600319360112610159576106986111c1565b5f6001600160a01b037f9016d09d72d40fdae2fd8ceac6b6234c7706214fd39c1cd1e609a0528c199300546001600160a01b031981167f9016d09d72d40fdae2fd8ceac6b6234c7706214fd39c1cd1e609a0528c19930055167f8be0079c531659141344cd1fd0a4f28419497f9722a3daafe3b4186f6b6457e08280a3005b34610159575f6003193601126101595760206001600160a01b037f9016d09d72d40fdae2fd8ceac6b6234c7706214fd39c1cd1e609a0528c1993005416604051908152f35b34610159575f6003193601126101595761044660405161077d604082610257565b600581527f352e302e300000000000000000000000000000000000000000000000000000006020820152604051918291826103c5565b346101595760206003193601126101595760043567ffffffffffffffff81116101595780600401608060031983360301126101595780356107f381611194565b610820602461080460648601610e53565b946108196001600160a01b0387161515610df1565b0183610e60565b9081604051918237209060408051828152836020820152209261086a846108656108616001610856845f525f60205260405f2090565b015460a01c60ff1690565b1590565b610e93565b6108d361088e6108826002546001600160a01b031690565b6001600160a01b031690565b6108b661089961027f565b6001600160a01b0389168152916001600160a01b03166020830152565b600160408201526108ce865f525f60205260405f2090565b610ec6565b6108e86108826001546001600160a01b031690565b803b156101595761092c5f929183926040519485809481937facd810f700000000000000000000000000000000000000000000000000000000835260048301610fbe565b03925af180156109ad57610446957fce0457fe73731f824cc272376169235128c118b49d344817417c6d108d155e829261098092610993575b506040516001600160a01b0390911681529081906020820190565b0390a36040519081529081906020820190565b806109a15f6109a793610257565b80610329565b5f610965565b611029565b34610159576020600319360112610159576004356109cf8161018f565b7ff0c57e16840df040f15088dc2f81fe391c3923bec73e23a9662efc9c229c6a00549067ffffffffffffffff610a1560ff604085901c16159367ffffffffffffffff1690565b1680159081610bdc575b6001149081610bd2575b159081610bc9575b50610ba157610ab29082610aa960017fffffffffffffffffffffffffffffffffffffffffffffffff00000000000000007ff0c57e16840df040f15088dc2f81fe391c3923bec73e23a9662efc9c229c6a005416177ff0c57e16840df040f15088dc2f81fe391c3923bec73e23a9662efc9c229c6a0055565b610b3c57611034565b610ab857005b610b0d68ff0000000000000000197ff0c57e16840df040f15088dc2f81fe391c3923bec73e23a9662efc9c229c6a0054167ff0c57e16840df040f15088dc2f81fe391c3923bec73e23a9662efc9c229c6a0055565b604051600181527fc7f505b2f371ae2175ee4913f4499e1f2633a7b5936321eed1cdaeb6115181d290602090a1005b610b9c6801000000000000000068ff0000000000000000197ff0c57e16840df040f15088dc2f81fe391c3923bec73e23a9662efc9c229c6a005416177ff0c57e16840df040f15088dc2f81fe391c3923bec73e23a9662efc9c229c6a0055565b611034565b7ff92ee8a9000000000000000000000000000000000000000000000000000000005f5260045ffd5b9050155f610a31565b303b159150610a29565b839150610a1f565b3461015957602060031936011261015957610327600435610c048161018f565b610c0c6111c1565b6110aa565b34610159576020600319360112610159576004355f525f602052602060ff600160405f20015460a01c166040519015158152f35b34610159575f6003193601126101595760206001600160a01b0360015416604051908152f35b90916001600160a01b037f000000000000000000000000000000000000000000000000000000000000000016803014908115610dbc575b5061039d57610caf6111c1565b604051927f52d1902d0000000000000000000000000000000000000000000000000000000084526020846004816001600160a01b0387165afa5f9481610d8b575b50610d2a577f4c9c8ce3000000000000000000000000000000000000000000000000000000005f526001600160a01b03831660045260245ffd5b90917f360894a13ba1a3210667c828492db98dca3e2076cc3735a920a3ca505d382bbc8403610d5e5761028e929350611220565b7faa1d49a4000000000000000000000000000000000000000000000000000000005f52600484905260245ffd5b610dae91955060203d602011610db5575b610da68183610257565b8101906111b2565b935f610cf0565b503d610d9c565b90506001600160a01b037f360894a13ba1a3210667c828492db98dca3e2076cc3735a920a3ca505d382bbc541614155f610ca2565b15610df857565b7f3d693ada000000000000000000000000000000000000000000000000000000005f5260045ffd5b15610e285750565b7fb17b6ae8000000000000000000000000000000000000000000000000000000005f5260045260245ffd5b35610e5d8161018f565b90565b903590601e1981360301821215610159570180359067ffffffffffffffff82116101595760200191813603831361015957565b15610e9b5750565b7f54618483000000000000000000000000000000000000000000000000000000005f5260045260245ffd5b6001604091610ef56001600160a01b0385511682906001600160a01b03166001600160a01b0319825416179055565b0191610f246001600160a01b0360208301511684906001600160a01b03166001600160a01b0319825416179055565b015181547fffffffffffffffffffffff00ffffffffffffffffffffffffffffffffffffffff1690151560a01b74ff000000000000000000000000000000000000000016179055565b9035601e198236030181121561015957016020813591019167ffffffffffffffff821161015957813603831361015957565b601f8260209493601f1993818652868601375f8582860101520116010190565b602081528135602082015260806001600160a01b036060611016610ff8610fe86020880188610f6c565b86604089015260a0880191610f9e565b6110056040880188610f6c565b90601f198884030185890152610f9e565b9401356110228161018f565b1691015290565b6040513d5f823e3d90fd5b6001600160a01b039061104561131f565b61104d61131f565b611056336110aa565b166001600160a01b03196002541617600255604051606081019080821067ffffffffffffffff83111761027a5761028e916040523381525f6020820152600160408201525f80525f60205260405f20610ec6565b6001600160a01b03168015611139576001600160a01b037f9016d09d72d40fdae2fd8ceac6b6234c7706214fd39c1cd1e609a0528c19930054826001600160a01b03198216177f9016d09d72d40fdae2fd8ceac6b6234c7706214fd39c1cd1e609a0528c19930055167f8be0079c531659141344cd1fd0a4f28419497f9722a3daafe3b4186f6b6457e05f80a3565b7f1e4fbdf7000000000000000000000000000000000000000000000000000000005f525f60045260245ffd5b1561116c57565b7f1648fd01000000000000000000000000000000000000000000000000000000005f5260045ffd5b5f525f60205261028e6001600160a01b0360405f2054163314611165565b90816020910312610159575190565b6001600160a01b037f9016d09d72d40fdae2fd8ceac6b6234c7706214fd39c1cd1e609a0528c199300541633036111f457565b7f118cdaa7000000000000000000000000000000000000000000000000000000005f523360045260245ffd5b90813b156112ea576001600160a01b038216806001600160a01b03197f360894a13ba1a3210667c828492db98dca3e2076cc3735a920a3ca505d382bbc5416177f360894a13ba1a3210667c828492db98dca3e2076cc3735a920a3ca505d382bbc557fbc7cd75a20ee27fd9adebab32041f755214dbc6bffa90cc0225b39da2e5c2d3b5f80a28051156112b9576112b691611376565b50565b5050346112c257565b7fb398979f000000000000000000000000000000000000000000000000000000005f5260045ffd5b6001600160a01b03827f4c9c8ce3000000000000000000000000000000000000000000000000000000005f521660045260245ffd5b60ff7ff0c57e16840df040f15088dc2f81fe391c3923bec73e23a9662efc9c229c6a005460401c161561134e57565b7fd7e6bcf8000000000000000000000000000000000000000000000000000000005f5260045ffd5b905f8091602081519101845af48080611404575b15611399575050610e5d611417565b156113d3576001600160a01b03907f9996b315000000000000000000000000000000000000000000000000000000005f521660045260245ffd5b3d15155f03611029577fd6bda275000000000000000000000000000000000000000000000000000000005f5260045ffd5b503d15158061138a5750813b151561138a565b604051903d82523d5f602084013e60203d83010160405256fea2646970667358221220d649e3b650359352b218ce63141b40b1d77264dc71ca1843826c88825126f7ba64736f6c634300081e0033f0c57e16840df040f15088dc2f81fe391c3923bec73e23a9662efc9c229c6a00",
    "linkReferences": {}
  },
  "methodIdentifiers": {
    "UPGRADE_INTERFACE_VERSION()": "ad3cb1cc",
    "initialize(address)": "c4d66de8",
    "owner()": "8da5cb5b",
    "owner(bytes32)": "02571be3",
    "proxiableUUID()": "52d1902d",
    "recordExists(bytes32)": "f79fe538",
    "registrarController()": "f9cd32c5",
    "renounceOwnership()": "715018a6",
    "resolver(bytes32)": "0178b8bf",
    "reverseResolver()": "64609517",
    "setOwner(bytes32,address,address)": "61738a90",
    "setResolver(bytes32,address)": "1896f70a",
    "setSubnodeOwner((bytes32,string,string,address))": "bef42f3c",
    "transferOwnership(address)": "f2fde38b",
    "updateRegistrarController(address)": "55de9e38",
    "upgradeToAndCall(address,bytes)": "4f1ef286",
    "version()": "54fd4d50"
  },
  "storageLayout": {
    "storage": [
      {
        "astId": 2433,
        "contract": "contracts/registry/DotnsRegistry.sol:DotnsRegistry",
        "label": "records",
        "offset": 0,
        "slot": "0",
        "type": "t_mapping(t_bytes32,t_struct(Record)2837_storage)"
      },
      {
        "astId": 2437,
        "contract": "contracts/registry/DotnsRegistry.sol:DotnsRegistry",
        "label": "registrarController",
        "offset": 0,
        "slot": "1",
        "type": "t_contract(IDotnsRegistrarController)2404"
      },
      {
        "astId": 2441,
        "contract": "contracts/registry/DotnsRegistry.sol:DotnsRegistry",
        "label": "reverseResolver",
        "offset": 0,
        "slot": "2",
        "type": "t_contract(IDotnsReverseResolver)3777"
      },
      {
        "astId": 2446,
        "contract": "contracts/registry/DotnsRegistry.sol:DotnsRegistry",
        "label": "__gap",
        "offset": 0,
        "slot": "3",
        "type": "t_array(t_uint256)50_storage"
      }
    ],
    "types": {
      "t_address": {
        "encoding": "inplace",
        "label": "address",
        "numberOfBytes": "20"
      },
      "t_array(t_uint256)50_storage": {
        "encoding": "inplace",
        "label": "uint256[50]",
        "numberOfBytes": "1600",
        "base": "t_uint256"
      },
      "t_bool": {
        "encoding": "inplace",
        "label": "bool",
        "numberOfBytes": "1"
      },
      "t_bytes32": {
        "encoding": "inplace",
        "label": "bytes32",
        "numberOfBytes": "32"
      },
      "t_contract(IDotnsRegistrarController)2404": {
        "encoding": "inplace",
        "label": "contract IDotnsRegistrarController",
        "numberOfBytes": "20"
      },
      "t_contract(IDotnsReverseResolver)3777": {
        "encoding": "inplace",
        "label": "contract IDotnsReverseResolver",
        "numberOfBytes": "20"
      },
      "t_mapping(t_bytes32,t_struct(Record)2837_storage)": {
        "encoding": "mapping",
        "key": "t_bytes32",
        "label": "mapping(bytes32 => struct IDotnsRegistry.Record)",
        "numberOfBytes": "32",
        "value": "t_struct(Record)2837_storage"
      },
      "t_struct(Record)2837_storage": {
        "encoding": "inplace",
        "label": "struct IDotnsRegistry.Record",
        "numberOfBytes": "64",
        "members": [
          {
            "astId": 2832,
            "contract": "contracts/registry/DotnsRegistry.sol:DotnsRegistry",
            "label": "owner",
            "offset": 0,
            "slot": "0",
            "type": "t_address"
          },
          {
            "astId": 2834,
            "contract": "contracts/registry/DotnsRegistry.sol:DotnsRegistry",
            "label": "resolver",
            "offset": 0,
            "slot": "1",
            "type": "t_address"
          },
          {
            "astId": 2836,
            "contract": "contracts/registry/DotnsRegistry.sol:DotnsRegistry",
            "label": "exists",
            "offset": 20,
            "slot": "1",
            "type": "t_bool"
          }
        ]
      },
      "t_uint256": {
        "encoding": "inplace",
        "label": "uint256",
        "numberOfBytes": "32"
      }
    }
  },
  "id": 7
}