{"abi":[{"type":"constructor","inputs":[],"stateMutability":"nonpayable"},{"type":"function","name":"UPGRADE_INTERFACE_VERSION","inputs":[],"outputs":[{"name":"","type":"string","internalType":"string"}],"stateMutability":"view"},{"type":"function","name":"dotnsRegistrar","inputs":[],"outputs":[{"name":"","type":"address","internalType":"contract IDotnsRegistrar"}],"stateMutability":"view"},{"type":"function","name":"initialize","inputs":[{"name":"_registrar","type":"address","internalType":"contract IDotnsRegistrar"},{"name":"_reverseResolver","type":"address","internalType":"contract IDotnsReverseResolver"},{"name":"_factory","type":"address","internalType":"contract IStoreFactory"}],"outputs":[],"stateMutability":"nonpayable"},{"type":"function","name":"owner","inputs":[{"name":"node","type":"bytes32","internalType":"bytes32"}],"outputs":[{"name":"","type":"address","internalType":"address"}],"stateMutability":"view"},{"type":"function","name":"owner","inputs":[],"outputs":[{"name":"","type":"address","internalType":"address"}],"stateMutability":"view"},{"type":"function","name":"proxiableUUID","inputs":[],"outputs":[{"name":"","type":"bytes32","internalType":"bytes32"}],"stateMutability":"view"},{"type":"function","name":"recordExists","inputs":[{"name":"node","type":"bytes32","internalType":"bytes32"}],"outputs":[{"name":"","type":"bool","internalType":"bool"}],"stateMutability":"view"},{"type":"function","name":"registrarController","inputs":[],"outputs":[{"name":"","type":"address","internalType":"contract IDotnsRegistrarController"}],"stateMutability":"view"},{"type":"function","name":"renounceOwnership","inputs":[],"outputs":[],"stateMutability":"nonpayable"},{"type":"function","name":"resolver","inputs":[{"name":"node","type":"bytes32","internalType":"bytes32"}],"outputs":[{"name":"","type":"address","internalType":"address"}],"stateMutability":"view"},{"type":"function","name":"reverseResolver","inputs":[],"outputs":[{"name":"","type":"address","internalType":"contract IDotnsReverseResolver"}],"stateMutability":"view"},{"type":"function","name":"setOwner","inputs":[{"name":"node","type":"bytes32","internalType":"bytes32"},{"name":"newOwner","type":"address","internalType":"address"},{"name":"resolverAddr","type":"address","internalType":"address"}],"outputs":[],"stateMutability":"nonpayable"},{"type":"function","name":"setResolver","inputs":[{"name":"node","type":"bytes32","internalType":"bytes32"},{"name":"newResolver","type":"address","internalType":"address"}],"outputs":[],"stateMutability":"nonpayable"},{"type":"function","name":"setSubnodeOwner","inputs":[{"name":"record","type":"tuple","internalType":"struct IDotnsRegistry.SubnodeRecord","components":[{"name":"parentNode","type":"bytes32","internalType":"bytes32"},{"name":"subLabel","type":"string","internalType":"string"},{"name":"parentLabel","type":"string","internalType":"string"},{"name":"owner","type":"address","internalType":"address"}]}],"outputs":[{"name":"subnode","type":"bytes32","internalType":"bytes32"}],"stateMutability":"nonpayable"},{"type":"function","name":"storeFactory","inputs":[],"outputs":[{"name":"","type":"address","internalType":"contract IStoreFactory"}],"stateMutability":"view"},{"type":"function","name":"transferOwnership","inputs":[{"name":"newOwner","type":"address","internalType":"address"}],"outputs":[],"stateMutability":"nonpayable"},{"type":"function","name":"updateRegistrarController","inputs":[{"name":"newRegistrarController","type":"address","internalType":"contract IDotnsRegistrarController"}],"outputs":[],"stateMutability":"nonpayable"},{"type":"function","name":"upgradeToAndCall","inputs":[{"name":"newImplementation","type":"address","internalType":"address"},{"name":"data","type":"bytes","internalType":"bytes"}],"outputs":[],"stateMutability":"payable"},{"type":"function","name":"version","inputs":[],"outputs":[{"name":"versionString","type":"string","internalType":"string"}],"stateMutability":"pure"},{"type":"event","name":"Initialized","inputs":[{"name":"version","type":"uint64","indexed":false,"internalType":"uint64"}],"anonymous":false},{"type":"event","name":"NewOwner","inputs":[{"name":"node","type":"bytes32","indexed":true,"internalType":"bytes32"},{"name":"label","type":"bytes32","indexed":true,"internalType":"bytes32"},{"name":"owner","type":"address","indexed":false,"internalType":"address"}],"anonymous":false},{"type":"event","name":"NewResolver","inputs":[{"name":"node","type":"bytes32","indexed":true,"internalType":"bytes32"},{"name":"resolver","type":"address","indexed":false,"internalType":"address"}],"anonymous":false},{"type":"event","name":"NodeTransferred","inputs":[{"name":"node","type":"bytes32","indexed":true,"internalType":"bytes32"},{"name":"owner","type":"address","indexed":false,"internalType":"address"}],"anonymous":false},{"type":"event","name":"OwnershipTransferred","inputs":[{"name":"previousOwner","type":"address","indexed":true,"internalType":"address"},{"name":"newOwner","type":"address","indexed":true,"internalType":"address"}],"anonymous":false},{"type":"event","name":"RegistrarControllerUpdated","inputs":[{"name":"oldRegistrarController","type":"address","indexed":true,"internalType":"contract IDotnsRegistrarController"},{"name":"newRegistrarController","type":"address","indexed":true,"internalType":"contract IDotnsRegistrarController"}],"anonymous":false},{"type":"event","name":"Upgraded","inputs":[{"name":"implementation","type":"address","indexed":true,"internalType":"address"}],"anonymous":false},{"type":"error","name":"AddressEmptyCode","inputs":[{"name":"target","type":"address","internalType":"address"}]},{"type":"error","name":"ERC1967InvalidImplementation","inputs":[{"name":"implementation","type":"address","internalType":"address"}]},{"type":"error","name":"ERC1967NonPayable","inputs":[]},{"type":"error","name":"FailedCall","inputs":[]},{"type":"error","name":"InvalidInitialization","inputs":[]},{"type":"error","name":"NodeAlreadyExists","inputs":[{"name":"subnode","type":"bytes32","internalType":"bytes32"}]},{"type":"error","name":"NodeAlreadyOwned","inputs":[{"name":"node","type":"bytes32","internalType":"bytes32"}]},{"type":"error","name":"NotAllowed","inputs":[]},{"type":"error","name":"NotAuthorised","inputs":[]},{"type":"error","name":"NotInitializing","inputs":[]},{"type":"error","name":"NotRegistryController","inputs":[]},{"type":"error","name":"OwnableInvalidOwner","inputs":[{"name":"owner","type":"address","internalType":"address"}]},{"type":"error","name":"OwnableUnauthorizedAccount","inputs":[{"name":"account","type":"address","internalType":"address"}]},{"type":"error","name":"UUPSUnauthorizedCallContext","inputs":[]},{"type":"error","name":"UUPSUnsupportedProxiableUUID","inputs":[{"name":"slot","type":"bytes32","internalType":"bytes32"}]}],"bytecode":{"object":"0x60a080604052346100c257306080525f5160206117645f395f51905f525460ff8160401c166100b3576002600160401b03196001600160401b03821601610060575b60405161169d90816100c782396080518181816103940152610bfe0152f35b6001600160401b0319166001600160401b039081175f5160206117645f395f51905f525581527fc7f505b2f371ae2175ee4913f4499e1f2633a7b5936321eed1cdaeb6115181d290602090a15f80610041565b63f92ee8a960e01b5f5260045ffd5b5f80fdfe60806040526004361015610011575f80fd5b5f3560e01c80630178b8bf1461014457806302571be31461013f5780630823f2771461013a5780631896f70a1461013557806320788cae146101305780634f1ef2861461012b57806352d1902d1461012657806354fd4d501461012157806355de9e381461011c57806361738a90146101175780636460951714610112578063715018a61461010d5780638da5cb5b14610108578063ad3cb1cc14610103578063bef42f3c146100fe578063c0c53b8b146100f9578063f2fde38b146100f4578063f79fe538146100ef5763f9cd32c5146100ea575f80fd5b610afa565b610ac6565b610a99565b61090d565b6107c3565b61077c565b610748565b6106e1565b6106b9565b6104d2565b610457565b61040c565b610382565b610305565b610275565b6101ef565b6101b6565b61017c565b34610178576020366003190112610178576004355f525f602052602060018060a01b03600160405f20015416604051908152f35b5f80fd5b3461017857602036600319011261017857602061019a600435610b45565b6040516001600160a01b039091168152f35b5f91031261017857565b34610178575f366003190112610178576004546040516001600160a01b039091168152602090f35b6001600160a01b0381160361017857565b34610178576040366003190112610178576004357f335721b01866dc23fbee8b6b2c7b1e14d6f05c28cd35a2c934239f94095602a06020602435610232816101de565b61023b84610f60565b5f8481528083526040902060010180546001600160a01b0319166001600160a01b0383161790556040516001600160a01b039091168152a2005b34610178575f366003190112610178576002546040516001600160a01b039091168152602090f35b634e487b7160e01b5f52604160045260245ffd5b90601f8019910116810190811067ffffffffffffffff8211176102d357604052565b61029d565b604051906102e76060836102b1565b565b67ffffffffffffffff81116102d357601f01601f191660200190565b60403660031901126101785760043561031d816101de565b6024359067ffffffffffffffff821161017857366023830112156101785781600401359061034a826102e9565b9161035860405193846102b1565b8083523660248286010111610178576020815f92602461038097018387013784010152610bf2565b005b34610178575f366003190112610178577f00000000000000000000000000000000000000000000000000000000000000006001600160a01b031630036103d95760206040515f5160206116285f395f51905f528152f35b63703e46dd60e11b5f5260045ffd5b805180835260209291819084018484015e5f828201840152601f01601f1916010190565b34610178575f3660031901126101785761045360405161042d6040826102b1565b60058152640312e312e360dc1b60208201526040519182916020835260208301906103e8565b0390f35b3461017857602036600319011261017857600435610474816101de565b61047c6110fd565b6001600160a01b0316610490811515610d07565b600154816001600160a01b0382167f879a6313220e84781223605c43cd05357d5617bacb3dbdd9643e08901c4400915f80a36001600160a01b03191617600155005b34610178576060366003190112610178576004356024356104f2816101de565b604435906104ff826101de565b61051460018060a01b03600154163314610d37565b6001600160a01b0381169061052a821515610d07565b61055b846105566105526001610547845f525f60205260405f2090565b015460a01c60ff1690565b1590565b610d1d565b600254610578906001600160a01b03165b6001600160a01b031690565b6040516331a9108f60e11b8152600481018690529390602090859060249082905afa9081156106b4576105e56106809461063c937fa5ff845b75dfe7d5e35676ce0c05f1353fc610ccc698a00ec24bc1eccc2c9ba8975f91610685575b506001600160a01b031614610d37565b6106096105f9875f525f60205260405f2090565b80546001600160a01b0319169055565b600161061c875f525f60205260405f2090565b0180546001600160a01b0319166001600160a01b03909216919091179055565b6106666001610652865f525f60205260405f2090565b01805460ff60a01b1916600160a01b179055565b6040516001600160a01b0390911681529081906020820190565b0390a2005b6106a7915060203d6020116106ad575b61069f81836102b1565b810190610b22565b5f6105d5565b503d610695565b610b3a565b34610178575f366003190112610178576003546040516001600160a01b039091168152602090f35b34610178575f366003190112610178576106f96110fd565b5f5160206116085f395f51905f5280546001600160a01b031981169091555f906001600160a01b03167f8be0079c531659141344cd1fd0a4f28419497f9722a3daafe3b4186f6b6457e08280a3005b34610178575f366003190112610178575f5160206116085f395f51905f52546040516001600160a01b039091168152602090f35b34610178575f3660031901126101785761045360405161079d6040826102b1565b60058152640352e302e360dc1b60208201526040519182916020835260208301906103e8565b346101785760203660031901126101785760043567ffffffffffffffff81116101785780600401608060031983360301126101785761045391813561080781610f60565b7fce0457fe73731f824cc272376169235128c118b49d344817417c6d108d155e826108fa610858602461083c60648701610d4d565b956108516001600160a01b0388161515610d07565b0186610d57565b9081604051918237209361066660408051868152876020820152208097610897826108926105526001610547845f525f60205260405f2090565b610d8a565b6003546108f5906108b0906001600160a01b031661056c565b6108d86108bb6102d8565b6001600160a01b0388168152916001600160a01b03166020830152565b600160408201526108f0845f525f60205260405f2090565b610da4565b6111d2565b0390a36040519081529081906020820190565b346101785760603660031901126101785760043561092a816101de565b60243590610937826101de565b604435610943816101de565b5f5160206116485f395f51905f52549267ffffffffffffffff61097660ff604087901c16159567ffffffffffffffff1690565b1680159081610a91575b6001149081610a87575b159081610a7e575b50610a6f576109d692846109cd600167ffffffffffffffff195f5160206116485f395f51905f525416175f5160206116485f395f51905f5255565b610a3557610df7565b6109dc57005b610a0660ff60401b195f5160206116485f395f51905f5254165f5160206116485f395f51905f5255565b604051600181527fc7f505b2f371ae2175ee4913f4499e1f2633a7b5936321eed1cdaeb6115181d290602090a1005b610a6a6801000000000000000060ff60401b195f5160206116485f395f51905f525416175f5160206116485f395f51905f5255565b610df7565b63f92ee8a960e01b5f5260045ffd5b9050155f610992565b303b15915061098a565b859150610980565b3461017857602036600319011261017857610380600435610ab9816101de565b610ac16110fd565b610ed7565b34610178576020366003190112610178576004355f525f602052602060ff600160405f20015460a01c166040519015158152f35b34610178575f366003190112610178576001546040516001600160a01b039091168152602090f35b908160209103126101785751610b37816101de565b90565b6040513d5f823e3d90fd5b610b56815f525f60205260405f2090565b6001810154610b699060a01c60ff161590565b610bec57546001600160a01b031680610be75750600254610bb991602091610b99906001600160a01b031661056c565b60405180809581946331a9108f60e11b8352600483019190602083019252565b03915afa9081156106b4575f91610bce575090565b610b37915060203d6020116106ad5761069f81836102b1565b905090565b50505f90565b90916001600160a01b037f000000000000000000000000000000000000000000000000000000000000000016308114908115610ce5575b506103d957610c366110fd565b6040516352d1902d60e01b8152926020846004816001600160a01b0387165afa5f9481610cb4575b50610c7f57634c9c8ce360e01b5f526001600160a01b03831660045260245ffd5b90915f5160206116285f395f51905f528403610ca0576102e79293506112ec565b632a87526960e21b5f52600484905260245ffd5b610cd791955060203d602011610cde575b610ccf81836102b1565b8101906110ee565b935f610c5e565b503d610cc5565b5f5160206116285f395f51905f52546001600160a01b0316141590505f610c29565b15610d0e57565b631eb49d6d60e11b5f5260045ffd5b15610d255750565b63162f6d5d60e31b5f5260045260245ffd5b15610d3e57565b631648fd0160e01b5f5260045ffd5b35610b37816101de565b903590601e1981360301821215610178570180359067ffffffffffffffff82116101785760200191813603831361017857565b15610d925750565b635461848360e01b5f5260045260245ffd5b815181546001600160a01b0319166001600160a01b03918216178255602083015160019092018054604090940151929091166001600160a81b03199093169290921790151560a01b60ff60a01b16179055565b610dff611550565b610e07611550565b610e1033610ed7565b6001600160a01b031690610e25821515610d07565b6001600160a01b031690610e3a821515610d07565b610e4e6001600160a01b0384161515610d07565b6001600160601b0360a01b60025416176002556001600160601b0360a01b600354161760035560018060a01b03166001600160601b0360a01b60045416176004556102e7610e9a6102d8565b3381525f6020820152600160408201525f8080526020527fad3228b676f7d3cd4284a5443f17f1962b36e491b30a40b2405849e597ba5fb5610da4565b6001600160a01b03168015610f35575f5160206116085f395f51905f5280546001600160a01b0319811683179091556001600160a01b03167f8be0079c531659141344cd1fd0a4f28419497f9722a3daafe3b4186f6b6457e05f80a3565b631e4fbdf760e01b5f525f60045260245ffd5b90816020910312610178575180151581036101785790565b610f71815f525f60205260405f2090565b6001810154610f859060a01c60ff16610d37565b546001600160a01b0316806110e25750600254610faa906001600160a01b031661056c565b6040516331a9108f60e11b81526004810183905291602083602481855afa9283156106b4575f936110c1575b50336001600160a01b038416146110bc5760405163020604bf60e21b81526004810191909152602081602481855afa9081156106b4575f9161109d575b506001600160a01b031633146110995760405163e985e9c560e01b81526001600160a01b03929092166004830152336024830152602090829060449082905afa80156106b4576102e7915f9161106a575b50610d37565b61108c915060203d602011611092575b61108481836102b1565b810190610f48565b5f611064565b503d61107a565b5050565b6110b6915060203d6020116106ad5761069f81836102b1565b5f611013565b505050565b6110db91935060203d6020116106ad5761069f81836102b1565b915f610fd6565b6102e791503314610d37565b90816020910312610178575190565b5f5160206116085f395f51905f52546001600160a01b0316330361111d57565b63118cdaa760e01b5f523360045260245ffd5b80511561113d5760200190565b634e487b7160e01b5f52603260045260245ffd5b805182101561113d5760209160051b010190565b600190602060049396956102e79581896040519a8b9686880137850191601760f91b8584015260218301370101630b991bdd60e21b838201520301601b198101855201836102b1565b610b37939260609260018060a01b03168252602082015281604082015201906103e8565b906040805191906111e381846102b1565b60018352601f190136602084013761120d306111fe84611130565b6001600160a01b039091169052565b61129b61128a61128261126761124161122d60045460018060a01b031690565b606089019761123b89610d4d565b9161138e565b946040908151906f191bdd1b9ccb9c9959da5cdd195c995960821b825260208201522090565b956112756020820182610d57565b9290916040810190610d57565b929091611165565b6001600160a01b0390921692610d4d565b91803b15610178576112c7935f809460405196879586948593631f67f7b760e11b8552600485016111ae565b03925af180156106b4576112d85750565b806112e65f6102e7936102b1565b806101ac565b90813b1561136d575f5160206116285f395f51905f5280546001600160a01b0319166001600160a01b0384169081179091557fbc7cd75a20ee27fd9adebab32041f755214dbc6bffa90cc0225b39da2e5c2d3b5f80a2805115611355576113529161157b565b50565b50503461135e57565b63b398979f60e01b5f5260045ffd5b50634c9c8ce360e01b5f9081526001600160a01b0391909116600452602490fd5b604051637d1c0da960e11b81526001600160a01b03848116600483015293949190931692602081602481875afa9081156106b4575f91611531575b506001600160a01b03168061152a5750604051631dd70c0360e21b81526020816004815f885af19081156106b4575f9161150b575b506001600160a01b0316935f5b83518110156114875761142e6114218286611151565b516001600160a01b031690565b90863b1561017857604051634462f7a360e11b81526001600160a01b039290921660048301525f82602481838b5af19182156106b457600192611473575b500161140b565b806112e65f611481936102b1565b5f61146c565b50915091833b156101785760405163f2fde38b60e01b81526001600160a01b03831660048201525f8160248183895af180156106b4576114f7575b50803b156101785760405163f2fde38b60e01b81526001600160a01b0390921660048301525f908290818381602481016112c7565b806112e65f611505936102b1565b5f6114c2565b611524915060203d6020116106ad5761069f81836102b1565b5f6113fe565b9350915050565b61154a915060203d6020116106ad5761069f81836102b1565b5f6113c9565b60ff5f5160206116485f395f51905f525460401c161561156c57565b631afcd79f60e31b5f5260045ffd5b905f8091602081519101845af480806115db575b1561159e575050610b376115ee565b156115c357639996b31560e01b5f9081526001600160a01b0391909116600452602490fd5b3d15155f03610b3a5763d6bda27560e01b5f5260045ffd5b503d15158061158f5750813b151561158f565b604051903d82523d5f602084013e60203d83010160405256fe9016d09d72d40fdae2fd8ceac6b6234c7706214fd39c1cd1e609a0528c199300360894a13ba1a3210667c828492db98dca3e2076cc3735a920a3ca505d382bbcf0c57e16840df040f15088dc2f81fe391c3923bec73e23a9662efc9c229c6a00a26469706673582212208903f4cf81aca35d460646f01ddf65b62552f824d84e723adfa6608ff654cfe664736f6c634300081e0033f0c57e16840df040f15088dc2f81fe391c3923bec73e23a9662efc9c229c6a00","linkReferences":{}},"methodIdentifiers":{"UPGRADE_INTERFACE_VERSION()":"ad3cb1cc","dotnsRegistrar()":"20788cae","initialize(address,address,address)":"c0c53b8b","owner()":"8da5cb5b","owner(bytes32)":"02571be3","proxiableUUID()":"52d1902d","recordExists(bytes32)":"f79fe538","registrarController()":"f9cd32c5","renounceOwnership()":"715018a6","resolver(bytes32)":"0178b8bf","reverseResolver()":"64609517","setOwner(bytes32,address,address)":"61738a90","setResolver(bytes32,address)":"1896f70a","setSubnodeOwner((bytes32,string,string,address))":"bef42f3c","storeFactory()":"0823f277","transferOwnership(address)":"f2fde38b","updateRegistrarController(address)":"55de9e38","upgradeToAndCall(address,bytes)":"4f1ef286","version()":"54fd4d50"},"storageLayout":{"storage":[{"astId":3157,"contract":"contracts/registry/DotnsRegistry.sol:DotnsRegistry","label":"records","offset":0,"slot":"0","type":"t_mapping(t_bytes32,t_struct(Record)3867_storage)"},{"astId":3161,"contract":"contracts/registry/DotnsRegistry.sol:DotnsRegistry","label":"registrarController","offset":0,"slot":"1","type":"t_contract(IDotnsRegistrarController)2955"},{"astId":3165,"contract":"contracts/registry/DotnsRegistry.sol:DotnsRegistry","label":"dotnsRegistrar","offset":0,"slot":"2","type":"t_contract(IDotnsRegistrar)2807"},{"astId":3169,"contract":"contracts/registry/DotnsRegistry.sol:DotnsRegistry","label":"reverseResolver","offset":0,"slot":"3","type":"t_contract(IDotnsReverseResolver)4839"},{"astId":3173,"contract":"contracts/registry/DotnsRegistry.sol:DotnsRegistry","label":"storeFactory","offset":0,"slot":"4","type":"t_contract(IStoreFactory)5073"},{"astId":3185,"contract":"contracts/registry/DotnsRegistry.sol:DotnsRegistry","label":"__gap","offset":0,"slot":"5","type":"t_array(t_uint256)50_storage"}],"types":{"t_address":{"encoding":"inplace","label":"address","numberOfBytes":"20"},"t_array(t_uint256)50_storage":{"encoding":"inplace","label":"uint256[50]","numberOfBytes":"1600","base":"t_uint256"},"t_bool":{"encoding":"inplace","label":"bool","numberOfBytes":"1"},"t_bytes32":{"encoding":"inplace","label":"bytes32","numberOfBytes":"32"},"t_contract(IDotnsRegistrar)2807":{"encoding":"inplace","label":"contract IDotnsRegistrar","numberOfBytes":"20"},"t_contract(IDotnsRegistrarController)2955":{"encoding":"inplace","label":"contract IDotnsRegistrarController","numberOfBytes":"20"},"t_contract(IDotnsReverseResolver)4839":{"encoding":"inplace","label":"contract IDotnsReverseResolver","numberOfBytes":"20"},"t_contract(IStoreFactory)5073":{"encoding":"inplace","label":"contract IStoreFactory","numberOfBytes":"20"},"t_mapping(t_bytes32,t_struct(Record)3867_storage)":{"encoding":"mapping","key":"t_bytes32","label":"mapping(bytes32 => struct IDotnsRegistry.Record)","numberOfBytes":"32","value":"t_struct(Record)3867_storage"},"t_struct(Record)3867_storage":{"encoding":"inplace","label":"struct IDotnsRegistry.Record","numberOfBytes":"64","members":[{"astId":3862,"contract":"contracts/registry/DotnsRegistry.sol:DotnsRegistry","label":"owner","offset":0,"slot":"0","type":"t_address"},{"astId":3864,"contract":"contracts/registry/DotnsRegistry.sol:DotnsRegistry","label":"resolver","offset":0,"slot":"1","type":"t_address"},{"astId":3866,"contract":"contracts/registry/DotnsRegistry.sol:DotnsRegistry","label":"exists","offset":20,"slot":"1","type":"t_bool"}]},"t_uint256":{"encoding":"inplace","label":"uint256","numberOfBytes":"32"}}},"id":7}