{
  "abi": [
    {
      "type": "constructor",
      "inputs": [],
      "stateMutability": "nonpayable"
    },
    {
      "type": "function",
      "name": "UPGRADE_INTERFACE_VERSION",
      "inputs": [],
      "outputs": [
        {
          "name": "",
          "type": "string",
          "internalType": "string"
        }
      ],
      "stateMutability": "view"
    },
    {
      "type": "function",
      "name": "contenthash",
      "inputs": [
        {
          "name": "node",
          "type": "bytes32",
          "internalType": "bytes32"
        }
      ],
      "outputs": [
        {
          "name": "hash",
          "type": "bytes",
          "internalType": "bytes"
        }
      ],
      "stateMutability": "view"
    },
    {
      "type": "function",
      "name": "initialize",
      "inputs": [
        {
          "name": "_registry",
          "type": "address",
          "internalType": "contract IDotnsRegistry"
        }
      ],
      "outputs": [],
      "stateMutability": "nonpayable"
    },
    {
      "type": "function",
      "name": "isApprovedForAll",
      "inputs": [
        {
          "name": "owner",
          "type": "address",
          "internalType": "address"
        },
        {
          "name": "operator",
          "type": "address",
          "internalType": "address"
        }
      ],
      "outputs": [
        {
          "name": "",
          "type": "bool",
          "internalType": "bool"
        }
      ],
      "stateMutability": "view"
    },
    {
      "type": "function",
      "name": "owner",
      "inputs": [],
      "outputs": [
        {
          "name": "",
          "type": "address",
          "internalType": "address"
        }
      ],
      "stateMutability": "view"
    },
    {
      "type": "function",
      "name": "proxiableUUID",
      "inputs": [],
      "outputs": [
        {
          "name": "",
          "type": "bytes32",
          "internalType": "bytes32"
        }
      ],
      "stateMutability": "view"
    },
    {
      "type": "function",
      "name": "registry",
      "inputs": [],
      "outputs": [
        {
          "name": "",
          "type": "address",
          "internalType": "contract IDotnsRegistry"
        }
      ],
      "stateMutability": "view"
    },
    {
      "type": "function",
      "name": "renounceOwnership",
      "inputs": [],
      "outputs": [],
      "stateMutability": "nonpayable"
    },
    {
      "type": "function",
      "name": "setApprovalForAll",
      "inputs": [
        {
          "name": "operator",
          "type": "address",
          "internalType": "address"
        },
        {
          "name": "approved",
          "type": "bool",
          "internalType": "bool"
        }
      ],
      "outputs": [],
      "stateMutability": "nonpayable"
    },
    {
      "type": "function",
      "name": "setContenthash",
      "inputs": [
        {
          "name": "node",
          "type": "bytes32",
          "internalType": "bytes32"
        },
        {
          "name": "hash",
          "type": "bytes",
          "internalType": "bytes"
        }
      ],
      "outputs": [],
      "stateMutability": "nonpayable"
    },
    {
      "type": "function",
      "name": "setText",
      "inputs": [
        {
          "name": "node",
          "type": "bytes32",
          "internalType": "bytes32"
        },
        {
          "name": "key",
          "type": "string",
          "internalType": "string"
        },
        {
          "name": "value",
          "type": "string",
          "internalType": "string"
        }
      ],
      "outputs": [],
      "stateMutability": "nonpayable"
    },
    {
      "type": "function",
      "name": "supportsInterface",
      "inputs": [
        {
          "name": "interfaceId",
          "type": "bytes4",
          "internalType": "bytes4"
        }
      ],
      "outputs": [
        {
          "name": "",
          "type": "bool",
          "internalType": "bool"
        }
      ],
      "stateMutability": "view"
    },
    {
      "type": "function",
      "name": "text",
      "inputs": [
        {
          "name": "node",
          "type": "bytes32",
          "internalType": "bytes32"
        },
        {
          "name": "key",
          "type": "string",
          "internalType": "string"
        }
      ],
      "outputs": [
        {
          "name": "value",
          "type": "string",
          "internalType": "string"
        }
      ],
      "stateMutability": "view"
    },
    {
      "type": "function",
      "name": "transferOwnership",
      "inputs": [
        {
          "name": "newOwner",
          "type": "address",
          "internalType": "address"
        }
      ],
      "outputs": [],
      "stateMutability": "nonpayable"
    },
    {
      "type": "function",
      "name": "upgradeToAndCall",
      "inputs": [
        {
          "name": "newImplementation",
          "type": "address",
          "internalType": "address"
        },
        {
          "name": "data",
          "type": "bytes",
          "internalType": "bytes"
        }
      ],
      "outputs": [],
      "stateMutability": "payable"
    },
    {
      "type": "function",
      "name": "version",
      "inputs": [],
      "outputs": [
        {
          "name": "versionString",
          "type": "string",
          "internalType": "string"
        }
      ],
      "stateMutability": "pure"
    },
    {
      "type": "event",
      "name": "ApprovalForAll",
      "inputs": [
        {
          "name": "owner",
          "type": "address",
          "indexed": true,
          "internalType": "address"
        },
        {
          "name": "operator",
          "type": "address",
          "indexed": true,
          "internalType": "address"
        },
        {
          "name": "approved",
          "type": "bool",
          "indexed": false,
          "internalType": "bool"
        }
      ],
      "anonymous": false
    },
    {
      "type": "event",
      "name": "ContentHashUpdated",
      "inputs": [
        {
          "name": "node",
          "type": "bytes32",
          "indexed": true,
          "internalType": "bytes32"
        },
        {
          "name": "hash",
          "type": "bytes",
          "indexed": false,
          "internalType": "bytes"
        }
      ],
      "anonymous": false
    },
    {
      "type": "event",
      "name": "Initialized",
      "inputs": [
        {
          "name": "version",
          "type": "uint64",
          "indexed": false,
          "internalType": "uint64"
        }
      ],
      "anonymous": false
    },
    {
      "type": "event",
      "name": "OwnershipTransferred",
      "inputs": [
        {
          "name": "previousOwner",
          "type": "address",
          "indexed": true,
          "internalType": "address"
        },
        {
          "name": "newOwner",
          "type": "address",
          "indexed": true,
          "internalType": "address"
        }
      ],
      "anonymous": false
    },
    {
      "type": "event",
      "name": "TextUpdated",
      "inputs": [
        {
          "name": "node",
          "type": "bytes32",
          "indexed": true,
          "internalType": "bytes32"
        },
        {
          "name": "key",
          "type": "string",
          "indexed": true,
          "internalType": "string"
        },
        {
          "name": "value",
          "type": "string",
          "indexed": false,
          "internalType": "string"
        }
      ],
      "anonymous": false
    },
    {
      "type": "event",
      "name": "Upgraded",
      "inputs": [
        {
          "name": "implementation",
          "type": "address",
          "indexed": true,
          "internalType": "address"
        }
      ],
      "anonymous": false
    },
    {
      "type": "error",
      "name": "AddressEmptyCode",
      "inputs": [
        {
          "name": "target",
          "type": "address",
          "internalType": "address"
        }
      ]
    },
    {
      "type": "error",
      "name": "ERC1967InvalidImplementation",
      "inputs": [
        {
          "name": "implementation",
          "type": "address",
          "internalType": "address"
        }
      ]
    },
    {
      "type": "error",
      "name": "ERC1967NonPayable",
      "inputs": []
    },
    {
      "type": "error",
      "name": "FailedCall",
      "inputs": []
    },
    {
      "type": "error",
      "name": "InvalidInitialization",
      "inputs": []
    },
    {
      "type": "error",
      "name": "NotAuthorised",
      "inputs": [
        {
          "name": "node",
          "type": "bytes32",
          "internalType": "bytes32"
        },
        {
          "name": "caller",
          "type": "address",
          "internalType": "address"
        }
      ]
    },
    {
      "type": "error",
      "name": "NotInitializing",
      "inputs": []
    },
    {
      "type": "error",
      "name": "OwnableInvalidOwner",
      "inputs": [
        {
          "name": "owner",
          "type": "address",
          "internalType": "address"
        }
      ]
    },
    {
      "type": "error",
      "name": "OwnableUnauthorizedAccount",
      "inputs": [
        {
          "name": "account",
          "type": "address",
          "internalType": "address"
        }
      ]
    },
    {
      "type": "error",
      "name": "UUPSUnauthorizedCallContext",
      "inputs": []
    },
    {
      "type": "error",
      "name": "UUPSUnsupportedProxiableUUID",
      "inputs": [
        {
          "name": "slot",
          "type": "bytes32",
          "internalType": "bytes32"
        }
      ]
    }
  ],
  "bytecode": {
    "object": "0x60a080604052346100c257306080525f51602061140b5f395f51905f525460ff8160401c166100b3576002600160401b03196001600160401b03821601610060575b60405161134490816100c7823960805181818161069901526107990152f35b6001600160401b0319166001600160401b039081175f51602061140b5f395f51905f525581527fc7f505b2f371ae2175ee4913f4499e1f2633a7b5936321eed1cdaeb6115181d290602090a15f80610041565b63f92ee8a960e01b5f5260045ffd5b5f80fdfe6080806040526004361015610012575f80fd5b5f3560e01c90816301ffc9a714610d1c5750806310f13a8c14610b67578063304e6ade14610a235780634f1ef2861461071157806352d1902d1461067f57806354fd4d501461062057806359d1d43c146105dd578063715018a6146105395780637b103999146105145780638da5cb5b146104cf578063a22cb4651461044a578063ad3cb1cc146103eb578063bc1c58d114610398578063c4d66de81461015f578063e985e9c5146100fb5763f2fde38b146100cc575f80fd5b346100f75760206003193601126100f7576100f56100e8610e1c565b6100f061119e565b610fbc565b005b5f80fd5b346100f75760406003193601126100f757610114610e1c565b602435906001600160a01b03821682036100f7576001600160a01b03165f5260036020526001600160a01b0360405f2091165f52602052602060ff60405f2054166040519015158152f35b346100f75760206003193601126100f7576004356001600160a01b0381168091036100f7577ff0c57e16840df040f15088dc2f81fe391c3923bec73e23a9662efc9c229c6a00549060ff8260401c16159167ffffffffffffffff811680159081610390575b6001149081610386575b15908161037d575b50610355578260017fffffffffffffffffffffffffffffffffffffffffffffffff00000000000000008316177ff0c57e16840df040f15088dc2f81fe391c3923bec73e23a9662efc9c229c6a0055610300575b506102326111fd565b61023a6111fd565b61024333610fbc565b61024b6111fd565b73ffffffffffffffffffffffffffffffffffffffff195f5416175f5561026d57005b7fffffffffffffffffffffffffffffffffffffffffffffff00ffffffffffffffff7ff0c57e16840df040f15088dc2f81fe391c3923bec73e23a9662efc9c229c6a0054167ff0c57e16840df040f15088dc2f81fe391c3923bec73e23a9662efc9c229c6a00557fc7f505b2f371ae2175ee4913f4499e1f2633a7b5936321eed1cdaeb6115181d2602060405160018152a1005b7fffffffffffffffffffffffffffffffffffffffffffffff0000000000000000001668010000000000000001177ff0c57e16840df040f15088dc2f81fe391c3923bec73e23a9662efc9c229c6a005582610229565b7ff92ee8a9000000000000000000000000000000000000000000000000000000005f5260045ffd5b905015846101d6565b303b1591506101ce565b8491506101c4565b346100f75760206003193601126100f7576004355f5260016020526103e76103cc6103d360405f2060405192838092610f3a565b0382610e32565b604051918291602083526020830190610e55565b0390f35b346100f7575f6003193601126100f7576103e760405161040c604082610e32565b600581527f352e302e300000000000000000000000000000000000000000000000000000006020820152604051918291602083526020830190610e55565b346100f75760406003193601126100f757610463610e1c565b602435908115158092036100f7576001600160a01b0390335f52600360205260405f208282165f5260205260405f2060ff1981541660ff851617905560405192835216907f17307eab39ab6107e8899845ad3d59bd9653f200f220920489ca2b5937696c3160203392a3005b346100f7575f6003193601126100f75760206001600160a01b037f9016d09d72d40fdae2fd8ceac6b6234c7706214fd39c1cd1e609a0528c1993005416604051908152f35b346100f7575f6003193601126100f75760206001600160a01b035f5416604051908152f35b346100f7575f6003193601126100f75761055161119e565b5f6001600160a01b037f9016d09d72d40fdae2fd8ceac6b6234c7706214fd39c1cd1e609a0528c1993005473ffffffffffffffffffffffffffffffffffffffff1981167f9016d09d72d40fdae2fd8ceac6b6234c7706214fd39c1cd1e609a0528c19930055167f8be0079c531659141344cd1fd0a4f28419497f9722a3daafe3b4186f6b6457e08280a3005b346100f7576103e76103cc6103d360206105f636610de8565b92915f526002825260405f2083604051948593843782019081520301902060405192838092610f3a565b346100f7575f6003193601126100f7576103e7604051610641604082610e32565b600581527f312e302e300000000000000000000000000000000000000000000000000000006020820152604051918291602083526020830190610e55565b346100f7575f6003193601126100f7576001600160a01b037f00000000000000000000000000000000000000000000000000000000000000001630036106e95760206040517f360894a13ba1a3210667c828492db98dca3e2076cc3735a920a3ca505d382bbc8152f35b7fe07c8dba000000000000000000000000000000000000000000000000000000005f5260045ffd5b60406003193601126100f757610725610e1c565b6024359067ffffffffffffffff82116100f757366023830112156100f757816004013567ffffffffffffffff81116109f6576040519261076f601f8301601f191660200185610e32565b81845236602483830101116100f757815f9260246020930183870137840101526001600160a01b037f0000000000000000000000000000000000000000000000000000000000000000168030149081156109c1575b506106e9576107d161119e565b6001600160a01b038116916040517f52d1902d000000000000000000000000000000000000000000000000000000008152602081600481875afa5f918161098d575b5061084457837f4c9c8ce3000000000000000000000000000000000000000000000000000000005f5260045260245ffd5b807f360894a13ba1a3210667c828492db98dca3e2076cc3735a920a3ca505d382bbc8592036109625750823b15610937578073ffffffffffffffffffffffffffffffffffffffff197f360894a13ba1a3210667c828492db98dca3e2076cc3735a920a3ca505d382bbc5416177f360894a13ba1a3210667c828492db98dca3e2076cc3735a920a3ca505d382bbc557fbc7cd75a20ee27fd9adebab32041f755214dbc6bffa90cc0225b39da2e5c2d3b5f80a2805115610906576100f591611254565b50503461090f57005b7fb398979f000000000000000000000000000000000000000000000000000000005f5260045ffd5b7f4c9c8ce3000000000000000000000000000000000000000000000000000000005f5260045260245ffd5b7faa1d49a4000000000000000000000000000000000000000000000000000000005f5260045260245ffd5b9091506020813d6020116109b9575b816109a960209383610e32565b810103126100f757519085610813565b3d915061099c565b90506001600160a01b037f360894a13ba1a3210667c828492db98dca3e2076cc3735a920a3ca505d382bbc54161415836107c4565b7f4e487b71000000000000000000000000000000000000000000000000000000005f52604160045260245ffd5b346100f757610a3136610de8565b9190610a3c82611084565b815f52600160205260405f209267ffffffffffffffff81116109f657610a6c81610a668654610e7a565b86610ecb565b5f93601f8211600114610ae557610abb82807f905f903e4b2fc5075c8238eec4ba8b7dfb7eca8e6396e04cf3c0c7204f7138d196975f91610ada575b508160011b915f199060031b1c19161790565b90555b610ad5604051928392602084526020840191610f1a565b0390a2005b905085013588610aa8565b601f19821694815f5260205f20905f5b878110610b4f5750837f905f903e4b2fc5075c8238eec4ba8b7dfb7eca8e6396e04cf3c0c7204f7138d1969710610b36575b5050600182811b019055610abe565b8401355f19600385901b60f8161c191690558580610b27565b90916020600181928589013581550193019101610af5565b346100f75760606003193601126100f75760043560243567ffffffffffffffff81116100f757610b9b903690600401610dba565b909160443567ffffffffffffffff81116100f757610bbd903690600401610dba565b92610bc783611084565b825f52600260205260405f206020604051809284898337848201908152030190209467ffffffffffffffff85116109f657610c0c85610c068854610e7a565b88610ecb565b5f95601f8611600114610c9757610c5b86807f307c2f1e99e578ed58478cee1d55bf36d3b1bd9353d59e6f196d8165640572f69798995f91610c8c57508160011b915f199060031b1c19161790565b90555b81604051928392833781015f815203902093610c87604051928392602084526020840191610f1a565b0390a3005b90508601358a610aa8565b601f19861696815f5260205f20975f5b818110610d04575090877f307c2f1e99e578ed58478cee1d55bf36d3b1bd9353d59e6f196d8165640572f69798999210610ceb575b5050600187811b019055610c5e565b8501355f1960038a901b60f8161c191690558780610cdc565b868301358a5560019099019860209283019201610ca7565b346100f75760206003193601126100f757600435907fffffffff0000000000000000000000000000000000000000000000000000000082168092036100f757817f8edb811f0000000000000000000000000000000000000000000000000000000060209314908115610d90575b5015158152f35b7f01ffc9a70000000000000000000000000000000000000000000000000000000091501483610d89565b9181601f840112156100f75782359167ffffffffffffffff83116100f757602083818601950101116100f757565b9060406003198301126100f757600435916024359067ffffffffffffffff82116100f757610e1891600401610dba565b9091565b600435906001600160a01b03821682036100f757565b90601f601f19910116810190811067ffffffffffffffff8211176109f657604052565b90601f19601f602080948051918291828752018686015e5f8582860101520116010190565b90600182811c92168015610ec1575b6020831014610e9457565b7f4e487b71000000000000000000000000000000000000000000000000000000005f52602260045260245ffd5b91607f1691610e89565b601f8211610ed857505050565b5f5260205f20906020601f840160051c83019310610f10575b601f0160051c01905b818110610f05575050565b5f8155600101610efa565b9091508190610ef1565b601f8260209493601f1993818652868601375f8582860101520116010190565b5f9291815491610f4983610e7a565b8083529260018116908115610f9e5750600114610f6557505050565b5f9081526020812093945091925b838310610f84575060209250010190565b600181602092949394548385870101520191019190610f73565b9050602094955060ff1991509291921683830152151560051b010190565b6001600160a01b03168015611058576001600160a01b037f9016d09d72d40fdae2fd8ceac6b6234c7706214fd39c1cd1e609a0528c199300548273ffffffffffffffffffffffffffffffffffffffff198216177f9016d09d72d40fdae2fd8ceac6b6234c7706214fd39c1cd1e609a0528c19930055167f8be0079c531659141344cd1fd0a4f28419497f9722a3daafe3b4186f6b6457e05f80a3565b7f1e4fbdf7000000000000000000000000000000000000000000000000000000005f525f60045260245ffd5b602460206001600160a01b035f5416604051928380927f02571be30000000000000000000000000000000000000000000000000000000082528660048301525afa8015611193575f9061114a575b6001600160a01b03915016803314908115611120575b50156110f15750565b7f14c417b5000000000000000000000000000000000000000000000000000000005f526004523360245260445ffd5b90505f52600360205260405f206001600160a01b0333165f5260205260ff60405f2054165f6110e8565b506020813d60201161118b575b8161116460209383610e32565b810103126100f757516001600160a01b03811681036100f7576001600160a01b03906110d2565b3d9150611157565b6040513d5f823e3d90fd5b6001600160a01b037f9016d09d72d40fdae2fd8ceac6b6234c7706214fd39c1cd1e609a0528c199300541633036111d157565b7f118cdaa7000000000000000000000000000000000000000000000000000000005f523360045260245ffd5b60ff7ff0c57e16840df040f15088dc2f81fe391c3923bec73e23a9662efc9c229c6a005460401c161561122c57565b7fd7e6bcf8000000000000000000000000000000000000000000000000000000005f5260045ffd5b905f8091602081519101845af480806112fb575b156112885750506040513d81523d5f602083013e60203d82010160405290565b156112c2576001600160a01b03907f9996b315000000000000000000000000000000000000000000000000000000005f521660045260245ffd5b3d156112d3576040513d5f823e3d90fd5b7fd6bda275000000000000000000000000000000000000000000000000000000005f5260045ffd5b503d1515806112685750813b151561126856fea2646970667358221220bb023d66e3cdfda97554325d4293576d658abb5ac2d2e43d523c100d2a26817e64736f6c634300081e0033f0c57e16840df040f15088dc2f81fe391c3923bec73e23a9662efc9c229c6a00",
    "linkReferences": {}
  },
  "methodIdentifiers": {
    "UPGRADE_INTERFACE_VERSION()": "ad3cb1cc",
    "contenthash(bytes32)": "bc1c58d1",
    "initialize(address)": "c4d66de8",
    "isApprovedForAll(address,address)": "e985e9c5",
    "owner()": "8da5cb5b",
    "proxiableUUID()": "52d1902d",
    "registry()": "7b103999",
    "renounceOwnership()": "715018a6",
    "setApprovalForAll(address,bool)": "a22cb465",
    "setContenthash(bytes32,bytes)": "304e6ade",
    "setText(bytes32,string,string)": "10f13a8c",
    "supportsInterface(bytes4)": "01ffc9a7",
    "text(bytes32,string)": "59d1d43c",
    "transferOwnership(address)": "f2fde38b",
    "upgradeToAndCall(address,bytes)": "4f1ef286",
    "version()": "54fd4d50"
  },
  "storageLayout": {
    "storage": [
      {
        "astId": 2976,
        "contract": "contracts/resolvers/DotnsContentResolver.sol:DotnsContentResolver",
        "label": "registry",
        "offset": 0,
        "slot": "0",
        "type": "t_contract(IDotnsRegistry)2947"
      },
      {
        "astId": 2981,
        "contract": "contracts/resolvers/DotnsContentResolver.sol:DotnsContentResolver",
        "label": "contenthashes",
        "offset": 0,
        "slot": "1",
        "type": "t_mapping(t_bytes32,t_bytes_storage)"
      },
      {
        "astId": 2988,
        "contract": "contracts/resolvers/DotnsContentResolver.sol:DotnsContentResolver",
        "label": "textRecords",
        "offset": 0,
        "slot": "2",
        "type": "t_mapping(t_bytes32,t_mapping(t_string_memory_ptr,t_string_storage))"
      },
      {
        "astId": 2995,
        "contract": "contracts/resolvers/DotnsContentResolver.sol:DotnsContentResolver",
        "label": "operators",
        "offset": 0,
        "slot": "3",
        "type": "t_mapping(t_address,t_mapping(t_address,t_bool))"
      },
      {
        "astId": 3000,
        "contract": "contracts/resolvers/DotnsContentResolver.sol:DotnsContentResolver",
        "label": "__gap",
        "offset": 0,
        "slot": "4",
        "type": "t_array(t_uint256)50_storage"
      }
    ],
    "types": {
      "t_address": {
        "encoding": "inplace",
        "label": "address",
        "numberOfBytes": "20"
      },
      "t_array(t_uint256)50_storage": {
        "encoding": "inplace",
        "label": "uint256[50]",
        "numberOfBytes": "1600",
        "base": "t_uint256"
      },
      "t_bool": {
        "encoding": "inplace",
        "label": "bool",
        "numberOfBytes": "1"
      },
      "t_bytes32": {
        "encoding": "inplace",
        "label": "bytes32",
        "numberOfBytes": "32"
      },
      "t_bytes_storage": {
        "encoding": "bytes",
        "label": "bytes",
        "numberOfBytes": "32"
      },
      "t_contract(IDotnsRegistry)2947": {
        "encoding": "inplace",
        "label": "contract IDotnsRegistry",
        "numberOfBytes": "20"
      },
      "t_mapping(t_address,t_bool)": {
        "encoding": "mapping",
        "key": "t_address",
        "label": "mapping(address => bool)",
        "numberOfBytes": "32",
        "value": "t_bool"
      },
      "t_mapping(t_address,t_mapping(t_address,t_bool))": {
        "encoding": "mapping",
        "key": "t_address",
        "label": "mapping(address => mapping(address => bool))",
        "numberOfBytes": "32",
        "value": "t_mapping(t_address,t_bool)"
      },
      "t_mapping(t_bytes32,t_bytes_storage)": {
        "encoding": "mapping",
        "key": "t_bytes32",
        "label": "mapping(bytes32 => bytes)",
        "numberOfBytes": "32",
        "value": "t_bytes_storage"
      },
      "t_mapping(t_bytes32,t_mapping(t_string_memory_ptr,t_string_storage))": {
        "encoding": "mapping",
        "key": "t_bytes32",
        "label": "mapping(bytes32 => mapping(string => string))",
        "numberOfBytes": "32",
        "value": "t_mapping(t_string_memory_ptr,t_string_storage)"
      },
      "t_mapping(t_string_memory_ptr,t_string_storage)": {
        "encoding": "mapping",
        "key": "t_string_memory_ptr",
        "label": "mapping(string => string)",
        "numberOfBytes": "32",
        "value": "t_string_storage"
      },
      "t_string_memory_ptr": {
        "encoding": "bytes",
        "label": "string",
        "numberOfBytes": "32"
      },
      "t_string_storage": {
        "encoding": "bytes",
        "label": "string",
        "numberOfBytes": "32"
      },
      "t_uint256": {
        "encoding": "inplace",
        "label": "uint256",
        "numberOfBytes": "32"
      }
    }
  },
  "id": 9
}