{"abi":[{"type":"constructor","inputs":[],"stateMutability":"nonpayable"},{"type":"function","name":"UPGRADE_INTERFACE_VERSION","inputs":[],"outputs":[{"name":"","type":"string","internalType":"string"}],"stateMutability":"view"},{"type":"function","name":"initialize","inputs":[],"outputs":[],"stateMutability":"nonpayable"},{"type":"function","name":"nameOf","inputs":[{"name":"addr","type":"address","internalType":"address"}],"outputs":[{"name":"name","type":"string","internalType":"string"}],"stateMutability":"view"},{"type":"function","name":"owner","inputs":[],"outputs":[{"name":"","type":"address","internalType":"address"}],"stateMutability":"view"},{"type":"function","name":"proxiableUUID","inputs":[],"outputs":[{"name":"","type":"bytes32","internalType":"bytes32"}],"stateMutability":"view"},{"type":"function","name":"registrarController","inputs":[],"outputs":[{"name":"","type":"address","internalType":"contract IDotnsRegistrarController"}],"stateMutability":"view"},{"type":"function","name":"renounceOwnership","inputs":[],"outputs":[],"stateMutability":"nonpayable"},{"type":"function","name":"setReverseName","inputs":[{"name":"addr","type":"address","internalType":"address"},{"name":"name","type":"string","internalType":"string"}],"outputs":[],"stateMutability":"nonpayable"},{"type":"function","name":"supportsInterface","inputs":[{"name":"interfaceId","type":"bytes4","internalType":"bytes4"}],"outputs":[{"name":"supported","type":"bool","internalType":"bool"}],"stateMutability":"view"},{"type":"function","name":"transferOwnership","inputs":[{"name":"newOwner","type":"address","internalType":"address"}],"outputs":[],"stateMutability":"nonpayable"},{"type":"function","name":"updateRegistrar","inputs":[{"name":"newRegistrar","type":"address","internalType":"contract IDotnsRegistrarController"}],"outputs":[],"stateMutability":"nonpayable"},{"type":"function","name":"upgradeToAndCall","inputs":[{"name":"newImplementation","type":"address","internalType":"address"},{"name":"data","type":"bytes","internalType":"bytes"}],"outputs":[],"stateMutability":"payable"},{"type":"function","name":"version","inputs":[],"outputs":[{"name":"versionString","type":"string","internalType":"string"}],"stateMutability":"pure"},{"type":"event","name":"Initialized","inputs":[{"name":"version","type":"uint64","indexed":false,"internalType":"uint64"}],"anonymous":false},{"type":"event","name":"OwnershipTransferred","inputs":[{"name":"previousOwner","type":"address","indexed":true,"internalType":"address"},{"name":"newOwner","type":"address","indexed":true,"internalType":"address"}],"anonymous":false},{"type":"event","name":"RegistrarUpdated","inputs":[{"name":"oldRegistrar","type":"address","indexed":true,"internalType":"contract IDotnsRegistrarController"},{"name":"newRegistrar","type":"address","indexed":true,"internalType":"contract IDotnsRegistrarController"}],"anonymous":false},{"type":"event","name":"ReverseNameSet","inputs":[{"name":"addr","type":"address","indexed":true,"internalType":"address"},{"name":"name","type":"string","indexed":true,"internalType":"string"}],"anonymous":false},{"type":"event","name":"Upgraded","inputs":[{"name":"implementation","type":"address","indexed":true,"internalType":"address"}],"anonymous":false},{"type":"error","name":"AddressEmptyCode","inputs":[{"name":"target","type":"address","internalType":"address"}]},{"type":"error","name":"ERC1967InvalidImplementation","inputs":[{"name":"implementation","type":"address","internalType":"address"}]},{"type":"error","name":"ERC1967NonPayable","inputs":[]},{"type":"error","name":"FailedCall","inputs":[]},{"type":"error","name":"InvalidInitialization","inputs":[]},{"type":"error","name":"InvalidRegistrarController","inputs":[]},{"type":"error","name":"NotInitializing","inputs":[]},{"type":"error","name":"NotRegistrarController","inputs":[{"name":"caller","type":"address","internalType":"address"}]},{"type":"error","name":"OwnableInvalidOwner","inputs":[{"name":"owner","type":"address","internalType":"address"}]},{"type":"error","name":"OwnableUnauthorizedAccount","inputs":[{"name":"account","type":"address","internalType":"address"}]},{"type":"error","name":"UUPSUnauthorizedCallContext","inputs":[]},{"type":"error","name":"UUPSUnsupportedProxiableUUID","inputs":[{"name":"slot","type":"bytes32","internalType":"bytes32"}]}],"bytecode":{"object":"0x60a080604052346100c257306080525f516020610cb15f395f51905f525460ff8160401c166100b3576002600160401b03196001600160401b03821601610060575b604051610bea90816100c782396080518181816106a0015261077c0152f35b6001600160401b0319166001600160401b039081175f516020610cb15f395f51905f525581527fc7f505b2f371ae2175ee4913f4499e1f2633a7b5936321eed1cdaeb6115181d290602090a15f80610041565b63f92ee8a960e01b5f5260045ffd5b5f80fdfe6080806040526004361015610012575f80fd5b5f3560e01c90816301ffc9a71461090c575080634f1ef286146106f457806352d1902d1461068e57806354fd4d501461064f578063592b700a146105c9578063715018a6146105625780638129fc1c1461041657806382d022b5146102525780638da5cb5b1461021e578063ad3cb1cc146101df578063f2fde38b146101b4578063f5c57382146100d75763f9cd32c5146100ab575f80fd5b346100d3575f3660031901126100d3576001546040516001600160a01b039091168152602090f35b5f80fd5b346100d35760203660031901126100d3576001600160a01b036100f861095f565b165f525f60205260405f20604051905f90805490610115826109c1565b808552916001811690811561018d575060011461014d575b6101498461013d81860382610975565b60405191829182610997565b0390f35b5f90815260208120939250905b8082106101735750909150810160200161013d8261012d565b91926001816020925483858801015201910190929161015a565b60ff191660208087019190915292151560051b8501909201925061013d915083905061012d565b346100d35760203660031901126100d3576101dd6101d061095f565b6101d8610a6a565b6109f9565b005b346100d3575f3660031901126100d357610149604051610200604082610975565b60058152640352e302e360dc1b602082015260405191829182610997565b346100d3575f3660031901126100d3575f516020610b555f395f51905f52546040516001600160a01b039091168152602090f35b346100d35760403660031901126100d35761026b61095f565b60243567ffffffffffffffff81116100d357366023820112156100d35780600401359167ffffffffffffffff83116100d35736602484840101116100d3576001546001600160a01b031633036104035760018060a01b031690815f525f60205260405f20926102da84546109c1565b601f81116103be575b505f93601f82116001146103565781602494955f91610349575b508260011b905f198460031b1c19161790555b8060405193849301833781015f8152039020907f0d53fd782529c88ff21f83ee9919ad5131066033c0fb77b20ff37301fb4070f75f80a3005b85915084010135866102fd565b601f19821694815f5260205f20905f5b8781106103a35750836024969710610388575b5050600182811b019055610310565b84018501355f19600385901b60f8161c191690558580610379565b90916020600181926024868a01013581550193019101610366565b845f5260205f20601f830160051c810191602084106103f9575b601f0160051c01905b8181106103ee57506102e3565b5f81556001016103e1565b90915081906103d8565b63069f620560e21b5f523360045260245ffd5b346100d3575f3660031901126100d3575f516020610b955f395f51905f525460ff8160401c16159067ffffffffffffffff81168015908161055a575b6001149081610550575b159081610547575b506105385767ffffffffffffffff1981166001175f516020610b955f395f51905f52558161050c575b50610496610a9d565b61049e610a9d565b6104a7336109f9565b6104af610a9d565b6104b557005b68ff0000000000000000195f516020610b955f395f51905f5254165f516020610b955f395f51905f52557fc7f505b2f371ae2175ee4913f4499e1f2633a7b5936321eed1cdaeb6115181d2602060405160018152a1005b68ffffffffffffffffff191668010000000000000001175f516020610b955f395f51905f52558161048d565b63f92ee8a960e01b5f5260045ffd5b90501583610464565b303b15915061045c565b839150610452565b346100d3575f3660031901126100d35761057a610a6a565b5f516020610b555f395f51905f5280546001600160a01b031981169091555f906001600160a01b03167f8be0079c531659141344cd1fd0a4f28419497f9722a3daafe3b4186f6b6457e08280a3005b346100d35760203660031901126100d3576004356001600160a01b038116908190036100d3576105f7610a6a565b801561064057600180546001600160a01b0319811683179091556001600160a01b03167f1e21b6e20d93937dbc9ef28854997425fe405db2c44e7dd2873918ca9455f8395f80a3005b630d39e15560e11b5f5260045ffd5b346100d3575f3660031901126100d357610149604051610670604082610975565b60058152640312e302e360dc1b602082015260405191829182610997565b346100d3575f3660031901126100d3577f00000000000000000000000000000000000000000000000000000000000000006001600160a01b031630036106e55760206040515f516020610b755f395f51905f528152f35b63703e46dd60e11b5f5260045ffd5b60403660031901126100d35761070861095f565b6024359067ffffffffffffffff82116100d357366023830112156100d357816004013567ffffffffffffffff81116108f85760405192610752601f8301601f191660200185610975565b81845236602483830101116100d357815f9260246020930183870137840101526001600160a01b037f0000000000000000000000000000000000000000000000000000000000000000163081149081156108d6575b506106e5576107b4610a6a565b6040516352d1902d60e01b81526001600160a01b0382169290602081600481875afa5f91816108a2575b506107f65783634c9c8ce360e01b5f5260045260245ffd5b805f516020610b755f395f51905f528592036108905750823b1561087e575f516020610b755f395f51905f5280546001600160a01b031916821790557fbc7cd75a20ee27fd9adebab32041f755214dbc6bffa90cc0225b39da2e5c2d3b5f80a2805115610866576101dd91610ac8565b50503461086f57005b63b398979f60e01b5f5260045ffd5b634c9c8ce360e01b5f5260045260245ffd5b632a87526960e21b5f5260045260245ffd5b9091506020813d6020116108ce575b816108be60209383610975565b810103126100d3575190856107de565b3d91506108b1565b5f516020610b755f395f51905f52546001600160a01b031614159050836107a7565b634e487b7160e01b5f52604160045260245ffd5b346100d35760203660031901126100d3576004359063ffffffff60e01b82168092036100d357602091632e3e213d60e01b811490811561094e575b5015158152f35b6301ffc9a760e01b14905083610947565b600435906001600160a01b03821682036100d357565b90601f8019910116810190811067ffffffffffffffff8211176108f857604052565b602060409281835280519182918282860152018484015e5f828201840152601f01601f1916010190565b90600182811c921680156109ef575b60208310146109db57565b634e487b7160e01b5f52602260045260245ffd5b91607f16916109d0565b6001600160a01b03168015610a57575f516020610b555f395f51905f5280546001600160a01b0319811683179091556001600160a01b03167f8be0079c531659141344cd1fd0a4f28419497f9722a3daafe3b4186f6b6457e05f80a3565b631e4fbdf760e01b5f525f60045260245ffd5b5f516020610b555f395f51905f52546001600160a01b03163303610a8a57565b63118cdaa760e01b5f523360045260245ffd5b60ff5f516020610b955f395f51905f525460401c1615610ab957565b631afcd79f60e31b5f5260045ffd5b905f8091602081519101845af48080610b41575b15610afc5750506040513d81523d5f602083013e60203d82010160405290565b15610b2157639996b31560e01b5f9081526001600160a01b0391909116600452602490fd5b3d15610b32576040513d5f823e3d90fd5b63d6bda27560e01b5f5260045ffd5b503d151580610adc5750813b1515610adc56fe9016d09d72d40fdae2fd8ceac6b6234c7706214fd39c1cd1e609a0528c199300360894a13ba1a3210667c828492db98dca3e2076cc3735a920a3ca505d382bbcf0c57e16840df040f15088dc2f81fe391c3923bec73e23a9662efc9c229c6a00a2646970667358221220641a3aa9cbf0677167d062d5701f567d3e8dc746c1bb7a9fad1d817ba1062c0164736f6c634300081e0033f0c57e16840df040f15088dc2f81fe391c3923bec73e23a9662efc9c229c6a00","linkReferences":{}},"methodIdentifiers":{"UPGRADE_INTERFACE_VERSION()":"ad3cb1cc","initialize()":"8129fc1c","nameOf(address)":"f5c57382","owner()":"8da5cb5b","proxiableUUID()":"52d1902d","registrarController()":"f9cd32c5","renounceOwnership()":"715018a6","setReverseName(address,string)":"82d022b5","supportsInterface(bytes4)":"01ffc9a7","transferOwnership(address)":"f2fde38b","updateRegistrar(address)":"592b700a","upgradeToAndCall(address,bytes)":"4f1ef286","version()":"54fd4d50"},"storageLayout":{"storage":[{"astId":4482,"contract":"contracts/resolvers/DotnsReverseResolver.sol:DotnsReverseResolver","label":"reverseNames","offset":0,"slot":"0","type":"t_mapping(t_address,t_string_storage)"},{"astId":4486,"contract":"contracts/resolvers/DotnsReverseResolver.sol:DotnsReverseResolver","label":"registrarController","offset":0,"slot":"1","type":"t_contract(IDotnsRegistrarController)2955"},{"astId":4491,"contract":"contracts/resolvers/DotnsReverseResolver.sol:DotnsReverseResolver","label":"__gap","offset":0,"slot":"2","type":"t_array(t_uint256)50_storage"}],"types":{"t_address":{"encoding":"inplace","label":"address","numberOfBytes":"20"},"t_array(t_uint256)50_storage":{"encoding":"inplace","label":"uint256[50]","numberOfBytes":"1600","base":"t_uint256"},"t_contract(IDotnsRegistrarController)2955":{"encoding":"inplace","label":"contract IDotnsRegistrarController","numberOfBytes":"20"},"t_mapping(t_address,t_string_storage)":{"encoding":"mapping","key":"t_address","label":"mapping(address => string)","numberOfBytes":"32","value":"t_string_storage"},"t_string_storage":{"encoding":"bytes","label":"string","numberOfBytes":"32"},"t_uint256":{"encoding":"inplace","label":"uint256","numberOfBytes":"32"}}},"id":12}