{"abi":[{"type":"constructor","inputs":[],"stateMutability":"nonpayable"},{"type":"function","name":"UPGRADE_INTERFACE_VERSION","inputs":[],"outputs":[{"name":"","type":"string","internalType":"string"}],"stateMutability":"view"},{"type":"function","name":"initialize","inputs":[],"outputs":[],"stateMutability":"nonpayable"},{"type":"function","name":"nameOf","inputs":[{"name":"addr","type":"address","internalType":"address"}],"outputs":[{"name":"name","type":"string","internalType":"string"}],"stateMutability":"view"},{"type":"function","name":"owner","inputs":[],"outputs":[{"name":"","type":"address","internalType":"address"}],"stateMutability":"view"},{"type":"function","name":"proxiableUUID","inputs":[],"outputs":[{"name":"","type":"bytes32","internalType":"bytes32"}],"stateMutability":"view"},{"type":"function","name":"registrar","inputs":[],"outputs":[{"name":"","type":"address","internalType":"address"}],"stateMutability":"view"},{"type":"function","name":"renounceOwnership","inputs":[],"outputs":[],"stateMutability":"nonpayable"},{"type":"function","name":"setReverseName","inputs":[{"name":"addr","type":"address","internalType":"address"},{"name":"name","type":"string","internalType":"string"}],"outputs":[],"stateMutability":"nonpayable"},{"type":"function","name":"supportsInterface","inputs":[{"name":"interfaceId","type":"bytes4","internalType":"bytes4"}],"outputs":[{"name":"supported","type":"bool","internalType":"bool"}],"stateMutability":"view"},{"type":"function","name":"transferOwnership","inputs":[{"name":"newOwner","type":"address","internalType":"address"}],"outputs":[],"stateMutability":"nonpayable"},{"type":"function","name":"updateRegistrar","inputs":[{"name":"newRegistrar","type":"address","internalType":"address"}],"outputs":[],"stateMutability":"nonpayable"},{"type":"function","name":"upgradeToAndCall","inputs":[{"name":"newImplementation","type":"address","internalType":"address"},{"name":"data","type":"bytes","internalType":"bytes"}],"outputs":[],"stateMutability":"payable"},{"type":"function","name":"version","inputs":[],"outputs":[{"name":"versionString","type":"string","internalType":"string"}],"stateMutability":"pure"},{"type":"event","name":"Initialized","inputs":[{"name":"version","type":"uint64","indexed":false,"internalType":"uint64"}],"anonymous":false},{"type":"event","name":"OwnershipTransferred","inputs":[{"name":"previousOwner","type":"address","indexed":true,"internalType":"address"},{"name":"newOwner","type":"address","indexed":true,"internalType":"address"}],"anonymous":false},{"type":"event","name":"RegistrarUpdated","inputs":[{"name":"oldRegistrar","type":"address","indexed":true,"internalType":"address"},{"name":"newRegistrar","type":"address","indexed":true,"internalType":"address"}],"anonymous":false},{"type":"event","name":"Upgraded","inputs":[{"name":"implementation","type":"address","indexed":true,"internalType":"address"}],"anonymous":false},{"type":"error","name":"AddressEmptyCode","inputs":[{"name":"target","type":"address","internalType":"address"}]},{"type":"error","name":"ERC1967InvalidImplementation","inputs":[{"name":"implementation","type":"address","internalType":"address"}]},{"type":"error","name":"ERC1967NonPayable","inputs":[]},{"type":"error","name":"FailedCall","inputs":[]},{"type":"error","name":"InvalidInitialization","inputs":[]},{"type":"error","name":"InvalidRegistrar","inputs":[]},{"type":"error","name":"NotInitializing","inputs":[]},{"type":"error","name":"NotRegistrar","inputs":[]},{"type":"error","name":"OwnableInvalidOwner","inputs":[{"name":"owner","type":"address","internalType":"address"}]},{"type":"error","name":"OwnableUnauthorizedAccount","inputs":[{"name":"account","type":"address","internalType":"address"}]},{"type":"error","name":"UUPSUnauthorizedCallContext","inputs":[]},{"type":"error","name":"UUPSUnsupportedProxiableUUID","inputs":[{"name":"slot","type":"bytes32","internalType":"bytes32"}]}],"bytecode":{"object":"0x60a080604052346100c257306080525f5160206110095f395f51905f525460ff8160401c166100b3576002600160401b03196001600160401b03821601610060575b604051610f4290816100c782396080518181816107d201526108d20152f35b6001600160401b0319166001600160401b039081175f5160206110095f395f51905f525581527fc7f505b2f371ae2175ee4913f4499e1f2633a7b5936321eed1cdaeb6115181d290602090a15f80610041565b63f92ee8a960e01b5f5260045ffd5b5f80fdfe6080806040526004361015610012575f80fd5b5f3560e01c90816301ffc9a714610b82575080632b20e39714610b5c5780634f1ef2861461084a57806352d1902d146107b857806354fd4d5014610761578063592b700a146106ba578063715018a6146106165780638129fc1c1461040f57806382d022b5146102715780638da5cb5b1461022c578063ad3cb1cc146101d5578063f2fde38b146101aa5763f5c57382146100ab575f80fd5b346101a65760206003193601126101a6576001600160a01b036100cc610c20565b165f525f60205260405f20604051905f908054906100e982610c83565b80855291600181169081156101615750600114610121575b61011d8461011181860382610c36565b60405191829182610c59565b0390f35b5f90815260208120939250905b8082106101475750909150810160200161011182610101565b91926001816020925483858801015201910190929161012e565b7fffffffffffffffffffffffffffffffffffffffffffffffffffffffffffffff001660208087019190915292151560051b850190920192506101119150839050610101565b5f80fd5b346101a65760206003193601126101a6576101d36101c6610c20565b6101ce610d9c565b610cd4565b005b346101a6575f6003193601126101a65761011d6040516101f6604082610c36565b600581527f352e302e30000000000000000000000000000000000000000000000000000000602082015260405191829182610c59565b346101a6575f6003193601126101a65760206001600160a01b037f9016d09d72d40fdae2fd8ceac6b6234c7706214fd39c1cd1e609a0528c1993005416604051908152f35b346101a65760406003193601126101a65761028a610c20565b6024359067ffffffffffffffff82116101a657366023830112156101a65781600401359067ffffffffffffffff82116101a65736602483850101116101a6576001600160a01b036001541633036103e7576001600160a01b03165f525f60205260405f20906102f98254610c83565b601f81116103a2575b505f601f821160011461033e578192935f92610330575b50505f19600383901b1c191660019190911b179055005b602492500101358380610319565b601f19821693835f5260205f20915f5b868110610387575083600195961061036b575b505050811b019055005b01602401355f19600384901b60f8161c19169055838080610361565b9092602060018192602487870101358155019401910161034e565b825f5260205f20601f830160051c810191602084106103dd575b601f0160051c01905b8181106103d25750610302565b5f81556001016103c5565b90915081906103bc565b7f2ad95351000000000000000000000000000000000000000000000000000000005f5260045ffd5b346101a6575f6003193601126101a6577ff0c57e16840df040f15088dc2f81fe391c3923bec73e23a9662efc9c229c6a005460ff8160401c16159067ffffffffffffffff81168015908161060e575b6001149081610604575b1590816105fb575b506105d3578160017fffffffffffffffffffffffffffffffffffffffffffffffff00000000000000008316177ff0c57e16840df040f15088dc2f81fe391c3923bec73e23a9662efc9c229c6a005561057e575b506104cc610dfb565b6104d4610dfb565b6104dd33610cd4565b6104e5610dfb565b6104eb57005b7fffffffffffffffffffffffffffffffffffffffffffffff00ffffffffffffffff7ff0c57e16840df040f15088dc2f81fe391c3923bec73e23a9662efc9c229c6a0054167ff0c57e16840df040f15088dc2f81fe391c3923bec73e23a9662efc9c229c6a00557fc7f505b2f371ae2175ee4913f4499e1f2633a7b5936321eed1cdaeb6115181d2602060405160018152a1005b7fffffffffffffffffffffffffffffffffffffffffffffff0000000000000000001668010000000000000001177ff0c57e16840df040f15088dc2f81fe391c3923bec73e23a9662efc9c229c6a0055816104c3565b7ff92ee8a9000000000000000000000000000000000000000000000000000000005f5260045ffd5b90501583610470565b303b159150610468565b83915061045e565b346101a6575f6003193601126101a65761062e610d9c565b5f6001600160a01b037f9016d09d72d40fdae2fd8ceac6b6234c7706214fd39c1cd1e609a0528c1993005473ffffffffffffffffffffffffffffffffffffffff1981167f9016d09d72d40fdae2fd8ceac6b6234c7706214fd39c1cd1e609a0528c19930055167f8be0079c531659141344cd1fd0a4f28419497f9722a3daafe3b4186f6b6457e08280a3005b346101a65760206003193601126101a6576001600160a01b036106db610c20565b6106e3610d9c565b168015610739576001600160a01b036001548273ffffffffffffffffffffffffffffffffffffffff19821617600155167f1e21b6e20d93937dbc9ef28854997425fe405db2c44e7dd2873918ca9455f8395f80a3005b7fe4923866000000000000000000000000000000000000000000000000000000005f5260045ffd5b346101a6575f6003193601126101a65761011d604051610782604082610c36565b600581527f312e302e30000000000000000000000000000000000000000000000000000000602082015260405191829182610c59565b346101a6575f6003193601126101a6576001600160a01b037f00000000000000000000000000000000000000000000000000000000000000001630036108225760206040517f360894a13ba1a3210667c828492db98dca3e2076cc3735a920a3ca505d382bbc8152f35b7fe07c8dba000000000000000000000000000000000000000000000000000000005f5260045ffd5b60406003193601126101a65761085e610c20565b6024359067ffffffffffffffff82116101a657366023830112156101a657816004013567ffffffffffffffff8111610b2f57604051926108a8601f8301601f191660200185610c36565b81845236602483830101116101a657815f9260246020930183870137840101526001600160a01b037f000000000000000000000000000000000000000000000000000000000000000016803014908115610afa575b506108225761090a610d9c565b6001600160a01b038116916040517f52d1902d000000000000000000000000000000000000000000000000000000008152602081600481875afa5f9181610ac6575b5061097d57837f4c9c8ce3000000000000000000000000000000000000000000000000000000005f5260045260245ffd5b807f360894a13ba1a3210667c828492db98dca3e2076cc3735a920a3ca505d382bbc859203610a9b5750823b15610a70578073ffffffffffffffffffffffffffffffffffffffff197f360894a13ba1a3210667c828492db98dca3e2076cc3735a920a3ca505d382bbc5416177f360894a13ba1a3210667c828492db98dca3e2076cc3735a920a3ca505d382bbc557fbc7cd75a20ee27fd9adebab32041f755214dbc6bffa90cc0225b39da2e5c2d3b5f80a2805115610a3f576101d391610e52565b505034610a4857005b7fb398979f000000000000000000000000000000000000000000000000000000005f5260045ffd5b7f4c9c8ce3000000000000000000000000000000000000000000000000000000005f5260045260245ffd5b7faa1d49a4000000000000000000000000000000000000000000000000000000005f5260045260245ffd5b9091506020813d602011610af2575b81610ae260209383610c36565b810103126101a65751908561094c565b3d9150610ad5565b90506001600160a01b037f360894a13ba1a3210667c828492db98dca3e2076cc3735a920a3ca505d382bbc54161415836108fd565b7f4e487b71000000000000000000000000000000000000000000000000000000005f52604160045260245ffd5b346101a6575f6003193601126101a65760206001600160a01b0360015416604051908152f35b346101a65760206003193601126101a657600435907fffffffff0000000000000000000000000000000000000000000000000000000082168092036101a657817f2e3e213d0000000000000000000000000000000000000000000000000000000060209314908115610bf6575b5015158152f35b7f01ffc9a70000000000000000000000000000000000000000000000000000000091501483610bef565b600435906001600160a01b03821682036101a657565b90601f601f19910116810190811067ffffffffffffffff821117610b2f57604052565b601f19601f602060409481855280519182918282880152018686015e5f8582860101520116010190565b90600182811c92168015610cca575b6020831014610c9d57565b7f4e487b71000000000000000000000000000000000000000000000000000000005f52602260045260245ffd5b91607f1691610c92565b6001600160a01b03168015610d70576001600160a01b037f9016d09d72d40fdae2fd8ceac6b6234c7706214fd39c1cd1e609a0528c199300548273ffffffffffffffffffffffffffffffffffffffff198216177f9016d09d72d40fdae2fd8ceac6b6234c7706214fd39c1cd1e609a0528c19930055167f8be0079c531659141344cd1fd0a4f28419497f9722a3daafe3b4186f6b6457e05f80a3565b7f1e4fbdf7000000000000000000000000000000000000000000000000000000005f525f60045260245ffd5b6001600160a01b037f9016d09d72d40fdae2fd8ceac6b6234c7706214fd39c1cd1e609a0528c19930054163303610dcf57565b7f118cdaa7000000000000000000000000000000000000000000000000000000005f523360045260245ffd5b60ff7ff0c57e16840df040f15088dc2f81fe391c3923bec73e23a9662efc9c229c6a005460401c1615610e2a57565b7fd7e6bcf8000000000000000000000000000000000000000000000000000000005f5260045ffd5b905f8091602081519101845af48080610ef9575b15610e865750506040513d81523d5f602083013e60203d82010160405290565b15610ec0576001600160a01b03907f9996b315000000000000000000000000000000000000000000000000000000005f521660045260245ffd5b3d15610ed1576040513d5f823e3d90fd5b7fd6bda275000000000000000000000000000000000000000000000000000000005f5260045ffd5b503d151580610e665750813b1515610e6656fea2646970667358221220caf3ca2a56da82c6cd0163f9d0820d12870f07d2f3e31d69428375df9e176d3d64736f6c634300081e0033f0c57e16840df040f15088dc2f81fe391c3923bec73e23a9662efc9c229c6a00","linkReferences":{}},"methodIdentifiers":{"UPGRADE_INTERFACE_VERSION()":"ad3cb1cc","initialize()":"8129fc1c","nameOf(address)":"f5c57382","owner()":"8da5cb5b","proxiableUUID()":"52d1902d","registrar()":"2b20e397","renounceOwnership()":"715018a6","setReverseName(address,string)":"82d022b5","supportsInterface(bytes4)":"01ffc9a7","transferOwnership(address)":"f2fde38b","updateRegistrar(address)":"592b700a","upgradeToAndCall(address,bytes)":"4f1ef286","version()":"54fd4d50"},"storageLayout":{"storage":[{"astId":3450,"contract":"contracts/resolvers/DotnsReverseResolver.sol:DotnsReverseResolver","label":"reverseNames","offset":0,"slot":"0","type":"t_mapping(t_address,t_string_storage)"},{"astId":3453,"contract":"contracts/resolvers/DotnsReverseResolver.sol:DotnsReverseResolver","label":"registrar","offset":0,"slot":"1","type":"t_address"},{"astId":3458,"contract":"contracts/resolvers/DotnsReverseResolver.sol:DotnsReverseResolver","label":"__gap","offset":0,"slot":"2","type":"t_array(t_uint256)50_storage"}],"types":{"t_address":{"encoding":"inplace","label":"address","numberOfBytes":"20"},"t_array(t_uint256)50_storage":{"encoding":"inplace","label":"uint256[50]","numberOfBytes":"1600","base":"t_uint256"},"t_mapping(t_address,t_string_storage)":{"encoding":"mapping","key":"t_address","label":"mapping(address => string)","numberOfBytes":"32","value":"t_string_storage"},"t_string_storage":{"encoding":"bytes","label":"string","numberOfBytes":"32"},"t_uint256":{"encoding":"inplace","label":"uint256","numberOfBytes":"32"}}},"id":11}