{"abi":[{"type":"constructor","inputs":[],"stateMutability":"nonpayable"},{"type":"function","name":"UPGRADE_INTERFACE_VERSION","inputs":[],"outputs":[{"name":"","type":"string","internalType":"string"}],"stateMutability":"view"},{"type":"function","name":"addController","inputs":[{"name":"controller","type":"address","internalType":"contract IDotnsRegistrarController"}],"outputs":[],"stateMutability":"nonpayable"},{"type":"function","name":"approve","inputs":[{"name":"to","type":"address","internalType":"address"},{"name":"tokenId","type":"uint256","internalType":"uint256"}],"outputs":[],"stateMutability":"nonpayable"},{"type":"function","name":"available","inputs":[{"name":"id","type":"uint256","internalType":"uint256"}],"outputs":[{"name":"isAvailable","type":"bool","internalType":"bool"}],"stateMutability":"view"},{"type":"function","name":"balanceOf","inputs":[{"name":"owner","type":"address","internalType":"address"}],"outputs":[{"name":"","type":"uint256","internalType":"uint256"}],"stateMutability":"view"},{"type":"function","name":"controllers","inputs":[{"name":"controller","type":"address","internalType":"contract IDotnsRegistrarController"}],"outputs":[{"name":"exists","type":"bool","internalType":"bool"}],"stateMutability":"view"},{"type":"function","name":"getApproved","inputs":[{"name":"tokenId","type":"uint256","internalType":"uint256"}],"outputs":[{"name":"","type":"address","internalType":"address"}],"stateMutability":"view"},{"type":"function","name":"initialize","inputs":[{"name":"name","type":"string","internalType":"string"},{"name":"symbol","type":"string","internalType":"string"}],"outputs":[],"stateMutability":"nonpayable"},{"type":"function","name":"isApprovedForAll","inputs":[{"name":"owner","type":"address","internalType":"address"},{"name":"operator","type":"address","internalType":"address"}],"outputs":[{"name":"","type":"bool","internalType":"bool"}],"stateMutability":"view"},{"type":"function","name":"name","inputs":[],"outputs":[{"name":"","type":"string","internalType":"string"}],"stateMutability":"view"},{"type":"function","name":"owner","inputs":[],"outputs":[{"name":"","type":"address","internalType":"address"}],"stateMutability":"view"},{"type":"function","name":"ownerOf","inputs":[{"name":"tokenId","type":"uint256","internalType":"uint256"}],"outputs":[{"name":"","type":"address","internalType":"address"}],"stateMutability":"view"},{"type":"function","name":"proxiableUUID","inputs":[],"outputs":[{"name":"","type":"bytes32","internalType":"bytes32"}],"stateMutability":"view"},{"type":"function","name":"register","inputs":[{"name":"id","type":"uint256","internalType":"uint256"},{"name":"owner","type":"address","internalType":"address"}],"outputs":[],"stateMutability":"nonpayable"},{"type":"function","name":"removeController","inputs":[{"name":"controller","type":"address","internalType":"contract IDotnsRegistrarController"}],"outputs":[],"stateMutability":"nonpayable"},{"type":"function","name":"renounceOwnership","inputs":[],"outputs":[],"stateMutability":"nonpayable"},{"type":"function","name":"safeTransferFrom","inputs":[{"name":"from","type":"address","internalType":"address"},{"name":"to","type":"address","internalType":"address"},{"name":"tokenId","type":"uint256","internalType":"uint256"}],"outputs":[],"stateMutability":"nonpayable"},{"type":"function","name":"safeTransferFrom","inputs":[{"name":"from","type":"address","internalType":"address"},{"name":"to","type":"address","internalType":"address"},{"name":"tokenId","type":"uint256","internalType":"uint256"},{"name":"data","type":"bytes","internalType":"bytes"}],"outputs":[],"stateMutability":"nonpayable"},{"type":"function","name":"setApprovalForAll","inputs":[{"name":"operator","type":"address","internalType":"address"},{"name":"approved","type":"bool","internalType":"bool"}],"outputs":[],"stateMutability":"nonpayable"},{"type":"function","name":"supportsInterface","inputs":[{"name":"interfaceId","type":"bytes4","internalType":"bytes4"}],"outputs":[{"name":"","type":"bool","internalType":"bool"}],"stateMutability":"view"},{"type":"function","name":"symbol","inputs":[],"outputs":[{"name":"","type":"string","internalType":"string"}],"stateMutability":"view"},{"type":"function","name":"tokenURI","inputs":[{"name":"tokenId","type":"uint256","internalType":"uint256"}],"outputs":[{"name":"","type":"string","internalType":"string"}],"stateMutability":"view"},{"type":"function","name":"transferFrom","inputs":[{"name":"from","type":"address","internalType":"address"},{"name":"to","type":"address","internalType":"address"},{"name":"tokenId","type":"uint256","internalType":"uint256"}],"outputs":[],"stateMutability":"nonpayable"},{"type":"function","name":"transferOwnership","inputs":[{"name":"newOwner","type":"address","internalType":"address"}],"outputs":[],"stateMutability":"nonpayable"},{"type":"function","name":"upgradeToAndCall","inputs":[{"name":"newImplementation","type":"address","internalType":"address"},{"name":"data","type":"bytes","internalType":"bytes"}],"outputs":[],"stateMutability":"payable"},{"type":"function","name":"version","inputs":[],"outputs":[{"name":"versionString","type":"string","internalType":"string"}],"stateMutability":"pure"},{"type":"event","name":"Approval","inputs":[{"name":"owner","type":"address","indexed":true,"internalType":"address"},{"name":"approved","type":"address","indexed":true,"internalType":"address"},{"name":"tokenId","type":"uint256","indexed":true,"internalType":"uint256"}],"anonymous":false},{"type":"event","name":"ApprovalForAll","inputs":[{"name":"owner","type":"address","indexed":true,"internalType":"address"},{"name":"operator","type":"address","indexed":true,"internalType":"address"},{"name":"approved","type":"bool","indexed":false,"internalType":"bool"}],"anonymous":false},{"type":"event","name":"ControllerAdded","inputs":[{"name":"controller","type":"address","indexed":true,"internalType":"contract IDotnsRegistrarController"}],"anonymous":false},{"type":"event","name":"ControllerRemoved","inputs":[{"name":"controller","type":"address","indexed":true,"internalType":"contract IDotnsRegistrarController"}],"anonymous":false},{"type":"event","name":"Initialized","inputs":[{"name":"version","type":"uint64","indexed":false,"internalType":"uint64"}],"anonymous":false},{"type":"event","name":"NameRegistered","inputs":[{"name":"id","type":"uint256","indexed":true,"internalType":"uint256"},{"name":"owner","type":"address","indexed":true,"internalType":"address"}],"anonymous":false},{"type":"event","name":"OwnershipTransferred","inputs":[{"name":"previousOwner","type":"address","indexed":true,"internalType":"address"},{"name":"newOwner","type":"address","indexed":true,"internalType":"address"}],"anonymous":false},{"type":"event","name":"Transfer","inputs":[{"name":"from","type":"address","indexed":true,"internalType":"address"},{"name":"to","type":"address","indexed":true,"internalType":"address"},{"name":"tokenId","type":"uint256","indexed":true,"internalType":"uint256"}],"anonymous":false},{"type":"event","name":"Upgraded","inputs":[{"name":"implementation","type":"address","indexed":true,"internalType":"address"}],"anonymous":false},{"type":"error","name":"AddressEmptyCode","inputs":[{"name":"target","type":"address","internalType":"address"}]},{"type":"error","name":"ERC1967InvalidImplementation","inputs":[{"name":"implementation","type":"address","internalType":"address"}]},{"type":"error","name":"ERC1967NonPayable","inputs":[]},{"type":"error","name":"ERC721IncorrectOwner","inputs":[{"name":"sender","type":"address","internalType":"address"},{"name":"tokenId","type":"uint256","internalType":"uint256"},{"name":"owner","type":"address","internalType":"address"}]},{"type":"error","name":"ERC721InsufficientApproval","inputs":[{"name":"operator","type":"address","internalType":"address"},{"name":"tokenId","type":"uint256","internalType":"uint256"}]},{"type":"error","name":"ERC721InvalidApprover","inputs":[{"name":"approver","type":"address","internalType":"address"}]},{"type":"error","name":"ERC721InvalidOperator","inputs":[{"name":"operator","type":"address","internalType":"address"}]},{"type":"error","name":"ERC721InvalidOwner","inputs":[{"name":"owner","type":"address","internalType":"address"}]},{"type":"error","name":"ERC721InvalidReceiver","inputs":[{"name":"receiver","type":"address","internalType":"address"}]},{"type":"error","name":"ERC721InvalidSender","inputs":[{"name":"sender","type":"address","internalType":"address"}]},{"type":"error","name":"ERC721NonexistentToken","inputs":[{"name":"tokenId","type":"uint256","internalType":"uint256"}]},{"type":"error","name":"FailedCall","inputs":[]},{"type":"error","name":"InvalidInitialization","inputs":[]},{"type":"error","name":"NameNotAvailable","inputs":[{"name":"tokenId","type":"uint256","internalType":"uint256"}]},{"type":"error","name":"NotAllowed","inputs":[]},{"type":"error","name":"NotController","inputs":[{"name":"caller","type":"address","internalType":"address"}]},{"type":"error","name":"NotInitializing","inputs":[]},{"type":"error","name":"OwnableInvalidOwner","inputs":[{"name":"owner","type":"address","internalType":"address"}]},{"type":"error","name":"OwnableUnauthorizedAccount","inputs":[{"name":"account","type":"address","internalType":"address"}]},{"type":"error","name":"UUPSUnauthorizedCallContext","inputs":[]},{"type":"error","name":"UUPSUnsupportedProxiableUUID","inputs":[{"name":"slot","type":"bytes32","internalType":"bytes32"}]}],"bytecode":{"object":"0x60a080604052346100c257306080525f5160206122d15f395f51905f525460ff8160401c166100b3576002600160401b03196001600160401b03821601610060575b60405161220a90816100c78239608051818181610b910152610c480152f35b6001600160401b0319166001600160401b039081175f5160206122d15f395f51905f525581527fc7f505b2f371ae2175ee4913f4499e1f2633a7b5936321eed1cdaeb6115181d290602090a15f80610041565b63f92ee8a960e01b5f5260045ffd5b5f80fdfe6080806040526004361015610012575f80fd5b5f905f3560e01c90816301ffc9a7146117e95750806306fdde0314611706578063081812fc146116ac578063095ea7b31461155657806323b872dd1461153f57806342842e0e146115165780634cd88b7614610ea55780634f1ef28614610c0957806352d1902d14610b7757806354fd4d5014610b185780636352211e14610ae957806370a0823114610a50578063715018a6146109ac5780638da5cb5b1461096757806395d89b411461084b57806396e494e8146107e9578063a22cb46514610714578063a7fc7a07146106ab578063ad3cb1cc1461064c578063b88d4fde146105fb578063c87b56dd1461059e578063da8c229e1461055e578063dbbdf08314610254578063e985e9c5146101d5578063f2fde38b146101a85763f6a74ed71461013c575f80fd5b346101a55760206003193601126101a5576004356001600160a01b0381168091036101a357610169612064565b808252816020526040822060ff1981541690557f33d83959be2573f5453b12eb9d43b3499bc57d96bd2f067ba44803c859e811138280a280f35b505b80fd5b50346101a55760206003193601126101a5576101d26101c56118dd565b6101cd612064565b611f22565b80f35b50346101a55760406003193601126101a5576101ef6118dd565b6001600160a01b036102396102026118f3565b926001600160a01b03165f527f80bb2b638cc20bc4d0a60d66940f3ab4a00c1d7b313497ca82fb0b4ab007930560205260405f2090565b91165f52602052602060ff60405f2054166040519015158152f35b50346101a55760406003193601126101a5576004356102716118f3565b903383528260205260ff60408420541615610532576001600160a01b036102c9825f527f80bb2b638cc20bc4d0a60d66940f3ab4a00c1d7b313497ca82fb0b4ab00793026020526001600160a01b0360405f20541690565b16610507576001600160a01b0382169182156104f45761031a825f527f80bb2b638cc20bc4d0a60d66940f3ab4a00c1d7b313497ca82fb0b4ab00793026020526001600160a01b0360405f20541690565b82846001600160a01b0383166103688115159586610432576001600160a01b03165f527f80bb2b638cc20bc4d0a60d66940f3ab4a00c1d7b313497ca82fb0b4ab007930360205260405f2090565b60018154019055825f527f80bb2b638cc20bc4d0a60d66940f3ab4a00c1d7b313497ca82fb0b4ab007930260205260405f208273ffffffffffffffffffffffffffffffffffffffff198254161790557fddf252ad1be2c89b69c2b068fc378daa952ba7f163c4a11628f55a4df523b3ef5f80a450610406577e834ad8d7a1d8421d149549c7292d11385f5a042a008771d26ffd2d76db6e748380a380f35b6024837f73c6ac6e00000000000000000000000000000000000000000000000000000000815280600452fd5b61047d855f527f80bb2b638cc20bc4d0a60d66940f3ab4a00c1d7b313497ca82fb0b4ab007930460205260405f2073ffffffffffffffffffffffffffffffffffffffff198154169055565b6104b7866001600160a01b03165f527f80bb2b638cc20bc4d0a60d66940f3ab4a00c1d7b313497ca82fb0b4ab007930360205260405f2090565b80545f190190556001600160a01b03165f527f80bb2b638cc20bc4d0a60d66940f3ab4a00c1d7b313497ca82fb0b4ab007930360205260405f2090565b602484633250574960e11b815280600452fd5b7f5b71572e000000000000000000000000000000000000000000000000000000008352600452602482fd5b6024837f66719b7a00000000000000000000000000000000000000000000000000000000815233600452fd5b50346101a55760206003193601126101a5576004356001600160a01b0381168091036101a35760408260ff92602094528084522054166040519015158152f35b346105f75760206003193601126105f7576105ba600435611fea565b505f6040516105ca602082611971565b526105f36040516105dc602082611971565b5f81526040519182916020835260208301906118b8565b0390f35b5f80fd5b346105f75760806003193601126105f7576106146118dd565b61061c6118f3565b6064359167ffffffffffffffff83116105f75761064061064a9336906004016119e6565b9160443591611d85565b005b346105f7575f6003193601126105f7576105f360405161066d604082611971565b600581527f352e302e3000000000000000000000000000000000000000000000000000000060208201526040519182916020835260208301906118b8565b346105f75760206003193601126105f7576004356001600160a01b0381168091036105f7576106d8612064565b805f525f60205260405f20600160ff198254161790557f0a8bb31534c0ed46f380cb867bd5c803a189ced9a764e30b3a4991a9901d74745f80a2005b346105f75760406003193601126105f75761072d6118dd565b602435908115158092036105f7576001600160a01b03169081156107bd57335f9081527f80bb2b638cc20bc4d0a60d66940f3ab4a00c1d7b313497ca82fb0b4ab007930560205260409020825f5260205260405f2060ff1981541660ff83161790556040519081527f17307eab39ab6107e8899845ad3d59bd9653f200f220920489ca2b5937696c3160203392a3005b507f5b08ba18000000000000000000000000000000000000000000000000000000005f5260045260245ffd5b346105f75760206003193601126105f75760206001600160a01b036108416004355f527f80bb2b638cc20bc4d0a60d66940f3ab4a00c1d7b313497ca82fb0b4ab00793026020526001600160a01b0360405f20541690565b1615604051908152f35b346105f7575f6003193601126105f7576040515f7f80bb2b638cc20bc4d0a60d66940f3ab4a00c1d7b313497ca82fb0b4ab00793015461088a81611a04565b808452906001811690811561094357506001146108c6575b6105f3836108b281850382611971565b6040519182916020835260208301906118b8565b7f80bb2b638cc20bc4d0a60d66940f3ab4a00c1d7b313497ca82fb0b4ab00793015f9081527ff4bad0a69248f59680a4f2b3000328cec71a413447c96781cfe5996daa8c456e939250905b808210610929575090915081016020016108b26108a2565b919260018160209254838588010152019101909291610911565b60ff191660208086019190915291151560051b840190910191506108b290506108a2565b346105f7575f6003193601126105f75760206001600160a01b037f9016d09d72d40fdae2fd8ceac6b6234c7706214fd39c1cd1e609a0528c1993005416604051908152f35b346105f7575f6003193601126105f7576109c4612064565b5f6001600160a01b037f9016d09d72d40fdae2fd8ceac6b6234c7706214fd39c1cd1e609a0528c1993005473ffffffffffffffffffffffffffffffffffffffff1981167f9016d09d72d40fdae2fd8ceac6b6234c7706214fd39c1cd1e609a0528c19930055167f8be0079c531659141344cd1fd0a4f28419497f9722a3daafe3b4186f6b6457e08280a3005b346105f75760206003193601126105f757610a696118dd565b6001600160a01b03811615610abd57610ab46020916001600160a01b03165f527f80bb2b638cc20bc4d0a60d66940f3ab4a00c1d7b313497ca82fb0b4ab007930360205260405f2090565b54604051908152f35b7f89c62b64000000000000000000000000000000000000000000000000000000005f525f60045260245ffd5b346105f75760206003193601126105f7576020610b07600435611fea565b6001600160a01b0360405191168152f35b346105f7575f6003193601126105f7576105f3604051610b39604082611971565b600581527f312e302e3000000000000000000000000000000000000000000000000000000060208201526040519182916020835260208301906118b8565b346105f7575f6003193601126105f7576001600160a01b037f0000000000000000000000000000000000000000000000000000000000000000163003610be15760206040517f360894a13ba1a3210667c828492db98dca3e2076cc3735a920a3ca505d382bbc8152f35b7fe07c8dba000000000000000000000000000000000000000000000000000000005f5260045ffd5b60406003193601126105f757610c1d6118dd565b60243567ffffffffffffffff81116105f757610c3d9036906004016119e6565b906001600160a01b037f000000000000000000000000000000000000000000000000000000000000000016803014908115610e70575b50610be157610c80612064565b6001600160a01b038116916040517f52d1902d000000000000000000000000000000000000000000000000000000008152602081600481875afa5f9181610e3c575b50610cf357837f4c9c8ce3000000000000000000000000000000000000000000000000000000005f5260045260245ffd5b807f360894a13ba1a3210667c828492db98dca3e2076cc3735a920a3ca505d382bbc859203610e115750823b15610de6578073ffffffffffffffffffffffffffffffffffffffff197f360894a13ba1a3210667c828492db98dca3e2076cc3735a920a3ca505d382bbc5416177f360894a13ba1a3210667c828492db98dca3e2076cc3735a920a3ca505d382bbc557fbc7cd75a20ee27fd9adebab32041f755214dbc6bffa90cc0225b39da2e5c2d3b5f80a2805115610db55761064a9161211a565b505034610dbe57005b7fb398979f000000000000000000000000000000000000000000000000000000005f5260045ffd5b7f4c9c8ce3000000000000000000000000000000000000000000000000000000005f5260045260245ffd5b7faa1d49a4000000000000000000000000000000000000000000000000000000005f5260045260245ffd5b9091506020813d602011610e68575b81610e5860209383611971565b810103126105f757519085610cc2565b3d9150610e4b565b90506001600160a01b037f360894a13ba1a3210667c828492db98dca3e2076cc3735a920a3ca505d382bbc5416141583610c73565b346105f75760406003193601126105f75760043567ffffffffffffffff81116105f757610ed6903690600401611943565b9060243567ffffffffffffffff81116105f757610ef7903690600401611943565b92907ff0c57e16840df040f15088dc2f81fe391c3923bec73e23a9662efc9c229c6a005460ff8160401c16159367ffffffffffffffff82168015908161150e575b6001149081611504575b1590816114fb575b506114d357610fce93828660017fffffffffffffffffffffffffffffffffffffffffffffffff0000000000000000610fc69616177ff0c57e16840df040f15088dc2f81fe391c3923bec73e23a9662efc9c229c6a005561147e575b50610fae6120c3565b610fb66120c3565b610fbf33611f22565b36916119b0565b9336916119b0565b90610fd76120c3565b610fdf6120c3565b825167ffffffffffffffff81116112c75761101a7f80bb2b638cc20bc4d0a60d66940f3ab4a00c1d7b313497ca82fb0b4ab007930054611a04565b601f81116113be575b506020601f82116001146112ff57819293945f926112f4575b50508160011b915f199060031b1c1916177f80bb2b638cc20bc4d0a60d66940f3ab4a00c1d7b313497ca82fb0b4ab0079300555b815167ffffffffffffffff81116112c7576110ab7f80bb2b638cc20bc4d0a60d66940f3ab4a00c1d7b313497ca82fb0b4ab007930154611a04565b601f8111611245575b50602092601f82116001146111a657928192935f9261119b575b50508160011b915f199060031b1c1916177f80bb2b638cc20bc4d0a60d66940f3ab4a00c1d7b313497ca82fb0b4ab0079301555b61110857005b7fffffffffffffffffffffffffffffffffffffffffffffff00ffffffffffffffff7ff0c57e16840df040f15088dc2f81fe391c3923bec73e23a9662efc9c229c6a0054167ff0c57e16840df040f15088dc2f81fe391c3923bec73e23a9662efc9c229c6a00557fc7f505b2f371ae2175ee4913f4499e1f2633a7b5936321eed1cdaeb6115181d2602060405160018152a1005b0151905083806110ce565b601f198216937f80bb2b638cc20bc4d0a60d66940f3ab4a00c1d7b313497ca82fb0b4ab00793015f52805f20915f5b86811061122d5750836001959610611215575b505050811b017f80bb2b638cc20bc4d0a60d66940f3ab4a00c1d7b313497ca82fb0b4ab007930155611102565b01515f1960f88460031b161c191690558380806111e8565b919260206001819286850151815501940192016111d5565b7f80bb2b638cc20bc4d0a60d66940f3ab4a00c1d7b313497ca82fb0b4ab00793015f527ff4bad0a69248f59680a4f2b3000328cec71a413447c96781cfe5996daa8c456e601f830160051c810191602084106112bd575b601f0160051c01905b8181106112b257506110b4565b5f81556001016112a5565b909150819061129c565b7f4e487b71000000000000000000000000000000000000000000000000000000005f52604160045260245ffd5b01519050848061103c565b601f198216907f80bb2b638cc20bc4d0a60d66940f3ab4a00c1d7b313497ca82fb0b4ab00793005f527f37c58c799b6609234b945e882912ee9ad34948a1dfaa20a97485e1a7752bbf81915f5b8181106113a65750958360019596971061138e575b505050811b017f80bb2b638cc20bc4d0a60d66940f3ab4a00c1d7b313497ca82fb0b4ab007930055611070565b01515f1960f88460031b161c19169055848080611361565b9192602060018192868b01518155019401920161134c565b7f80bb2b638cc20bc4d0a60d66940f3ab4a00c1d7b313497ca82fb0b4ab00793005f52601f820160051c7f37c58c799b6609234b945e882912ee9ad34948a1dfaa20a97485e1a7752bbf81019060208310611456575b601f0160051c7f37c58c799b6609234b945e882912ee9ad34948a1dfaa20a97485e1a7752bbf8101905b81811061144b5750611023565b5f815560010161143e565b7f37c58c799b6609234b945e882912ee9ad34948a1dfaa20a97485e1a7752bbf819150611414565b7fffffffffffffffffffffffffffffffffffffffffffffff0000000000000000001668010000000000000001177ff0c57e16840df040f15088dc2f81fe391c3923bec73e23a9662efc9c229c6a005587610fa5565b7ff92ee8a9000000000000000000000000000000000000000000000000000000005f5260045ffd5b90501587610f4a565b303b159150610f42565b869150610f38565b346105f75761064a61152736611909565b9060405192611537602085611971565b5f8452611d85565b346105f75761064a61155036611909565b91611a55565b346105f75760406003193601126105f75761156f6118dd565b60243561157b81611fea565b33151580611699575b80611641575b6116155781906001600160a01b0380851691167f8c5be1e5ebec7d5bd14f71427d1e84f3dd0314c0f7b2291e5b200ac8c7c3b9255f80a45f527f80bb2b638cc20bc4d0a60d66940f3ab4a00c1d7b313497ca82fb0b4ab00793046020526001600160a01b0360405f20911673ffffffffffffffffffffffffffffffffffffffff198254161790555f80f35b7fa9fbf51f000000000000000000000000000000000000000000000000000000005f523360045260245ffd5b5061167c816001600160a01b03165f527f80bb2b638cc20bc4d0a60d66940f3ab4a00c1d7b313497ca82fb0b4ab007930560205260405f2090565b6001600160a01b0333165f5260205260ff60405f2054161561158a565b50336001600160a01b0382161415611584565b346105f75760206003193601126105f7576020610b076004356116ce81611fea565b505f527f80bb2b638cc20bc4d0a60d66940f3ab4a00c1d7b313497ca82fb0b4ab00793046020526001600160a01b0360405f20541690565b346105f7575f6003193601126105f7576040515f7f80bb2b638cc20bc4d0a60d66940f3ab4a00c1d7b313497ca82fb0b4ab00793005461174581611a04565b8084529060018116908115610943575060011461176c576105f3836108b281850382611971565b7f80bb2b638cc20bc4d0a60d66940f3ab4a00c1d7b313497ca82fb0b4ab00793005f9081527f37c58c799b6609234b945e882912ee9ad34948a1dfaa20a97485e1a7752bbf81939250905b8082106117cf575090915081016020016108b26108a2565b9192600181602092548385880101520191019092916117b7565b346105f75760206003193601126105f757600435907fffffffff0000000000000000000000000000000000000000000000000000000082168092036105f757817f80ac58cd000000000000000000000000000000000000000000000000000000006020931490811561188e575b8115611864575b5015158152f35b7f01ffc9a7000000000000000000000000000000000000000000000000000000009150148361185d565b7f5b5e139f0000000000000000000000000000000000000000000000000000000081149150611856565b90601f19601f602080948051918291828752018686015e5f8582860101520116010190565b600435906001600160a01b03821682036105f757565b602435906001600160a01b03821682036105f757565b60031960609101126105f7576004356001600160a01b03811681036105f757906024356001600160a01b03811681036105f7579060443590565b9181601f840112156105f75782359167ffffffffffffffff83116105f757602083818601950101116105f757565b90601f601f19910116810190811067ffffffffffffffff8211176112c757604052565b67ffffffffffffffff81116112c757601f01601f191660200190565b9291926119bc82611994565b916119ca6040519384611971565b8294818452818301116105f7578281602093845f960137010152565b9080601f830112156105f757816020611a01933591016119b0565b90565b90600182811c92168015611a4b575b6020831014611a1e57565b7f4e487b71000000000000000000000000000000000000000000000000000000005f52602260045260245ffd5b91607f1691611a13565b9190916001600160a01b038316908115611d7257611aa4835f527f80bb2b638cc20bc4d0a60d66940f3ab4a00c1d7b313497ca82fb0b4ab00793026020526001600160a01b0360405f20541690565b833315159384611c33575b6001600160a01b039450611afb8584169788611bae576001600160a01b03165f527f80bb2b638cc20bc4d0a60d66940f3ab4a00c1d7b313497ca82fb0b4ab007930360205260405f2090565b60018154019055815f527f80bb2b638cc20bc4d0a60d66940f3ab4a00c1d7b313497ca82fb0b4ab007930260205260405f208173ffffffffffffffffffffffffffffffffffffffff19825416179055867fddf252ad1be2c89b69c2b068fc378daa952ba7f163c4a11628f55a4df523b3ef5f80a45016808303611b7d57505050565b7f64283d7b000000000000000000000000000000000000000000000000000000005f5260045260245260445260645ffd5b611bf9845f527f80bb2b638cc20bc4d0a60d66940f3ab4a00c1d7b313497ca82fb0b4ab007930460205260405f2073ffffffffffffffffffffffffffffffffffffffff198154169055565b6104b7856001600160a01b03165f527f80bb2b638cc20bc4d0a60d66940f3ab4a00c1d7b313497ca82fb0b4ab007930360205260405f2090565b91929380915090611cb6575b15611c4d5790838392611aaf565b836001600160a01b038316611c87577f7e273289000000000000000000000000000000000000000000000000000000005f5260045260245ffd5b7f177e802f000000000000000000000000000000000000000000000000000000005f523360045260245260445ffd5b50336001600160a01b038316148015611d1b575b80611c3f5750336001600160a01b03611d14865f527f80bb2b638cc20bc4d0a60d66940f3ab4a00c1d7b313497ca82fb0b4ab00793046020526001600160a01b0360405f20541690565b1614611c3f565b50611d56826001600160a01b03165f527f80bb2b638cc20bc4d0a60d66940f3ab4a00c1d7b313497ca82fb0b4ab007930560205260405f2090565b6001600160a01b0333165f5260205260ff60405f205416611cca565b633250574960e11b5f525f60045260245ffd5b90611d91838284611a55565b803b611d9e575b50505050565b602091611dfd6001600160a01b038093169560405195869485947f150b7a0200000000000000000000000000000000000000000000000000000000865233600487015216602485015260448401526080606484015260848301906118b8565b03815f865af15f9181611ec5575b50611e6057503d15611e59573d611e2181611994565b90611e2f6040519283611971565b81523d5f602083013e5b80519081611e545782633250574960e11b5f5260045260245ffd5b602001fd5b6060611e39565b7fffffffff000000000000000000000000000000000000000000000000000000007f150b7a0200000000000000000000000000000000000000000000000000000000911603611eb357505f808080611d98565b633250574960e11b5f5260045260245ffd5b9091506020813d602011611f1a575b81611ee160209383611971565b810103126105f757517fffffffff00000000000000000000000000000000000000000000000000000000811681036105f757905f611e0b565b3d9150611ed4565b6001600160a01b03168015611fbe576001600160a01b037f9016d09d72d40fdae2fd8ceac6b6234c7706214fd39c1cd1e609a0528c199300548273ffffffffffffffffffffffffffffffffffffffff198216177f9016d09d72d40fdae2fd8ceac6b6234c7706214fd39c1cd1e609a0528c19930055167f8be0079c531659141344cd1fd0a4f28419497f9722a3daafe3b4186f6b6457e05f80a3565b7f1e4fbdf7000000000000000000000000000000000000000000000000000000005f525f60045260245ffd5b612025815f527f80bb2b638cc20bc4d0a60d66940f3ab4a00c1d7b313497ca82fb0b4ab00793026020526001600160a01b0360405f20541690565b906001600160a01b03821615612039575090565b7f7e273289000000000000000000000000000000000000000000000000000000005f5260045260245ffd5b6001600160a01b037f9016d09d72d40fdae2fd8ceac6b6234c7706214fd39c1cd1e609a0528c1993005416330361209757565b7f118cdaa7000000000000000000000000000000000000000000000000000000005f523360045260245ffd5b60ff7ff0c57e16840df040f15088dc2f81fe391c3923bec73e23a9662efc9c229c6a005460401c16156120f257565b7fd7e6bcf8000000000000000000000000000000000000000000000000000000005f5260045ffd5b905f8091602081519101845af480806121c1575b1561214e5750506040513d81523d5f602083013e60203d82010160405290565b15612188576001600160a01b03907f9996b315000000000000000000000000000000000000000000000000000000005f521660045260245ffd5b3d15612199576040513d5f823e3d90fd5b7fd6bda275000000000000000000000000000000000000000000000000000000005f5260045ffd5b503d15158061212e5750813b151561212e56fea264697066735822122078139ace5f3e5efd5af43b51da8387c5774036c60bf1a9e6fe57eda82413606c64736f6c634300081e0033f0c57e16840df040f15088dc2f81fe391c3923bec73e23a9662efc9c229c6a00","linkReferences":{}},"methodIdentifiers":{"UPGRADE_INTERFACE_VERSION()":"ad3cb1cc","addController(address)":"a7fc7a07","approve(address,uint256)":"095ea7b3","available(uint256)":"96e494e8","balanceOf(address)":"70a08231","controllers(address)":"da8c229e","getApproved(uint256)":"081812fc","initialize(string,string)":"4cd88b76","isApprovedForAll(address,address)":"e985e9c5","name()":"06fdde03","owner()":"8da5cb5b","ownerOf(uint256)":"6352211e","proxiableUUID()":"52d1902d","register(uint256,address)":"dbbdf083","removeController(address)":"f6a74ed7","renounceOwnership()":"715018a6","safeTransferFrom(address,address,uint256)":"42842e0e","safeTransferFrom(address,address,uint256,bytes)":"b88d4fde","setApprovalForAll(address,bool)":"a22cb465","supportsInterface(bytes4)":"01ffc9a7","symbol()":"95d89b41","tokenURI(uint256)":"c87b56dd","transferFrom(address,address,uint256)":"23b872dd","transferOwnership(address)":"f2fde38b","upgradeToAndCall(address,bytes)":"4f1ef286","version()":"54fd4d50"},"storageLayout":{"storage":[{"astId":1003,"contract":"contracts/registrars/DotnsRegistrar.sol:DotnsRegistrar","label":"controllers","offset":0,"slot":"0","type":"t_mapping(t_contract(IDotnsRegistrarController)2404,t_bool)"},{"astId":1008,"contract":"contracts/registrars/DotnsRegistrar.sol:DotnsRegistrar","label":"__gap","offset":0,"slot":"1","type":"t_array(t_uint256)50_storage"}],"types":{"t_array(t_uint256)50_storage":{"encoding":"inplace","label":"uint256[50]","numberOfBytes":"1600","base":"t_uint256"},"t_bool":{"encoding":"inplace","label":"bool","numberOfBytes":"1"},"t_contract(IDotnsRegistrarController)2404":{"encoding":"inplace","label":"contract IDotnsRegistrarController","numberOfBytes":"20"},"t_mapping(t_contract(IDotnsRegistrarController)2404,t_bool)":{"encoding":"mapping","key":"t_contract(IDotnsRegistrarController)2404","label":"mapping(contract IDotnsRegistrarController => bool)","numberOfBytes":"32","value":"t_bool"},"t_uint256":{"encoding":"inplace","label":"uint256","numberOfBytes":"32"}}},"id":3}