{"abi":[{"type":"constructor","inputs":[],"stateMutability":"nonpayable"},{"type":"function","name":"MAX_ALLOWED_COMMITMENT_AGE","inputs":[],"outputs":[{"name":"","type":"uint256","internalType":"uint256"}],"stateMutability":"view"},{"type":"function","name":"UPGRADE_INTERFACE_VERSION","inputs":[],"outputs":[{"name":"","type":"string","internalType":"string"}],"stateMutability":"view"},{"type":"function","name":"available","inputs":[{"name":"label","type":"string","internalType":"string"}],"outputs":[{"name":"","type":"bool","internalType":"bool"}],"stateMutability":"view"},{"type":"function","name":"commit","inputs":[{"name":"commitment","type":"bytes32","internalType":"bytes32"}],"outputs":[],"stateMutability":"nonpayable"},{"type":"function","name":"commitments","inputs":[{"name":"hash","type":"bytes32","internalType":"bytes32"}],"outputs":[{"name":"timestamp","type":"uint256","internalType":"uint256"}],"stateMutability":"view"},{"type":"function","name":"dotnsRegistrar","inputs":[],"outputs":[{"name":"","type":"address","internalType":"contract IDotnsRegistrar"}],"stateMutability":"view"},{"type":"function","name":"dotnsRegistry","inputs":[],"outputs":[{"name":"","type":"address","internalType":"contract IDotnsRegistry"}],"stateMutability":"view"},{"type":"function","name":"initialize","inputs":[{"name":"registrar","type":"address","internalType":"contract IDotnsRegistrar"},{"name":"registry","type":"address","internalType":"contract IDotnsRegistry"},{"name":"reverse","type":"address","internalType":"contract IDotnsReverseResolver"},{"name":"rules","type":"address","internalType":"contract IPopRules"},{"name":"factory","type":"address","internalType":"contract IStoreFactory"},{"name":"minAge","type":"uint256","internalType":"uint256"},{"name":"maxAge","type":"uint256","internalType":"uint256"}],"outputs":[],"stateMutability":"nonpayable"},{"type":"function","name":"isWhiteListed","inputs":[{"name":"who","type":"address","internalType":"address"}],"outputs":[{"name":"","type":"bool","internalType":"bool"}],"stateMutability":"view"},{"type":"function","name":"makeCommitment","inputs":[{"name":"registration","type":"tuple","internalType":"struct IDotnsRegistrarController.Registration","components":[{"name":"label","type":"string","internalType":"string"},{"name":"owner","type":"address","internalType":"address"},{"name":"secret","type":"bytes32","internalType":"bytes32"},{"name":"reserved","type":"bool","internalType":"bool"}]}],"outputs":[{"name":"commitment","type":"bytes32","internalType":"bytes32"}],"stateMutability":"pure"},{"type":"function","name":"maxCommitmentAge","inputs":[],"outputs":[{"name":"","type":"uint256","internalType":"uint256"}],"stateMutability":"view"},{"type":"function","name":"minCommitmentAge","inputs":[],"outputs":[{"name":"","type":"uint256","internalType":"uint256"}],"stateMutability":"view"},{"type":"function","name":"owner","inputs":[],"outputs":[{"name":"","type":"address","internalType":"address"}],"stateMutability":"view"},{"type":"function","name":"popRules","inputs":[],"outputs":[{"name":"","type":"address","internalType":"contract IPopRules"}],"stateMutability":"view"},{"type":"function","name":"proxiableUUID","inputs":[],"outputs":[{"name":"","type":"bytes32","internalType":"bytes32"}],"stateMutability":"view"},{"type":"function","name":"register","inputs":[{"name":"registration","type":"tuple","internalType":"struct IDotnsRegistrarController.Registration","components":[{"name":"label","type":"string","internalType":"string"},{"name":"owner","type":"address","internalType":"address"},{"name":"secret","type":"bytes32","internalType":"bytes32"},{"name":"reserved","type":"bool","internalType":"bool"}]}],"outputs":[],"stateMutability":"payable"},{"type":"function","name":"registerReserved","inputs":[{"name":"registration","type":"tuple","internalType":"struct IDotnsRegistrarController.Registration","components":[{"name":"label","type":"string","internalType":"string"},{"name":"owner","type":"address","internalType":"address"},{"name":"secret","type":"bytes32","internalType":"bytes32"},{"name":"reserved","type":"bool","internalType":"bool"}]}],"outputs":[],"stateMutability":"nonpayable"},{"type":"function","name":"renounceOwnership","inputs":[],"outputs":[],"stateMutability":"nonpayable"},{"type":"function","name":"reverseResolver","inputs":[],"outputs":[{"name":"","type":"address","internalType":"contract IDotnsReverseResolver"}],"stateMutability":"view"},{"type":"function","name":"storeFactory","inputs":[],"outputs":[{"name":"","type":"address","internalType":"contract IStoreFactory"}],"stateMutability":"view"},{"type":"function","name":"supportsInterface","inputs":[{"name":"interfaceId","type":"bytes4","internalType":"bytes4"}],"outputs":[{"name":"","type":"bool","internalType":"bool"}],"stateMutability":"view"},{"type":"function","name":"transferOwnership","inputs":[{"name":"newOwner","type":"address","internalType":"address"}],"outputs":[],"stateMutability":"nonpayable"},{"type":"function","name":"upgradeToAndCall","inputs":[{"name":"newImplementation","type":"address","internalType":"address"},{"name":"data","type":"bytes","internalType":"bytes"}],"outputs":[],"stateMutability":"payable"},{"type":"function","name":"version","inputs":[],"outputs":[{"name":"versionString","type":"string","internalType":"string"}],"stateMutability":"pure"},{"type":"function","name":"whiteList","inputs":[{"name":"user","type":"address","internalType":"address"}],"outputs":[{"name":"isWhiteListed","type":"bool","internalType":"bool"}],"stateMutability":"view"},{"type":"function","name":"whiteListAddress","inputs":[{"name":"who","type":"address","internalType":"address"},{"name":"whiteListStatus","type":"bool","internalType":"bool"}],"outputs":[],"stateMutability":"nonpayable"},{"type":"event","name":"Initialized","inputs":[{"name":"version","type":"uint64","indexed":false,"internalType":"uint64"}],"anonymous":false},{"type":"event","name":"NameCommitted","inputs":[{"name":"commitment","type":"bytes32","indexed":true,"internalType":"bytes32"}],"anonymous":false},{"type":"event","name":"NameRegistered","inputs":[{"name":"label","type":"string","indexed":true,"internalType":"string"},{"name":"labelhash","type":"bytes32","indexed":true,"internalType":"bytes32"},{"name":"owner","type":"address","indexed":true,"internalType":"address"},{"name":"baseCost","type":"uint256","indexed":false,"internalType":"uint256"},{"name":"store","type":"address","indexed":false,"internalType":"address"}],"anonymous":false},{"type":"event","name":"OwnershipTransferred","inputs":[{"name":"previousOwner","type":"address","indexed":true,"internalType":"address"},{"name":"newOwner","type":"address","indexed":true,"internalType":"address"}],"anonymous":false},{"type":"event","name":"Upgraded","inputs":[{"name":"implementation","type":"address","indexed":true,"internalType":"address"}],"anonymous":false},{"type":"event","name":"WhiteListed","inputs":[{"name":"who","type":"address","indexed":true,"internalType":"address"},{"name":"whiteListStatus","type":"bool","indexed":true,"internalType":"bool"}],"anonymous":false},{"type":"error","name":"AddressEmptyCode","inputs":[{"name":"target","type":"address","internalType":"address"}]},{"type":"error","name":"CommitmentNotFound","inputs":[{"name":"commitment","type":"bytes32","internalType":"bytes32"}]},{"type":"error","name":"CommitmentTooNew","inputs":[{"name":"commitment","type":"bytes32","internalType":"bytes32"},{"name":"minTime","type":"uint256","internalType":"uint256"},{"name":"currentTime","type":"uint256","internalType":"uint256"}]},{"type":"error","name":"CommitmentTooOld","inputs":[{"name":"commitment","type":"bytes32","internalType":"bytes32"},{"name":"maxTime","type":"uint256","internalType":"uint256"},{"name":"currentTime","type":"uint256","internalType":"uint256"}]},{"type":"error","name":"ERC1967InvalidImplementation","inputs":[{"name":"implementation","type":"address","internalType":"address"}]},{"type":"error","name":"ERC1967NonPayable","inputs":[]},{"type":"error","name":"FailedCall","inputs":[]},{"type":"error","name":"InsufficientValue","inputs":[]},{"type":"error","name":"InvalidInitialization","inputs":[]},{"type":"error","name":"InvalidStore","inputs":[]},{"type":"error","name":"MaxCommitmentAgeTooHigh","inputs":[]},{"type":"error","name":"MaxCommitmentAgeTooLow","inputs":[]},{"type":"error","name":"NameNotAvailable","inputs":[{"name":"label","type":"string","internalType":"string"}]},{"type":"error","name":"NotInitializing","inputs":[]},{"type":"error","name":"NotRegistry","inputs":[]},{"type":"error","name":"NotWhiteListedOrOwner","inputs":[{"name":"caller","type":"address","internalType":"address"}]},{"type":"error","name":"OwnableInvalidOwner","inputs":[{"name":"owner","type":"address","internalType":"address"}]},{"type":"error","name":"OwnableUnauthorizedAccount","inputs":[{"name":"account","type":"address","internalType":"address"}]},{"type":"error","name":"RefundFailed","inputs":[]},{"type":"error","name":"UUPSUnauthorizedCallContext","inputs":[]},{"type":"error","name":"UUPSUnsupportedProxiableUUID","inputs":[{"name":"slot","type":"bytes32","internalType":"bytes32"}]},{"type":"error","name":"UnexpiredCommitmentExists","inputs":[{"name":"commitment","type":"bytes32","internalType":"bytes32"}]}],"bytecode":{"object":"0x60a080604052346100c257306080525f5160206121495f395f51905f525460ff8160401c166100b3576002600160401b03196001600160401b03821601610060575b60405161208290816100c7823960805181818161085a01526109ac0152f35b6001600160401b0319166001600160401b039081175f5160206121495f395f51905f525581527fc7f505b2f371ae2175ee4913f4499e1f2633a7b5936321eed1cdaeb6115181d290602090a15f80610041565b63f92ee8a960e01b5f5260045ffd5b5f80fdfe60806040526004361015610011575f80fd5b5f3560e01c806301ffc9a7146101af5780630823f277146101aa578063206c6855146101a557806320788cae146101a0578063372c12b11461017d5780634f1ef2861461019b578063519382a71461019657806352d1902d1461019157806354fd4d501461018c5780635557f0431461018757806364609517146101825780636f9170f61461017d578063715018a6146101785780637a23df1d14610173578063839df9451461016e5780638d839ffe146101695780638da5cb5b146101645780639dd219281461015f578063ad3cb1cc1461015a578063aeb8ce9b14610155578063b26675d514610150578063b33f95271461014b578063bfc8d3b414610146578063ce1e09c014610141578063f14fcbc81461013c5763f2fde38b14610137575f80fd5b61146c565b6113d2565b6113b5565b61138d565b6111d8565b610cf4565b610c85565b610c3e565b610bbd565b610b7f565b610b62565b610b3e565b610b0c565b610aa5565b610721565b610a7d565b610a60565b610a15565b61099a565b610972565b610807565b6106e9565b61026e565b610213565b346102055760203660031901126102055760043563ffffffff60e01b811680910361020557602090630459dae160e41b81149081156101f4575b506040519015158152f35b6301ffc9a760e01b1490505f6101e9565b5f80fd5b5f91031261020557565b34610205575f366003190112610205576004546040516001600160a01b039091168152602090f35b602060031982011261020557600435906001600160401b0382116102055760809082900360031901126102055760040190565b346102055761027c3661023b565b335f52600860205260ff60405f20541680156106c9575b156106b6576102be6102ae6102a88380611499565b906117aa565b6102b88380611499565b916114eb565b6102d16102cb8280611499565b90611c27565b604080517f3fce7d1364a893e213bc4212792b517ffc88f5b13b86c8ef9c8d390c3a1370ce815260208101839052205f61038361030d85611748565b610375610322825f52600760205260405f2090565b5461032f8382151561151f565b61035460055461033f81846115a1565b8561034b4293866115a1565b914210156115ae565b6006548361036f4261036684866115a1565b119242946115a1565b916115d0565b5f52600760205260405f2090565b555f546103a0906001600160a01b03165b6001600160a01b031690565b9060208401916103af836115f2565b6103b98680611499565b9092803b15610205576103e7935f8094604051968795869485936323a663e960e01b85528b600486016115ff565b03925af18015610675576106a2575b5060015461040c906001600160a01b0316610394565b90610416836115f2565b60025490929061042e906001600160a01b0316610394565b90803b156102055760405163061738a960e41b815260048101939093526001600160a01b03938416602484015292166044820152905f908290606490829084905af180156106755761068e575b50600254610491906001600160a01b0316610394565b61049a826115f2565b6104ad6104a78680611499565b90611632565b823b15610205576104d7925f92836040518096819582946382d022b560e01b845260048401611668565b03925af180156106755761067a575b5061056d6104f261168a565b61050e306104ff836116c0565b6001600160a01b039091169052565b60015461053090610527906001600160a01b0316610394565b6104ff836116d2565b5f5461055190610548906001600160a01b0316610394565b6104ff836116e2565b6004546001600160a01b031690610567846115f2565b91611c47565b604080516f191bdd1b9ccb9c9959da5cdd195c995960821b815260208101859052206001600160a01b03909116936105a4836115f2565b6105b16104a78380611499565b92863b15610205575f916105d96040519586938493631f67f7b760e11b855260048501611706565b038183895af19081156106755761062a610622610630927f3cafc9840d73ebb201c4ba9a644f117a6175b9481b314fae31485d257153b095956106569561065b575b5080611499565b9190956115f2565b9461172a565b604080515f81526001600160a01b03978816602082015294909616959093918291820190565b0390a4005b806106695f61066f93610795565b80610209565b5f61061b565b611627565b806106695f61068893610795565b5f6104e6565b806106695f61069c93610795565b5f61047b565b806106695f6106b093610795565b5f6103f6565b63c89d174d60e01b5f523360045260245ffd5b505f516020611fed5f395f51905f52546001600160a01b03163314610293565b34610205575f366003190112610205575f546040516001600160a01b039091168152602090f35b6001600160a01b0381160361020557565b346102055760203660031901126102055760043561073e81610710565b60018060a01b03165f526008602052602060ff60405f2054166040519015158152f35b634e487b7160e01b5f52604160045260245ffd5b608081019081106001600160401b0382111761079057604052565b610761565b90601f801991011681019081106001600160401b0382111761079057604052565b6001600160401b03811161079057601f01601f191660200190565b9291926107dd826107b6565b916107eb6040519384610795565b829481845281830111610205578281602093845f960137010152565b60403660031901126102055760043561081f81610710565b6024356001600160401b03811161020557366023820112156102055761084f9036906024816004013591016107d1565b906001600160a01b037f000000000000000000000000000000000000000000000000000000000000000016308114908115610950575b5061094157610892611e41565b6040516352d1902d60e01b8152916020836004816001600160a01b0386165afa5f9381610910575b506108db57634c9c8ce360e01b5f526001600160a01b03821660045260245ffd5b905f51602061200d5f395f51905f5283036108fc576108fa9250611e93565b005b632a87526960e21b5f52600483905260245ffd5b61093391945060203d60201161093a575b61092b8183610795565b810190611e32565b925f6108ba565b503d610921565b63703e46dd60e11b5f5260045ffd5b5f51602061200d5f395f51905f52546001600160a01b0316141590505f610885565b34610205575f366003190112610205576003546040516001600160a01b039091168152602090f35b34610205575f366003190112610205577f00000000000000000000000000000000000000000000000000000000000000006001600160a01b031630036109415760206040515f51602061200d5f395f51905f528152f35b805180835260209291819084018484015e5f828201840152601f01601f1916010190565b34610205575f36600319011261020557610a5c604051610a36604082610795565b60058152640312e322e360dc1b60208201526040519182916020835260208301906109f1565b0390f35b34610205575f36600319011261020557602060405162093a808152f35b34610205575f366003190112610205576002546040516001600160a01b039091168152602090f35b34610205575f36600319011261020557610abd611e41565b5f516020611fed5f395f51905f5280546001600160a01b031981169091555f906001600160a01b03167f8be0079c531659141344cd1fd0a4f28419497f9722a3daafe3b4186f6b6457e08280a3005b34610205576020610b24610b1f3661023b565b611748565b604051908152f35b60209060031901126102055760043590565b3461020557610b4c36610b2c565b5f526007602052602060405f2054604051908152f35b34610205575f366003190112610205576020600554604051908152f35b34610205575f366003190112610205575f516020611fed5f395f51905f52546040516001600160a01b039091168152602090f35b8015150361020557565b3461020557604036600319011261020557600435610bda81610710565b60243590610be782610bb3565b610bef611e41565b6001600160a01b03165f818152600860205260408120805460ff191693151560ff81169490941790557f84ac0234e7a1ba4fc29d3f83d9bb91c347b3be5a168a035675f8b5bb1d4b1d7c9080a3005b34610205575f36600319011261020557610a5c604051610c5f604082610795565b60058152640352e302e360dc1b60208201526040519182916020835260208301906109f1565b34610205576020366003190112610205576004356001600160401b0381116102055736602382011215610205578060040135906001600160401b03821161020557366024838301011161020557610a5c916024610ce292016117aa565b60405190151581529081906020820190565b610da9610d003661023b565b610d106102ae6102a88380611499565b610d1d6102cb8280611499565b604080517f3fce7d1364a893e213bc4212792b517ffc88f5b13b86c8ef9c8d390c3a1370ce81526020810183905220905f610d5a61030d85611748565b55600354610d70906001600160a01b0316610394565b915f610d7c8580611499565b946020870195610d8b876115f2565b604051636bbfce2b60e01b8152998a94859384939160048501611a0b565b03915afa948515610675575f956111b4575b50610dc98551341015611a34565b5f54610ddd906001600160a01b0316610394565b610de6846115f2565b610df08680611499565b9092803b1561020557610e1e935f8094604051968795869485936323a663e960e01b85528b600486016115ff565b03925af18015610675576111a0575b50600154610e43906001600160a01b0316610394565b90610e4d846115f2565b600254909290610e65906001600160a01b0316610394565b90803b156102055760405163061738a960e41b815260048101939093526001600160a01b03938416602484015292166044820152905f908290606490829084905af180156106755761118c575b50610ebf6060840161173e565b61110e575b610f23610ecf61168a565b610edc306104ff836116c0565b600154610ef590610527906001600160a01b0316610394565b5f54610f0d90610548906001600160a01b0316610394565b6004546001600160a01b031690610567856115f2565b604080516f191bdd1b9ccb9c9959da5cdd195c995960821b815260208101849052206001600160a01b039091169190610f5b846115f2565b610f686104a78780611499565b91843b15610205575f91610f906040519485938493631f67f7b760e11b855260048501611706565b038183875af18015610675576110fa575b507f3cafc9840d73ebb201c4ba9a644f117a6175b9481b314fae31485d257153b095610fcd8580611499565b919093610fe5610fdc876115f2565b9389519661172a565b604080519687526001600160a01b0392831660208801529390911694909290a46001602084015161101581611a4a565b61101e81611a4a565b14806110da575b611058575b50505180341161103657005b5f8080806110476108fa9534611a68565b335af1611052611a75565b50611aa4565b600354611085929061107d90611076906001600160a01b0316610394565b9180611499565b9390926115f2565b90803b15610205576110b1935f8094604051968795869485936335696fa760e01b855260048501611a0b565b03925af18015610675576110c6575b8061102a565b806106695f6110d493610795565b5f6110c0565b50600160408401516110eb81611a4a565b6110f481611a4a565b14611025565b806106695f61110893610795565b5f610fa1565b600254611123906001600160a01b0316610394565b61112c836115f2565b6111396104a78680611499565b823b1561020557611163925f92836040518096819582946382d022b560e01b845260048401611668565b03925af1801561067557611178575b50610ec4565b806106695f61118693610795565b5f611172565b806106695f61119a93610795565b5f610eb2565b806106695f6111ae93610795565b5f610e2d565b6111d19195503d805f833e6111c98183610795565b810190611951565b935f610dbb565b346102055760e0366003190112610205576004356111f581610710565b6024359061120282610710565b60443561120e81610710565b60643561121a81610710565b60843561122681610710565b60a4359160c435935f51602061202d5f395f51905f5254966001600160401b0361126b61125e61125a8b60ff9060401c1690565b1590565b996001600160401b031690565b1680159081611385575b600114908161137b575b159081611372575b50611363576112ca96886112c160016001600160401b03195f51602061202d5f395f51905f525416175f51602061202d5f395f51905f5255565b61132957611aba565b6112d057005b6112fa60ff60401b195f51602061202d5f395f51905f5254165f51602061202d5f395f51905f5255565b604051600181527fc7f505b2f371ae2175ee4913f4499e1f2633a7b5936321eed1cdaeb6115181d290602090a1005b61135e6801000000000000000060ff60401b195f51602061202d5f395f51905f525416175f51602061202d5f395f51905f5255565b611aba565b63f92ee8a960e01b5f5260045ffd5b9050155f611287565b303b15915061127f565b899150611275565b34610205575f366003190112610205576001546040516001600160a01b039091168152602090f35b34610205575f366003190112610205576020600654604051908152f35b34610205576113e036610b2c565b805f52600760205260405f2054158015611446575b15611434574261140d825f52600760205260405f2090565b557fef22605c9809177582573db193c28d567e9f52de8f65e646f70f5ce1837728e95f80a2005b630a059d7160e01b5f5260045260245ffd5b50805f52600760205260405f205460065481018091116114675742116113f5565b611539565b34610205576020366003190112610205576108fa60043561148c81610710565b611494611e41565b611bb6565b903590601e198136030182121561020557018035906001600160401b0382116102055760200191813603831361020557565b908060209392818452848401375f828201840152601f01601f1916010190565b919091156114f7575050565b61151b6040519283926308eee0fd60e31b84526020600485015260248401916114cb565b0390fd5b156115275750565b63836588c960e01b5f5260045260245ffd5b634e487b7160e01b5f52601160045260245ffd5b906006820180921161146757565b906005820180921161146757565b906004820180921161146757565b906003820180921161146757565b906002820180921161146757565b906001820180921161146757565b9190820180921161146757565b156115b857505050565b6374480cc960e01b5f5260045260245260445260645ffd5b156115da57505050565b6312b7110b60e11b5f5260045260245260445260645ffd5b356115fc81610710565b90565b9081526001600160a01b0390911660208201526060604082018190526115fc939101916114cb565b6040513d5f823e3d90fd5b600460206116669294939485604051968792848401378101630b991bdd60e21b838201520301601b19810185520183610795565b565b6001600160a01b0390911681526040602082018190526115fc929101906109f1565b6040516080919061169b8382610795565b6003815291601f1901366020840137565b634e487b7160e01b5f52603260045260245ffd5b8051156116cd5760200190565b6116ac565b8051600110156116cd5760400190565b8051600210156116cd5760600190565b80518210156116cd5760209160051b010190565b6115fc939260609260018060a01b03168252602082015281604082015201906109f1565b81604051928392833781015f815203902090565b356115fc81610bb3565b60416117548280611499565b9092604060208201359161176783610710565b8160608201359161177783610bb3565b85825198893785880194855201356020840152151591015301902090565b9081602091031261020557516115fc81610bb3565b91906117b73682856107d1565b925f9380515f955b81811061188f575050506117eb82826117e660209561181d956003611851999a10156114eb565b611c27565b6040908151907f3fce7d1364a893e213bc4212792b517ffc88f5b13b86c8ef9c8d390c3a1370ce825260208201522090565b5f54611831906001600160a01b0316610394565b60405180809581946312dc929d60e31b8352600483019190602083019252565b03915afa908115610675575f91611866575090565b6115fc915060203d602011611888575b6118808183610795565b810190611795565b503d611876565b806118c16118b46118a66118dd94879b9697611e82565b516001600160f81b03191690565b6001600160f81b03191690565b600160ff1b8110156118e557506118d790611593565b91611e74565b9591906117bf565b600760fd1b8110156118fb57506118d790611585565b600f60fc1b81101561191157506118d790611577565b601f60fb1b81101561192757506118d790611569565b603f60fa1b111561193b576118d79061155b565b6118d79061154d565b5190600482101561020557565b602081830312610205578051906001600160401b038211610205570190608082820312610205576040519161198583610775565b8051835261199560208201611944565b60208401526119a660408201611944565b60408401526060810151906001600160401b038211610205570181601f82011215610205578051906119d7826107b6565b926119e56040519485610795565b8284526020838301011161020557815f9260208093018386015e83010152606082015290565b91602091611a24919594956040855260408501916114cb565b6001600160a01b03909416910152565b15611a3b57565b63044044a560e21b5f5260045ffd5b60041115611a5457565b634e487b7160e01b5f52602160045260245ffd5b9190820391821161146757565b3d15611a9f573d90611a86826107b6565b91611a946040519384610795565b82523d5f602084013e565b606090565b15611aab57565b633c31275160e21b5f5260045ffd5b9594929593909193611aca611f35565b611ad2611f35565b611adb33611bb6565b611ae3611f35565b83861115611ba75762093a808611611b985761166696611b9395611b8e94611b719360018060a01b03166001600160601b0360a01b5f5416175f5560018060a01b03166001600160601b0360a01b600154161760015560018060a01b03166001600160601b0360a01b600254161760025560018060a01b03166001600160601b0360a01b6003541617600355565b60018060a01b03166001600160601b0360a01b6004541617600455565b600555565b600655565b630b4319e560e21b5f5260045ffd5b6307cb550760e31b5f5260045ffd5b6001600160a01b03168015611c14575f516020611fed5f395f51905f5280546001600160a01b0319811683179091556001600160a01b03167f8be0079c531659141344cd1fd0a4f28419497f9722a3daafe3b4186f6b6457e05f80a3565b631e4fbdf760e01b5f525f60045260245ffd5b816040519182372090565b9081602091031261020557516115fc81610710565b604051637d1c0da960e11b81526001600160a01b03848116600483015293949190931692602081602481875afa908115610675575f91611e13575b506001600160a01b031680611e0c5750604051631dd70c0360e21b81526020816004815f885af1908115610675575f91611ddd575b506001600160a01b0316935f5b8351811015611d4057611ce7611cda82866116f2565b516001600160a01b031690565b90863b1561020557604051634462f7a360e11b81526001600160a01b039290921660048301525f82602481838b5af191821561067557600192611d2c575b5001611cc4565b806106695f611d3a93610795565b5f611d25565b50915091833b156102055760405163f2fde38b60e01b81526001600160a01b03831660048201525f8160248183895af1801561067557611dc9575b50803b156102055760405163f2fde38b60e01b81526001600160a01b039290921660048301525f908290602490829084905af1801561067557611dbb5750565b806106695f61166693610795565b806106695f611dd793610795565b5f611d7b565b611dff915060203d602011611e05575b611df78183610795565b810190611c32565b5f611cb7565b503d611ded565b9350915050565b611e2c915060203d602011611e0557611df78183610795565b5f611c82565b90816020910312610205575190565b5f516020611fed5f395f51905f52546001600160a01b03163303611e6157565b63118cdaa760e01b5f523360045260245ffd5b5f1981146114675760010190565b9081518110156116cd570160200190565b90813b15611f14575f51602061200d5f395f51905f5280546001600160a01b0319166001600160a01b0384169081179091557fbc7cd75a20ee27fd9adebab32041f755214dbc6bffa90cc0225b39da2e5c2d3b5f80a2805115611efc57611ef991611f60565b50565b505034611f0557565b63b398979f60e01b5f5260045ffd5b50634c9c8ce360e01b5f9081526001600160a01b0391909116600452602490fd5b60ff5f51602061202d5f395f51905f525460401c1615611f5157565b631afcd79f60e31b5f5260045ffd5b905f8091602081519101845af48080611fc0575b15611f835750506115fc611fd3565b15611fa857639996b31560e01b5f9081526001600160a01b0391909116600452602490fd5b3d15155f036116275763d6bda27560e01b5f5260045ffd5b503d151580611f745750813b1515611f74565b604051903d82523d5f602084013e60203d83010160405256fe9016d09d72d40fdae2fd8ceac6b6234c7706214fd39c1cd1e609a0528c199300360894a13ba1a3210667c828492db98dca3e2076cc3735a920a3ca505d382bbcf0c57e16840df040f15088dc2f81fe391c3923bec73e23a9662efc9c229c6a00a26469706673582212207d6bdc068ab9a9e01e2e7b16dc292a5a5695a10cc8835370d3437bc11c439d8864736f6c634300081e0033f0c57e16840df040f15088dc2f81fe391c3923bec73e23a9662efc9c229c6a00","linkReferences":{}},"methodIdentifiers":{"MAX_ALLOWED_COMMITMENT_AGE()":"5557f043","UPGRADE_INTERFACE_VERSION()":"ad3cb1cc","available(string)":"aeb8ce9b","commit(bytes32)":"f14fcbc8","commitments(bytes32)":"839df945","dotnsRegistrar()":"20788cae","dotnsRegistry()":"bfc8d3b4","initialize(address,address,address,address,address,uint256,uint256)":"b33f9527","isWhiteListed(address)":"6f9170f6","makeCommitment((string,address,bytes32,bool))":"7a23df1d","maxCommitmentAge()":"ce1e09c0","minCommitmentAge()":"8d839ffe","owner()":"8da5cb5b","popRules()":"519382a7","proxiableUUID()":"52d1902d","register((string,address,bytes32,bool))":"b26675d5","registerReserved((string,address,bytes32,bool))":"206c6855","renounceOwnership()":"715018a6","reverseResolver()":"64609517","storeFactory()":"0823f277","supportsInterface(bytes4)":"01ffc9a7","transferOwnership(address)":"f2fde38b","upgradeToAndCall(address,bytes)":"4f1ef286","version()":"54fd4d50","whiteList(address)":"372c12b1","whiteListAddress(address,bool)":"9dd21928"},"storageLayout":{"storage":[{"astId":1765,"contract":"contracts/registrars/DotnsRegistrarController.sol:DotnsRegistrarController","label":"dotnsRegistrar","offset":0,"slot":"0","type":"t_contract(IDotnsRegistrar)2807"},{"astId":1769,"contract":"contracts/registrars/DotnsRegistrarController.sol:DotnsRegistrarController","label":"dotnsRegistry","offset":0,"slot":"1","type":"t_contract(IDotnsRegistry)3977"},{"astId":1773,"contract":"contracts/registrars/DotnsRegistrarController.sol:DotnsRegistrarController","label":"reverseResolver","offset":0,"slot":"2","type":"t_contract(IDotnsReverseResolver)4839"},{"astId":1777,"contract":"contracts/registrars/DotnsRegistrarController.sol:DotnsRegistrarController","label":"popRules","offset":0,"slot":"3","type":"t_contract(IPopRules)156"},{"astId":1781,"contract":"contracts/registrars/DotnsRegistrarController.sol:DotnsRegistrarController","label":"storeFactory","offset":0,"slot":"4","type":"t_contract(IStoreFactory)5073"},{"astId":1784,"contract":"contracts/registrars/DotnsRegistrarController.sol:DotnsRegistrarController","label":"minCommitmentAge","offset":0,"slot":"5","type":"t_uint256"},{"astId":1787,"contract":"contracts/registrars/DotnsRegistrarController.sol:DotnsRegistrarController","label":"maxCommitmentAge","offset":0,"slot":"6","type":"t_uint256"},{"astId":1792,"contract":"contracts/registrars/DotnsRegistrarController.sol:DotnsRegistrarController","label":"commitments","offset":0,"slot":"7","type":"t_mapping(t_bytes32,t_uint256)"},{"astId":1804,"contract":"contracts/registrars/DotnsRegistrarController.sol:DotnsRegistrarController","label":"whiteList","offset":0,"slot":"8","type":"t_mapping(t_address,t_bool)"},{"astId":1809,"contract":"contracts/registrars/DotnsRegistrarController.sol:DotnsRegistrarController","label":"__gap","offset":0,"slot":"9","type":"t_array(t_uint256)49_storage"}],"types":{"t_address":{"encoding":"inplace","label":"address","numberOfBytes":"20"},"t_array(t_uint256)49_storage":{"encoding":"inplace","label":"uint256[49]","numberOfBytes":"1568","base":"t_uint256"},"t_bool":{"encoding":"inplace","label":"bool","numberOfBytes":"1"},"t_bytes32":{"encoding":"inplace","label":"bytes32","numberOfBytes":"32"},"t_contract(IDotnsRegistrar)2807":{"encoding":"inplace","label":"contract IDotnsRegistrar","numberOfBytes":"20"},"t_contract(IDotnsRegistry)3977":{"encoding":"inplace","label":"contract IDotnsRegistry","numberOfBytes":"20"},"t_contract(IDotnsReverseResolver)4839":{"encoding":"inplace","label":"contract IDotnsReverseResolver","numberOfBytes":"20"},"t_contract(IPopRules)156":{"encoding":"inplace","label":"contract IPopRules","numberOfBytes":"20"},"t_contract(IStoreFactory)5073":{"encoding":"inplace","label":"contract IStoreFactory","numberOfBytes":"20"},"t_mapping(t_address,t_bool)":{"encoding":"mapping","key":"t_address","label":"mapping(address => bool)","numberOfBytes":"32","value":"t_bool"},"t_mapping(t_bytes32,t_uint256)":{"encoding":"mapping","key":"t_bytes32","label":"mapping(bytes32 => uint256)","numberOfBytes":"32","value":"t_uint256"},"t_uint256":{"encoding":"inplace","label":"uint256","numberOfBytes":"32"}}},"id":3}