{"abi":[{"type":"constructor","inputs":[],"stateMutability":"nonpayable"},{"type":"function","name":"UPGRADE_INTERFACE_VERSION","inputs":[],"outputs":[{"name":"","type":"string","internalType":"string"}],"stateMutability":"view"},{"type":"function","name":"addController","inputs":[{"name":"controller","type":"address","internalType":"contract IDotnsRegistrarController"}],"outputs":[],"stateMutability":"nonpayable"},{"type":"function","name":"approve","inputs":[{"name":"to","type":"address","internalType":"address"},{"name":"tokenId","type":"uint256","internalType":"uint256"}],"outputs":[],"stateMutability":"nonpayable"},{"type":"function","name":"available","inputs":[{"name":"id","type":"uint256","internalType":"uint256"}],"outputs":[{"name":"isAvailable","type":"bool","internalType":"bool"}],"stateMutability":"view"},{"type":"function","name":"balanceOf","inputs":[{"name":"owner","type":"address","internalType":"address"}],"outputs":[{"name":"","type":"uint256","internalType":"uint256"}],"stateMutability":"view"},{"type":"function","name":"controllers","inputs":[{"name":"controller","type":"address","internalType":"contract IDotnsRegistrarController"}],"outputs":[{"name":"exists","type":"bool","internalType":"bool"}],"stateMutability":"view"},{"type":"function","name":"getApproved","inputs":[{"name":"tokenId","type":"uint256","internalType":"uint256"}],"outputs":[{"name":"","type":"address","internalType":"address"}],"stateMutability":"view"},{"type":"function","name":"initialize","inputs":[{"name":"name","type":"string","internalType":"string"},{"name":"symbol","type":"string","internalType":"string"}],"outputs":[],"stateMutability":"nonpayable"},{"type":"function","name":"isApprovedForAll","inputs":[{"name":"owner","type":"address","internalType":"address"},{"name":"operator","type":"address","internalType":"address"}],"outputs":[{"name":"","type":"bool","internalType":"bool"}],"stateMutability":"view"},{"type":"function","name":"name","inputs":[],"outputs":[{"name":"","type":"string","internalType":"string"}],"stateMutability":"view"},{"type":"function","name":"owner","inputs":[],"outputs":[{"name":"","type":"address","internalType":"address"}],"stateMutability":"view"},{"type":"function","name":"ownerOf","inputs":[{"name":"tokenId","type":"uint256","internalType":"uint256"}],"outputs":[{"name":"","type":"address","internalType":"address"}],"stateMutability":"view"},{"type":"function","name":"protocolRegistry","inputs":[],"outputs":[{"name":"","type":"address","internalType":"contract IDotnsProtocolRegistry"}],"stateMutability":"view"},{"type":"function","name":"proxiableUUID","inputs":[],"outputs":[{"name":"","type":"bytes32","internalType":"bytes32"}],"stateMutability":"view"},{"type":"function","name":"register","inputs":[{"name":"id","type":"uint256","internalType":"uint256"},{"name":"owner","type":"address","internalType":"address"},{"name":"label","type":"string","internalType":"string"}],"outputs":[],"stateMutability":"nonpayable"},{"type":"function","name":"removeController","inputs":[{"name":"controller","type":"address","internalType":"contract IDotnsRegistrarController"}],"outputs":[],"stateMutability":"nonpayable"},{"type":"function","name":"renounceOwnership","inputs":[],"outputs":[],"stateMutability":"nonpayable"},{"type":"function","name":"safeTransferFrom","inputs":[{"name":"from","type":"address","internalType":"address"},{"name":"to","type":"address","internalType":"address"},{"name":"tokenId","type":"uint256","internalType":"uint256"}],"outputs":[],"stateMutability":"nonpayable"},{"type":"function","name":"safeTransferFrom","inputs":[{"name":"from","type":"address","internalType":"address"},{"name":"to","type":"address","internalType":"address"},{"name":"tokenId","type":"uint256","internalType":"uint256"},{"name":"data","type":"bytes","internalType":"bytes"}],"outputs":[],"stateMutability":"nonpayable"},{"type":"function","name":"setApprovalForAll","inputs":[{"name":"operator","type":"address","internalType":"address"},{"name":"approved","type":"bool","internalType":"bool"}],"outputs":[],"stateMutability":"nonpayable"},{"type":"function","name":"supportsInterface","inputs":[{"name":"interfaceId","type":"bytes4","internalType":"bytes4"}],"outputs":[{"name":"","type":"bool","internalType":"bool"}],"stateMutability":"view"},{"type":"function","name":"symbol","inputs":[],"outputs":[{"name":"","type":"string","internalType":"string"}],"stateMutability":"view"},{"type":"function","name":"syncLabel","inputs":[{"name":"tokenId","type":"uint256","internalType":"uint256"},{"name":"label","type":"string","internalType":"string"}],"outputs":[],"stateMutability":"nonpayable"},{"type":"function","name":"tokenURI","inputs":[{"name":"tokenId","type":"uint256","internalType":"uint256"}],"outputs":[{"name":"","type":"string","internalType":"string"}],"stateMutability":"view"},{"type":"function","name":"transferFrom","inputs":[{"name":"from","type":"address","internalType":"address"},{"name":"to","type":"address","internalType":"address"},{"name":"tokenId","type":"uint256","internalType":"uint256"}],"outputs":[],"stateMutability":"nonpayable"},{"type":"function","name":"transferOwnership","inputs":[{"name":"newOwner","type":"address","internalType":"address"}],"outputs":[],"stateMutability":"nonpayable"},{"type":"function","name":"updateProtocolRegistry","inputs":[{"name":"registry","type":"address","internalType":"contract IDotnsProtocolRegistry"}],"outputs":[],"stateMutability":"nonpayable"},{"type":"function","name":"upgradeToAndCall","inputs":[{"name":"newImplementation","type":"address","internalType":"address"},{"name":"data","type":"bytes","internalType":"bytes"}],"outputs":[],"stateMutability":"payable"},{"type":"function","name":"version","inputs":[],"outputs":[{"name":"versionString","type":"string","internalType":"string"}],"stateMutability":"pure"},{"type":"event","name":"Approval","inputs":[{"name":"owner","type":"address","indexed":true,"internalType":"address"},{"name":"approved","type":"address","indexed":true,"internalType":"address"},{"name":"tokenId","type":"uint256","indexed":true,"internalType":"uint256"}],"anonymous":false},{"type":"event","name":"ApprovalForAll","inputs":[{"name":"owner","type":"address","indexed":true,"internalType":"address"},{"name":"operator","type":"address","indexed":true,"internalType":"address"},{"name":"approved","type":"bool","indexed":false,"internalType":"bool"}],"anonymous":false},{"type":"event","name":"ControllerAdded","inputs":[{"name":"controller","type":"address","indexed":true,"internalType":"contract IDotnsRegistrarController"}],"anonymous":false},{"type":"event","name":"ControllerRemoved","inputs":[{"name":"controller","type":"address","indexed":true,"internalType":"contract IDotnsRegistrarController"}],"anonymous":false},{"type":"event","name":"Initialized","inputs":[{"name":"version","type":"uint64","indexed":false,"internalType":"uint64"}],"anonymous":false},{"type":"event","name":"LabelSynced","inputs":[{"name":"tokenId","type":"uint256","indexed":true,"internalType":"uint256"},{"name":"label","type":"string","indexed":false,"internalType":"string"}],"anonymous":false},{"type":"event","name":"NameRegistered","inputs":[{"name":"id","type":"uint256","indexed":true,"internalType":"uint256"},{"name":"owner","type":"address","indexed":true,"internalType":"address"}],"anonymous":false},{"type":"event","name":"OwnershipTransferred","inputs":[{"name":"previousOwner","type":"address","indexed":true,"internalType":"address"},{"name":"newOwner","type":"address","indexed":true,"internalType":"address"}],"anonymous":false},{"type":"event","name":"ProtocolRegistryUpdated","inputs":[{"name":"newRegistry","type":"address","indexed":true,"internalType":"contract IDotnsProtocolRegistry"}],"anonymous":false},{"type":"event","name":"Transfer","inputs":[{"name":"from","type":"address","indexed":true,"internalType":"address"},{"name":"to","type":"address","indexed":true,"internalType":"address"},{"name":"tokenId","type":"uint256","indexed":true,"internalType":"uint256"}],"anonymous":false},{"type":"event","name":"Upgraded","inputs":[{"name":"implementation","type":"address","indexed":true,"internalType":"address"}],"anonymous":false},{"type":"error","name":"AddressEmptyCode","inputs":[{"name":"target","type":"address","internalType":"address"}]},{"type":"error","name":"ERC1967InvalidImplementation","inputs":[{"name":"implementation","type":"address","internalType":"address"}]},{"type":"error","name":"ERC1967NonPayable","inputs":[]},{"type":"error","name":"ERC721IncorrectOwner","inputs":[{"name":"sender","type":"address","internalType":"address"},{"name":"tokenId","type":"uint256","internalType":"uint256"},{"name":"owner","type":"address","internalType":"address"}]},{"type":"error","name":"ERC721InsufficientApproval","inputs":[{"name":"operator","type":"address","internalType":"address"},{"name":"tokenId","type":"uint256","internalType":"uint256"}]},{"type":"error","name":"ERC721InvalidApprover","inputs":[{"name":"approver","type":"address","internalType":"address"}]},{"type":"error","name":"ERC721InvalidOperator","inputs":[{"name":"operator","type":"address","internalType":"address"}]},{"type":"error","name":"ERC721InvalidOwner","inputs":[{"name":"owner","type":"address","internalType":"address"}]},{"type":"error","name":"ERC721InvalidReceiver","inputs":[{"name":"receiver","type":"address","internalType":"address"}]},{"type":"error","name":"ERC721InvalidSender","inputs":[{"name":"sender","type":"address","internalType":"address"}]},{"type":"error","name":"ERC721NonexistentToken","inputs":[{"name":"tokenId","type":"uint256","internalType":"uint256"}]},{"type":"error","name":"FailedCall","inputs":[]},{"type":"error","name":"InvalidInitialization","inputs":[]},{"type":"error","name":"LabelAlreadySet","inputs":[{"name":"tokenId","type":"uint256","internalType":"uint256"}]},{"type":"error","name":"LabelMismatch","inputs":[{"name":"tokenId","type":"uint256","internalType":"uint256"}]},{"type":"error","name":"NameNotAvailable","inputs":[{"name":"tokenId","type":"uint256","internalType":"uint256"}]},{"type":"error","name":"NotController","inputs":[{"name":"caller","type":"address","internalType":"address"}]},{"type":"error","name":"NotInitializing","inputs":[]},{"type":"error","name":"NotTokenOwner","inputs":[{"name":"caller","type":"address","internalType":"address"},{"name":"tokenId","type":"uint256","internalType":"uint256"}]},{"type":"error","name":"OwnableInvalidOwner","inputs":[{"name":"owner","type":"address","internalType":"address"}]},{"type":"error","name":"OwnableUnauthorizedAccount","inputs":[{"name":"account","type":"address","internalType":"address"}]},{"type":"error","name":"UUPSUnauthorizedCallContext","inputs":[]},{"type":"error","name":"UUPSUnsupportedProxiableUUID","inputs":[{"name":"slot","type":"bytes32","internalType":"bytes32"}]}],"bytecode":{"object":"0x60a080604052346100c257306080525f5160206127b25f395f51905f525460ff8160401c166100b3576002600160401b03196001600160401b03821601610060575b6040516126eb90816100c78239608051818181610a1d0152610b450152f35b6001600160401b0319166001600160401b039081175f5160206127b25f395f51905f525581527fc7f505b2f371ae2175ee4913f4499e1f2633a7b5936321eed1cdaeb6115181d290602090a15f80610041565b63f92ee8a960e01b5f5260045ffd5b5f80fdfe60806040526004361015610011575f80fd5b5f3560e01c806301ffc9a7146101e457806306fdde03146101df578063081812fc146101da578063095ea7b3146101d557806323a663e9146101d057806323b872dd146101cb5780632a413d6a146101c657806342842e0e146101c15780634cd88b76146101bc5780634f1ef286146101b757806352d1902d146101b257806354fd4d50146101ad5780636352211e146101a857806370a08231146101a3578063715018a61461019e5780637656419f146101995780638da5cb5b1461019457806395d89b411461018f57806396e494e81461018a578063a22cb46514610185578063a572314914610180578063a7fc7a071461017b578063ad3cb1cc14610176578063b88d4fde14610171578063c87b56dd1461016c578063da8c229e14610167578063e985e9c514610162578063f2fde38b1461015d5763f6a74ed714610158575f80fd5b61127e565b611251565b61120c565b6111cd565b611108565b6110b2565b61106b565b610fff565b610ea6565b610df2565b610dc2565b610d05565b610cd1565b610ca9565b610c42565b610bef565b610bd1565b610b8a565b610b33565b6109db565b61078a565b610761565b6106f7565b6106e0565b610524565b61040d565b6103a1565b6102af565b6101ff565b6001600160e01b03198116036101fb57565b5f80fd5b346101fb5760203660031901126101fb57602060043561021e816101e9565b63ffffffff60e01b166380ac58cd60e01b811490811561025c575b811561024b575b506040519015158152f35b6301ffc9a760e01b1490505f610240565b635b5e139f60e01b81149150610239565b5f9103126101fb57565b805180835260209291819084018484015e5f828201840152601f01601f1916010190565b9060206102ac928181520190610277565b90565b346101fb575f3660031901126101fb576040515f5f5160206125f65f395f51905f52546102db816112e7565b808452906001811690811561037d5750600114610313575b61030f836103038185038261094e565b6040519182918261029b565b0390f35b5f5160206125f65f395f51905f525f9081527f37c58c799b6609234b945e882912ee9ad34948a1dfaa20a97485e1a7752bbf81939250905b808210610363575090915081016020016103036102f3565b91926001816020925483858801015201910190929161034b565b60ff191660208086019190915291151560051b8401909101915061030390506102f3565b346101fb5760203660031901126101fb5760206103ea6004356103c3816119ed565b505f9081525f5160206126565f395f51905f5260205260409020546001600160a01b031690565b6040516001600160a01b039091168152f35b6001600160a01b038116036101fb57565b346101fb5760403660031901126101fb5760043561042a816103fc565b60243590610437826119ed565b331515806104e4575b806104d3575b6104c0576104be9261049f9181906001600160a01b0385811691167f8c5be1e5ebec7d5bd14f71427d1e84f3dd0314c0f7b2291e5b200ac8c7c3b9255f80a45f525f5160206126565f395f51905f5260205260405f2090565b80546001600160a01b0319166001600160a01b03909216919091179055565b005b63a9fbf51f60e01b5f523360045260245ffd5b506104de3382611968565b15610446565b506001600160a01b038116331415610440565b9181601f840112156101fb578235916001600160401b0383116101fb57602083818601950101116101fb57565b346101fb5760603660031901126101fb57602435600435610544826103fc565b6044356001600160401b0381116101fb576105639036906004016104f7565b929092335f525f60205260ff60405f205416156106a15761058d8361058781611b89565b156113bf565b825f52600360205260405f20906001600160401b03811161069c576105bc816105b684546112e7565b84611435565b5f601f82116001146106335781906105ec939495965f92610628575b50508160011b915f199060031b1c19161790565b90555b6105f98282611a1c565b6001600160a01b0316907e834ad8d7a1d8421d149549c7292d11385f5a042a008771d26ffd2d76db6e745f80a3005b013590505f806105d8565b601f19821695610646845f5260205f2090565b915f5b8881106106845750836001959697981061066b575b505050811b0190556105ef565b01355f19600384901b60f8161c191690555f808061065e565b90926020600181928686013581550194019101610649565b61093a565b633338cdbd60e11b5f523360045260245ffd5b60609060031901126101fb576004356106cc816103fc565b906024356106d9816103fc565b9060443590565b346101fb576104be6106f1366106b4565b9161153a565b346101fb5760203660031901126101fb57600435610714816103fc565b61071c611b3c565b600180546001600160a01b0319166001600160a01b039290921691821790557f0c08c238e82ec54ad94229183564f3d79751885ccdff202e440c9034ab1757aa5f80a2005b346101fb576104be610772366106b4565b906040519261078260208561094e565b5f845261186d565b346101fb5760403660031901126101fb576004356001600160401b0381116101fb576107ba9036906004016104f7565b906024356001600160401b0381116101fb576107da9036906004016104f7565b905f5160206126765f395f51905f5254936001600160401b0361081861080b6108078860ff9060401c1690565b1590565b966001600160401b031690565b1680159081610932575b6001149081610928575b15908161091f575b5061091057610877938561086e60016001600160401b03195f5160206126765f395f51905f525416175f5160206126765f395f51905f5255565b6108d6576116a4565b61087d57005b6108a760ff60401b195f5160206126765f395f51905f5254165f5160206126765f395f51905f5255565b604051600181527fc7f505b2f371ae2175ee4913f4499e1f2633a7b5936321eed1cdaeb6115181d290602090a1005b61090b6801000000000000000060ff60401b195f5160206126765f395f51905f525416175f5160206126765f395f51905f5255565b6116a4565b63f92ee8a960e01b5f5260045ffd5b9050155f610834565b303b15915061082c565b869150610822565b634e487b7160e01b5f52604160045260245ffd5b90601f801991011681019081106001600160401b0382111761069c57604052565b6001600160401b03811161069c57601f01601f191660200190565b9291926109968261096f565b916109a4604051938461094e565b8294818452818301116101fb578281602093845f960137010152565b9080601f830112156101fb578160206102ac9335910161098a565b60403660031901126101fb576004356109f3816103fc565b6024356001600160401b0381116101fb57610a129036906004016109c0565b906001600160a01b037f000000000000000000000000000000000000000000000000000000000000000016308114908115610b11575b50610b0257610a55611b3c565b6040516352d1902d60e01b8152916020836004816001600160a01b0386165afa5f9381610ad1575b50610a9e57634c9c8ce360e01b5f526001600160a01b03821660045260245ffd5b905f5160206126365f395f51905f528303610abd576104be925061222f565b632a87526960e21b5f52600483905260245ffd5b610af491945060203d602011610afb575b610aec818361094e565b810190611b6f565b925f610a7d565b503d610ae2565b63703e46dd60e11b5f5260045ffd5b5f5160206126365f395f51905f52546001600160a01b0316141590505f610a48565b346101fb575f3660031901126101fb577f00000000000000000000000000000000000000000000000000000000000000006001600160a01b03163003610b025760206040515f5160206126365f395f51905f528152f35b346101fb575f3660031901126101fb5761030f604051610bab60408261094e565b60058152640312e322e360dc1b6020820152604051918291602083526020830190610277565b346101fb5760203660031901126101fb5760206103ea6004356119ed565b346101fb5760203660031901126101fb57600435610c0c816103fc565b6001600160a01b03811615610c2f57610c2660209161115d565b54604051908152f35b6322718ad960e21b5f525f60045260245ffd5b346101fb575f3660031901126101fb57610c5a611b3c565b5f5160206126165f395f51905f5280546001600160a01b031981169091555f906001600160a01b03167f8be0079c531659141344cd1fd0a4f28419497f9722a3daafe3b4186f6b6457e08280a3005b346101fb575f3660031901126101fb576001546040516001600160a01b039091168152602090f35b346101fb575f3660031901126101fb575f5160206126165f395f51905f52546040516001600160a01b039091168152602090f35b346101fb575f3660031901126101fb576040515f5f5160206126965f395f51905f5254610d31816112e7565b808452906001811690811561037d5750600114610d585761030f836103038185038261094e565b5f5160206126965f395f51905f525f9081527ff4bad0a69248f59680a4f2b3000328cec71a413447c96781cfe5996daa8c456e939250905b808210610da8575090915081016020016103036102f3565b919260018160209254838588010152019101909291610d90565b346101fb5760203660031901126101fb5760206001600160a01b03610de8600435611c16565b6040519116158152f35b346101fb5760403660031901126101fb57600435610e0f816103fc565b60243590811515908183036101fb576001600160a01b038116928315610e9357610e54610e6592610e3f33611195565b9060018060a01b03165f5260205260405f2090565b9060ff801983541691151516179055565b6040519081527f17307eab39ab6107e8899845ad3d59bd9653f200f220920489ca2b5937696c3160203392a3005b83630b61174360e31b5f5260045260245ffd5b346101fb5760403660031901126101fb576004356024356001600160401b0381116101fb57610ed99036906004016104f7565b610eeb83610ee681611b89565b6113bf565b610ef4836119ed565b336001600160a01b0390911603610fe8577f29c9789fecc6c63f22261bb2e7022251ddaf75e3cf66f3728d2a620746df687a91610f4b84610f45610f40825f52600360205260405f2090565b611808565b15611812565b610fb88480610f5b36868661098a565b60208151910120604051610faf81610fa16020820194856040917f3fce7d1364a893e213bc4212792b517ffc88f5b13b86c8ef9c8d390c3a1370ce825260208201520190565b03601f19810183528261094e565b5190201461182c565b610fd48282610fcf875f52600360205260405f2090565b611484565b610fe360405192839283611846565b0390a2005b82632c52f11160e11b5f523360045260245260445ffd5b346101fb5760203660031901126101fb5760043561101c816103fc565b611024611b3c565b6001600160a01b03165f818152602081905260408120805460ff191660011790557f0a8bb31534c0ed46f380cb867bd5c803a189ced9a764e30b3a4991a9901d74749080a2005b346101fb575f3660031901126101fb5761030f60405161108c60408261094e565b60058152640352e302e360dc1b6020820152604051918291602083526020830190610277565b346101fb5760803660031901126101fb576004356110cf816103fc565b602435906110dc826103fc565b604435606435926001600160401b0384116101fb576111026104be9436906004016109c0565b9261186d565b346101fb5760203660031901126101fb576111246004356119ed565b505f60405161113460208261094e565b5261030f60405161114660208261094e565b5f8152604051918291602083526020830190610277565b6001600160a01b03165f9081527f80bb2b638cc20bc4d0a60d66940f3ab4a00c1d7b313497ca82fb0b4ab00793036020526040902090565b6001600160a01b03165f9081527f80bb2b638cc20bc4d0a60d66940f3ab4a00c1d7b313497ca82fb0b4ab00793056020526040902090565b346101fb5760203660031901126101fb576004356111ea816103fc565b60018060a01b03165f525f602052602060ff60405f2054166040519015158152f35b346101fb5760403660031901126101fb57602060ff611245600435611230816103fc565b610e3f60243591611240836103fc565b611195565b54166040519015158152f35b346101fb5760203660031901126101fb576104be600435611271816103fc565b611279611b3c565b61197c565b346101fb5760203660031901126101fb5760043561129b816103fc565b6112a3611b3c565b6001600160a01b03165f818152602081905260408120805460ff191690557f33d83959be2573f5453b12eb9d43b3499bc57d96bd2f067ba44803c859e811139080a2005b90600182811c92168015611315575b602083101461130157565b634e487b7160e01b5f52602260045260245ffd5b91607f16916112f6565b9060405191825f825492611332846112e7565b808452936001811690811561139d5750600114611359575b506113579250038361094e565b565b90505f9291925260205f20905f915b818310611381575050906020611357928201015f61134a565b6020919350806001915483858901015201910190918492611368565b90506020925061135794915060ff191682840152151560051b8201015f61134a565b156113c75750565b632db8ab9760e11b5f5260045260245ffd5b601f81116113e5575050565b5f5160206125f65f395f51905f525f5260205f20906020601f840160051c8301931061142b575b601f0160051c01905b818110611420575050565b5f8155600101611415565b909150819061140c565b601f821161144257505050565b5f5260205f20906020601f840160051c8301931061147a575b601f0160051c01905b81811061146f575050565b5f8155600101611464565b909150819061145b565b9092916001600160401b03811161069c576114a3816105b684546112e7565b5f601f82116001146114d55781906114d19394955f926106285750508160011b915f199060031b1c19161790565b9055565b601f198216946114e8845f5260205f2090565b915f5b878110611522575083600195969710611509575b505050811b019055565b01355f19600384901b60f8161c191690555f80806114ff565b909260206001819286860135815501940191016114eb565b6001600160a01b038216929183156116915761155583611c16565b9033611681575b6001600160a01b03821694849086151590829082611663575b61157e8561115d565b600181540190556115ba8561049f845f527f80bb2b638cc20bc4d0a60d66940f3ab4a00c1d7b313497ca82fb0b4ab007930260205260405f2090565b887fddf252ad1be2c89b69c2b068fc378daa952ba7f163c4a11628f55a4df523b3ef5f80a48061165b575b80611630575b611620575b5050506001600160a01b031680830361160857505050565b6364283d7b60e01b5f5260045260245260445260645ffd5b61162991611dc7565b5f836115f0565b5060015461165490611648906001600160a01b031681565b6001600160a01b031690565b15156115eb565b5060016115e5565b61166c82611c4f565b6116758661115d565b80545f19019055611575565b61168c8433846122d1565b61155c565b633250574960e11b5f525f60045260245ffd5b6116cd906116d593926116b56120f1565b6116bd6120f1565b6116c63361197c565b369161098a565b92369161098a565b906116de6120f1565b6116e66120f1565b8051906001600160401b03821161069c57611717826117125f5160206125f65f395f51905f52546112e7565b6113d9565b602090601f831160011461176957918061174a9261135795945f9261175e5750508160011b915f199060031b1c19161790565b5f5160206125f65f395f51905f525561211c565b015190505f806105d8565b5f5160206125f65f395f51905f525f52601f19831691907f37c58c799b6609234b945e882912ee9ad34948a1dfaa20a97485e1a7752bbf81925f5b8181106117f05750916001939185611357979694106117d8575b505050811b015f5160206125f65f395f51905f525561211c565b01515f1960f88460031b161c191690555f80806117be565b929360206001819287860151815501950193016117a4565b6102ac90546112e7565b1561181a5750565b6367246b9560e11b5f5260045260245ffd5b156118345750565b631ecdb79160e21b5f5260045260245ffd5b90918060409360208452816020850152848401375f828201840152601f01601f1916010190565b90929161187b81858461153a565b833b611888575b50505050565b6020916118aa6040519485938493630a85bd0160e11b85523360048601611bb6565b03815f6001600160a01b0387165af15f9181611937575b506118fb57506118cf611be7565b80519190826118f457633250574960e11b5f526001600160a01b03821660045260245ffd5b6020915001fd5b6001600160e01b03191663757a42ff60e11b0161191c57505f808080611882565b633250574960e11b5f526001600160a01b031660045260245ffd5b61195a91925060203d602011611961575b611952818361094e565b810190611ba1565b905f6118c1565b503d611948565b60ff91610e3f61197792611195565b541690565b6001600160a01b031680156119da575f5160206126165f395f51905f5280546001600160a01b0319811683179091556001600160a01b03167f8be0079c531659141344cd1fd0a4f28419497f9722a3daafe3b4186f6b6457e05f80a3565b631e4fbdf760e01b5f525f60045260245ffd5b6119f681611c16565b906001600160a01b03821615611a0a575090565b637e27328960e01b5f5260045260245ffd5b6001600160a01b0381169190821561169157611a3782611c16565b6001600160a01b03811680151594919391829186611b1e575b611a598561115d565b60018154019055611a958561049f855f527f80bb2b638cc20bc4d0a60d66940f3ab4a00c1d7b313497ca82fb0b4ab007930260205260405f2090565b7fddf252ad1be2c89b69c2b068fc378daa952ba7f163c4a11628f55a4df523b3ef5f80a48380611b16575b80611af7575b611ae7575b505050611ad457565b6339e3563760e11b5f525f60045260245ffd5b611af091611dc7565b5f80611acb565b50600154611b0f90611648906001600160a01b031681565b1515611ac6565b506001611ac0565b611b2783611c4f565b611b308661115d565b80545f19019055611a50565b5f5160206126165f395f51905f52546001600160a01b03163303611b5c57565b63118cdaa760e01b5f523360045260245ffd5b908160209103126101fb575190565b6040513d5f823e3d90fd5b6001600160a01b0390611b9b90611c16565b16151590565b908160209103126101fb57516102ac816101e9565b6001600160a01b0391821681529116602082015260408101919091526080606082018190526102ac92910190610277565b3d15611c11573d90611bf88261096f565b91611c06604051938461094e565b82523d5f602084013e565b606090565b5f9081527f80bb2b638cc20bc4d0a60d66940f3ab4a00c1d7b313497ca82fb0b4ab007930260205260409020546001600160a01b031690565b611c6d905f525f5160206126565f395f51905f5260205260405f2090565b80546001600160a01b0319169055565b908160209103126101fb57516102ac816103fc565b60405160809190611ca3838261094e565b6003815291601f1901366020840137565b805115611cc15760200190565b634e487b7160e01b5f52603260045260245ffd5b805160011015611cc15760400190565b805160021015611cc15760600190565b8051821015611cc15760209160051b010190565b6020818303126101fb578051906001600160401b0382116101fb570181601f820112156101fb57805190611d3c8261096f565b92611d4a604051948561094e565b828452602083830101116101fb57815f9260208093018386015e8301015290565b90611357600460209360405194859181830190805192839101825e015f8152630b991bdd60e21b815203601b1981018552018361094e565b6102ac939260609260018060a01b0316825260208201528160408201520190610277565b600154611ddc906001600160a01b0316611648565b60405163023aa9ab60e61b81526b73746f7265466163746f727960a01b6004820152909290602081602481875afa908115611f72575f916120d2575b506001600160a01b031692831561188257604051637d1c0da960e11b81526001600160a01b0384166004820152602081602481885afa908115611f72575f916120b3575b506001600160a01b0316938415611f99575b5050611e85611e8a915f52600360205260405f2090565b61131f565b805180611e975750505050565b611ec59060208301206040908151906f191bdd1b9ccb9c9959da5cdd195c995960821b825260208201522090565b60405163d7abb79f60e01b81526001600160a01b03848116600483015260248201839052919490911691905f81604481865afa908115611f72575f91611f77575b505161188257611f1590611d6b565b90803b156101fb57611f41935f809460405196879586948593631f67f7b760e11b855260048501611da3565b03925af18015611f7257611f58575b808080611882565b80611f665f611f6c9361094e565b8061026d565b5f611f50565b611b7e565b611f9391503d805f833e611f8b818361094e565b810190611d09565b5f611f06565b90919350611fa5611c92565b91611fc230611fb385611cb4565b6001600160a01b039091169052565b60405163023aa9ab60e61b81526931b7b73a3937b63632b960b11b6004820152602081602481855afa8015611f7257612006915f91612094575b50611fb385611cd5565b60405163023aa9ab60e61b815267726567697374727960c01b600482015290602090829060249082905afa8015611f7257611e8a93611e8593612059879361205e955f91612065575b50611fb384611ce5565b61238e565b9391611e6e565b612087915060203d60201161208d575b61207f818361094e565b810190611c7d565b5f61204f565b503d612075565b6120ad915060203d60201161208d5761207f818361094e565b5f611ffc565b6120cc915060203d60201161208d5761207f818361094e565b5f611e5c565b6120eb915060203d60201161208d5761207f818361094e565b5f611e18565b60ff5f5160206126765f395f51905f525460401c161561210d57565b631afcd79f60e31b5f5260045ffd5b9081516001600160401b03811161069c5761215b816121485f5160206126965f395f51905f52546112e7565b5f5160206126965f395f51905f52611435565b602092601f821160011461219b5761218a929382915f9261175e5750508160011b915f199060031b1c19161790565b5f5160206126965f395f51905f5255565b5f5160206126965f395f51905f525f52601f198216937ff4bad0a69248f59680a4f2b3000328cec71a413447c96781cfe5996daa8c456e915f5b86811061221757508360019596106121ff575b505050811b015f5160206126965f395f51905f5255565b01515f1960f88460031b161c191690555f80806121e8565b919260206001819286850151815501940192016121d5565b90813b156122b0575f5160206126365f395f51905f5280546001600160a01b0319166001600160a01b0384169081179091557fbc7cd75a20ee27fd9adebab32041f755214dbc6bffa90cc0225b39da2e5c2d3b5f80a28051156122985761229591612569565b50565b5050346122a157565b63b398979f60e01b5f5260045ffd5b50634c9c8ce360e01b5f9081526001600160a01b0391909116600452602490fd5b6001600160a01b038216918215159081612327575b50156122f157505050565b6001600160a01b031661231257637e27328960e01b5f52600482905260245ffd5b63177e802f60e01b5f5260045260245260445ffd5b6001600160a01b038316841491508115612375575b50801561234a575b5f6122e6565b505f8381525f5160206126565f395f51905f5260205260409020546001600160a01b03168214612344565b60ff915061238690610e3f84611195565b54165f61233c565b604051637d1c0da960e11b81526001600160a01b03848116600483015293949190931692602081602481875afa908115611f72575f9161254a575b506001600160a01b0316806125435750604051631dd70c0360e21b81526020816004815f885af1908115611f72575f91612524575b506001600160a01b0316935f5b83518110156124875761242e6124218286611cf5565b516001600160a01b031690565b90863b156101fb57604051634462f7a360e11b81526001600160a01b039290921660048301525f82602481838b5af1918215611f7257600192612473575b500161240b565b80611f665f6124819361094e565b5f61246c565b50915091833b156101fb5760405163f2fde38b60e01b81526001600160a01b03831660048201525f8160248183895af18015611f7257612510575b50803b156101fb5760405163f2fde38b60e01b81526001600160a01b039290921660048301525f908290602490829084905af18015611f72576125025750565b80611f665f6113579361094e565b80611f665f61251e9361094e565b5f6124c2565b61253d915060203d60201161208d5761207f818361094e565b5f6123fe565b9350915050565b612563915060203d60201161208d5761207f818361094e565b5f6123c9565b905f8091602081519101845af480806125c9575b1561258c5750506102ac6125dc565b156125b157639996b31560e01b5f9081526001600160a01b0391909116600452602490fd5b3d15155f03611b7e5763d6bda27560e01b5f5260045ffd5b503d15158061257d5750813b151561257d565b604051903d82523d5f602084013e60203d83010160405256fe80bb2b638cc20bc4d0a60d66940f3ab4a00c1d7b313497ca82fb0b4ab00793009016d09d72d40fdae2fd8ceac6b6234c7706214fd39c1cd1e609a0528c199300360894a13ba1a3210667c828492db98dca3e2076cc3735a920a3ca505d382bbc80bb2b638cc20bc4d0a60d66940f3ab4a00c1d7b313497ca82fb0b4ab0079304f0c57e16840df040f15088dc2f81fe391c3923bec73e23a9662efc9c229c6a0080bb2b638cc20bc4d0a60d66940f3ab4a00c1d7b313497ca82fb0b4ab0079301a2646970667358221220715826b18dd3cb0eee82ac96c73198f852719e680b45ae25c5976b7b05f3eb8c64736f6c634300081e0033f0c57e16840df040f15088dc2f81fe391c3923bec73e23a9662efc9c229c6a00","linkReferences":{}},"methodIdentifiers":{"UPGRADE_INTERFACE_VERSION()":"ad3cb1cc","addController(address)":"a7fc7a07","approve(address,uint256)":"095ea7b3","available(uint256)":"96e494e8","balanceOf(address)":"70a08231","controllers(address)":"da8c229e","getApproved(uint256)":"081812fc","initialize(string,string)":"4cd88b76","isApprovedForAll(address,address)":"e985e9c5","name()":"06fdde03","owner()":"8da5cb5b","ownerOf(uint256)":"6352211e","protocolRegistry()":"7656419f","proxiableUUID()":"52d1902d","register(uint256,address,string)":"23a663e9","removeController(address)":"f6a74ed7","renounceOwnership()":"715018a6","safeTransferFrom(address,address,uint256)":"42842e0e","safeTransferFrom(address,address,uint256,bytes)":"b88d4fde","setApprovalForAll(address,bool)":"a22cb465","supportsInterface(bytes4)":"01ffc9a7","symbol()":"95d89b41","syncLabel(uint256,string)":"a5723149","tokenURI(uint256)":"c87b56dd","transferFrom(address,address,uint256)":"23b872dd","transferOwnership(address)":"f2fde38b","updateProtocolRegistry(address)":"2a413d6a","upgradeToAndCall(address,bytes)":"4f1ef286","version()":"54fd4d50"},"storageLayout":{"storage":[{"astId":1130,"contract":"contracts/registrars/DotnsRegistrar.sol:DotnsRegistrar","label":"controllers","offset":0,"slot":"0","type":"t_mapping(t_contract(IDotnsRegistrarController)3200,t_bool)"},{"astId":1134,"contract":"contracts/registrars/DotnsRegistrar.sol:DotnsRegistrar","label":"protocolRegistry","offset":0,"slot":"1","type":"t_contract(IDotnsProtocolRegistry)4089"},{"astId":1139,"contract":"contracts/registrars/DotnsRegistrar.sol:DotnsRegistrar","label":"_labelhashes","offset":0,"slot":"2","type":"t_mapping(t_uint256,t_bytes32)"},{"astId":1144,"contract":"contracts/registrars/DotnsRegistrar.sol:DotnsRegistrar","label":"_labels","offset":0,"slot":"3","type":"t_mapping(t_uint256,t_string_storage)"},{"astId":1174,"contract":"contracts/registrars/DotnsRegistrar.sol:DotnsRegistrar","label":"__gap","offset":0,"slot":"4","type":"t_array(t_uint256)47_storage"}],"types":{"t_array(t_uint256)47_storage":{"encoding":"inplace","label":"uint256[47]","numberOfBytes":"1504","base":"t_uint256"},"t_bool":{"encoding":"inplace","label":"bool","numberOfBytes":"1"},"t_bytes32":{"encoding":"inplace","label":"bytes32","numberOfBytes":"32"},"t_contract(IDotnsProtocolRegistry)4089":{"encoding":"inplace","label":"contract IDotnsProtocolRegistry","numberOfBytes":"20"},"t_contract(IDotnsRegistrarController)3200":{"encoding":"inplace","label":"contract IDotnsRegistrarController","numberOfBytes":"20"},"t_mapping(t_contract(IDotnsRegistrarController)3200,t_bool)":{"encoding":"mapping","key":"t_contract(IDotnsRegistrarController)3200","label":"mapping(contract IDotnsRegistrarController => bool)","numberOfBytes":"32","value":"t_bool"},"t_mapping(t_uint256,t_bytes32)":{"encoding":"mapping","key":"t_uint256","label":"mapping(uint256 => bytes32)","numberOfBytes":"32","value":"t_bytes32"},"t_mapping(t_uint256,t_string_storage)":{"encoding":"mapping","key":"t_uint256","label":"mapping(uint256 => string)","numberOfBytes":"32","value":"t_string_storage"},"t_string_storage":{"encoding":"bytes","label":"string","numberOfBytes":"32"},"t_uint256":{"encoding":"inplace","label":"uint256","numberOfBytes":"32"}}},"id":2}