{"abi":[{"type":"constructor","inputs":[],"stateMutability":"nonpayable"},{"type":"function","name":"UPGRADE_INTERFACE_VERSION","inputs":[],"outputs":[{"name":"","type":"string","internalType":"string"}],"stateMutability":"view"},{"type":"function","name":"contenthash","inputs":[{"name":"node","type":"bytes32","internalType":"bytes32"}],"outputs":[{"name":"hash","type":"bytes","internalType":"bytes"}],"stateMutability":"view"},{"type":"function","name":"initialize","inputs":[{"name":"_registry","type":"address","internalType":"contract IDotnsRegistry"}],"outputs":[],"stateMutability":"nonpayable"},{"type":"function","name":"isApprovedForAll","inputs":[{"name":"owner","type":"address","internalType":"address"},{"name":"operator","type":"address","internalType":"address"}],"outputs":[{"name":"","type":"bool","internalType":"bool"}],"stateMutability":"view"},{"type":"function","name":"owner","inputs":[],"outputs":[{"name":"","type":"address","internalType":"address"}],"stateMutability":"view"},{"type":"function","name":"proxiableUUID","inputs":[],"outputs":[{"name":"","type":"bytes32","internalType":"bytes32"}],"stateMutability":"view"},{"type":"function","name":"registry","inputs":[],"outputs":[{"name":"","type":"address","internalType":"contract IDotnsRegistry"}],"stateMutability":"view"},{"type":"function","name":"renounceOwnership","inputs":[],"outputs":[],"stateMutability":"nonpayable"},{"type":"function","name":"setApprovalForAll","inputs":[{"name":"operator","type":"address","internalType":"address"},{"name":"approved","type":"bool","internalType":"bool"}],"outputs":[],"stateMutability":"nonpayable"},{"type":"function","name":"setContenthash","inputs":[{"name":"node","type":"bytes32","internalType":"bytes32"},{"name":"hash","type":"bytes","internalType":"bytes"}],"outputs":[],"stateMutability":"nonpayable"},{"type":"function","name":"setText","inputs":[{"name":"node","type":"bytes32","internalType":"bytes32"},{"name":"key","type":"string","internalType":"string"},{"name":"value","type":"string","internalType":"string"}],"outputs":[],"stateMutability":"nonpayable"},{"type":"function","name":"supportsInterface","inputs":[{"name":"interfaceId","type":"bytes4","internalType":"bytes4"}],"outputs":[{"name":"","type":"bool","internalType":"bool"}],"stateMutability":"view"},{"type":"function","name":"text","inputs":[{"name":"node","type":"bytes32","internalType":"bytes32"},{"name":"key","type":"string","internalType":"string"}],"outputs":[{"name":"value","type":"string","internalType":"string"}],"stateMutability":"view"},{"type":"function","name":"transferOwnership","inputs":[{"name":"newOwner","type":"address","internalType":"address"}],"outputs":[],"stateMutability":"nonpayable"},{"type":"function","name":"upgradeToAndCall","inputs":[{"name":"newImplementation","type":"address","internalType":"address"},{"name":"data","type":"bytes","internalType":"bytes"}],"outputs":[],"stateMutability":"payable"},{"type":"function","name":"version","inputs":[],"outputs":[{"name":"versionString","type":"string","internalType":"string"}],"stateMutability":"pure"},{"type":"event","name":"ApprovalForAll","inputs":[{"name":"owner","type":"address","indexed":true,"internalType":"address"},{"name":"operator","type":"address","indexed":true,"internalType":"address"},{"name":"approved","type":"bool","indexed":false,"internalType":"bool"}],"anonymous":false},{"type":"event","name":"ContentHashUpdated","inputs":[{"name":"node","type":"bytes32","indexed":true,"internalType":"bytes32"},{"name":"hash","type":"bytes","indexed":false,"internalType":"bytes"}],"anonymous":false},{"type":"event","name":"Initialized","inputs":[{"name":"version","type":"uint64","indexed":false,"internalType":"uint64"}],"anonymous":false},{"type":"event","name":"OwnershipTransferred","inputs":[{"name":"previousOwner","type":"address","indexed":true,"internalType":"address"},{"name":"newOwner","type":"address","indexed":true,"internalType":"address"}],"anonymous":false},{"type":"event","name":"TextUpdated","inputs":[{"name":"node","type":"bytes32","indexed":true,"internalType":"bytes32"},{"name":"key","type":"string","indexed":true,"internalType":"string"},{"name":"value","type":"string","indexed":false,"internalType":"string"}],"anonymous":false},{"type":"event","name":"Upgraded","inputs":[{"name":"implementation","type":"address","indexed":true,"internalType":"address"}],"anonymous":false},{"type":"error","name":"AddressEmptyCode","inputs":[{"name":"target","type":"address","internalType":"address"}]},{"type":"error","name":"ERC1967InvalidImplementation","inputs":[{"name":"implementation","type":"address","internalType":"address"}]},{"type":"error","name":"ERC1967NonPayable","inputs":[]},{"type":"error","name":"FailedCall","inputs":[]},{"type":"error","name":"InvalidInitialization","inputs":[]},{"type":"error","name":"NotAuthorised","inputs":[{"name":"node","type":"bytes32","internalType":"bytes32"},{"name":"caller","type":"address","internalType":"address"}]},{"type":"error","name":"NotInitializing","inputs":[]},{"type":"error","name":"OwnableInvalidOwner","inputs":[{"name":"owner","type":"address","internalType":"address"}]},{"type":"error","name":"OwnableUnauthorizedAccount","inputs":[{"name":"account","type":"address","internalType":"address"}]},{"type":"error","name":"UUPSUnauthorizedCallContext","inputs":[]},{"type":"error","name":"UUPSUnsupportedProxiableUUID","inputs":[{"name":"slot","type":"bytes32","internalType":"bytes32"}]}],"bytecode":{"object":"0x60a080604052346100c257306080525f51602061108a5f395f51905f525460ff8160401c166100b3576002600160401b03196001600160401b03821601610060575b604051610fc390816100c7823960805181818161055701526106330152f35b6001600160401b0319166001600160401b039081175f51602061108a5f395f51905f525581527fc7f505b2f371ae2175ee4913f4499e1f2633a7b5936321eed1cdaeb6115181d290602090a15f80610041565b63f92ee8a960e01b5f5260045ffd5b5f80fdfe6080806040526004361015610012575f80fd5b5f3560e01c90816301ffc9a714610abc5750806310f13a8c14610907578063304e6ade146107c35780634f1ef286146105ab57806352d1902d1461054557806354fd4d50146104fe57806359d1d43c146104bb578063715018a6146104545780637b1039991461042d5780638da5cb5b146103f9578063a22cb46514610370578063ad3cb1cc14610329578063bc1c58d1146102d6578063c4d66de81461015d578063e985e9c5146100fb5763f2fde38b146100cc575f80fd5b346100f75760203660031901126100f7576100f56100e8610b71565b6100f0610e43565b610cf5565b005b5f80fd5b346100f75760403660031901126100f757610114610b71565b602435906001600160a01b03821682036100f75760018060a01b03165f52600360205260405f209060018060a01b03165f52602052602060ff60405f2054166040519015158152f35b346100f75760203660031901126100f7576004356001600160a01b038116908190036100f7575f516020610f6e5f395f51905f52549060ff8260401c16159167ffffffffffffffff8116801590816102ce575b60011490816102c4575b1590816102bb575b506102ac5767ffffffffffffffff1981166001175f516020610f6e5f395f51905f525582610280575b506101f4610e76565b6101fc610e76565b61020533610cf5565b61020d610e76565b6bffffffffffffffffffffffff60a01b5f5416175f5561022957005b68ff0000000000000000195f516020610f6e5f395f51905f5254165f516020610f6e5f395f51905f52557fc7f505b2f371ae2175ee4913f4499e1f2633a7b5936321eed1cdaeb6115181d2602060405160018152a1005b68ffffffffffffffffff191668010000000000000001175f516020610f6e5f395f51905f5255826101eb565b63f92ee8a960e01b5f5260045ffd5b905015846101c2565b303b1591506101ba565b8491506101b0565b346100f75760203660031901126100f7576004355f52600160205261032561030a61031160405f2060405192838092610c74565b0382610b87565b604051918291602083526020830190610ba9565b0390f35b346100f7575f3660031901126100f75761032560405161034a604082610b87565b60058152640352e302e360dc1b6020820152604051918291602083526020830190610ba9565b346100f75760403660031901126100f757610389610b71565b602435908115158092036100f757335f52600360205260405f2060018060a01b0382165f5260205260405f2060ff1981541660ff841617905560405191825260018060a01b0316907f17307eab39ab6107e8899845ad3d59bd9653f200f220920489ca2b5937696c3160203392a3005b346100f7575f3660031901126100f7575f516020610f2e5f395f51905f52546040516001600160a01b039091168152602090f35b346100f7575f3660031901126100f7575f546040516001600160a01b039091168152602090f35b346100f7575f3660031901126100f75761046c610e43565b5f516020610f2e5f395f51905f5280546001600160a01b031981169091555f906001600160a01b03167f8be0079c531659141344cd1fd0a4f28419497f9722a3daafe3b4186f6b6457e08280a3005b346100f75761032561030a61031160206104d436610b3d565b92915f526002825260405f2083604051948593843782019081520301902060405192838092610c74565b346100f7575f3660031901126100f75761032560405161051f604082610b87565b60058152640312e302e360dc1b6020820152604051918291602083526020830190610ba9565b346100f7575f3660031901126100f7577f00000000000000000000000000000000000000000000000000000000000000006001600160a01b0316300361059c5760206040515f516020610f4e5f395f51905f528152f35b63703e46dd60e11b5f5260045ffd5b60403660031901126100f7576105bf610b71565b6024359067ffffffffffffffff82116100f757366023830112156100f757816004013567ffffffffffffffff81116107af5760405192610609601f8301601f191660200185610b87565b81845236602483830101116100f757815f9260246020930183870137840101526001600160a01b037f00000000000000000000000000000000000000000000000000000000000000001630811490811561078d575b5061059c5761066b610e43565b6040516352d1902d60e01b81526001600160a01b0382169290602081600481875afa5f9181610759575b506106ad5783634c9c8ce360e01b5f5260045260245ffd5b805f516020610f4e5f395f51905f528592036107475750823b15610735575f516020610f4e5f395f51905f5280546001600160a01b031916821790557fbc7cd75a20ee27fd9adebab32041f755214dbc6bffa90cc0225b39da2e5c2d3b5f80a280511561071d576100f591610ea1565b50503461072657005b63b398979f60e01b5f5260045ffd5b634c9c8ce360e01b5f5260045260245ffd5b632a87526960e21b5f5260045260245ffd5b9091506020813d602011610785575b8161077560209383610b87565b810103126100f757519085610695565b3d9150610768565b5f516020610f4e5f395f51905f52546001600160a01b0316141590508361065e565b634e487b7160e01b5f52604160045260245ffd5b346100f7576107d136610b3d565b91906107dc82610d66565b815f52600160205260405f209267ffffffffffffffff81116107af5761080c816108068654610bcd565b86610c05565b5f93601f82116001146108855761085b82807f905f903e4b2fc5075c8238eec4ba8b7dfb7eca8e6396e04cf3c0c7204f7138d196975f9161087a575b508160011b915f199060031b1c19161790565b90555b610875604051928392602084526020840191610c54565b0390a2005b905085013588610848565b601f19821694815f5260205f20905f5b8781106108ef5750837f905f903e4b2fc5075c8238eec4ba8b7dfb7eca8e6396e04cf3c0c7204f7138d19697106108d6575b5050600182811b01905561085e565b8401355f19600385901b60f8161c1916905585806108c7565b90916020600181928589013581550193019101610895565b346100f75760603660031901126100f75760043560243567ffffffffffffffff81116100f75761093b903690600401610b0f565b909160443567ffffffffffffffff81116100f75761095d903690600401610b0f565b9261096783610d66565b825f52600260205260405f206020604051809284898337848201908152030190209467ffffffffffffffff85116107af576109ac856109a68854610bcd565b88610c05565b5f95601f8611600114610a37576109fb86807f307c2f1e99e578ed58478cee1d55bf36d3b1bd9353d59e6f196d8165640572f69798995f91610a2c57508160011b915f199060031b1c19161790565b90555b81604051928392833781015f815203902093610a27604051928392602084526020840191610c54565b0390a3005b90508601358a610848565b601f19861696815f5260205f20975f5b818110610aa4575090877f307c2f1e99e578ed58478cee1d55bf36d3b1bd9353d59e6f196d8165640572f69798999210610a8b575b5050600187811b0190556109fe565b8501355f1960038a901b60f8161c191690558780610a7c565b868301358a5560019099019860209283019201610a47565b346100f75760203660031901126100f7576004359063ffffffff60e01b82168092036100f757602091638edb811f60e01b8114908115610afe575b5015158152f35b6301ffc9a760e01b14905083610af7565b9181601f840112156100f75782359167ffffffffffffffff83116100f757602083818601950101116100f757565b9060406003198301126100f757600435916024359067ffffffffffffffff82116100f757610b6d91600401610b0f565b9091565b600435906001600160a01b03821682036100f757565b90601f8019910116810190811067ffffffffffffffff8211176107af57604052565b805180835260209291819084018484015e5f828201840152601f01601f1916010190565b90600182811c92168015610bfb575b6020831014610be757565b634e487b7160e01b5f52602260045260245ffd5b91607f1691610bdc565b601f8211610c1257505050565b5f5260205f20906020601f840160051c83019310610c4a575b601f0160051c01905b818110610c3f575050565b5f8155600101610c34565b9091508190610c2b565b908060209392818452848401375f828201840152601f01601f1916010190565b5f9291815491610c8383610bcd565b8083529260018116908115610cd85750600114610c9f57505050565b5f9081526020812093945091925b838310610cbe575060209250010190565b600181602092949394548385870101520191019190610cad565b915050602093945060ff929192191683830152151560051b010190565b6001600160a01b03168015610d53575f516020610f2e5f395f51905f5280546001600160a01b0319811683179091556001600160a01b03167f8be0079c531659141344cd1fd0a4f28419497f9722a3daafe3b4186f6b6457e05f80a3565b631e4fbdf760e01b5f525f60045260245ffd5b5f546040516302571be360e01b81526004810183905290602090829060249082906001600160a01b03165afa908115610e38575f91610df6575b5060018060a01b0316803314908115610dd3575b5015610dbd5750565b6314c417b560e01b5f526004523360245260445ffd5b5f90815260036020908152604080832033845290915281205460ff169150610db4565b90506020813d602011610e30575b81610e1160209383610b87565b810103126100f757516001600160a01b03811681036100f7575f610da0565b3d9150610e04565b6040513d5f823e3d90fd5b5f516020610f2e5f395f51905f52546001600160a01b03163303610e6357565b63118cdaa760e01b5f523360045260245ffd5b60ff5f516020610f6e5f395f51905f525460401c1615610e9257565b631afcd79f60e31b5f5260045ffd5b905f8091602081519101845af48080610f1a575b15610ed55750506040513d81523d5f602083013e60203d82010160405290565b15610efa57639996b31560e01b5f9081526001600160a01b0391909116600452602490fd5b3d15610f0b576040513d5f823e3d90fd5b63d6bda27560e01b5f5260045ffd5b503d151580610eb55750813b1515610eb556fe9016d09d72d40fdae2fd8ceac6b6234c7706214fd39c1cd1e609a0528c199300360894a13ba1a3210667c828492db98dca3e2076cc3735a920a3ca505d382bbcf0c57e16840df040f15088dc2f81fe391c3923bec73e23a9662efc9c229c6a00a26469706673582212204d9fddcda6a184a45665dbde91fe7776d93d2c94ac4f06663715645374133e8664736f6c634300081e0033f0c57e16840df040f15088dc2f81fe391c3923bec73e23a9662efc9c229c6a00","linkReferences":{}},"methodIdentifiers":{"UPGRADE_INTERFACE_VERSION()":"ad3cb1cc","contenthash(bytes32)":"bc1c58d1","initialize(address)":"c4d66de8","isApprovedForAll(address,address)":"e985e9c5","owner()":"8da5cb5b","proxiableUUID()":"52d1902d","registry()":"7b103999","renounceOwnership()":"715018a6","setApprovalForAll(address,bool)":"a22cb465","setContenthash(bytes32,bytes)":"304e6ade","setText(bytes32,string,string)":"10f13a8c","supportsInterface(bytes4)":"01ffc9a7","text(bytes32,string)":"59d1d43c","transferOwnership(address)":"f2fde38b","upgradeToAndCall(address,bytes)":"4f1ef286","version()":"54fd4d50"},"storageLayout":{"storage":[{"astId":4251,"contract":"contracts/resolvers/DotnsContentResolver.sol:DotnsContentResolver","label":"registry","offset":0,"slot":"0","type":"t_contract(IDotnsRegistry)4222"},{"astId":4256,"contract":"contracts/resolvers/DotnsContentResolver.sol:DotnsContentResolver","label":"contenthashes","offset":0,"slot":"1","type":"t_mapping(t_bytes32,t_bytes_storage)"},{"astId":4263,"contract":"contracts/resolvers/DotnsContentResolver.sol:DotnsContentResolver","label":"textRecords","offset":0,"slot":"2","type":"t_mapping(t_bytes32,t_mapping(t_string_memory_ptr,t_string_storage))"},{"astId":4270,"contract":"contracts/resolvers/DotnsContentResolver.sol:DotnsContentResolver","label":"operators","offset":0,"slot":"3","type":"t_mapping(t_address,t_mapping(t_address,t_bool))"},{"astId":4275,"contract":"contracts/resolvers/DotnsContentResolver.sol:DotnsContentResolver","label":"__gap","offset":0,"slot":"4","type":"t_array(t_uint256)50_storage"}],"types":{"t_address":{"encoding":"inplace","label":"address","numberOfBytes":"20"},"t_array(t_uint256)50_storage":{"encoding":"inplace","label":"uint256[50]","numberOfBytes":"1600","base":"t_uint256"},"t_bool":{"encoding":"inplace","label":"bool","numberOfBytes":"1"},"t_bytes32":{"encoding":"inplace","label":"bytes32","numberOfBytes":"32"},"t_bytes_storage":{"encoding":"bytes","label":"bytes","numberOfBytes":"32"},"t_contract(IDotnsRegistry)4222":{"encoding":"inplace","label":"contract IDotnsRegistry","numberOfBytes":"20"},"t_mapping(t_address,t_bool)":{"encoding":"mapping","key":"t_address","label":"mapping(address => bool)","numberOfBytes":"32","value":"t_bool"},"t_mapping(t_address,t_mapping(t_address,t_bool))":{"encoding":"mapping","key":"t_address","label":"mapping(address => mapping(address => bool))","numberOfBytes":"32","value":"t_mapping(t_address,t_bool)"},"t_mapping(t_bytes32,t_bytes_storage)":{"encoding":"mapping","key":"t_bytes32","label":"mapping(bytes32 => bytes)","numberOfBytes":"32","value":"t_bytes_storage"},"t_mapping(t_bytes32,t_mapping(t_string_memory_ptr,t_string_storage))":{"encoding":"mapping","key":"t_bytes32","label":"mapping(bytes32 => mapping(string => string))","numberOfBytes":"32","value":"t_mapping(t_string_memory_ptr,t_string_storage)"},"t_mapping(t_string_memory_ptr,t_string_storage)":{"encoding":"mapping","key":"t_string_memory_ptr","label":"mapping(string => string)","numberOfBytes":"32","value":"t_string_storage"},"t_string_memory_ptr":{"encoding":"bytes","label":"string","numberOfBytes":"32"},"t_string_storage":{"encoding":"bytes","label":"string","numberOfBytes":"32"},"t_uint256":{"encoding":"inplace","label":"uint256","numberOfBytes":"32"}}},"id":11}