{"abi":[{"type":"constructor","inputs":[],"stateMutability":"nonpayable"},{"type":"function","name":"UPGRADE_INTERFACE_VERSION","inputs":[],"outputs":[{"name":"","type":"string","internalType":"string"}],"stateMutability":"view"},{"type":"function","name":"addressOf","inputs":[{"name":"node","type":"bytes32","internalType":"bytes32"}],"outputs":[{"name":"value","type":"address","internalType":"address"}],"stateMutability":"view"},{"type":"function","name":"initialize","inputs":[{"name":"_registry","type":"address","internalType":"contract IDotnsRegistry"}],"outputs":[],"stateMutability":"nonpayable"},{"type":"function","name":"owner","inputs":[],"outputs":[{"name":"","type":"address","internalType":"address"}],"stateMutability":"view"},{"type":"function","name":"proxiableUUID","inputs":[],"outputs":[{"name":"","type":"bytes32","internalType":"bytes32"}],"stateMutability":"view"},{"type":"function","name":"registry","inputs":[],"outputs":[{"name":"","type":"address","internalType":"contract IDotnsRegistry"}],"stateMutability":"view"},{"type":"function","name":"renounceOwnership","inputs":[],"outputs":[],"stateMutability":"nonpayable"},{"type":"function","name":"setAddress","inputs":[{"name":"node","type":"bytes32","internalType":"bytes32"},{"name":"value","type":"address","internalType":"address"}],"outputs":[],"stateMutability":"nonpayable"},{"type":"function","name":"supportsInterface","inputs":[{"name":"interfaceId","type":"bytes4","internalType":"bytes4"}],"outputs":[{"name":"","type":"bool","internalType":"bool"}],"stateMutability":"view"},{"type":"function","name":"transferOwnership","inputs":[{"name":"newOwner","type":"address","internalType":"address"}],"outputs":[],"stateMutability":"nonpayable"},{"type":"function","name":"upgradeToAndCall","inputs":[{"name":"newImplementation","type":"address","internalType":"address"},{"name":"data","type":"bytes","internalType":"bytes"}],"outputs":[],"stateMutability":"payable"},{"type":"function","name":"version","inputs":[],"outputs":[{"name":"versionString","type":"string","internalType":"string"}],"stateMutability":"pure"},{"type":"event","name":"AddressSet","inputs":[{"name":"node","type":"bytes32","indexed":true,"internalType":"bytes32"},{"name":"value","type":"address","indexed":false,"internalType":"address"}],"anonymous":false},{"type":"event","name":"Initialized","inputs":[{"name":"version","type":"uint64","indexed":false,"internalType":"uint64"}],"anonymous":false},{"type":"event","name":"OwnershipTransferred","inputs":[{"name":"previousOwner","type":"address","indexed":true,"internalType":"address"},{"name":"newOwner","type":"address","indexed":true,"internalType":"address"}],"anonymous":false},{"type":"event","name":"Upgraded","inputs":[{"name":"implementation","type":"address","indexed":true,"internalType":"address"}],"anonymous":false},{"type":"error","name":"AddressEmptyCode","inputs":[{"name":"target","type":"address","internalType":"address"}]},{"type":"error","name":"ERC1967InvalidImplementation","inputs":[{"name":"implementation","type":"address","internalType":"address"}]},{"type":"error","name":"ERC1967NonPayable","inputs":[]},{"type":"error","name":"FailedCall","inputs":[]},{"type":"error","name":"InvalidInitialization","inputs":[]},{"type":"error","name":"NotAuthorised","inputs":[{"name":"node","type":"bytes32","internalType":"bytes32"},{"name":"caller","type":"address","internalType":"address"}]},{"type":"error","name":"NotInitializing","inputs":[]},{"type":"error","name":"OwnableInvalidOwner","inputs":[{"name":"owner","type":"address","internalType":"address"}]},{"type":"error","name":"OwnableUnauthorizedAccount","inputs":[{"name":"account","type":"address","internalType":"address"}]},{"type":"error","name":"UUPSUnauthorizedCallContext","inputs":[]},{"type":"error","name":"UUPSUnsupportedProxiableUUID","inputs":[{"name":"slot","type":"bytes32","internalType":"bytes32"}]}],"bytecode":{"object":"0x60a080604052346100c257306080525f516020610ad15f395f51905f525460ff8160401c166100b3576002600160401b03196001600160401b03821601610060575b604051610a0a90816100c782396080518181816104f801526105d40152f35b6001600160401b0319166001600160401b039081175f516020610ad15f395f51905f525581527fc7f505b2f371ae2175ee4913f4499e1f2633a7b5936321eed1cdaeb6115181d290602090a15f80610041565b63f92ee8a960e01b5f5260045ffd5b5f80fdfe6080806040526004361015610012575f80fd5b5f3560e01c90816301ffc9a714610764575080634f1ef2861461054c57806352d1902d146104e657806354fd4d50146104a7578063715018a6146104405780637b103999146104195780638da5cb5b146103e5578063ad3cb1cc146103a2578063bb34534c14610370578063c4d66de8146101f7578063ca446dd9146100cf5763f2fde38b146100a0575f80fd5b346100cb5760203660031901126100cb576100c96100bc6107b7565b6100c461088a565b610819565b005b5f80fd5b346100cb5760403660031901126100cb576004356024356001600160a01b038116908190036100cb575f546040516302571be360e01b81526004810184905290602090829060249082906001600160a01b03165afa9081156101ec575f916101aa575b50336001600160a01b03909116036101935760207fb37614c7d254ea8d16eb81fa11dddaeb266aa8ba4917980859c7740aff30c69191835f526033825260405f20816bffffffffffffffffffffffff60a01b825416179055604051908152a2005b506314c417b560e01b5f526004523360245260445ffd5b90506020813d6020116101e4575b816101c5602093836107cd565b810103126100cb57516001600160a01b03811681036100cb5783610132565b3d91506101b8565b6040513d5f823e3d90fd5b346100cb5760203660031901126100cb576004356001600160a01b038116908190036100cb575f5160206109b55f395f51905f52549060ff8260401c16159167ffffffffffffffff811680159081610368575b600114908161035e575b159081610355575b506103465767ffffffffffffffff1981166001175f5160206109b55f395f51905f52558261031a575b5061028e6108bd565b6102966108bd565b61029f33610819565b6102a76108bd565b6bffffffffffffffffffffffff60a01b5f5416175f556102c357005b68ff0000000000000000195f5160206109b55f395f51905f5254165f5160206109b55f395f51905f52557fc7f505b2f371ae2175ee4913f4499e1f2633a7b5936321eed1cdaeb6115181d2602060405160018152a1005b68ffffffffffffffffff191668010000000000000001175f5160206109b55f395f51905f525582610285565b63f92ee8a960e01b5f5260045ffd5b9050158461025c565b303b159150610254565b84915061024a565b346100cb5760203660031901126100cb576004355f526033602052602060018060a01b0360405f205416604051908152f35b346100cb575f3660031901126100cb576103e16040516103c36040826107cd565b60058152640352e302e360dc1b6020820152604051918291826107ef565b0390f35b346100cb575f3660031901126100cb575f5160206109755f395f51905f52546040516001600160a01b039091168152602090f35b346100cb575f3660031901126100cb575f546040516001600160a01b039091168152602090f35b346100cb575f3660031901126100cb5761045861088a565b5f5160206109755f395f51905f5280546001600160a01b031981169091555f906001600160a01b03167f8be0079c531659141344cd1fd0a4f28419497f9722a3daafe3b4186f6b6457e08280a3005b346100cb575f3660031901126100cb576103e16040516104c86040826107cd565b60058152640312e302e360dc1b6020820152604051918291826107ef565b346100cb575f3660031901126100cb577f00000000000000000000000000000000000000000000000000000000000000006001600160a01b0316300361053d5760206040515f5160206109955f395f51905f528152f35b63703e46dd60e11b5f5260045ffd5b60403660031901126100cb576105606107b7565b6024359067ffffffffffffffff82116100cb57366023830112156100cb57816004013567ffffffffffffffff811161075057604051926105aa601f8301601f1916602001856107cd565b81845236602483830101116100cb57815f9260246020930183870137840101526001600160a01b037f00000000000000000000000000000000000000000000000000000000000000001630811490811561072e575b5061053d5761060c61088a565b6040516352d1902d60e01b81526001600160a01b0382169290602081600481875afa5f91816106fa575b5061064e5783634c9c8ce360e01b5f5260045260245ffd5b805f5160206109955f395f51905f528592036106e85750823b156106d6575f5160206109955f395f51905f5280546001600160a01b031916821790557fbc7cd75a20ee27fd9adebab32041f755214dbc6bffa90cc0225b39da2e5c2d3b5f80a28051156106be576100c9916108e8565b5050346106c757005b63b398979f60e01b5f5260045ffd5b634c9c8ce360e01b5f5260045260245ffd5b632a87526960e21b5f5260045260245ffd5b9091506020813d602011610726575b81610716602093836107cd565b810103126100cb57519085610636565b3d9150610709565b5f5160206109955f395f51905f52546001600160a01b031614159050836105ff565b634e487b7160e01b5f52604160045260245ffd5b346100cb5760203660031901126100cb576004359063ffffffff60e01b82168092036100cb576020916371703e9560e01b81149081156107a6575b5015158152f35b6301ffc9a760e01b1490508361079f565b600435906001600160a01b03821682036100cb57565b90601f8019910116810190811067ffffffffffffffff82111761075057604052565b602060409281835280519182918282860152018484015e5f828201840152601f01601f1916010190565b6001600160a01b03168015610877575f5160206109755f395f51905f5280546001600160a01b0319811683179091556001600160a01b03167f8be0079c531659141344cd1fd0a4f28419497f9722a3daafe3b4186f6b6457e05f80a3565b631e4fbdf760e01b5f525f60045260245ffd5b5f5160206109755f395f51905f52546001600160a01b031633036108aa57565b63118cdaa760e01b5f523360045260245ffd5b60ff5f5160206109b55f395f51905f525460401c16156108d957565b631afcd79f60e31b5f5260045ffd5b905f8091602081519101845af48080610961575b1561091c5750506040513d81523d5f602083013e60203d82010160405290565b1561094157639996b31560e01b5f9081526001600160a01b0391909116600452602490fd5b3d15610952576040513d5f823e3d90fd5b63d6bda27560e01b5f5260045ffd5b503d1515806108fc5750813b15156108fc56fe9016d09d72d40fdae2fd8ceac6b6234c7706214fd39c1cd1e609a0528c199300360894a13ba1a3210667c828492db98dca3e2076cc3735a920a3ca505d382bbcf0c57e16840df040f15088dc2f81fe391c3923bec73e23a9662efc9c229c6a00a2646970667358221220539f65986cbb8d3415cb3361decc86811c3fb03230dd038cc3578eb089141e2d64736f6c634300081e0033f0c57e16840df040f15088dc2f81fe391c3923bec73e23a9662efc9c229c6a00","linkReferences":{}},"methodIdentifiers":{"UPGRADE_INTERFACE_VERSION()":"ad3cb1cc","addressOf(bytes32)":"bb34534c","initialize(address)":"c4d66de8","owner()":"8da5cb5b","proxiableUUID()":"52d1902d","registry()":"7b103999","renounceOwnership()":"715018a6","setAddress(bytes32,address)":"ca446dd9","supportsInterface(bytes4)":"01ffc9a7","transferOwnership(address)":"f2fde38b","upgradeToAndCall(address,bytes)":"4f1ef286","version()":"54fd4d50"},"storageLayout":{"storage":[{"astId":4297,"contract":"contracts/resolvers/DotnsResolver.sol:DotnsResolver","label":"registry","offset":0,"slot":"0","type":"t_contract(IDotnsRegistry)3977"},{"astId":4302,"contract":"contracts/resolvers/DotnsResolver.sol:DotnsResolver","label":"__gap","offset":0,"slot":"1","type":"t_array(t_uint256)50_storage"},{"astId":4307,"contract":"contracts/resolvers/DotnsResolver.sol:DotnsResolver","label":"addresses","offset":0,"slot":"51","type":"t_mapping(t_bytes32,t_address)"}],"types":{"t_address":{"encoding":"inplace","label":"address","numberOfBytes":"20"},"t_array(t_uint256)50_storage":{"encoding":"inplace","label":"uint256[50]","numberOfBytes":"1600","base":"t_uint256"},"t_bytes32":{"encoding":"inplace","label":"bytes32","numberOfBytes":"32"},"t_contract(IDotnsRegistry)3977":{"encoding":"inplace","label":"contract IDotnsRegistry","numberOfBytes":"20"},"t_mapping(t_bytes32,t_address)":{"encoding":"mapping","key":"t_bytes32","label":"mapping(bytes32 => address)","numberOfBytes":"32","value":"t_address"},"t_uint256":{"encoding":"inplace","label":"uint256","numberOfBytes":"32"}}},"id":11}