{"abi":[{"type":"constructor","inputs":[],"stateMutability":"nonpayable"},{"type":"function","name":"MAX_ALLOWED_COMMITMENT_AGE","inputs":[],"outputs":[{"name":"","type":"uint256","internalType":"uint256"}],"stateMutability":"view"},{"type":"function","name":"UPGRADE_INTERFACE_VERSION","inputs":[],"outputs":[{"name":"","type":"string","internalType":"string"}],"stateMutability":"view"},{"type":"function","name":"available","inputs":[{"name":"label","type":"string","internalType":"string"}],"outputs":[{"name":"","type":"bool","internalType":"bool"}],"stateMutability":"view"},{"type":"function","name":"commit","inputs":[{"name":"commitment","type":"bytes32","internalType":"bytes32"}],"outputs":[],"stateMutability":"nonpayable"},{"type":"function","name":"commitments","inputs":[{"name":"hash","type":"bytes32","internalType":"bytes32"}],"outputs":[{"name":"timestamp","type":"uint256","internalType":"uint256"}],"stateMutability":"view"},{"type":"function","name":"dotnsRegistrar","inputs":[],"outputs":[{"name":"","type":"address","internalType":"contract IDotnsRegistrar"}],"stateMutability":"view"},{"type":"function","name":"dotnsRegistry","inputs":[],"outputs":[{"name":"","type":"address","internalType":"contract IDotnsRegistry"}],"stateMutability":"view"},{"type":"function","name":"initialize","inputs":[{"name":"registrar","type":"address","internalType":"contract IDotnsRegistrar"},{"name":"registry","type":"address","internalType":"contract IDotnsRegistry"},{"name":"reverse","type":"address","internalType":"contract IDotnsReverseResolver"},{"name":"popOracle","type":"address","internalType":"contract IPopOracle"},{"name":"factory","type":"address","internalType":"contract IStoreFactory"},{"name":"minAge","type":"uint256","internalType":"uint256"},{"name":"maxAge","type":"uint256","internalType":"uint256"}],"outputs":[],"stateMutability":"nonpayable"},{"type":"function","name":"makeCommitment","inputs":[{"name":"registration","type":"tuple","internalType":"struct IDotnsRegistrarController.Registration","components":[{"name":"label","type":"string","internalType":"string"},{"name":"owner","type":"address","internalType":"address"},{"name":"secret","type":"bytes32","internalType":"bytes32"},{"name":"reserved","type":"bool","internalType":"bool"}]}],"outputs":[{"name":"commitment","type":"bytes32","internalType":"bytes32"}],"stateMutability":"pure"},{"type":"function","name":"maxCommitmentAge","inputs":[],"outputs":[{"name":"","type":"uint256","internalType":"uint256"}],"stateMutability":"view"},{"type":"function","name":"minCommitmentAge","inputs":[],"outputs":[{"name":"","type":"uint256","internalType":"uint256"}],"stateMutability":"view"},{"type":"function","name":"oracle","inputs":[],"outputs":[{"name":"","type":"address","internalType":"contract IPopOracle"}],"stateMutability":"view"},{"type":"function","name":"owner","inputs":[],"outputs":[{"name":"","type":"address","internalType":"address"}],"stateMutability":"view"},{"type":"function","name":"proxiableUUID","inputs":[],"outputs":[{"name":"","type":"bytes32","internalType":"bytes32"}],"stateMutability":"view"},{"type":"function","name":"register","inputs":[{"name":"registration","type":"tuple","internalType":"struct IDotnsRegistrarController.Registration","components":[{"name":"label","type":"string","internalType":"string"},{"name":"owner","type":"address","internalType":"address"},{"name":"secret","type":"bytes32","internalType":"bytes32"},{"name":"reserved","type":"bool","internalType":"bool"}]}],"outputs":[],"stateMutability":"payable"},{"type":"function","name":"registerReserved","inputs":[{"name":"registration","type":"tuple","internalType":"struct IDotnsRegistrarController.Registration","components":[{"name":"label","type":"string","internalType":"string"},{"name":"owner","type":"address","internalType":"address"},{"name":"secret","type":"bytes32","internalType":"bytes32"},{"name":"reserved","type":"bool","internalType":"bool"}]}],"outputs":[],"stateMutability":"nonpayable"},{"type":"function","name":"renounceOwnership","inputs":[],"outputs":[],"stateMutability":"nonpayable"},{"type":"function","name":"reverseResolver","inputs":[],"outputs":[{"name":"","type":"address","internalType":"contract IDotnsReverseResolver"}],"stateMutability":"view"},{"type":"function","name":"storeFactory","inputs":[],"outputs":[{"name":"","type":"address","internalType":"contract IStoreFactory"}],"stateMutability":"view"},{"type":"function","name":"supportsInterface","inputs":[{"name":"interfaceId","type":"bytes4","internalType":"bytes4"}],"outputs":[{"name":"","type":"bool","internalType":"bool"}],"stateMutability":"view"},{"type":"function","name":"transferOwnership","inputs":[{"name":"newOwner","type":"address","internalType":"address"}],"outputs":[],"stateMutability":"nonpayable"},{"type":"function","name":"upgradeToAndCall","inputs":[{"name":"newImplementation","type":"address","internalType":"address"},{"name":"data","type":"bytes","internalType":"bytes"}],"outputs":[],"stateMutability":"payable"},{"type":"function","name":"version","inputs":[],"outputs":[{"name":"versionString","type":"string","internalType":"string"}],"stateMutability":"pure"},{"type":"function","name":"writeSubnodeToStore","inputs":[{"name":"record","type":"tuple","internalType":"struct IDotnsRegistry.SubnodeRecord","components":[{"name":"parentNode","type":"bytes32","internalType":"bytes32"},{"name":"subLabel","type":"string","internalType":"string"},{"name":"parentLabel","type":"string","internalType":"string"},{"name":"owner","type":"address","internalType":"address"}]}],"outputs":[],"stateMutability":"nonpayable"},{"type":"event","name":"Initialized","inputs":[{"name":"version","type":"uint64","indexed":false,"internalType":"uint64"}],"anonymous":false},{"type":"event","name":"NameCommitted","inputs":[{"name":"commitment","type":"bytes32","indexed":true,"internalType":"bytes32"}],"anonymous":false},{"type":"event","name":"NameRegistered","inputs":[{"name":"label","type":"string","indexed":true,"internalType":"string"},{"name":"labelhash","type":"bytes32","indexed":true,"internalType":"bytes32"},{"name":"owner","type":"address","indexed":true,"internalType":"address"},{"name":"baseCost","type":"uint256","indexed":false,"internalType":"uint256"},{"name":"store","type":"address","indexed":false,"internalType":"address"}],"anonymous":false},{"type":"event","name":"OwnershipTransferred","inputs":[{"name":"previousOwner","type":"address","indexed":true,"internalType":"address"},{"name":"newOwner","type":"address","indexed":true,"internalType":"address"}],"anonymous":false},{"type":"event","name":"Upgraded","inputs":[{"name":"implementation","type":"address","indexed":true,"internalType":"address"}],"anonymous":false},{"type":"error","name":"AddressEmptyCode","inputs":[{"name":"target","type":"address","internalType":"address"}]},{"type":"error","name":"CommitmentNotFound","inputs":[{"name":"commitment","type":"bytes32","internalType":"bytes32"}]},{"type":"error","name":"CommitmentTooNew","inputs":[{"name":"commitment","type":"bytes32","internalType":"bytes32"},{"name":"minTime","type":"uint256","internalType":"uint256"},{"name":"currentTime","type":"uint256","internalType":"uint256"}]},{"type":"error","name":"CommitmentTooOld","inputs":[{"name":"commitment","type":"bytes32","internalType":"bytes32"},{"name":"maxTime","type":"uint256","internalType":"uint256"},{"name":"currentTime","type":"uint256","internalType":"uint256"}]},{"type":"error","name":"ERC1967InvalidImplementation","inputs":[{"name":"implementation","type":"address","internalType":"address"}]},{"type":"error","name":"ERC1967NonPayable","inputs":[]},{"type":"error","name":"FailedCall","inputs":[]},{"type":"error","name":"InsufficientValue","inputs":[]},{"type":"error","name":"InvalidInitialization","inputs":[]},{"type":"error","name":"InvalidStore","inputs":[]},{"type":"error","name":"MaxCommitmentAgeTooHigh","inputs":[]},{"type":"error","name":"MaxCommitmentAgeTooLow","inputs":[]},{"type":"error","name":"NameNotAvailable","inputs":[{"name":"label","type":"string","internalType":"string"}]},{"type":"error","name":"NotInitializing","inputs":[]},{"type":"error","name":"NotRegistry","inputs":[]},{"type":"error","name":"OwnableInvalidOwner","inputs":[{"name":"owner","type":"address","internalType":"address"}]},{"type":"error","name":"OwnableUnauthorizedAccount","inputs":[{"name":"account","type":"address","internalType":"address"}]},{"type":"error","name":"RefundFailed","inputs":[]},{"type":"error","name":"UUPSUnauthorizedCallContext","inputs":[]},{"type":"error","name":"UUPSUnsupportedProxiableUUID","inputs":[{"name":"slot","type":"bytes32","internalType":"bytes32"}]},{"type":"error","name":"UnexpiredCommitmentExists","inputs":[{"name":"commitment","type":"bytes32","internalType":"bytes32"}]}],"bytecode":{"object":"0x60a080604052346100c257306080525f5160206129c95f395f51905f525460ff8160401c166100b3576002600160401b03196001600160401b03821601610060575b60405161290290816100c782396080518181816109690152610b250152f35b6001600160401b0319166001600160401b039081175f5160206129c95f395f51905f525581527fc7f505b2f371ae2175ee4913f4499e1f2633a7b5936321eed1cdaeb6115181d290602090a15f80610041565b63f92ee8a960e01b5f5260045ffd5b5f80fdfe60806040526004361015610011575f80fd5b5f3560e01c806301ffc9a7146101945780630823f2771461018f578063206c68551461018a57806320788cae146101855780634f1ef2861461018057806352d1902d1461017b57806354fd4d50146101765780635557f04314610171578063646095171461016c578063715018a6146101675780637a23df1d146101625780637dc0d1d01461015d578063839df945146101585780638d839ffe146101535780638da5cb5b1461014e578063acd810f714610149578063ad3cb1cc14610144578063aeb8ce9b1461013f578063b26675d51461013a578063b33f952714610135578063bfc8d3b414610130578063ce1e09c01461012b578063f14fcbc8146101265763f2fde38b14610121575f80fd5b611bcb565b611b18565b611afb565b611ad5565b61185e565b61117d565b61110c565b6110ad565b610dc2565b610d7d565b610d60565b610d3c565b610d04565b610ce4565b610c40565b610c1a565b610bfd565b610b9a565b610b0b565b610915565b610835565b610298565b610243565b34610235576020600319360112610235576004357fffffffff00000000000000000000000000000000000000000000000000000000811680910361023557807f1b06d739000000000000000000000000000000000000000000000000000000006020921490811561020b575b506040519015158152f35b7f01ffc9a7000000000000000000000000000000000000000000000000000000009150145f610200565b5f80fd5b5f91031261023557565b34610235575f6003193601126102355760206001600160a01b0360045416604051908152f35b60206003198201126102355760043567ffffffffffffffff811161023557608090600401809203126102355790565b34610235576102a636610269565b6102cc6102bc6102b68380611bf8565b90611ffd565b6102c68380611bf8565b91611c69565b6102df6102d98280611bf8565b90612603565b604080517f3fce7d1364a893e213bc4212792b517ffc88f5b13b86c8ef9c8d390c3a1370ce815260208101839052205f61039161031b85611ebd565b610383610330825f52600760205260405f2090565b5461033d83821515611cb6565b61036260055461034d8184611d51565b85610359429386611d51565b91421015611d5e565b6006548361037d426103748486611d51565b11924294611d51565b91611d99565b5f52600760205260405f2090565b556103b26103a65f546001600160a01b031690565b6001600160a01b031690565b9060208401916103c183611dd4565b90803b15610235576040517fdbbdf083000000000000000000000000000000000000000000000000000000008152600481018690526001600160a01b039290921660248301525f908290604490829084905af180156106da57610821575b506104356103a66001546001600160a01b031690565b9061043f83611dd4565b916104556103a66002546001600160a01b031690565b90803b15610235576040517f61738a9000000000000000000000000000000000000000000000000000000000815260048101939093526001600160a01b03938416602484015292166044820152905f908290606490829084905af180156106da5761080d575b506104d16103a66002546001600160a01b031690565b6104da82611dd4565b6104ed6104e78680611bf8565b90611dec565b823b1561023557610530925f92836040518096819582947f82d022b500000000000000000000000000000000000000000000000000000000845260048401611e3b565b03925af180156106da576107f9575b506105556103a66004546001600160a01b031690565b6105a5602061056384611dd4565b6040517ffa381b520000000000000000000000000000000000000000000000000000000081526001600160a01b03909116600482015291829081906024820190565b0381855afa80156106da576001600160a01b03915f916107da575b50169081156106df575b50604080517f646f746e732e7265676973746572656400000000000000000000000000000000815260208101859052206001600160a01b039091169361060f83611dd4565b61061c6104e78380611bf8565b92863b15610235575f916106446040519586938493631f67f7b760e11b855260048501611e70565b038183895af19081156106da5761069a6106926106a0927f3cafc9840d73ebb201c4ba9a644f117a6175b9481b314fae31485d257153b095956001600160a01b03956106c0575b5080611bf8565b919095611dd4565b94611e95565b604080515f81526001600160a01b039790971660208801529190931694a4005b806106ce5f6106d4936108a0565b80610239565b5f61068b565b611de1565b5f9150602090600460405180948193631dd70c0360e21b83525af180156106da576001600160a01b03915f916107ab575b5016803b1561023557604051634462f7a360e11b81523060048201525f8160248183865af180156106da57610797575b5061074a82611dd4565b813b156102355760405163f2fde38b60e01b81526001600160a01b039190911660048201525f8160248183865af180156106da57156105ca57806106ce5f610791936108a0565b5f6105ca565b806106ce5f6107a5936108a0565b5f610740565b6107cd915060203d6020116107d3575b6107c581836108a0565b810190611e5b565b5f610710565b503d6107bb565b6107f3915060203d6020116107d3576107c581836108a0565b5f6105c0565b806106ce5f610807936108a0565b5f61053f565b806106ce5f61081b936108a0565b5f6104bb565b806106ce5f61082f936108a0565b5f61041f565b34610235575f6003193601126102355760206001600160a01b035f5416604051908152f35b6001600160a01b0381160361023557565b634e487b7160e01b5f52604160045260245ffd5b6080810190811067ffffffffffffffff82111761089b57604052565b61086b565b90601f601f19910116810190811067ffffffffffffffff82111761089b57604052565b67ffffffffffffffff811161089b57601f01601f191660200190565b9291926108eb826108c3565b916108f960405193846108a0565b829481845281830111610235578281602093845f960137010152565b60406003193601126102355760043561092d8161085a565b60243567ffffffffffffffff811161023557366023820112156102355761095e9036906024816004013591016108df565b906001600160a01b037f000000000000000000000000000000000000000000000000000000000000000016803014908115610ad6575b50610aae576109a161261d565b604051917f52d1902d0000000000000000000000000000000000000000000000000000000083526020836004816001600160a01b0386165afa5f9381610a7d575b50610a1c577f4c9c8ce3000000000000000000000000000000000000000000000000000000005f526001600160a01b03821660045260245ffd5b907f360894a13ba1a3210667c828492db98dca3e2076cc3735a920a3ca505d382bbc8303610a5057610a4e92506126af565b005b7faa1d49a4000000000000000000000000000000000000000000000000000000005f52600483905260245ffd5b610aa091945060203d602011610aa7575b610a9881836108a0565b81019061260e565b925f6109e2565b503d610a8e565b7fe07c8dba000000000000000000000000000000000000000000000000000000005f5260045ffd5b90506001600160a01b037f360894a13ba1a3210667c828492db98dca3e2076cc3735a920a3ca505d382bbc541614155f610994565b34610235575f600319360112610235576001600160a01b037f0000000000000000000000000000000000000000000000000000000000000000163003610aae5760206040517f360894a13ba1a3210667c828492db98dca3e2076cc3735a920a3ca505d382bbc8152f35b90601f19601f602080948051918291828752018686015e5f8582860101520116010190565b34610235575f60031936011261023557610bf9604051610bbb6040826108a0565b600581527f312e302e300000000000000000000000000000000000000000000000000000006020820152604051918291602083526020830190610b75565b0390f35b34610235575f60031936011261023557602060405162093a808152f35b34610235575f6003193601126102355760206001600160a01b0360025416604051908152f35b34610235575f60031936011261023557610c5861261d565b5f6001600160a01b037f9016d09d72d40fdae2fd8ceac6b6234c7706214fd39c1cd1e609a0528c1993005473ffffffffffffffffffffffffffffffffffffffff1981167f9016d09d72d40fdae2fd8ceac6b6234c7706214fd39c1cd1e609a0528c19930055167f8be0079c531659141344cd1fd0a4f28419497f9722a3daafe3b4186f6b6457e08280a3005b34610235576020610cfc610cf736610269565b611ebd565b604051908152f35b34610235575f6003193601126102355760206001600160a01b0360035416604051908152f35b60031960209101126102355760043590565b3461023557610d4a36610d2a565b5f526007602052602060405f2054604051908152f35b34610235575f600319360112610235576020600554604051908152f35b34610235575f6003193601126102355760206001600160a01b037f9016d09d72d40fdae2fd8ceac6b6234c7706214fd39c1cd1e609a0528c1993005416604051908152f35b3461023557610dd036610269565b6001600160a01b0360015416330361108557610df76103a66004546001600160a01b031690565b9060608101610e0a602061056383611dd4565b0381875afa80156106da576001600160a01b03915f91611066575b5016928315610f08575b50610ebe610eb96020840193610ead610eb3610ea0610e996001600160a01b03610e91610e5f6102d98c89611bf8565b6040908151907f646f746e732e7265676973746572656400000000000000000000000000000000825260208201522090565b9a1697611dd4565b9784611bf8565b9290936040810190611bf8565b90611f0a565b91611f6c565b611f9c565b90803b1561023557610eea935f809460405196879586948593631f67f7b760e11b855260048501611e70565b03925af180156106da57610efa57005b806106ce5f610a4e936108a0565b5f919350602090600460405180948193631dd70c0360e21b83525af180156106da576001600160a01b03915f91611047575b501691823b1561023557604051634462f7a360e11b81523060048201525f8160248183885af180156106da57611033575b50610f7581611dd4565b833b156102355760405163f2fde38b60e01b81526001600160a01b039190911660048201525f8160248183885af180156106da5761101f575b50610fc46103a66004546001600160a01b031690565b610fcd82611dd4565b90803b156102355760405163f2fde38b60e01b81526001600160a01b039290921660048301525f908290602490829084905af180156106da5715610e2f57806106ce5f611019936108a0565b5f610e2f565b806106ce5f61102d936108a0565b5f610fae565b806106ce5f611041936108a0565b5f610f6b565b611060915060203d6020116107d3576107c581836108a0565b5f610f3a565b61107f915060203d6020116107d3576107c581836108a0565b5f610e25565b7fc85d9d6c000000000000000000000000000000000000000000000000000000005f5260045ffd5b34610235575f60031936011261023557610bf96040516110ce6040826108a0565b600581527f352e302e300000000000000000000000000000000000000000000000000000006020820152604051918291602083526020830190610b75565b346102355760206003193601126102355760043567ffffffffffffffff811161023557366023820112156102355780600401359067ffffffffffffffff821161023557366024838301011161023557610bf991602461116b9201611ffd565b60405190151581529081906020820190565b61121b61118936610269565b6111996102bc6102b68380611bf8565b6111a66102d98280611bf8565b5f6111b361031b84611ebd565b556111c96103a66003546001600160a01b031690565b905f6111d58480611bf8565b9360208601946111e486611dd4565b92604051988994859384937f6bbfce2b00000000000000000000000000000000000000000000000000000000855260048501612300565b03915afa9384156106da575f9461183a575b5061123b8451341015612328565b61124f6103a65f546001600160a01b031690565b61125883611dd4565b90803b15610235576040517fdbbdf083000000000000000000000000000000000000000000000000000000008152600481018490526001600160a01b039290921660248301525f908290604490829084905af180156106da57611826575b50604080517f3fce7d1364a893e213bc4212792b517ffc88f5b13b86c8ef9c8d390c3a1370ce815260208101839052206112fb6103a66001546001600160a01b031690565b9061130584611dd4565b9161131b6103a66002546001600160a01b031690565b90803b15610235576040517f61738a9000000000000000000000000000000000000000000000000000000000815260048101939093526001600160a01b03938416602484015292166044820152905f908290606490829084905af180156106da57611812575b5061138e60608401611eb3565b61177b575b6113a86103a66004546001600160a01b031690565b906113b7602061056385611dd4565b0381865afa80156106da576001600160a01b03915f9161175c575b50169182156115fe575b50604080517f646f746e732e726567697374657265640000000000000000000000000000000081526020810183905220916001600160a01b031661141f84611dd4565b61142c6104e78780611bf8565b93823b15610235575f916114546040519687938493631f67f7b760e11b855260048501611e70565b038183855af19283156106da576001600160a01b03936115ea575b507f3cafc9840d73ebb201c4ba9a644f117a6175b9481b314fae31485d257153b09561149b8680611bf8565b6114db6114b66114ad89989498611dd4565b928b5198611e95565b946040519384931697839092916001600160a01b036020916040840195845216910152565b0390a4600160208401516114ee81612357565b6114f781612357565b14806115ca575b611531575b50505180341161150f57005b5f808080611520610a4e9534612375565b335af161152b612382565b506123b1565b61155c9161155461154d6103a66003546001600160a01b031690565b9180611bf8565b939092611dd4565b90803b15610235576115a1935f8094604051968795869485937f35696fa700000000000000000000000000000000000000000000000000000000855260048501612300565b03925af180156106da576115b6575b80611503565b806106ce5f6115c4936108a0565b5f6115b0565b50600160408401516115db81612357565b6115e481612357565b146114fe565b806106ce5f6115f8936108a0565b5f61146f565b5f919250602090600460405180948193631dd70c0360e21b83525af180156106da576001600160a01b03915f9161173d575b501690813b1561023557604051634462f7a360e11b81523060048201525f8160248183875af180156106da57611729575b5061166b83611dd4565b823b156102355760405163f2fde38b60e01b81526001600160a01b039190911660048201525f8160248183875af180156106da57611715575b506116ba6103a66004546001600160a01b031690565b6116c384611dd4565b90803b156102355760405163f2fde38b60e01b81526001600160a01b039290921660048301525f908290602490829084905af180156106da57156113dc57806106ce5f61170f936108a0565b5f6113dc565b806106ce5f611723936108a0565b5f6116a4565b806106ce5f611737936108a0565b5f611661565b611756915060203d6020116107d3576107c581836108a0565b5f611630565b611775915060203d6020116107d3576107c581836108a0565b5f6113d2565b6117906103a66002546001600160a01b031690565b61179983611dd4565b6117a66104e78680611bf8565b823b15610235576117e9925f92836040518096819582947f82d022b500000000000000000000000000000000000000000000000000000000845260048401611e3b565b03925af180156106da576117fe575b50611393565b806106ce5f61180c936108a0565b5f6117f8565b806106ce5f611820936108a0565b5f611381565b806106ce5f611834936108a0565b5f6112b6565b6118579194503d805f833e61184f81836108a0565b810190612244565b925f61122d565b346102355760e06003193601126102355760043561187b8161085a565b602435906118888261085a565b6044356118948161085a565b6064356118a08161085a565b6084356118ac8161085a565b60a4359160c435937ff0c57e16840df040f15088dc2f81fe391c3923bec73e23a9662efc9c229c6a00549667ffffffffffffffff6119066118f86118f48b60ff9060401c1690565b1590565b9967ffffffffffffffff1690565b1680159081611acd575b6001149081611ac3575b159081611aba575b50611a92576119a3968861199a60017fffffffffffffffffffffffffffffffffffffffffffffffff00000000000000007ff0c57e16840df040f15088dc2f81fe391c3923bec73e23a9662efc9c229c6a005416177ff0c57e16840df040f15088dc2f81fe391c3923bec73e23a9662efc9c229c6a0055565b611a2d576123e0565b6119a957005b6119fe68ff0000000000000000197ff0c57e16840df040f15088dc2f81fe391c3923bec73e23a9662efc9c229c6a0054167ff0c57e16840df040f15088dc2f81fe391c3923bec73e23a9662efc9c229c6a0055565b604051600181527fc7f505b2f371ae2175ee4913f4499e1f2633a7b5936321eed1cdaeb6115181d290602090a1005b611a8d6801000000000000000068ff0000000000000000197ff0c57e16840df040f15088dc2f81fe391c3923bec73e23a9662efc9c229c6a005416177ff0c57e16840df040f15088dc2f81fe391c3923bec73e23a9662efc9c229c6a0055565b6123e0565b7ff92ee8a9000000000000000000000000000000000000000000000000000000005f5260045ffd5b9050155f611922565b303b15915061191a565b899150611910565b34610235575f6003193601126102355760206001600160a01b0360015416604051908152f35b34610235575f600319360112610235576020600654604051908152f35b3461023557611b2636610d2a565b805f52600760205260405f2054158015611ba5575b15611b7a5742611b53825f52600760205260405f2090565b557fef22605c9809177582573db193c28d567e9f52de8f65e646f70f5ce1837728e95f80a2005b7f0a059d71000000000000000000000000000000000000000000000000000000005f5260045260245ffd5b50805f52600760205260405f20546006548101809111611bc6574211611b3b565b611ce9565b3461023557602060031936011261023557610a4e600435611beb8161085a565b611bf361261d565b61253b565b9035907fffffffffffffffffffffffffffffffffffffffffffffffffffffffffffffffe181360301821215610235570180359067ffffffffffffffff82116102355760200191813603831361023557565b601f8260209493601f1993818652868601375f8582860101520116010190565b91909115611c75575050565b611cb26040519283927f477707e8000000000000000000000000000000000000000000000000000000008452602060048501526024840191611c49565b0390fd5b15611cbe5750565b7f836588c9000000000000000000000000000000000000000000000000000000005f5260045260245ffd5b634e487b7160e01b5f52601160045260245ffd5b9060068201809211611bc657565b9060058201809211611bc657565b9060048201809211611bc657565b9060038201809211611bc657565b9060028201809211611bc657565b9060018201809211611bc657565b91908201809211611bc657565b15611d6857505050565b7f74480cc9000000000000000000000000000000000000000000000000000000005f5260045260245260445260645ffd5b15611da357505050565b7f256e2216000000000000000000000000000000000000000000000000000000005f5260045260245260445260645ffd5b35611dde8161085a565b90565b6040513d5f823e3d90fd5b60046020611e3992949394856040519687928484013781017f2e646f7400000000000000000000000000000000000000000000000000000000838201520301601b198101855201836108a0565b565b6040906001600160a01b03611dde94931681528160208201520190610b75565b908160209103126102355751611dde8161085a565b611dde93926001600160a01b0360609316825260208201528160408201520190610b75565b81604051928392833781015f815203902090565b8015150361023557565b35611dde81611ea9565b6041611ec98280611bf8565b90926040602082013591611edc8361085a565b81606082013591611eec83611ea9565b85825198893785880194855201356020840152151591015301902090565b6021611e3991939293846040519586927f2e0000000000000000000000000000000000000000000000000000000000000060208501528484013781015f838201520301601f1981018452836108a0565b805191908290602001825e015f815290565b611f8e611e3992949360208660405197889583870137840101905f8252611f5a565b03601f1981018452836108a0565b90611e396004611fb6936040519485916020830190611f5a565b7f2e646f7400000000000000000000000000000000000000000000000000000000815203601b198101855201836108a0565b908160209103126102355751611dde81611ea9565b919061200a3682856108df565b925f9380515f955b8181106120c657505050818161203660209461203b94600361208898991015611c69565b612603565b61204f6103a65f546001600160a01b031690565b60405180809581947f96e494e8000000000000000000000000000000000000000000000000000000008352600483019190602083019252565b03915afa9081156106da575f9161209d575090565b611dde915060203d6020116120bf575b6120b781836108a0565b810190611fe8565b503d6120ad565b806121286121036120dd61216094879b969761268a565b517fff000000000000000000000000000000000000000000000000000000000000001690565b7fff000000000000000000000000000000000000000000000000000000000000001690565b7f8000000000000000000000000000000000000000000000000000000000000000811015612168575061215a90611d43565b9161267c565b959190612012565b7fe00000000000000000000000000000000000000000000000000000000000000081101561219a575061215a90611d35565b7ff0000000000000000000000000000000000000000000000000000000000000008110156121cc575061215a90611d27565b7ff8000000000000000000000000000000000000000000000000000000000000008110156121fe575061215a90611d19565b7ffc00000000000000000000000000000000000000000000000000000000000000111561222e5761215a90611d0b565b61215a90611cfd565b5190600482101561023557565b6020818303126102355780519067ffffffffffffffff821161023557019060808282031261023557604051916122798361087f565b8051835261228960208201612237565b602084015261229a60408201612237565b604084015260608101519067ffffffffffffffff8211610235570181601f82011215610235578051906122cc826108c3565b926122da60405194856108a0565b8284526020838301011161023557815f9260208093018386015e83010152606082015290565b916123216020926001600160a01b0392969596604086526040860191611c49565b9416910152565b1561232f57565b7f11011294000000000000000000000000000000000000000000000000000000005f5260045ffd5b6004111561236157565b634e487b7160e01b5f52602160045260245ffd5b91908203918211611bc657565b3d156123ac573d90612393826108c3565b916123a160405193846108a0565b82523d5f602084013e565b606090565b156123b857565b7ff0c49d44000000000000000000000000000000000000000000000000000000005f5260045ffd5b959492959390936123ef6127bb565b6123f76127bb565b6124003361253b565b6124086127bb565b838611156125135762093a8086116124eb57611e39966001600160a01b036124e194816124e698816124b8961673ffffffffffffffffffffffffffffffffffffffff195f5416175f551673ffffffffffffffffffffffffffffffffffffffff1960015416176001551673ffffffffffffffffffffffffffffffffffffffff1960025416176002556001600160a01b031673ffffffffffffffffffffffffffffffffffffffff196003541617600355565b6001600160a01b031673ffffffffffffffffffffffffffffffffffffffff196004541617600455565b600555565b600655565b7f2d0c6794000000000000000000000000000000000000000000000000000000005f5260045ffd5b7f3e5aa838000000000000000000000000000000000000000000000000000000005f5260045ffd5b6001600160a01b031680156125d7576001600160a01b037f9016d09d72d40fdae2fd8ceac6b6234c7706214fd39c1cd1e609a0528c199300548273ffffffffffffffffffffffffffffffffffffffff198216177f9016d09d72d40fdae2fd8ceac6b6234c7706214fd39c1cd1e609a0528c19930055167f8be0079c531659141344cd1fd0a4f28419497f9722a3daafe3b4186f6b6457e05f80a3565b7f1e4fbdf7000000000000000000000000000000000000000000000000000000005f525f60045260245ffd5b816040519182372090565b90816020910312610235575190565b6001600160a01b037f9016d09d72d40fdae2fd8ceac6b6234c7706214fd39c1cd1e609a0528c1993005416330361265057565b7f118cdaa7000000000000000000000000000000000000000000000000000000005f523360045260245ffd5b5f198114611bc65760010190565b90815181101561269b570160200190565b634e487b7160e01b5f52603260045260245ffd5b90813b15612786576001600160a01b0382168073ffffffffffffffffffffffffffffffffffffffff197f360894a13ba1a3210667c828492db98dca3e2076cc3735a920a3ca505d382bbc5416177f360894a13ba1a3210667c828492db98dca3e2076cc3735a920a3ca505d382bbc557fbc7cd75a20ee27fd9adebab32041f755214dbc6bffa90cc0225b39da2e5c2d3b5f80a28051156127555761275291612812565b50565b50503461275e57565b7fb398979f000000000000000000000000000000000000000000000000000000005f5260045ffd5b6001600160a01b03827f4c9c8ce3000000000000000000000000000000000000000000000000000000005f521660045260245ffd5b60ff7ff0c57e16840df040f15088dc2f81fe391c3923bec73e23a9662efc9c229c6a005460401c16156127ea57565b7fd7e6bcf8000000000000000000000000000000000000000000000000000000005f5260045ffd5b905f8091602081519101845af480806128a0575b15612835575050611dde6128b3565b1561286f576001600160a01b03907f9996b315000000000000000000000000000000000000000000000000000000005f521660045260245ffd5b3d15155f03611de1577fd6bda275000000000000000000000000000000000000000000000000000000005f5260045ffd5b503d1515806128265750813b1515612826565b604051903d82523d5f602084013e60203d83010160405256fea2646970667358221220e2ee77f9e41810588fd6da73435ef17bf7797fe7392fbf2e64a575100b6a905b64736f6c634300081e0033f0c57e16840df040f15088dc2f81fe391c3923bec73e23a9662efc9c229c6a00","linkReferences":{}},"methodIdentifiers":{"MAX_ALLOWED_COMMITMENT_AGE()":"5557f043","UPGRADE_INTERFACE_VERSION()":"ad3cb1cc","available(string)":"aeb8ce9b","commit(bytes32)":"f14fcbc8","commitments(bytes32)":"839df945","dotnsRegistrar()":"20788cae","dotnsRegistry()":"bfc8d3b4","initialize(address,address,address,address,address,uint256,uint256)":"b33f9527","makeCommitment((string,address,bytes32,bool))":"7a23df1d","maxCommitmentAge()":"ce1e09c0","minCommitmentAge()":"8d839ffe","oracle()":"7dc0d1d0","owner()":"8da5cb5b","proxiableUUID()":"52d1902d","register((string,address,bytes32,bool))":"b26675d5","registerReserved((string,address,bytes32,bool))":"206c6855","renounceOwnership()":"715018a6","reverseResolver()":"64609517","storeFactory()":"0823f277","supportsInterface(bytes4)":"01ffc9a7","transferOwnership(address)":"f2fde38b","upgradeToAndCall(address,bytes)":"4f1ef286","version()":"54fd4d50","writeSubnodeToStore((bytes32,string,string,address))":"acd810f7"},"storageLayout":{"storage":[{"astId":1240,"contract":"contracts/registrars/DotnsRegistrarController.sol:DotnsRegistrarController","label":"dotnsRegistrar","offset":0,"slot":"0","type":"t_contract(IDotnsRegistrar)2275"},{"astId":1244,"contract":"contracts/registrars/DotnsRegistrarController.sol:DotnsRegistrarController","label":"dotnsRegistry","offset":0,"slot":"1","type":"t_contract(IDotnsRegistry)2947"},{"astId":1248,"contract":"contracts/registrars/DotnsRegistrarController.sol:DotnsRegistrarController","label":"reverseResolver","offset":0,"slot":"2","type":"t_contract(IDotnsReverseResolver)3777"},{"astId":1252,"contract":"contracts/registrars/DotnsRegistrarController.sol:DotnsRegistrarController","label":"oracle","offset":0,"slot":"3","type":"t_contract(IPopOracle)145"},{"astId":1256,"contract":"contracts/registrars/DotnsRegistrarController.sol:DotnsRegistrarController","label":"storeFactory","offset":0,"slot":"4","type":"t_contract(IStoreFactory)4003"},{"astId":1259,"contract":"contracts/registrars/DotnsRegistrarController.sol:DotnsRegistrarController","label":"minCommitmentAge","offset":0,"slot":"5","type":"t_uint256"},{"astId":1262,"contract":"contracts/registrars/DotnsRegistrarController.sol:DotnsRegistrarController","label":"maxCommitmentAge","offset":0,"slot":"6","type":"t_uint256"},{"astId":1267,"contract":"contracts/registrars/DotnsRegistrarController.sol:DotnsRegistrarController","label":"commitments","offset":0,"slot":"7","type":"t_mapping(t_bytes32,t_uint256)"},{"astId":1279,"contract":"contracts/registrars/DotnsRegistrarController.sol:DotnsRegistrarController","label":"__gap","offset":0,"slot":"8","type":"t_array(t_uint256)50_storage"}],"types":{"t_array(t_uint256)50_storage":{"encoding":"inplace","label":"uint256[50]","numberOfBytes":"1600","base":"t_uint256"},"t_bytes32":{"encoding":"inplace","label":"bytes32","numberOfBytes":"32"},"t_contract(IDotnsRegistrar)2275":{"encoding":"inplace","label":"contract IDotnsRegistrar","numberOfBytes":"20"},"t_contract(IDotnsRegistry)2947":{"encoding":"inplace","label":"contract IDotnsRegistry","numberOfBytes":"20"},"t_contract(IDotnsReverseResolver)3777":{"encoding":"inplace","label":"contract IDotnsReverseResolver","numberOfBytes":"20"},"t_contract(IPopOracle)145":{"encoding":"inplace","label":"contract IPopOracle","numberOfBytes":"20"},"t_contract(IStoreFactory)4003":{"encoding":"inplace","label":"contract IStoreFactory","numberOfBytes":"20"},"t_mapping(t_bytes32,t_uint256)":{"encoding":"mapping","key":"t_bytes32","label":"mapping(bytes32 => uint256)","numberOfBytes":"32","value":"t_uint256"},"t_uint256":{"encoding":"inplace","label":"uint256","numberOfBytes":"32"}}},"id":4}