{
  "abi": [
    {
      "type": "function",
      "name": "aggregate",
      "inputs": [
        {
          "name": "calls",
          "type": "tuple[]",
          "internalType": "struct Multicall3.Call[]",
          "components": [
            {
              "name": "target",
              "type": "address",
              "internalType": "address"
            },
            {
              "name": "callData",
              "type": "bytes",
              "internalType": "bytes"
            }
          ]
        }
      ],
      "outputs": [
        {
          "name": "blockNumber",
          "type": "uint256",
          "internalType": "uint256"
        },
        {
          "name": "returnData",
          "type": "bytes[]",
          "internalType": "bytes[]"
        }
      ],
      "stateMutability": "payable"
    },
    {
      "type": "function",
      "name": "aggregate3",
      "inputs": [
        {
          "name": "calls",
          "type": "tuple[]",
          "internalType": "struct Multicall3.Call3[]",
          "components": [
            {
              "name": "target",
              "type": "address",
              "internalType": "address"
            },
            {
              "name": "allowFailure",
              "type": "bool",
              "internalType": "bool"
            },
            {
              "name": "callData",
              "type": "bytes",
              "internalType": "bytes"
            }
          ]
        }
      ],
      "outputs": [
        {
          "name": "returnData",
          "type": "tuple[]",
          "internalType": "struct Multicall3.Result[]",
          "components": [
            {
              "name": "success",
              "type": "bool",
              "internalType": "bool"
            },
            {
              "name": "returnData",
              "type": "bytes",
              "internalType": "bytes"
            }
          ]
        }
      ],
      "stateMutability": "payable"
    },
    {
      "type": "function",
      "name": "aggregate3Value",
      "inputs": [
        {
          "name": "calls",
          "type": "tuple[]",
          "internalType": "struct Multicall3.Call3Value[]",
          "components": [
            {
              "name": "target",
              "type": "address",
              "internalType": "address"
            },
            {
              "name": "allowFailure",
              "type": "bool",
              "internalType": "bool"
            },
            {
              "name": "value",
              "type": "uint256",
              "internalType": "uint256"
            },
            {
              "name": "callData",
              "type": "bytes",
              "internalType": "bytes"
            }
          ]
        }
      ],
      "outputs": [
        {
          "name": "returnData",
          "type": "tuple[]",
          "internalType": "struct Multicall3.Result[]",
          "components": [
            {
              "name": "success",
              "type": "bool",
              "internalType": "bool"
            },
            {
              "name": "returnData",
              "type": "bytes",
              "internalType": "bytes"
            }
          ]
        }
      ],
      "stateMutability": "payable"
    },
    {
      "type": "function",
      "name": "blockAndAggregate",
      "inputs": [
        {
          "name": "calls",
          "type": "tuple[]",
          "internalType": "struct Multicall3.Call[]",
          "components": [
            {
              "name": "target",
              "type": "address",
              "internalType": "address"
            },
            {
              "name": "callData",
              "type": "bytes",
              "internalType": "bytes"
            }
          ]
        }
      ],
      "outputs": [
        {
          "name": "blockNumber",
          "type": "uint256",
          "internalType": "uint256"
        },
        {
          "name": "blockHash",
          "type": "bytes32",
          "internalType": "bytes32"
        },
        {
          "name": "returnData",
          "type": "tuple[]",
          "internalType": "struct Multicall3.Result[]",
          "components": [
            {
              "name": "success",
              "type": "bool",
              "internalType": "bool"
            },
            {
              "name": "returnData",
              "type": "bytes",
              "internalType": "bytes"
            }
          ]
        }
      ],
      "stateMutability": "payable"
    },
    {
      "type": "function",
      "name": "getBasefee",
      "inputs": [],
      "outputs": [
        {
          "name": "basefee",
          "type": "uint256",
          "internalType": "uint256"
        }
      ],
      "stateMutability": "view"
    },
    {
      "type": "function",
      "name": "getBlockHash",
      "inputs": [
        {
          "name": "blockNumber",
          "type": "uint256",
          "internalType": "uint256"
        }
      ],
      "outputs": [
        {
          "name": "blockHash",
          "type": "bytes32",
          "internalType": "bytes32"
        }
      ],
      "stateMutability": "view"
    },
    {
      "type": "function",
      "name": "getBlockNumber",
      "inputs": [],
      "outputs": [
        {
          "name": "blockNumber",
          "type": "uint256",
          "internalType": "uint256"
        }
      ],
      "stateMutability": "view"
    },
    {
      "type": "function",
      "name": "getChainId",
      "inputs": [],
      "outputs": [
        {
          "name": "chainid",
          "type": "uint256",
          "internalType": "uint256"
        }
      ],
      "stateMutability": "view"
    },
    {
      "type": "function",
      "name": "getCurrentBlockCoinbase",
      "inputs": [],
      "outputs": [
        {
          "name": "coinbase",
          "type": "address",
          "internalType": "address"
        }
      ],
      "stateMutability": "view"
    },
    {
      "type": "function",
      "name": "getCurrentBlockDifficulty",
      "inputs": [],
      "outputs": [
        {
          "name": "difficulty",
          "type": "uint256",
          "internalType": "uint256"
        }
      ],
      "stateMutability": "view"
    },
    {
      "type": "function",
      "name": "getCurrentBlockGasLimit",
      "inputs": [],
      "outputs": [
        {
          "name": "gaslimit",
          "type": "uint256",
          "internalType": "uint256"
        }
      ],
      "stateMutability": "view"
    },
    {
      "type": "function",
      "name": "getCurrentBlockTimestamp",
      "inputs": [],
      "outputs": [
        {
          "name": "timestamp",
          "type": "uint256",
          "internalType": "uint256"
        }
      ],
      "stateMutability": "view"
    },
    {
      "type": "function",
      "name": "getEthBalance",
      "inputs": [
        {
          "name": "addr",
          "type": "address",
          "internalType": "address"
        }
      ],
      "outputs": [
        {
          "name": "balance",
          "type": "uint256",
          "internalType": "uint256"
        }
      ],
      "stateMutability": "view"
    },
    {
      "type": "function",
      "name": "getLastBlockHash",
      "inputs": [],
      "outputs": [
        {
          "name": "blockHash",
          "type": "bytes32",
          "internalType": "bytes32"
        }
      ],
      "stateMutability": "view"
    },
    {
      "type": "function",
      "name": "tryAggregate",
      "inputs": [
        {
          "name": "requireSuccess",
          "type": "bool",
          "internalType": "bool"
        },
        {
          "name": "calls",
          "type": "tuple[]",
          "internalType": "struct Multicall3.Call[]",
          "components": [
            {
              "name": "target",
              "type": "address",
              "internalType": "address"
            },
            {
              "name": "callData",
              "type": "bytes",
              "internalType": "bytes"
            }
          ]
        }
      ],
      "outputs": [
        {
          "name": "returnData",
          "type": "tuple[]",
          "internalType": "struct Multicall3.Result[]",
          "components": [
            {
              "name": "success",
              "type": "bool",
              "internalType": "bool"
            },
            {
              "name": "returnData",
              "type": "bytes",
              "internalType": "bytes"
            }
          ]
        }
      ],
      "stateMutability": "payable"
    },
    {
      "type": "function",
      "name": "tryBlockAndAggregate",
      "inputs": [
        {
          "name": "requireSuccess",
          "type": "bool",
          "internalType": "bool"
        },
        {
          "name": "calls",
          "type": "tuple[]",
          "internalType": "struct Multicall3.Call[]",
          "components": [
            {
              "name": "target",
              "type": "address",
              "internalType": "address"
            },
            {
              "name": "callData",
              "type": "bytes",
              "internalType": "bytes"
            }
          ]
        }
      ],
      "outputs": [
        {
          "name": "blockNumber",
          "type": "uint256",
          "internalType": "uint256"
        },
        {
          "name": "blockHash",
          "type": "bytes32",
          "internalType": "bytes32"
        },
        {
          "name": "returnData",
          "type": "tuple[]",
          "internalType": "struct Multicall3.Result[]",
          "components": [
            {
              "name": "success",
              "type": "bool",
              "internalType": "bool"
            },
            {
              "name": "returnData",
              "type": "bytes",
              "internalType": "bytes"
            }
          ]
        }
      ],
      "stateMutability": "payable"
    }
  ],
  "bytecode": {
    "object": "0x60808060405234601557610b38908161001a8239f35b5f80fdfe60806040526004361015610011575f80fd5b5f3560e01c80630f28c97d14610114578063174dea711461010f578063252dba421461010a57806327e86d6e146101055780633408e47014610100578063399542e9146100fb5780633e64a696146100f657806342cbb15c146100f15780634d2301cc146100ec57806372425d9d146100e757806382ad56cb146100e257806386d516e8146100dd578063a8b0574e146100d8578063bce38bd7146100d3578063c3077fa9146100ce5763ee82ac5e146100c9575f80fd5b610749565b6106b2565b61068f565b610675565b61065b565b6105ad565b610593565b61056b565b610533565b610519565b6104f5565b610486565b610468565b6103aa565b610236565b3461012e575f60031936011261012e576020604051428152f35b5f80fd5b9181601f8401121561012e5782359167ffffffffffffffff831161012e576020808501948460051b01011161012e57565b602060031982011261012e576004359067ffffffffffffffff821161012e5761018e91600401610132565b9091565b90601f19601f602080948051918291828752018686015e5f8582860101520116010190565b9080602083519182815201916020808360051b8301019401925f915b8383106101e257505050505090565b909192939460208061021383601f1986600196030187526040838b5180511515845201519181858201520190610192565b970193019301919392906101d3565b9060206102339281815201906101b7565b90565b61023f36610163565b5f9061024a816107d7565b925f5b8281106102735761026f85610263863414610963565b60405191829182610222565b0390f35b61027d8186610867565b51602061028b838686610880565b916102d85f806040860135809a01996102a3876108c0565b906102b160608901896108ca565b91906102c26040518094819361091b565b03925af16102ce610928565b8385015215158252565b5191013517156102ea5760010161024d565b62461bcd60e51b5f52602060045260176024527f4d756c746963616c6c333a2063616c6c206661696c656400000000000000000060445260845ffd5b90604082019082526040602083015282518091526060820191602060608360051b8301019401925f915b83831061035f57505050505090565b909192939460208061039b837fffffffffffffffffffffffffffffffffffffffffffffffffffffffffffffffa086600196030187528951610192565b97019301930191939290610350565b6103b336610163565b906103c56103c0836107bf565b610794565b91808352601f196103d5826107bf565b015f5b8181106104575750505f5b8181106103f9576040518061026f864383610326565b806104515f8061040c60019587896109ae565b81610424610419836108c0565b9260208101906108ca565b91906104356040518094819361091b565b03925af1610441610928565b61044b8489610867565b526109ee565b016103e3565b8060606020809388010152016103d8565b3461012e575f60031936011261012e5760206040515f194301408152f35b3461012e575f60031936011261012e576020604051468152f35b90604060031983011261012e57600435801515810361012e57916024359067ffffffffffffffff821161012e5761018e91600401610132565b61023393926060928252602082015281604082015201906101b7565b61026f61050a610504366104a0565b91610a79565b604051918291434043846104d9565b3461012e575f60031936011261012e576020604051488152f35b3461012e575f60031936011261012e576020604051438152f35b73ffffffffffffffffffffffffffffffffffffffff81160361012e57565b3461012e57602060031936011261012e57602060043561058a8161054d565b31604051908152f35b3461012e575f60031936011261012e576020604051448152f35b6105b636610163565b906105c0826107d7565b905f5b8381106105d8576040518061026f8582610222565b6105e28184610867565b5160206105f0838786610a39565b9161060d5f806105ff866108c0565b816102b160408901896108ca565b51910135171561061f576001016105c3565b62461bcd60e51b5f52602060045260176024527f4d756c746963616c6c333a2063616c6c206661696c656400000000000000000060445260645ffd5b3461012e575f60031936011261012e576020604051458152f35b3461012e575f60031936011261012e576020604051418152f35b61026f61069e610504366104a0565b6040519182916020835260208301906101b7565b6106bb36610163565b6106c4816107d7565b915f5b8281106106e0576040518061026f8643804090846104d9565b806107436106f060019387610867565b515f806106fe8589896109ae565b8161071882359261070e8461054d565b60208101906108ca565b9190826040519384928337810182815203925af1610734610928565b602083015215158091526109ee565b016106c7565b3461012e57602060031936011261012e576020604051600435408152f35b7f4e487b71000000000000000000000000000000000000000000000000000000005f52604160045260245ffd5b90601f19601f604051930116820182811067ffffffffffffffff8211176107ba57604052565b610767565b67ffffffffffffffff81116107ba5760051b60200190565b906107e46103c0836107bf565b828152601f196107f482946107bf565b015f5b81811061080357505050565b60405190604082019180831067ffffffffffffffff8411176107ba576020926040525f8152606083820152828286010152016107f7565b7f4e487b71000000000000000000000000000000000000000000000000000000005f52603260045260245ffd5b805182101561087b5760209160051b010190565b61083a565b919081101561087b5760051b810135907fffffffffffffffffffffffffffffffffffffffffffffffffffffffffffffff818136030182121561012e570190565b356102338161054d565b9035907fffffffffffffffffffffffffffffffffffffffffffffffffffffffffffffffe18136030182121561012e570180359067ffffffffffffffff821161012e5760200191813603831361012e57565b908092918237015f815290565b3d1561095e573d9067ffffffffffffffff82116107ba576109526020601f19601f85011601610794565b9182523d5f602084013e565b606090565b1561096a57565b606460405162461bcd60e51b815260206004820152601a60248201527f4d756c746963616c6c333a2076616c7565206d69736d617463680000000000006044820152fd5b919081101561087b5760051b810135907fffffffffffffffffffffffffffffffffffffffffffffffffffffffffffffffc18136030182121561012e570190565b156109f557565b606460405162461bcd60e51b815260206004820152601760248201527f4d756c746963616c6c333a2063616c6c206661696c65640000000000000000006044820152fd5b919081101561087b5760051b810135907fffffffffffffffffffffffffffffffffffffffffffffffffffffffffffffffa18136030182121561012e570190565b929190610a85826107d7565b935f5b838110610a955750505050565b80610aa260019288610867565b51835f80610ab1858a8a6109ae565b81610ac182359261070e8461054d565b9190826040519384928337810182815203925af1610add610928565b60208401521515809252610af3575b5001610a88565b610afc906109ee565b5f610aec56fea2646970667358221220c1efb2fa6b831343fa0949582f81f231848a4a1ef722b7dbfe0856ce4a10f85664736f6c634300081e0033",
    "linkReferences": {}
  },
  "methodIdentifiers": {
    "aggregate((address,bytes)[])": "252dba42",
    "aggregate3((address,bool,bytes)[])": "82ad56cb",
    "aggregate3Value((address,bool,uint256,bytes)[])": "174dea71",
    "blockAndAggregate((address,bytes)[])": "c3077fa9",
    "getBasefee()": "3e64a696",
    "getBlockHash(uint256)": "ee82ac5e",
    "getBlockNumber()": "42cbb15c",
    "getChainId()": "3408e470",
    "getCurrentBlockCoinbase()": "a8b0574e",
    "getCurrentBlockDifficulty()": "72425d9d",
    "getCurrentBlockGasLimit()": "86d516e8",
    "getCurrentBlockTimestamp()": "0f28c97d",
    "getEthBalance(address)": "4d2301cc",
    "getLastBlockHash()": "27e86d6e",
    "tryAggregate(bool,(address,bytes)[])": "bce38bd7",
    "tryBlockAndAggregate(bool,(address,bytes)[])": "399542e9"
  },
  "storageLayout": {
    "storage": [],
    "types": {}
  },
  "id": 71
}