{"abi":[{"type":"constructor","inputs":[],"stateMutability":"nonpayable"},{"type":"function","name":"MAX_RESERVATION_TIME","inputs":[],"outputs":[{"name":"","type":"uint256","internalType":"uint256"}],"stateMutability":"view"},{"type":"function","name":"UPGRADE_INTERFACE_VERSION","inputs":[],"outputs":[{"name":"","type":"string","internalType":"string"}],"stateMutability":"view"},{"type":"function","name":"classifyName","inputs":[{"name":"name","type":"string","internalType":"string"}],"outputs":[{"name":"requirement","type":"uint8","internalType":"enum IPopRules.PopStatus"},{"name":"message","type":"string","internalType":"string"}],"stateMutability":"pure"},{"type":"function","name":"ethRegistryController","inputs":[],"outputs":[{"name":"","type":"address","internalType":"address"}],"stateMutability":"view"},{"type":"function","name":"getBaseNameReservation","inputs":[{"name":"baseName","type":"string","internalType":"string"}],"outputs":[{"name":"reservationOwner","type":"address","internalType":"address"},{"name":"expiryTimestamp","type":"uint64","internalType":"uint64"}],"stateMutability":"view"},{"type":"function","name":"initialize","inputs":[{"name":"_startingPrice","type":"uint256","internalType":"uint256"}],"outputs":[],"stateMutability":"nonpayable"},{"type":"function","name":"isBaseName","inputs":[{"name":"baseName","type":"string","internalType":"string"}],"outputs":[{"name":"isBase","type":"bool","internalType":"bool"}],"stateMutability":"pure"},{"type":"function","name":"isBaseNameReserved","inputs":[{"name":"baseName","type":"string","internalType":"string"}],"outputs":[{"name":"isReserved","type":"bool","internalType":"bool"},{"name":"reservationOwner","type":"address","internalType":"address"},{"name":"expiryTimestamp","type":"uint64","internalType":"uint64"}],"stateMutability":"view"},{"type":"function","name":"owner","inputs":[],"outputs":[{"name":"","type":"address","internalType":"address"}],"stateMutability":"view"},{"type":"function","name":"price","inputs":[{"name":"name","type":"string","internalType":"string"}],"outputs":[{"name":"","type":"uint256","internalType":"uint256"}],"stateMutability":"view"},{"type":"function","name":"priceWithCheck","inputs":[{"name":"name","type":"string","internalType":"string"},{"name":"userAddress","type":"address","internalType":"address"}],"outputs":[{"name":"metadata","type":"tuple","internalType":"struct IPopRules.PriceWithMeta","components":[{"name":"price","type":"uint256","internalType":"uint256"},{"name":"status","type":"uint8","internalType":"enum IPopRules.PopStatus"},{"name":"userStatus","type":"uint8","internalType":"enum IPopRules.PopStatus"},{"name":"message","type":"string","internalType":"string"}]}],"stateMutability":"view"},{"type":"function","name":"priceWithoutCheck","inputs":[{"name":"name","type":"string","internalType":"string"},{"name":"userAddress","type":"address","internalType":"address"}],"outputs":[{"name":"metadata","type":"tuple","internalType":"struct IPopRules.PriceWithMeta","components":[{"name":"price","type":"uint256","internalType":"uint256"},{"name":"status","type":"uint8","internalType":"enum IPopRules.PopStatus"},{"name":"userStatus","type":"uint8","internalType":"enum IPopRules.PopStatus"},{"name":"message","type":"string","internalType":"string"}]}],"stateMutability":"view"},{"type":"function","name":"proxiableUUID","inputs":[],"outputs":[{"name":"","type":"bytes32","internalType":"bytes32"}],"stateMutability":"view"},{"type":"function","name":"renounceOwnership","inputs":[],"outputs":[],"stateMutability":"nonpayable"},{"type":"function","name":"reservations","inputs":[{"name":"baseName","type":"string","internalType":"string"}],"outputs":[{"name":"owner","type":"address","internalType":"address"},{"name":"expires","type":"uint64","internalType":"uint64"}],"stateMutability":"view"},{"type":"function","name":"reserveBaseName","inputs":[{"name":"name","type":"string","internalType":"string"},{"name":"userAddress","type":"address","internalType":"address"}],"outputs":[],"stateMutability":"nonpayable"},{"type":"function","name":"setUserPopStatus","inputs":[{"name":"status","type":"uint8","internalType":"enum IPopRules.PopStatus"}],"outputs":[],"stateMutability":"nonpayable"},{"type":"function","name":"startingPrice","inputs":[],"outputs":[{"name":"","type":"uint256","internalType":"uint256"}],"stateMutability":"view"},{"type":"function","name":"supportsInterface","inputs":[{"name":"interfaceId","type":"bytes4","internalType":"bytes4"}],"outputs":[{"name":"supported","type":"bool","internalType":"bool"}],"stateMutability":"view"},{"type":"function","name":"transferOwnership","inputs":[{"name":"newOwner","type":"address","internalType":"address"}],"outputs":[],"stateMutability":"nonpayable"},{"type":"function","name":"updateEthRegistry","inputs":[{"name":"newRegistry","type":"address","internalType":"address"}],"outputs":[],"stateMutability":"nonpayable"},{"type":"function","name":"upgradeToAndCall","inputs":[{"name":"newImplementation","type":"address","internalType":"address"},{"name":"data","type":"bytes","internalType":"bytes"}],"outputs":[],"stateMutability":"payable"},{"type":"function","name":"userPopStatus","inputs":[{"name":"","type":"address","internalType":"address"}],"outputs":[{"name":"","type":"uint8","internalType":"enum IPopRules.PopStatus"}],"stateMutability":"view"},{"type":"function","name":"version","inputs":[],"outputs":[{"name":"versionString","type":"string","internalType":"string"}],"stateMutability":"pure"},{"type":"event","name":"BaseNameReserved","inputs":[{"name":"baseName","type":"string","indexed":true,"internalType":"string"},{"name":"owner","type":"address","indexed":true,"internalType":"address"},{"name":"expires","type":"uint64","indexed":false,"internalType":"uint64"}],"anonymous":false},{"type":"event","name":"Initialized","inputs":[{"name":"version","type":"uint64","indexed":false,"internalType":"uint64"}],"anonymous":false},{"type":"event","name":"OwnershipTransferred","inputs":[{"name":"previousOwner","type":"address","indexed":true,"internalType":"address"},{"name":"newOwner","type":"address","indexed":true,"internalType":"address"}],"anonymous":false},{"type":"event","name":"RegistryUpdated","inputs":[{"name":"oldReg","type":"address","indexed":true,"internalType":"address"},{"name":"newReg","type":"address","indexed":true,"internalType":"address"}],"anonymous":false},{"type":"event","name":"Upgraded","inputs":[{"name":"implementation","type":"address","indexed":true,"internalType":"address"}],"anonymous":false},{"type":"event","name":"UserPopStatusSet","inputs":[{"name":"user","type":"address","indexed":true,"internalType":"address"},{"name":"status","type":"uint8","indexed":false,"internalType":"enum IPopRules.PopStatus"}],"anonymous":false},{"type":"error","name":"AddressEmptyCode","inputs":[{"name":"target","type":"address","internalType":"address"}]},{"type":"error","name":"ERC1967InvalidImplementation","inputs":[{"name":"implementation","type":"address","internalType":"address"}]},{"type":"error","name":"ERC1967NonPayable","inputs":[]},{"type":"error","name":"FailedCall","inputs":[]},{"type":"error","name":"GenericError","inputs":[{"name":"reason","type":"string","internalType":"string"}]},{"type":"error","name":"InvalidInitialization","inputs":[]},{"type":"error","name":"NotInitializing","inputs":[]},{"type":"error","name":"NotRegistry","inputs":[]},{"type":"error","name":"OwnableInvalidOwner","inputs":[{"name":"owner","type":"address","internalType":"address"}]},{"type":"error","name":"OwnableUnauthorizedAccount","inputs":[{"name":"account","type":"address","internalType":"address"}]},{"type":"error","name":"PopError","inputs":[{"name":"reason","type":"string","internalType":"string"}]},{"type":"error","name":"UUPSUnauthorizedCallContext","inputs":[]},{"type":"error","name":"UUPSUnsupportedProxiableUUID","inputs":[{"name":"slot","type":"bytes32","internalType":"bytes32"}]}],"bytecode":{"object":"0x60a080604052346100c257306080525f516020611a9e5f395f51905f525460ff8160401c166100b3576002600160401b03196001600160401b03821601610060575b6040516119d790816100c78239608051818181610b430152610be60152f35b6001600160401b0319166001600160401b039081175f516020611a9e5f395f51905f525581527fc7f505b2f371ae2175ee4913f4499e1f2633a7b5936321eed1cdaeb6115181d290602090a15f80610041565b63f92ee8a960e01b5f5260045ffd5b5f80fdfe6080806040526004361015610012575f80fd5b5f3560e01c90816301ffc9a71461104b575080630848731f14610fe0578063257ab86614610f9e5780633017fa3314610f4057806335696fa714610d625780634f1ef28614610b9757806352d1902d14610b3157806354fd4d5014610aea57806368e344e914610acd5780636bbfce2b146107b7578063715018a61461075057806372af28c0146106e85780638ac7f0f51461065e5780638da5cb5b1461062a57806391809994146105c65780639af20d201461059e578063ad3cb1cc14610557578063b4956ade14610513578063c5c9504814610484578063d6fbf20214610468578063dcd62573146102ef578063f2fde38b146102c4578063fe2c6198146102815763fe4b84df14610124575f80fd5b3461027d57602036600319011261027d575f5160206119825f395f51905f525460ff8160401c1615906001600160401b03811680159081610275575b600114908161026b575b159081610262575b506102535767ffffffffffffffff1981166001175f5160206119825f395f51905f525581610227575b506101a461188a565b6101ac61188a565b6101b461188a565b6101bd336114db565b6101c561188a565b6004355f556101d057005b68ff0000000000000000195f5160206119825f395f51905f5254165f5160206119825f395f51905f52557fc7f505b2f371ae2175ee4913f4499e1f2633a7b5936321eed1cdaeb6115181d2602060405160018152a1005b68ffffffffffffffffff191668010000000000000001175f5160206119825f395f51905f52555f61019b565b63f92ee8a960e01b5f5260045ffd5b9050155f610172565b303b15915061016a565b839150610160565b5f80fd5b3461027d57602036600319011261027d576004356001600160401b03811161027d576102bc6102b660209236906004016110c1565b9061154c565b604051908152f35b3461027d57602036600319011261027d576102ed6102e061109e565b6102e8611857565b6114db565b005b3461027d576102fd36611112565b9061030661142e565b9161031182856112a6565b92909160018060a01b0316805f52600160205260ff60405f2054169560048710156104545761037d602093610382926103716103d99a80155f1461044e57610359848461154c565b8b52610368888c01998a611462565b60408b01611462565b60608901978852611767565b61123e565b6040519061038f82611154565b546001600160a01b03811680835260a09190911c6001600160401b0316939091018390528015159283610444575b5082610439575b50506103dd575b5050604051918291826111f5565b0390f35b6040516003926103ee606083611183565b602f82527f42617365206e616d6520726573657276656420666f72206f726967696e616c2060208301526e131a5d19481c9959da5cdd1c985b9d608a1b6040830152525282806103cb565b1415905085806103c4565b42109250876103bd565b5f610359565b634e487b7160e01b5f52602160045260245ffd5b3461027d575f36600319011261027d5760205f54604051908152f35b3461027d57602036600319011261027d576004356001600160401b03811161027d573660238201121561027d576020806104cb6103d99336906024816004013591016111bf565b604051928184925191829101835e60029082019081520301902054604080516001600160a01b038316815260a09290921c6001600160401b0316602083015290918291820190565b3461027d57602036600319011261027d576004356001600160401b03811161027d5761054e61054860209236906004016110c1565b906116d4565b15604051908152f35b3461027d575f36600319011261027d576103d9604051610578604082611183565b60058152640352e302e360dc1b60208201526040519182916020835260208301906110ee565b3461027d575f36600319011261027d576003546040516001600160a01b039091168152602090f35b3461027d57602036600319011261027d576004356001600160401b03811161027d576001600160401b0361060961060360609336906004016110c1565b9061146e565b90604093929351931515845260018060a01b03166020840152166040820152f35b3461027d575f36600319011261027d575f5160206119425f395f51905f52546040516001600160a01b039091168152602090f35b3461027d57602036600319011261027d576004356001600160401b03811161027d576020610691819236906004016110c1565b919082604051938492833781016002815203019020604051906106b382611154565b546001600160a01b03811680835260a09190911c6001600160401b031692909101829052604080519182526020820192909252f35b3461027d57602036600319011261027d5761070161109e565b610709611857565b6003546001600160a01b0391821691829082167f482b97c53e48ffa324a976e2738053e9aff6eee04d8aac63b10e19411d869b825f80a36001600160a01b03191617600355005b3461027d575f36600319011261027d57610768611857565b5f5160206119425f395f51905f5280546001600160a01b031981169091555f906001600160a01b03167f8be0079c531659141344cd1fd0a4f28419497f9722a3daafe3b4186f6b6457e08280a3005b3461027d576107c536611112565b90916107cf61142e565b926107dd61037d8284611767565b6020604051916107ec83611154565b546001600160a01b03811680845260a09190911c6001600160401b0316919092018190528115159081610ac3575b50610a50575b5061082b81836112a6565b6001600160a01b039094165f9081526001602052604090205460ff16936004851015939190846104545785610a4a57610864848461154c565b87526108738260208901611462565b6108808660408901611462565b80606088015260048210156104545760038214610a2157506002810361091357505050610454576002036108bf576103d9905b604051918291826111f5565b6040516305bf8fb360e31b815260206004820152602560248201527f52657175697265732046756c6c20506572736f6e686f6f64207665726966696360448201526430ba34b7b760d91b6064820152608490fd5b60010361099a575050610454576001811490811561098f575b501561093b576103d9906108b3565b6040516305bf8fb360e31b815260206004820152602560248201527f526571756972657320506572736f6e686f6f64204c697465207665726966696360448201526430ba34b7b760d91b6064820152608490fd5b60029150148261092c565b6109a492506116d4565b15159081610a15575b50156109bc576103d9906108b3565b6040516305bf8fb360e31b815260206004820152602a60248201527f506572736f6e686f6f64204c6974652063616e6e6f742072656769737465722060448201526962617365206e616d657360b01b6064820152608490fd5b600191501415826109ad565b6040516305bf8fb360e31b815260206004820152908190610a469060248301906110ee565b0390fd5b5f610864565b6001600160a01b03841603610a655784610820565b6040516305bf8fb360e31b815260206004820152602f60248201527f42617365206e616d6520726573657276656420666f72206f726967696e616c2060448201526e131a5d19481c9959da5cdd1c985b9d608a1b6064820152608490fd5b905042108661081a565b3461027d575f36600319011261027d576020604051626ebe008152f35b3461027d575f36600319011261027d576103d9604051610b0b604082611183565b60058152640312e312e360dc1b60208201526040519182916020835260208301906110ee565b3461027d575f36600319011261027d577f00000000000000000000000000000000000000000000000000000000000000006001600160a01b03163003610b885760206040515f5160206119625f395f51905f528152f35b63703e46dd60e11b5f5260045ffd5b604036600319011261027d57610bab61109e565b6024356001600160401b03811161027d573660238201121561027d57610bdb9036906024816004013591016111bf565b906001600160a01b037f000000000000000000000000000000000000000000000000000000000000000016308114908115610d40575b50610b8857610c1e611857565b6040516352d1902d60e01b81526001600160a01b0382169290602081600481875afa5f9181610d0c575b50610c605783634c9c8ce360e01b5f5260045260245ffd5b805f5160206119625f395f51905f52859203610cfa5750823b15610ce8575f5160206119625f395f51905f5280546001600160a01b031916821790557fbc7cd75a20ee27fd9adebab32041f755214dbc6bffa90cc0225b39da2e5c2d3b5f80a2805115610cd0576102ed916118b5565b505034610cd957005b63b398979f60e01b5f5260045ffd5b634c9c8ce360e01b5f5260045260245ffd5b632a87526960e21b5f5260045260245ffd5b9091506020813d602011610d38575b81610d2860209383611183565b8101031261027d57519085610c48565b3d9150610d1b565b5f5160206119625f395f51905f52546001600160a01b03161415905083610c11565b3461027d57610d7036611112565b600354909291906001600160a01b03163303610f3157610d9081836112a6565b50600481101561045457600103610ed457610daa91611767565b604051815190602081818501938085835e8101600281520301902060405190610dd282611154565b549060206001600160401b0360018060a01b0384169384845260a01c1691015215610df957005b626ebe004201804211610ec0577f4d72f477fa240edc1a91eaafd5ec14ee8c94142aa248fafb508ac804c9c5362d916001600160401b03602092169360405195610e4287611154565b60018060a01b031695868152838101868152604051858185518088835e6002908201908152030190209151825491516001600160e01b03199092166001600160a01b03919091161760a09190911b67ffffffffffffffff60a01b16179055604051905190918291908190835e81015f815203902092604051908152a3005b634e487b7160e01b5f52601160045260245ffd5b6040516305bf8fb360e31b815260206004820152602e60248201527f42617365207265736572766174696f6e2072657175697265732061206c69746560448201526d2d656c696769626c65206e616d6560901b6064820152608490fd5b633217675b60e21b5f5260045ffd5b3461027d57602036600319011261027d576004356001600160401b03811161027d576103d9610f7f610f79610f8d9336906004016110c1565b906112a6565b6040519384939284906110b4565b6040602084015260408301906110ee565b3461027d57602036600319011261027d576001600160a01b03610fbf61109e565b165f526001602052602060ff60405f205416610fde60405180926110b4565bf35b3461027d57602036600319011261027d57600435600481101561027d57335f52600160205260405f2060ff1981541660ff831617905561102360405180926110b4565b7fcf0033b352dd87a7aff06bd0ae2087677d435524e3249e32346664b0c634504960203392a2005b3461027d57602036600319011261027d576004359063ffffffff60e01b821680920361027d5760209163264391cd60e21b811490811561108d575b5015158152f35b6301ffc9a760e01b14905083611086565b600435906001600160a01b038216820361027d57565b9060048210156104545752565b9181601f8401121561027d578235916001600160401b03831161027d576020838186019501011161027d57565b805180835260209291819084018484015e5f828201840152601f01601f1916010190565b604060031982011261027d57600435906001600160401b03821161027d5761113c916004016110c1565b90916024356001600160a01b038116810361027d5790565b604081019081106001600160401b0382111761116f57604052565b634e487b7160e01b5f52604160045260245ffd5b90601f801991011681019081106001600160401b0382111761116f57604052565b6001600160401b03811161116f57601f01601f191660200190565b9291926111cb826111a4565b916111d96040519384611183565b82948184528183011161027d578281602093845f960137010152565b60a0606061123b93602084528051602085015261121a602082015160408601906110b4565b61122b6040820151838601906110b4565b01519160808082015201906110ee565b90565b60208091604051928184925191829101835e8101600281520301902090565b6040519061126c606083611183565b602582526430ba34b7b760d91b6040837f52657175697265732046756c6c20706572736f6e686f6f64207665726966696360208201520152565b906112c4906112be6112b93683866111bf565b6115cf565b926116d4565b600281116113dc57808203918211610ec057600582111561139c5781600660029310159081611390575b5061133357146113035760029061123b61125d565b5f90604051611313604082611183565b601081526f105d985a5b18589b19481d1bc8185b1b60821b602082015290565b146113435760029061123b61125d565b600190604051611354606082611183565b602681527f5265717569726573204c6967687420706572736f6e686f6f642076657269666960208201526531b0ba34b7b760d11b604082015290565b6008915011155f6112ee565b50506003906040516113af604082611183565b601781527f526573657276656420666f7220476f7665726e616e6365000000000000000000602082015290565b6040516305bf8fb360e31b8152602060048201526024808201527f4e616d652063616e2068617665206d6178696d756d20322064696769742073756044820152630ccccd2f60e31b6064820152608490fd5b60405190608082018281106001600160401b0382111761116f57604052606080835f81525f60208201525f60408201520152565b60048210156104545752565b906020809282604051938492833781016002815203019020916040519261149484611154565b546001600160a01b03811680855260a09190911c6001600160401b031692909301829052821515806114d2575b6114cb575f929190565b6001929190565b504282116114c1565b6001600160a01b03168015611539575f5160206119425f395f51905f5280546001600160a01b0319811683179091556001600160a01b03167f8be0079c531659141344cd1fd0a4f28419497f9722a3daafe3b4186f6b6457e05f80a3565b631e4fbdf760e01b5f525f60045260245ffd5b6112b99061155b9236916111bf565b6009811061159757600f81101561158e575f5490600f0390600f8211610ec057818102918183041490151715610ec05790565b505f5460011c90565b505f90565b5f198114610ec05760010190565b9081518110156115bb570160200190565b634e487b7160e01b5f52603260045260245ffd5b5f8151915f915b8381106115e4575050905090565b6001600160f81b03196115f782846115aa565b5116600160ff1b811015611621575060018101809111610ec05761161b909261159c565b916115d6565b600760fd1b811015611643575060028101809111610ec05761161b909261159c565b600f60fc1b811015611665575060038101809111610ec05761161b909261159c565b601f60fb1b811015611687575060048101809111610ec05761161b909261159c565b603f60fa1b11156116a75760058101809111610ec05761161b909261159c565b60068101809111610ec05761161b909261159c565b8015610ec0575f190190565b908210156115bb570190565b5f9291908190815b6116e557505050565b909291935f198501858111610ec057600360fc1b6001600160f81b031961170d8388876116c8565b351610159081611741575b50156117395761172a6117309161159c565b946116bc565b919290826116dc565b935090915050565b603960f81b91506001600160f81b03199061175d9087866116c8565b351611155f611718565b90805b80151580611827575b806117f7575b1561178c57611787906116bc565b61176a565b9091611797826111a4565b926117a56040519485611183565b828452601f196117b4846111a4565b013660208601375f5b8381106117cb575050505090565b6001906001600160f81b03196117e28285876116c8565b35165f1a6117f082886115aa565b53016117bd565b505f198101818111610ec057603960f81b906001600160f81b03199061181e9085876116c8565b35161115611779565b505f198101818111610ec057600360fc1b906001600160f81b03199061184e9085876116c8565b35161015611773565b5f5160206119425f395f51905f52546001600160a01b0316330361187757565b63118cdaa760e01b5f523360045260245ffd5b60ff5f5160206119825f395f51905f525460401c16156118a657565b631afcd79f60e31b5f5260045ffd5b905f8091602081519101845af4808061192e575b156118e95750506040513d81523d5f602083013e60203d82010160405290565b1561190e57639996b31560e01b5f9081526001600160a01b0391909116600452602490fd5b3d1561191f576040513d5f823e3d90fd5b63d6bda27560e01b5f5260045ffd5b503d1515806118c95750813b15156118c956fe9016d09d72d40fdae2fd8ceac6b6234c7706214fd39c1cd1e609a0528c199300360894a13ba1a3210667c828492db98dca3e2076cc3735a920a3ca505d382bbcf0c57e16840df040f15088dc2f81fe391c3923bec73e23a9662efc9c229c6a00a2646970667358221220f5a85b7ce5b640d74156009e80efb1b9d5601e8fb258188bd72e534f5b09bd8164736f6c634300081e0033f0c57e16840df040f15088dc2f81fe391c3923bec73e23a9662efc9c229c6a00","linkReferences":{}},"methodIdentifiers":{"MAX_RESERVATION_TIME()":"68e344e9","UPGRADE_INTERFACE_VERSION()":"ad3cb1cc","classifyName(string)":"3017fa33","ethRegistryController()":"9af20d20","getBaseNameReservation(string)":"8ac7f0f5","initialize(uint256)":"fe4b84df","isBaseName(string)":"b4956ade","isBaseNameReserved(string)":"91809994","owner()":"8da5cb5b","price(string)":"fe2c6198","priceWithCheck(string,address)":"6bbfce2b","priceWithoutCheck(string,address)":"dcd62573","proxiableUUID()":"52d1902d","renounceOwnership()":"715018a6","reservations(string)":"c5c95048","reserveBaseName(string,address)":"35696fa7","setUserPopStatus(uint8)":"0848731f","startingPrice()":"d6fbf202","supportsInterface(bytes4)":"01ffc9a7","transferOwnership(address)":"f2fde38b","updateEthRegistry(address)":"72af28c0","upgradeToAndCall(address,bytes)":"4f1ef286","userPopStatus(address)":"257ab866","version()":"54fd4d50"},"storageLayout":{"storage":[{"astId":2244,"contract":"contracts/pop/PopRules.sol:PopRules","label":"startingPrice","offset":0,"slot":"0","type":"t_uint256"},{"astId":2250,"contract":"contracts/pop/PopRules.sol:PopRules","label":"userPopStatus","offset":0,"slot":"1","type":"t_mapping(t_address,t_enum(PopStatus)424)"},{"astId":2256,"contract":"contracts/pop/PopRules.sol:PopRules","label":"reservations","offset":0,"slot":"2","type":"t_mapping(t_string_memory_ptr,t_struct(Reservation)479_storage)"},{"astId":2267,"contract":"contracts/pop/PopRules.sol:PopRules","label":"ethRegistryController","offset":0,"slot":"3","type":"t_address"},{"astId":2272,"contract":"contracts/pop/PopRules.sol:PopRules","label":"__gap","offset":0,"slot":"4","type":"t_array(t_uint256)50_storage"}],"types":{"t_address":{"encoding":"inplace","label":"address","numberOfBytes":"20"},"t_array(t_uint256)50_storage":{"encoding":"inplace","label":"uint256[50]","numberOfBytes":"1600","base":"t_uint256"},"t_enum(PopStatus)424":{"encoding":"inplace","label":"enum IPopRules.PopStatus","numberOfBytes":"1"},"t_mapping(t_address,t_enum(PopStatus)424)":{"encoding":"mapping","key":"t_address","label":"mapping(address => enum IPopRules.PopStatus)","numberOfBytes":"32","value":"t_enum(PopStatus)424"},"t_mapping(t_string_memory_ptr,t_struct(Reservation)479_storage)":{"encoding":"mapping","key":"t_string_memory_ptr","label":"mapping(string => struct IPopRules.Reservation)","numberOfBytes":"32","value":"t_struct(Reservation)479_storage"},"t_string_memory_ptr":{"encoding":"bytes","label":"string","numberOfBytes":"32"},"t_struct(Reservation)479_storage":{"encoding":"inplace","label":"struct IPopRules.Reservation","numberOfBytes":"32","members":[{"astId":476,"contract":"contracts/pop/PopRules.sol:PopRules","label":"owner","offset":0,"slot":"0","type":"t_address"},{"astId":478,"contract":"contracts/pop/PopRules.sol:PopRules","label":"expires","offset":20,"slot":"0","type":"t_uint64"}]},"t_uint256":{"encoding":"inplace","label":"uint256","numberOfBytes":"32"},"t_uint64":{"encoding":"inplace","label":"uint64","numberOfBytes":"8"}}},"id":6}