{"abi":[{"type":"constructor","inputs":[{"name":"protocolRegistry_","type":"address","internalType":"address"}],"stateMutability":"nonpayable"},{"type":"function","name":"claimUserStore","inputs":[],"outputs":[{"name":"store","type":"address","internalType":"address"}],"stateMutability":"nonpayable"},{"type":"function","name":"deployLabelStoreFor","inputs":[{"name":"user","type":"address","internalType":"address"}],"outputs":[{"name":"store","type":"address","internalType":"address"}],"stateMutability":"nonpayable"},{"type":"function","name":"getLabelStore","inputs":[{"name":"user","type":"address","internalType":"address"}],"outputs":[{"name":"store","type":"address","internalType":"address"}],"stateMutability":"view"},{"type":"function","name":"getLabelStoreCount","inputs":[],"outputs":[{"name":"count","type":"uint256","internalType":"uint256"}],"stateMutability":"view"},{"type":"function","name":"getLabelStores","inputs":[{"name":"offset","type":"uint256","internalType":"uint256"},{"name":"limit","type":"uint256","internalType":"uint256"}],"outputs":[{"name":"stores","type":"address[]","internalType":"address[]"}],"stateMutability":"view"},{"type":"function","name":"getUserStore","inputs":[{"name":"user","type":"address","internalType":"address"}],"outputs":[{"name":"store","type":"address","internalType":"address"}],"stateMutability":"view"},{"type":"function","name":"getUserStoreCount","inputs":[],"outputs":[{"name":"count","type":"uint256","internalType":"uint256"}],"stateMutability":"view"},{"type":"function","name":"getUserStores","inputs":[{"name":"offset","type":"uint256","internalType":"uint256"},{"name":"limit","type":"uint256","internalType":"uint256"}],"outputs":[{"name":"stores","type":"address[]","internalType":"address[]"}],"stateMutability":"view"},{"type":"function","name":"labelStoreBeacon","inputs":[],"outputs":[{"name":"","type":"address","internalType":"address"}],"stateMutability":"view"},{"type":"function","name":"owner","inputs":[],"outputs":[{"name":"","type":"address","internalType":"address"}],"stateMutability":"view"},{"type":"function","name":"protocolRegistry","inputs":[],"outputs":[{"name":"","type":"address","internalType":"address"}],"stateMutability":"view"},{"type":"function","name":"renounceOwnership","inputs":[],"outputs":[],"stateMutability":"nonpayable"},{"type":"function","name":"transferOwnership","inputs":[{"name":"newOwner","type":"address","internalType":"address"}],"outputs":[],"stateMutability":"nonpayable"},{"type":"function","name":"upgradeLabelStoreImplementation","inputs":[{"name":"newImplementation","type":"address","internalType":"address"}],"outputs":[],"stateMutability":"nonpayable"},{"type":"function","name":"upgradeUserStoreImplementation","inputs":[{"name":"newImplementation","type":"address","internalType":"address"}],"outputs":[],"stateMutability":"nonpayable"},{"type":"function","name":"userStoreBeacon","inputs":[],"outputs":[{"name":"","type":"address","internalType":"address"}],"stateMutability":"view"},{"type":"function","name":"version","inputs":[],"outputs":[{"name":"versionString","type":"string","internalType":"string"}],"stateMutability":"pure"},{"type":"event","name":"LabelStoreDeployed","inputs":[{"name":"user","type":"address","indexed":true,"internalType":"address"},{"name":"store","type":"address","indexed":true,"internalType":"address"}],"anonymous":false},{"type":"event","name":"LabelStoreImplementationUpgraded","inputs":[{"name":"newImplementation","type":"address","indexed":true,"internalType":"address"}],"anonymous":false},{"type":"event","name":"OwnershipTransferred","inputs":[{"name":"previousOwner","type":"address","indexed":true,"internalType":"address"},{"name":"newOwner","type":"address","indexed":true,"internalType":"address"}],"anonymous":false},{"type":"event","name":"UserStoreClaimed","inputs":[{"name":"user","type":"address","indexed":true,"internalType":"address"},{"name":"store","type":"address","indexed":true,"internalType":"address"}],"anonymous":false},{"type":"event","name":"UserStoreImplementationUpgraded","inputs":[{"name":"newImplementation","type":"address","indexed":true,"internalType":"address"}],"anonymous":false},{"type":"error","name":"AlreadyDeployed","inputs":[{"name":"user","type":"address","internalType":"address"},{"name":"existingStore","type":"address","internalType":"address"}]},{"type":"error","name":"ImplementationBindingMismatch","inputs":[]},{"type":"error","name":"InvalidImplementation","inputs":[{"name":"implementation","type":"address","internalType":"address"}]},{"type":"error","name":"InvalidProtocolRegistry","inputs":[{"name":"protocolRegistry","type":"address","internalType":"address"}]},{"type":"error","name":"InvalidUser","inputs":[{"name":"user","type":"address","internalType":"address"}]},{"type":"error","name":"NotAuthorised","inputs":[{"name":"caller","type":"address","internalType":"address"}]},{"type":"error","name":"OwnableInvalidOwner","inputs":[{"name":"owner","type":"address","internalType":"address"}]},{"type":"error","name":"OwnableUnauthorizedAccount","inputs":[{"name":"account","type":"address","internalType":"address"}]}],"bytecode":{"object":"0x60e0806040523461025a576020816134ed803803809161001f828561028b565b83398101031261025a57516001600160a01b03811680820361025a573315610278575f8054336001600160a01b0319821681178355604051939290916001600160a01b0316907f8be0079c531659141344cd1fd0a4f28419497f9722a3daafe3b4186f6b6457e09080a380156102665781602481602093631b618f9560e31b82525f60048301525afa801561020f5761022e575b5060c052604051610dd68082016001600160401b0381118382101761021a5782916115a9833903905ff0801561020f576040516103be808201929091906001600160401b0384118285101761021a57610128829161237f95858785396001600160a01b03909116815230602082015260400190565b03905ff0801561020f576001600160a01b0316608052604051610db08082016001600160401b0381118382101761021a57829161273d833903905ff091821561020f57604051928284016001600160401b0381118582101761021a5784936101a59385396001600160a01b03909116815230602082015260400190565b03905ff0801561020f576001600160a01b031660a0526040516112fa90816102af82396080518181816103b2015281816105b00152610897015260a0518181816101fd015281816104410152610a77015260c0518181816106ca0152818161082e0152610c320152f35b6040513d5f823e3d90fd5b634e487b7160e01b5f52604160045260245ffd5b6020813d60201161025e575b816102476020938361028b565b8101031261025a575180151581146100b3575b5f80fd5b3d915061023a565b63059c24ad60e41b5f5260045260245ffd5b631e4fbdf760e01b5f525f60045260245ffd5b601f909101601f19168101906001600160401b0382119082101761021a5760405256fe6080806040526004361015610012575f80fd5b5f905f3560e01c90816301d5c15f14610a655750806322b2708b14610a215780634fc5dce9146109dd5780635269fc58146107bc57806354fd4d5014610750578063715018a6146106f95780637656419f146106b557806376a294181461069b578063803b130114610671578063811244e0146105595780638da5cb5b146105325780638f0c0f3614610514578063adff70ee146103e1578063ca7ad4231461039c578063d6fefb141461037e578063eccf8f55146101675763f2fde38b146100d9575f80fd5b34610164576020366003190112610164576004356001600160a01b0381169081900361016257610107610cc2565b801561014e5781546001600160a01b03198116821783556001600160a01b03167f8be0079c531659141344cd1fd0a4f28419497f9722a3daafe3b4186f6b6457e08380a380f35b631e4fbdf760e01b82526004829052602482fd5b505b80fd5b50346101645780600319360112610164573380825260026020818152604080852054848652929091528320546101ac926001600160a01b039182169290911615610b22565b60405163189acdbd60e31b6020820152336024820152602481526101d1604482610b4f565b604051906104588083019083821067ffffffffffffffff83111761036a5791610222918493610e6d85397f000000000000000000000000000000000000000000000000000000000000000090610b71565b039082f0801561035d57604051638da5cb5b60e01b81526001600160a01b03919091169190602081600481865afa908115610352578291610323575b50336001600160a01b03909116036103145733815260026020526040812080546001600160a01b0319166001600160a01b03841617905560045491600160401b831015610300576102b9836001602095016004556004610bb5565b81549060031b9083821b9160018060a01b03901b191617905580604051927f06ac7c9c10355bc43f184759d7b4314153af79956fdb67a18ea95e69d6d11209339180a38152f35b634e487b7160e01b82526041600452602482fd5b636f2b988d60e11b8152600490fd5b610345915060203d60201161034b575b61033d8183610b4f565b810190610b96565b5f61025e565b503d610333565b6040513d84823e3d90fd5b50604051903d90823e3d90fd5b634e487b7160e01b85526041600452602485fd5b50346101645780600319360112610164576020600354604051908152f35b50346101645780600319360112610164576040517f00000000000000000000000000000000000000000000000000000000000000006001600160a01b03168152602090f35b5034610164576020366003190112610164576004356001600160a01b038116908181036104fd5761041c90610414610cc2565b821515610bde565b60405163ee1ce84160e01b8152602081600481855afa8015610509576104d6575b50817f00000000000000000000000000000000000000000000000000000000000000006001600160a01b0316803b1561016257818091602460405180948193631b2ce7f360e11b83528860048401525af18015610352576104c1575b50807f9b1a9f05ed531f4ad23baba39ac270dfe92e4c89b638107959a4b7f5050ce71e91a280f35b816104cb91610b4f565b61016257815f610499565b6020813d602011610501575b816104ef60209383610b4f565b810103126104fd575161043d565b8280fd5b3d91506104e2565b6040513d85823e3d90fd5b50346101645780600319360112610164576020600454604051908152f35b5034610164578060031936011261016457546040516001600160a01b039091168152602090f35b5034610650576020366003190112610650576004356001600160a01b038116908181036106505761058c90610414610cc2565b604051637656419f60e01b8152602081600481855afa801561064557610654575b507f00000000000000000000000000000000000000000000000000000000000000006001600160a01b0316803b15610650575f8091602460405180948193631b2ce7f360e11b83528760048401525af1801561064557610630575b507fefa2deb621cf345468e8c22862b260aa183290f4768870fdfcfce406b7161c808280a280f35b61063d9192505f90610b4f565b5f905f610608565b6040513d5f823e3d90fd5b5f80fd5b61066c9060203d60201161034b5761033d8183610b4f565b6105ad565b346106505761069761068b61068536610aca565b90610de7565b60405191829182610ae0565b0390f35b346106505761069761068b6106af36610aca565b90610d32565b34610650575f366003190112610650576040517f00000000000000000000000000000000000000000000000000000000000000006001600160a01b03168152602090f35b34610650575f36600319011261065057610711610cc2565b5f80546001600160a01b0319811682556001600160a01b03167f8be0079c531659141344cd1fd0a4f28419497f9722a3daafe3b4186f6b6457e08280a3005b34610650575f36600319011261065057604051604081019080821067ffffffffffffffff8311176107a8576106979160405260058152640312e302e360dc1b6020820152604051918291602083526020830190610aa6565b634e487b7160e01b5f52604160045260245ffd5b34610650576020366003190112610650576004356001600160a01b03811690818103610650576107ea610c06565b81156109ca575f82815260016020526040902054610815916001600160a01b03909116908115610b22565b60405163485cc95560e01b6020820152602481018290527f00000000000000000000000000000000000000000000000000000000000000006001600160a01b0316604480830191909152815261086c606482610b4f565b604051906104588083019183831067ffffffffffffffff8411176107a85783926108bc92610e6d85397f000000000000000000000000000000000000000000000000000000000000000090610b71565b03905ff0801561064557604051638da5cb5b60e01b81526001600160a01b03919091169190602081600481865afa80156106455782915f916109ab575b506001600160a01b03160361099c575f81815260016020526040902080546001600160a01b0319166001600160a01b03841617905560035491600160401b8310156107a857610952836001602095016003556003610bb5565b81546001600160a01b0360039290921b91821b19169083901b1790556040519181907f6294914f6f12fb260c6b69d8a5435317a9318b45790f0b19b42cdd06708fcdea5f80a38152f35b636f2b988d60e11b5f5260045ffd5b6109c4915060203d60201161034b5761033d8183610b4f565b846108f9565b50632e86c5bb60e21b5f5260045260245ffd5b34610650576020366003190112610650576004356001600160a01b03811690819003610650575f526001602052602060018060a01b0360405f205416604051908152f35b34610650576020366003190112610650576004356001600160a01b03811690819003610650575f526002602052602060018060a01b0360405f205416604051908152f35b34610650575f366003190112610650577f00000000000000000000000000000000000000000000000000000000000000006001600160a01b03168152602090f35b805180835260209291819084018484015e5f828201840152601f01601f1916010190565b6040906003190112610650576004359060243590565b60206040818301928281528451809452019201905f5b818110610b035750505090565b82516001600160a01b0316845260209384019390920191600101610af6565b15610b2b575050565b63f3d358af60e01b5f9081526001600160a01b039182166004529116602452604490fd5b90601f8019910116810190811067ffffffffffffffff8211176107a857604052565b6001600160a01b039091168152604060208201819052610b9392910190610aa6565b90565b9081602091031261065057516001600160a01b03811681036106505790565b8054821015610bca575f5260205f2001905f90565b634e487b7160e01b5f52603260045260245ffd5b15610be65750565b630c76093760e01b5f9081526001600160a01b0391909116600452602490fd5b5f546001600160a01b03163314610cc057604051631b618f9560e31b81523360048201526020816024817f00000000000000000000000000000000000000000000000000000000000000006001600160a01b03165afa908115610645575f91610c85575b5015610c7257565b6310ac496560e01b5f523360045260245ffd5b90506020813d602011610cb8575b81610ca060209383610b4f565b8101031261065057518015158103610650575f610c6a565b3d9150610c93565b565b5f546001600160a01b03163303610cd557565b63118cdaa760e01b5f523360045260245ffd5b67ffffffffffffffff81116107a85760051b60200190565b90610d0a82610ce8565b610d176040519182610b4f565b8281528092610d28601f1991610ce8565b0190602036910137565b919060035480841015610dcb57838103908111610db05780821015610dc457505b610d5c81610d00565b925f5b828110610d6b57505050565b808201808311610db057610d80906003610bb5565b9054865160039290921b1c6001600160a01b03169190811015610bca5760019160208260051b8801015201610d5f565b634e487b7160e01b5f52601160045260245ffd5b9050610d53565b50509050604051610ddd602082610b4f565b5f81525f36813790565b919060045480841015610dcb57838103908111610db05780821015610e6557505b610e1181610d00565b925f5b828110610e2057505050565b808201808311610db057610e35906004610bb5565b9054865160039290921b1c6001600160a01b03169190811015610bca5760019160208260051b8801015201610e14565b9050610e0856fe60a08060405261045880380380916100178285610271565b833981016040828203126101b45761002e82610294565b602083015190926001600160401b0382116101b4570181601f820112156101b4578051906001600160401b03821161025d5760405192610078601f8401601f191660200185610271565b828452602083830101116101b457815f9260208093018386015e83010152813b1561023c577fa3f0ad74e5423aebfd80d3ef4346578335a9a72aeaee59ff6cb3582b35133d5080546001600160a01b0319166001600160a01b038416908117909155604051635c60da1b60e01b8152909190602081600481865afa9081156101c0575f91610202575b50803b156101e25750817f1cf3b03a6cf19fa2baba4df148e9dcabedea7f8a5c07840e207e5c089be95d3e5f80a28051156101cb57602060049260405193848092635c60da1b60e01b82525afa80156101c0575f90610181575b61016592506102a8565b505b608052604051610123908161033582396080518160180152f35b506020823d6020116101b8575b8161019b60209383610271565b810103126101b4576101af61016592610294565b61015b565b5f80fd5b3d915061018e565b6040513d5f823e3d90fd5b505034156101675763b398979f60e01b5f5260045ffd5b634c9c8ce360e01b5f9081526001600160a01b0391909116600452602490fd5b90506020813d602011610234575b8161021d60209383610271565b810103126101b45761022e90610294565b5f610101565b3d9150610210565b50631933b43b60e21b5f9081526001600160a01b0391909116600452602490fd5b634e487b7160e01b5f52604160045260245ffd5b601f909101601f19168101906001600160401b0382119082101761025d57604052565b51906001600160a01b03821682036101b457565b905f8091602081519101845af48080610321575b156102dc5750506040513d81523d5f602083013e60203d82010160405290565b1561030157639996b31560e01b5f9081526001600160a01b0391909116600452602490fd5b3d15610312576040513d5f823e3d90fd5b63d6bda27560e01b5f5260045ffd5b503d1515806102bc5750813b15156102bc56fe60806040819052635c60da1b60e01b81526020906004817f00000000000000000000000000000000000000000000000000000000000000006001600160a01b03165afa801560a2575f901560d1575060203d602011609c575b601f19601f820116608001906080821067ffffffffffffffff83111760885760849160405260800160ad565b60d1565b634e487b7160e01b5f52604160045260245ffd5b503d6058565b6040513d5f823e3d90fd5b602090607f19011260cd576080516001600160a01b038116810360cd5790565b5f80fd5b5f8091368280378136915af43d5f803e1560e9573d5ff35b3d5ffdfea2646970667358221220dd3a5de3d94daf41d42176f8dbe3440745ebdff2c1ac662fc1c6ac528bd2a35264736f6c63430008220033a264697066735822122062068dfced4f56c29730e500b967dfb4c39ce214a4a0aac89c540e64627c359164736f6c634300082200336080806040523460aa575f516020610db65f395f51905f525460ff8160401c16609b576002600160401b03196001600160401b038216016049575b604051610d0790816100af8239f35b6001600160401b0319166001600160401b039081175f516020610db65f395f51905f525581527fc7f505b2f371ae2175ee4913f4499e1f2633a7b5936321eed1cdaeb6115181d290602090a15f80603a565b63f92ee8a960e01b5f5260045ffd5b5f80fdfe6080806040526004361015610012575f80fd5b5f3560e01c90816311f81901146109325750806320f0e6ce146105f05780632d7b57941461057357806332a16f4e14610544578063485cc9551461038e5780635330c1b5146102f657806354fd4d501461028a5780637656419f14610262578063847f2cd0146102075780638da5cb5b146101e0578063a716560b146101b3578063b1ae65a5146101965763daf13ed6146100ab575f80fd5b34610192576020366003190112610192576100c76004356109cc565b90549060031b1c5f52600260205260405f20604051905f908054906100eb82610994565b808552916001811690811561016b575060011461012b575b61012784610113818603826109f8565b604051918291602083526020830190610970565b0390f35b5f90815260208120939250905b8082106101515750909150810160200161011382610103565b919260018160209254838588010152019101909291610138565b60ff191660208087019190915292151560051b850190920192506101139150839050610103565b5f80fd5b34610192575f366003190112610192576020600454604051908152f35b346101925760203660031901126101925760206101d16004356109cc565b90549060031b1c604051908152f35b34610192575f366003190112610192575f546040516001600160a01b039091168152602090f35b346101925761021e6102183661095a565b90610c08565b6040518091602082016020835281518091526020604084019201905f5b818110610249575050500390f35b825184528594506020938401939092019160010161023b565b34610192575f366003190112610192576001546040516001600160a01b039091168152602090f35b34610192575f36600319011261019257604051604081019080821067ffffffffffffffff8311176102e2576101279160405260058152640312e302e360dc1b6020820152604051918291602083526020830190610970565b634e487b7160e01b5f52604160045260245ffd5b34610192576020366003190112610192576004355f52600260205260405f20604051905f9080549061032782610994565b808552916001811690811561016b575060011461034e5761012784610113818603826109f8565b5f90815260208120939250905b8082106103745750909150810160200161011382610103565b91926001816020925483858801015201910190929161035b565b34610192576040366003190112610192576004356001600160a01b03811690819003610192576024356001600160a01b03811690819003610192575f516020610cb25f395f51905f52549160ff8360401c16159267ffffffffffffffff81168015908161053c575b6001149081610532575b159081610529575b5061051a5767ffffffffffffffff1981166001175f516020610cb25f395f51905f5255836104ee575b5080156104dc5781156104c9576bffffffffffffffffffffffff60a01b5f5416175f556bffffffffffffffffffffffff60a01b600154161760015561047257005b68ff0000000000000000195f516020610cb25f395f51905f5254165f516020610cb25f395f51905f52557fc7f505b2f371ae2175ee4913f4499e1f2633a7b5936321eed1cdaeb6115181d2602060405160018152a1005b5063059c24ad60e41b5f5260045260245ffd5b632e86c5bb60e21b5f5260045260245ffd5b68ffffffffffffffffff191668010000000000000001175f516020610cb25f395f51905f525583610431565b63f92ee8a960e01b5f5260045ffd5b90501585610408565b303b159150610400565b8591506103f6565b34610192576020366003190112610192576004355f526003602052602060ff60405f2054166040519015158152f35b346101925761058a6105843661095a565b90610a74565b6040518091602082016020835281518091526040830190602060408260051b8601019301915f905b8282106105c157505050500390f35b919360019193955060206105e08192603f198a82030186528851610970565b96019201920185949391926105b2565b346101925760403660031901126101925760243560043567ffffffffffffffff8211610192573660238301121561019257816004013567ffffffffffffffff811161019257366024828501011161019257600154604051631b618f9560e31b815233600482015290602090829060249082906001600160a01b03165afa908115610927575f916108ec575b50156108d95781156108c657815f52600360205260ff60405f2054166108b357815f52600560205260405f20546108a057815f52600260205260405f206106c28154610994565b601f811161084f575b50815f601f82116001146107e5575f916107d7575b508260011b905f198460031b1c19161790555b60045490680100000000000000008210156102e2576107198260018594016004556109cc565b81549060031b9084821b915f19901b1916179055600454825f52600560205260405f2055815f52600360205260405f20600160ff198254161790557f75d15e304dde965ced7d2c2ae58c149528a3346e9ac6a8df51bdd9c4ca3911c56024604060018060a01b035f54169684889583519485936020855282602086015201848401375f828201840152601f01601f19168101030190a333917f77a4f4644c1ca20be006a07bdef23f250cc63c21e7e3ffdf345e6754d185b89b5f80a4005b6024915085010135856106e0565b5f8381526020812092508490601f198216905b818110610831575010610815575b5050600182811b0190556106f3565b8501602401355f19600385901b60f8161c191690558480610806565b888401602401358555600190940193602093840193879350016107f8565b828111156106cb57815f5260205f20601f840160051c9060208510610898575b81601f9101920160051c03905f5b82811061088b5750506106cb565b5f8282015560010161087d565b5f915061086f565b5063f3f1647360e01b5f5260045260245ffd5b50632ff49d2d60e21b5f5260045260245ffd5b5063022680d160e41b5f5260045260245ffd5b6310ac496560e01b5f523360045260245ffd5b90506020813d60201161091f575b81610907602093836109f8565b8101031261019257518015158103610192578461067b565b3d91506108fa565b6040513d5f823e3d90fd5b34610192576020366003190112610192576020906004355f526005825260405f205415158152f35b6040906003190112610192576004359060243590565b805180835260209291819084018484015e5f828201840152601f01601f1916010190565b90600182811c921680156109c2575b60208310146109ae57565b634e487b7160e01b5f52602260045260245ffd5b91607f16916109a3565b6004548110156109e45760045f5260205f2001905f90565b634e487b7160e01b5f52603260045260245ffd5b90601f8019910116810190811067ffffffffffffffff8211176102e257604052565b67ffffffffffffffff81116102e25760051b60200190565b91908203918211610a3f57565b634e487b7160e01b5f52601160045260245ffd5b91908201809211610a3f57565b80518210156109e45760209160051b010190565b919060606004549081851015610bd0575083610a8f91610a32565b80821015610bc957505b610aa281610a1a565b90610ab060405192836109f8565b808252601f19610abf82610a1a565b015f5b818110610bb857505081935f5b828110610adc5750505050565b610aee610ae98284610a53565b6109cc565b90549060031b1c5f52600260205260405f20604051905f90805490610b1282610994565b8085529160018116908115610b915750600114610b58575b505090610b3c816001949303826109f8565b610b468287610a60565b52610b518186610a60565b5001610acf565b5f908152602081209092505b818310610b7b5750508101602001610b3c82610b2a565b6001816020925483868801015201920191610b64565b60ff191660208087019190915292151560051b85019092019250610b3c9150839050610b2a565b806060602080938701015201610ac2565b9050610a99565b929350505060405190610be46020836109f8565b5f82525f90815b828110610bf85750505090565b8082602080938701015201610beb565b919060045480841015610c955783610c1f91610a32565b80821015610c8e57505b610c3281610a1a565b610c3f60405191826109f8565b818152601f19610c4e83610a1a565b0136602083013780935f5b838110610c665750505050565b80610c76610ae960019385610a53565b90549060031b1c610c878286610a60565b5201610c59565b9050610c29565b50509050604051610ca76020826109f8565b5f81525f3681379056fef0c57e16840df040f15088dc2f81fe391c3923bec73e23a9662efc9c229c6a00a26469706673582212200bf4f22174cf2977d6d4946006ad513c7d0197e23a9e47f30f2a8b71e178499164736f6c63430008220033f0c57e16840df040f15088dc2f81fe391c3923bec73e23a9662efc9c229c6a0060803461013457601f6103be38819003918201601f19168301916001600160401b03831184841017610138578084926040948552833981010312610134576100468161014c565b906001600160a01b039061005c9060200161014c565b16908115610121575f80546001600160a01b031981168417825560405193916001600160a01b03909116907f8be0079c531659141344cd1fd0a4f28419497f9722a3daafe3b4186f6b6457e09080a3803b1561010157600180546001600160a01b0319166001600160a01b039290921691821790557fbc7cd75a20ee27fd9adebab32041f755214dbc6bffa90cc0225b39da2e5c2d3b5f80a261025d90816101618239f35b63211eb15960e21b5f9081526001600160a01b0391909116600452602490fd5b631e4fbdf760e01b5f525f60045260245ffd5b5f80fd5b634e487b7160e01b5f52604160045260245ffd5b51906001600160a01b03821682036101345756fe60806040526004361015610011575f80fd5b5f3560e01c80633659cfe6146101835780635c60da1b1461015b578063715018a6146101045780638da5cb5b146100dd5763f2fde38b14610050575f80fd5b346100d95760203660031901126100d9576004356001600160a01b038116908190036100d95761007e610201565b80156100c6575f80546001600160a01b03198116831782556001600160a01b0316907f8be0079c531659141344cd1fd0a4f28419497f9722a3daafe3b4186f6b6457e09080a3005b631e4fbdf760e01b5f525f60045260245ffd5b5f80fd5b346100d9575f3660031901126100d9575f546040516001600160a01b039091168152602090f35b346100d9575f3660031901126100d95761011c610201565b5f80546001600160a01b0319811682556001600160a01b03167f8be0079c531659141344cd1fd0a4f28419497f9722a3daafe3b4186f6b6457e08280a3005b346100d9575f3660031901126100d9576001546040516001600160a01b039091168152602090f35b346100d95760203660031901126100d9576004356001600160a01b038116908181036100d9576101b1610201565b3b156101ef57600180546001600160a01b031916821790557fbc7cd75a20ee27fd9adebab32041f755214dbc6bffa90cc0225b39da2e5c2d3b5f80a2005b63211eb15960e21b5f5260045260245ffd5b5f546001600160a01b0316330361021457565b63118cdaa760e01b5f523360045260245ffdfea2646970667358221220beda2de86c8e4ea0530f51bf1980e7440d9bef48e05b233e1f89311d54f67a2464736f6c634300082200336080806040523460aa575f516020610d905f395f51905f525460ff8160401c16609b576002600160401b03196001600160401b038216016049575b604051610ce190816100af8239f35b6001600160401b0319166001600160401b039081175f516020610d905f395f51905f525581527fc7f505b2f371ae2175ee4913f4499e1f2633a7b5936321eed1cdaeb6115181d290602090a15f80603a565b63f92ee8a960e01b5f5260045ffd5b5f80fdfe6080806040526004361015610012575f80fd5b5f3560e01c90816349ccb3ab146108355750806354fd4d50146107f057806369843940146107a85780638ba8bbb6146107205780638da5cb5b146106f95780638f3b2b9f146106a25780639358adf5146102f55780639777f31e146102c8578063b4d1cbad14610265578063c47fe6ca14610231578063c4d66de8146100c15763ee1ce841146100a0575f80fd5b346100bd575f3660031901126100bd576020600354604051908152f35b5f80fd5b346100bd5760203660031901126100bd576004356001600160a01b038116908190036100bd575f516020610c8c5f395f51905f52549060ff8260401c16159167ffffffffffffffff811680159081610229575b600114908161021f575b159081610216575b506102075767ffffffffffffffff1981166001175f516020610c8c5f395f51905f5255826101db575b5080156101c9576bffffffffffffffffffffffff60a01b5f5416175f5561017257005b68ff0000000000000000195f516020610c8c5f395f51905f5254165f516020610c8c5f395f51905f52557fc7f505b2f371ae2175ee4913f4499e1f2633a7b5936321eed1cdaeb6115181d2602060405160018152a1005b632e86c5bb60e21b5f5260045260245ffd5b68ffffffffffffffffff191668010000000000000001175f516020610c8c5f395f51905f52558261014f565b63f92ee8a960e01b5f5260045ffd5b90501584610126565b303b15915061011e565b849150610114565b346100bd5760203660031901126100bd576004355f526001602052602061025b60405f20546108dd565b1515604051908152f35b346100bd5760403660031901126100bd57610284602435600435610bdd565b6040518091602082016020835281518091526020604084019201905f5b8181106102af575050500390f35b82518452859450602093840193909201916001016102a1565b346100bd5760203660031901126100bd5760206102e6600435610bc5565b90549060031b1c604051908152f35b346100bd5760403660031901126100bd5760043560243567ffffffffffffffff81116100bd57366023820112156100bd5780600401359067ffffffffffffffff82116100bd5736602483830101116100bd575f546001600160a01b0316330361068f57821561068057825f52600160205260405f2061037481546108dd565b610535575b50825f52600160205260405f2061039a8361039483546108dd565b83610b67565b5f83601f81116001146104cc57806103c6925f916104be575b508160011b915f199060031b1c19161790565b90555b825f52600460205260405f205415610438575b602460407ff080de3eec6e73c2a8b5502cdab171d59dda1c076f071ad922f3ab09738274089260018060a01b035f5416948083519485936020855282602086015201848401375f828201840152601f01601f19168101030190a3005b60035490600160401b8210156104aa57604060249161047e8460017ff080de3eec6e73c2a8b5502cdab171d59dda1c076f071ad922f3ab09738274089601600355610bc5565b81549060031b9088821b915f19901b1916179055600354865f526004602052825f2055925050506103dc565b634e487b7160e01b5f52604160045260245ffd5b6024915085010135876103b3565b50601f19841690825f528460205f20925f5b8181106105175750106104fb575b5050600183811b0190556103c9565b8301602401355f19600386901b60f8161c1916905584806104ec565b868401602401358555600190940193602093840193889350016104de565b835f52600260205260405f20610560610567604051936105548561089f565b60405192838092610915565b03826108bb565b825260208201904282528054600160401b8110156104aa5761058e916001820181556109f5565b92909261066d575180519067ffffffffffffffff82116104aa576105bc826105b686546108dd565b86610b67565b602090601f83116001146106075791806105ef92600195945f926105fc575b50508160011b915f199060031b1c19161790565b83555b5191015583610379565b0151905089806105db565b90601f19831691855f52815f20925f5b818110610655575091600195949291838795931061063d575b505050811b0183556105f2565b01515f1960f88460031b161c19169055888080610630565b92936020600181928786015181550195019301610617565b634e487b7160e01b5f525f60045260245ffd5b630eda9c3d60e31b5f5260045ffd5b63245aecd360e01b5f523360045260245ffd5b346100bd5760403660031901126100bd576106bb6109ae565b506004355f5260026020526106f56106e16106db60243560405f206109f5565b50610a36565b60405191829160208352602083019061087f565b0390f35b346100bd575f3660031901126100bd575f546040516001600160a01b039091168152602090f35b346100bd5760603660031901126100bd57610742604435602435600435610a63565b6040518091602082016020835281518091526040830190602060408260051b8601019301915f905b82821061077957505050500390f35b919360019193955060206107988192603f198a8203018652885161087f565b960192019201859493919261076a565b346100bd5760203660031901126100bd576004355f5260016020526106f56105606107dc60405f2060405192838092610915565b60405191829160208352602083019061085b565b346100bd575f3660031901126100bd576106f560405161080f8161089f565b60058152640312e302e360dc1b602082015260405191829160208352602083019061085b565b346100bd5760203660031901126100bd576020906004355f526002825260405f20548152f35b805180835260209291819084018484015e5f828201840152601f01601f1916010190565b90602080610896845160408552604085019061085b565b93015191015290565b6040810190811067ffffffffffffffff8211176104aa57604052565b90601f8019910116810190811067ffffffffffffffff8211176104aa57604052565b90600182811c9216801561090b575b60208310146108f757565b634e487b7160e01b5f52602260045260245ffd5b91607f16916108ec565b5f9291815491610924836108dd565b8083529260018116908115610979575060011461094057505050565b5f9081526020812093945091925b83831061095f575060209250010190565b60018160209294939454838587010152019101919061094e565b915050602093945060ff929192191683830152151560051b010190565b67ffffffffffffffff81116104aa5760051b60200190565b604051906109bb8261089f565b5f602083606081520152565b919082039182116109d457565b634e487b7160e01b5f52601160045260245ffd5b919082018092116109d457565b8054821015610a0e575f5260205f209060011b01905f90565b634e487b7160e01b5f52603260045260245ffd5b8051821015610a0e5760209160051b010190565b90604051610a438161089f565b602060018294604051610a5a816105608185610915565b84520154910152565b929190925f52600260205260405f2090815480851015610b2a5784610a87916109c7565b80821015610b225750905b610a9b82610996565b90610aa960405192836108bb565b828252601f19610ab884610996565b015f5b818110610b0b57505081945f5b848110610ad6575050505050565b80610aef6106db610ae9600194866109e8565b866109f5565b610af98287610a22565b52610b048186610a22565b5001610ac8565b602090610b166109ae565b82828701015201610abb565b905090610a92565b509192505050604051610b3e6020826108bb565b5f81525f805b818110610b5057505090565b602090610b5b6109ae565b82828601015201610b44565b919091601f8311610b78575b505050565b818311610b8457505050565b5f5260205f206020601f830160051c9210610bbd575b81601f9101920160051c03905f5b82811015610b73575f82820155600101610ba8565b5f9150610b9a565b600354811015610a0e5760035f5260205f2001905f90565b919060035480841015610c6f5783610bf4916109c7565b80821015610c6857505b610c0781610996565b610c1460405191826108bb565b818152601f19610c2383610996565b0136602083013780935f5b838110610c3b5750505050565b80610c50610c4b600193856109e8565b610bc5565b90549060031b1c610c618286610a22565b5201610c2e565b9050610bfe565b50509050604051610c816020826108bb565b5f81525f3681379056fef0c57e16840df040f15088dc2f81fe391c3923bec73e23a9662efc9c229c6a00a2646970667358221220c9b9caa4572170b5047b5c83ae9a818bac66627777610c268e1e4cb79fba433864736f6c63430008220033f0c57e16840df040f15088dc2f81fe391c3923bec73e23a9662efc9c229c6a00","linkReferences":{}},"methodIdentifiers":{"claimUserStore()":"eccf8f55","deployLabelStoreFor(address)":"5269fc58","getLabelStore(address)":"4fc5dce9","getLabelStoreCount()":"d6fefb14","getLabelStores(uint256,uint256)":"76a29418","getUserStore(address)":"22b2708b","getUserStoreCount()":"8f0c0f36","getUserStores(uint256,uint256)":"803b1301","labelStoreBeacon()":"ca7ad423","owner()":"8da5cb5b","protocolRegistry()":"7656419f","renounceOwnership()":"715018a6","transferOwnership(address)":"f2fde38b","upgradeLabelStoreImplementation(address)":"811244e0","upgradeUserStoreImplementation(address)":"adff70ee","userStoreBeacon()":"01d5c15f","version()":"54fd4d50"},"storageLayout":{"storage":[{"astId":54846,"contract":"contracts/store/StoreFactory.sol:StoreFactory","label":"_owner","offset":0,"slot":"0","type":"t_address"},{"astId":11263,"contract":"contracts/store/StoreFactory.sol:StoreFactory","label":"_labelStores","offset":0,"slot":"1","type":"t_mapping(t_address,t_address)"},{"astId":11268,"contract":"contracts/store/StoreFactory.sol:StoreFactory","label":"_userStores","offset":0,"slot":"2","type":"t_mapping(t_address,t_address)"},{"astId":11272,"contract":"contracts/store/StoreFactory.sol:StoreFactory","label":"_labelStoreList","offset":0,"slot":"3","type":"t_array(t_address)dyn_storage"},{"astId":11276,"contract":"contracts/store/StoreFactory.sol:StoreFactory","label":"_userStoreList","offset":0,"slot":"4","type":"t_array(t_address)dyn_storage"}],"types":{"t_address":{"encoding":"inplace","label":"address","numberOfBytes":"20"},"t_array(t_address)dyn_storage":{"encoding":"dynamic_array","label":"address[]","numberOfBytes":"32","base":"t_address"},"t_mapping(t_address,t_address)":{"encoding":"mapping","key":"t_address","label":"mapping(address => address)","numberOfBytes":"32","value":"t_address"}}},"id":33}