{"abi":[{"type":"function","name":"deploy","inputs":[],"outputs":[{"name":"","type":"address","internalType":"contract IStore"}],"stateMutability":"nonpayable"},{"type":"function","name":"getAllDeployedStores","inputs":[],"outputs":[{"name":"","type":"address[]","internalType":"contract IStore[]"}],"stateMutability":"view"},{"type":"function","name":"getDeployedStore","inputs":[{"name":"who","type":"address","internalType":"address"}],"outputs":[{"name":"","type":"address","internalType":"contract IStore"}],"stateMutability":"view"},{"type":"function","name":"transferOwnership","inputs":[{"name":"newOwner","type":"address","internalType":"address"}],"outputs":[],"stateMutability":"nonpayable"},{"type":"event","name":"OwnershipTransfered","inputs":[{"name":"oldOwner","type":"address","indexed":true,"internalType":"address"},{"name":"newOwner","type":"address","indexed":true,"internalType":"address"}],"anonymous":false},{"type":"event","name":"StoreDeployed","inputs":[{"name":"owner","type":"address","indexed":true,"internalType":"address"},{"name":"store","type":"address","indexed":true,"internalType":"contract IStore"}],"anonymous":false},{"type":"error","name":"AlreadyDeployed","inputs":[{"name":"existingStore","type":"address","internalType":"address"}]},{"type":"error","name":"InvalidOwnership","inputs":[{"name":"store","type":"address","internalType":"address"}]},{"type":"error","name":"InvalidTransfer","inputs":[{"name":"caller","type":"address","internalType":"address"}]}],"bytecode":{"object":"0x608080604052346015576111af908161001a8239f35b5f80fdfe6080806040526004361015610012575f80fd5b5f905f3560e01c908163775c300c1461024257508063b6e896e11461017a578063f2fde38b146100955763fa381b521461004a575f80fd5b34610092576020366003190112610092576004356001600160a01b0381169081900361009057815260208181526040918290205491516001600160a01b03909216825290f35b505b80fd5b5034610092576020366003190112610092576004356001600160a01b0381168082036101765733808452602084905260408420546001600160a01b031692906100e0908415156104ab565b8161014f575b5080337f0d18b5fd22306e373229b9439188228edca81207d1667f604daf6cef8aa3ee678580a3825281602052604082209060018060a01b03166001600160601b0360a01b82541617905533815280602052604081206001600160601b0360a01b815416905580f35b8184526020849052604084205461017091906001600160a01b0316156104ab565b5f6100e6565b8280fd5b503461009257806003193601126100925760405180602060015491828152018091600185527fb10e2d527612073b26eecdfd717e6a320cf44b4afac2b0732d9fcbe2b7fa0cf690855b81811061022357505050826101d9910383610489565b604051928392602084019060208552518091526040840192915b818110610201575050500390f35b82516001600160a01b03168452859450602093840193909201916001016101f3565b82546001600160a01b03168452602090930192600192830192016101c3565b90503461045f575f36600319011261045f57335f908152602081905260409020546001600160a01b0316806104775750610ca680820182811067ffffffffffffffff8211176104635782916104d4833903905ff0801561045457335f90815260208190526040902080546001600160a01b0319166001600160a01b0392909216918217905590813b1561045f5760405163f2fde38b60e01b81523360048201525f8160248183875af1801561045457610441575b50604051638da5cb5b60e01b8152602081600481865afa9081156104365782916103f4575b50336001600160a01b03909116036103e25760015491680100000000000000008310156103ce5760018301806001558310156103ba57602092600183527fb10e2d527612073b26eecdfd717e6a320cf44b4afac2b0732d9fcbe2b7fa0cf601816001600160601b0360a01b82541617905580604051927f91b07bde3f171aaf8e319f803c8eeb44f3fb40713e794d4d683edb4b59978d97339180a38152f35b634e487b7160e01b82526032600452602482fd5b634e487b7160e01b82526041600452602482fd5b60249163139ab47360e11b8252600452fd5b90506020813d60201161042e575b8161040f60209383610489565b8101031261009057516001600160a01b0381168103610090575f61031b565b3d9150610402565b6040513d84823e3d90fd5b61044d91505f90610489565b5f5f6102f6565b6040513d5f823e3d90fd5b5f80fd5b634e487b7160e01b5f52604160045260245ffd5b6329ab51bf60e01b5f5260045260245ffd5b90601f8019910116810190811067ffffffffffffffff82111761046357604052565b156104b35750565b6316028a3760e01b5f9081526001600160a01b0391909116600452602490fdfe608080604052346071573315605e575f8054336001600160a01b0319821681178355916001600160a01b03909116907f8be0079c531659141344cd1fd0a4f28419497f9722a3daafe3b4186f6b6457e09080a3610c3090816100768239f35b631e4fbdf760e01b5f525f60045260245ffd5b5f80fdfe6080806040526004361015610012575f80fd5b5f3560e01c9081630bdd8aeb1461087f5750806311182b971461081a57806319eb4a901461072857806331bf85fa146106df5780633ecfef6e1461057c5780636984394014610548578063715018a6146104f157806388c5ef46146104895780638da5cb5b14610462578063b489b365146103fa578063c47fe6ca146103bc578063c7bfebd61461030e578063d0f5d136146102a9578063d7abb79f1461024d578063ddd875d81461019d578063f2fde38b146101185763fe9fbb80146100d7575f80fd5b34610114576020366003190112610114576001600160a01b036100f86108b8565b165f526003602052602060ff60405f2054166040519015158152f35b5f80fd5b34610114576020366003190112610114576101316108b8565b610139610b95565b6001600160a01b0316801561018a575f80546001600160a01b03198116831782556001600160a01b0316907f8be0079c531659141344cd1fd0a4f28419497f9722a3daafe3b4186f6b6457e09080a3005b631e4fbdf760e01b5f525f60045260245ffd5b34610114576020366003190112610114576004356101bb8133610bbb565b335f52600160205260405f20815f5260205260405f206101db8154610942565b908161020a575b82337f6428dc73ea23d7708b9e0792e2c9b2ea9d258d7f9373d69b0b2643edf2b85a165f80a3005b81601f5f93116001146102215750555b81806101e2565b8183526020832061023d91601f0160051c810190600101610a1a565b808252816020812091555561021a565b34610114576040366003190112610114576001600160a01b0361026e6108b8565b165f52600160205260405f206024355f526020526102a561029160405f2061097a565b6040519182916020835260208301906108ce565b0390f35b34610114576020366003190112610114576102c26108b8565b6102ca610b95565b6001600160a01b03165f818152600460205260408120805460ff191690557faa8fcdfccf445f021f8b4a213ae1a63f6f3267aa4522972c47c01d457ff3727b9080a2005b346101145760403660031901126101145760043560243567ffffffffffffffff8111610114577f329b0bde0bfd3b1f63461d9197f2dea5bb1ed9040a3cc8dbe154b115c2e30a496103666103b79236906004016108f2565b6103738594929433610bbb565b335f52600160205260405f20855f52602052610393818560405f20610a30565b335f5260026020526103a9818560405f20610b27565b604051918291339583610b6e565b0390a3005b3461011457602036600319011261011457335f52600160205260405f206004355f5260205260206103f060405f2054610942565b1515604051908152f35b34610114576020366003190112610114576104136108b8565b61041b610b95565b6001600160a01b03165f818152600360205260408120805460ff191660011790557fa7de06aa60b69f67f419b34647ad6da74e5177ecca58e49f670e63e078786ae79080a2005b34610114575f366003190112610114575f546040516001600160a01b039091168152602090f35b34610114576020366003190112610114576104a26108b8565b6104aa610b95565b6001600160a01b03165f818152600460205260408120805460ff191660011790557faa64744d19b2d9220a88e1b74da1cd399b8b6c9e14605654149475ca15d259909080a2005b34610114575f36600319011261011457610509610b95565b5f80546001600160a01b0319811682556001600160a01b03167f8be0079c531659141344cd1fd0a4f28419497f9722a3daafe3b4186f6b6457e08280a3005b3461011457602036600319011261011457335f52600160205260405f206004355f526020526102a561029160405f2061097a565b34610114576060366003190112610114576105956108b8565b60243560443567ffffffffffffffff8111610114576105b9829136906004016108f2565b93335f52600460205260ff60405f205416156106ae575b806105fc847f329b0bde0bfd3b1f63461d9197f2dea5bb1ed9040a3cc8dbe154b115c2e30a4993610bbb565b60018060a01b0316948592835f52600160205260405f20855f52602052610627828260405f20610a30565b835f52600260205261063d828260405f20610b27565b61064c60405192839283610b6e565b0390a3335f52600460205260ff60405f20541661066557005b815f52600560205260405f20815f5260205260405f20600160ff1982541617905533917fd263f2dadb54eb8b54eb5d786c7ea4c6fd62c873b613deeee99c6ce71b4ed4f95f80a4005b9150335f52600360205260ff60405f205416156106cc5782916105d0565b6310ac496560e01b5f523360045260245ffd5b34610114576040366003190112610114576001600160a01b036107006108b8565b165f52600560205260405f206024355f52602052602060ff60405f2054166040519015158152f35b34610114575f36600319011261011457335f52600260205260405f2080549067ffffffffffffffff8211610806576040519161076a60208260051b0184610920565b8083526020830180925f5260205f205f915b8383106107e957848660405191829160208301906020845251809152604083019060408160051b85010192915f905b8282106107ba57505050500390f35b919360019193955060206107d98192603f198a820301865288516108ce565b96019201920185949391926107ab565b6001602081926107f88561097a565b81520192019201919061077c565b634e487b7160e01b5f52604160045260245ffd5b34610114576020366003190112610114576108336108b8565b61083b610b95565b6001600160a01b03165f818152600360205260408120805460ff191690557f7bd79b6f5373362a5b314e087a7061c39b65f0d57ef52a4eb43610d6d4fb58099080a2005b34610114576020366003190112610114576020906001600160a01b036108a36108b8565b165f526004825260ff60405f20541615158152f35b600435906001600160a01b038216820361011457565b805180835260209291819084018484015e5f828201840152601f01601f1916010190565b9181601f840112156101145782359167ffffffffffffffff8311610114576020838186019501011161011457565b90601f8019910116810190811067ffffffffffffffff82111761080657604052565b90600182811c92168015610970575b602083101461095c57565b634e487b7160e01b5f52602260045260245ffd5b91607f1691610951565b9060405191825f82549261098d84610942565b80845293600181169081156109f857506001146109b4575b506109b292500383610920565b565b90505f9291925260205f20905f915b8183106109dc5750509060206109b2928201015f6109a5565b60209193508060019154838589010152019101909184926109c3565b9050602092506109b294915060ff191682840152151560051b8201015f6109a5565b818110610a25575050565b5f8155600101610a1a565b90929167ffffffffffffffff811161080657610a4c8254610942565b601f8111610aec575b505f601f8211600114610a8d57819293945f92610a82575b50508160011b915f199060031b1c1916179055565b013590505f80610a6d565b601f19821694835f5260205f20915f5b878110610ad4575083600195969710610abb575b505050811b019055565b01355f19600384901b60f8161c191690555f8080610ab1565b90926020600181928686013581550194019101610a9d565b610b1790835f5260205f20601f840160051c81019160208510610b1d575b601f0160051c0190610a1a565b5f610a55565b9091508190610b0a565b91908254680100000000000000008110156108065760018101808555811015610b5a576109b2935f5260205f2001610a30565b634e487b7160e01b5f52603260045260245ffd5b90918060409360208452816020850152848401375f828201840152601f01601f1916010190565b5f546001600160a01b03163303610ba857565b63118cdaa760e01b5f523360045260245ffd5b60018060a01b0316805f52600560205260405f20825f5260205260ff60405f205416610be5575050565b630375d9a560e21b5f5260045260245260445ffdfea2646970667358221220a6459067d7e4cad3c01d6316d6411cf00b0d112578b0e326c550e2c2ecdbea9e64736f6c634300081e0033a2646970667358221220b895e8466b668afb2ebdf02fcaf9ed297ea8da1f7bac31ce187a83b6e79fbc4364736f6c634300081e0033","linkReferences":{}},"methodIdentifiers":{"deploy()":"775c300c","getAllDeployedStores()":"b6e896e1","getDeployedStore(address)":"fa381b52","transferOwnership(address)":"f2fde38b"},"storageLayout":{"storage":[{"astId":5520,"contract":"contracts/store/StoreFactory.sol:StoreFactory","label":"_deployedStores","offset":0,"slot":"0","type":"t_mapping(t_address,t_contract(IStore)5007)"},{"astId":5525,"contract":"contracts/store/StoreFactory.sol:StoreFactory","label":"_allStores","offset":0,"slot":"1","type":"t_array(t_contract(IStore)5007)dyn_storage"}],"types":{"t_address":{"encoding":"inplace","label":"address","numberOfBytes":"20"},"t_array(t_contract(IStore)5007)dyn_storage":{"encoding":"dynamic_array","label":"contract IStore[]","numberOfBytes":"32","base":"t_contract(IStore)5007"},"t_contract(IStore)5007":{"encoding":"inplace","label":"contract IStore","numberOfBytes":"20"},"t_mapping(t_address,t_contract(IStore)5007)":{"encoding":"mapping","key":"t_address","label":"mapping(address => contract IStore)","numberOfBytes":"32","value":"t_contract(IStore)5007"}}},"id":19}