{"abi":[{"type":"constructor","inputs":[],"stateMutability":"nonpayable"},{"type":"function","name":"authorizeDotnsController","inputs":[{"name":"controllerAddress","type":"address","internalType":"address"}],"outputs":[],"stateMutability":"nonpayable"},{"type":"function","name":"authorizeStore","inputs":[{"name":"storeAddress","type":"address","internalType":"address"}],"outputs":[],"stateMutability":"nonpayable"},{"type":"function","name":"deleteValue","inputs":[{"name":"key","type":"bytes32","internalType":"bytes32"}],"outputs":[],"stateMutability":"nonpayable"},{"type":"function","name":"getValue","inputs":[{"name":"key","type":"bytes32","internalType":"bytes32"}],"outputs":[{"name":"","type":"string","internalType":"string"}],"stateMutability":"view"},{"type":"function","name":"getValueFor","inputs":[{"name":"user","type":"address","internalType":"address"},{"name":"key","type":"bytes32","internalType":"bytes32"}],"outputs":[{"name":"","type":"string","internalType":"string"}],"stateMutability":"view"},{"type":"function","name":"getValues","inputs":[],"outputs":[{"name":"","type":"string[]","internalType":"string[]"}],"stateMutability":"view"},{"type":"function","name":"hasValue","inputs":[{"name":"key","type":"bytes32","internalType":"bytes32"}],"outputs":[{"name":"exists","type":"bool","internalType":"bool"}],"stateMutability":"view"},{"type":"function","name":"isAuthorized","inputs":[{"name":"storeAddress","type":"address","internalType":"address"}],"outputs":[{"name":"authorized","type":"bool","internalType":"bool"}],"stateMutability":"view"},{"type":"function","name":"isDotnsController","inputs":[{"name":"controllerAddress","type":"address","internalType":"address"}],"outputs":[{"name":"isController","type":"bool","internalType":"bool"}],"stateMutability":"view"},{"type":"function","name":"isLocked","inputs":[{"name":"user","type":"address","internalType":"address"},{"name":"key","type":"bytes32","internalType":"bytes32"}],"outputs":[{"name":"locked","type":"bool","internalType":"bool"}],"stateMutability":"view"},{"type":"function","name":"owner","inputs":[],"outputs":[{"name":"","type":"address","internalType":"address"}],"stateMutability":"view"},{"type":"function","name":"renounceOwnership","inputs":[],"outputs":[],"stateMutability":"nonpayable"},{"type":"function","name":"setValue","inputs":[{"name":"key","type":"bytes32","internalType":"bytes32"},{"name":"value","type":"string","internalType":"string"}],"outputs":[],"stateMutability":"nonpayable"},{"type":"function","name":"setValueFor","inputs":[{"name":"user","type":"address","internalType":"address"},{"name":"key","type":"bytes32","internalType":"bytes32"},{"name":"value","type":"string","internalType":"string"}],"outputs":[],"stateMutability":"nonpayable"},{"type":"function","name":"transferOwnership","inputs":[{"name":"newOwner","type":"address","internalType":"address"}],"outputs":[],"stateMutability":"nonpayable"},{"type":"function","name":"unauthorizeDotnsController","inputs":[{"name":"controllerAddress","type":"address","internalType":"address"}],"outputs":[],"stateMutability":"nonpayable"},{"type":"function","name":"unauthorizeStore","inputs":[{"name":"storeAddress","type":"address","internalType":"address"}],"outputs":[],"stateMutability":"nonpayable"},{"type":"event","name":"DotnsControllerAuthorized","inputs":[{"name":"controllerAddress","type":"address","indexed":true,"internalType":"address"}],"anonymous":false},{"type":"event","name":"DotnsControllerUnauthorized","inputs":[{"name":"controllerAddress","type":"address","indexed":true,"internalType":"address"}],"anonymous":false},{"type":"event","name":"KeyLockedPermanently","inputs":[{"name":"user","type":"address","indexed":true,"internalType":"address"},{"name":"key","type":"bytes32","indexed":true,"internalType":"bytes32"},{"name":"locker","type":"address","indexed":true,"internalType":"address"}],"anonymous":false},{"type":"event","name":"OwnershipTransferred","inputs":[{"name":"previousOwner","type":"address","indexed":true,"internalType":"address"},{"name":"newOwner","type":"address","indexed":true,"internalType":"address"}],"anonymous":false},{"type":"event","name":"StoreAuthorized","inputs":[{"name":"authorizedAddress","type":"address","indexed":true,"internalType":"address"}],"anonymous":false},{"type":"event","name":"StoreUnauthorized","inputs":[{"name":"unauthorizedAddress","type":"address","indexed":true,"internalType":"address"}],"anonymous":false},{"type":"event","name":"ValueDeleted","inputs":[{"name":"user","type":"address","indexed":true,"internalType":"address"},{"name":"key","type":"bytes32","indexed":true,"internalType":"bytes32"}],"anonymous":false},{"type":"event","name":"ValueStored","inputs":[{"name":"user","type":"address","indexed":true,"internalType":"address"},{"name":"key","type":"bytes32","indexed":true,"internalType":"bytes32"},{"name":"value","type":"string","indexed":false,"internalType":"string"}],"anonymous":false},{"type":"error","name":"KeyLocked","inputs":[{"name":"user","type":"address","internalType":"address"},{"name":"key","type":"bytes32","internalType":"bytes32"}]},{"type":"error","name":"NotAuthorised","inputs":[{"name":"caller","type":"address","internalType":"address"}]},{"type":"error","name":"OwnableInvalidOwner","inputs":[{"name":"owner","type":"address","internalType":"address"}]},{"type":"error","name":"OwnableUnauthorizedAccount","inputs":[{"name":"account","type":"address","internalType":"address"}]}],"bytecode":{"object":"0x608080604052346071573315605e575f8054336001600160a01b0319821681178355916001600160a01b03909116907f8be0079c531659141344cd1fd0a4f28419497f9722a3daafe3b4186f6b6457e09080a3610c3090816100768239f35b631e4fbdf760e01b5f525f60045260245ffd5b5f80fdfe6080806040526004361015610012575f80fd5b5f3560e01c9081630bdd8aeb1461087f5750806311182b971461081a57806319eb4a901461072857806331bf85fa146106df5780633ecfef6e1461057c5780636984394014610548578063715018a6146104f157806388c5ef46146104895780638da5cb5b14610462578063b489b365146103fa578063c47fe6ca146103bc578063c7bfebd61461030e578063d0f5d136146102a9578063d7abb79f1461024d578063ddd875d81461019d578063f2fde38b146101185763fe9fbb80146100d7575f80fd5b34610114576020366003190112610114576001600160a01b036100f86108b8565b165f526003602052602060ff60405f2054166040519015158152f35b5f80fd5b34610114576020366003190112610114576101316108b8565b610139610b95565b6001600160a01b0316801561018a575f80546001600160a01b03198116831782556001600160a01b0316907f8be0079c531659141344cd1fd0a4f28419497f9722a3daafe3b4186f6b6457e09080a3005b631e4fbdf760e01b5f525f60045260245ffd5b34610114576020366003190112610114576004356101bb8133610bbb565b335f52600160205260405f20815f5260205260405f206101db8154610942565b908161020a575b82337f6428dc73ea23d7708b9e0792e2c9b2ea9d258d7f9373d69b0b2643edf2b85a165f80a3005b81601f5f93116001146102215750555b81806101e2565b8183526020832061023d91601f0160051c810190600101610a1a565b808252816020812091555561021a565b34610114576040366003190112610114576001600160a01b0361026e6108b8565b165f52600160205260405f206024355f526020526102a561029160405f2061097a565b6040519182916020835260208301906108ce565b0390f35b34610114576020366003190112610114576102c26108b8565b6102ca610b95565b6001600160a01b03165f818152600460205260408120805460ff191690557faa8fcdfccf445f021f8b4a213ae1a63f6f3267aa4522972c47c01d457ff3727b9080a2005b346101145760403660031901126101145760043560243567ffffffffffffffff8111610114577f329b0bde0bfd3b1f63461d9197f2dea5bb1ed9040a3cc8dbe154b115c2e30a496103666103b79236906004016108f2565b6103738594929433610bbb565b335f52600160205260405f20855f52602052610393818560405f20610a30565b335f5260026020526103a9818560405f20610b27565b604051918291339583610b6e565b0390a3005b3461011457602036600319011261011457335f52600160205260405f206004355f5260205260206103f060405f2054610942565b1515604051908152f35b34610114576020366003190112610114576104136108b8565b61041b610b95565b6001600160a01b03165f818152600360205260408120805460ff191660011790557fa7de06aa60b69f67f419b34647ad6da74e5177ecca58e49f670e63e078786ae79080a2005b34610114575f366003190112610114575f546040516001600160a01b039091168152602090f35b34610114576020366003190112610114576104a26108b8565b6104aa610b95565b6001600160a01b03165f818152600460205260408120805460ff191660011790557faa64744d19b2d9220a88e1b74da1cd399b8b6c9e14605654149475ca15d259909080a2005b34610114575f36600319011261011457610509610b95565b5f80546001600160a01b0319811682556001600160a01b03167f8be0079c531659141344cd1fd0a4f28419497f9722a3daafe3b4186f6b6457e08280a3005b3461011457602036600319011261011457335f52600160205260405f206004355f526020526102a561029160405f2061097a565b34610114576060366003190112610114576105956108b8565b60243560443567ffffffffffffffff8111610114576105b9829136906004016108f2565b93335f52600460205260ff60405f205416156106ae575b806105fc847f329b0bde0bfd3b1f63461d9197f2dea5bb1ed9040a3cc8dbe154b115c2e30a4993610bbb565b60018060a01b0316948592835f52600160205260405f20855f52602052610627828260405f20610a30565b835f52600260205261063d828260405f20610b27565b61064c60405192839283610b6e565b0390a3335f52600460205260ff60405f20541661066557005b815f52600560205260405f20815f5260205260405f20600160ff1982541617905533917fd263f2dadb54eb8b54eb5d786c7ea4c6fd62c873b613deeee99c6ce71b4ed4f95f80a4005b9150335f52600360205260ff60405f205416156106cc5782916105d0565b6310ac496560e01b5f523360045260245ffd5b34610114576040366003190112610114576001600160a01b036107006108b8565b165f52600560205260405f206024355f52602052602060ff60405f2054166040519015158152f35b34610114575f36600319011261011457335f52600260205260405f2080549067ffffffffffffffff8211610806576040519161076a60208260051b0184610920565b8083526020830180925f5260205f205f915b8383106107e957848660405191829160208301906020845251809152604083019060408160051b85010192915f905b8282106107ba57505050500390f35b919360019193955060206107d98192603f198a820301865288516108ce565b96019201920185949391926107ab565b6001602081926107f88561097a565b81520192019201919061077c565b634e487b7160e01b5f52604160045260245ffd5b34610114576020366003190112610114576108336108b8565b61083b610b95565b6001600160a01b03165f818152600360205260408120805460ff191690557f7bd79b6f5373362a5b314e087a7061c39b65f0d57ef52a4eb43610d6d4fb58099080a2005b34610114576020366003190112610114576020906001600160a01b036108a36108b8565b165f526004825260ff60405f20541615158152f35b600435906001600160a01b038216820361011457565b805180835260209291819084018484015e5f828201840152601f01601f1916010190565b9181601f840112156101145782359167ffffffffffffffff8311610114576020838186019501011161011457565b90601f8019910116810190811067ffffffffffffffff82111761080657604052565b90600182811c92168015610970575b602083101461095c57565b634e487b7160e01b5f52602260045260245ffd5b91607f1691610951565b9060405191825f82549261098d84610942565b80845293600181169081156109f857506001146109b4575b506109b292500383610920565b565b90505f9291925260205f20905f915b8183106109dc5750509060206109b2928201015f6109a5565b60209193508060019154838589010152019101909184926109c3565b9050602092506109b294915060ff191682840152151560051b8201015f6109a5565b818110610a25575050565b5f8155600101610a1a565b90929167ffffffffffffffff811161080657610a4c8254610942565b601f8111610aec575b505f601f8211600114610a8d57819293945f92610a82575b50508160011b915f199060031b1c1916179055565b013590505f80610a6d565b601f19821694835f5260205f20915f5b878110610ad4575083600195969710610abb575b505050811b019055565b01355f19600384901b60f8161c191690555f8080610ab1565b90926020600181928686013581550194019101610a9d565b610b1790835f5260205f20601f840160051c81019160208510610b1d575b601f0160051c0190610a1a565b5f610a55565b9091508190610b0a565b91908254680100000000000000008110156108065760018101808555811015610b5a576109b2935f5260205f2001610a30565b634e487b7160e01b5f52603260045260245ffd5b90918060409360208452816020850152848401375f828201840152601f01601f1916010190565b5f546001600160a01b03163303610ba857565b63118cdaa760e01b5f523360045260245ffd5b60018060a01b0316805f52600560205260405f20825f5260205260ff60405f205416610be5575050565b630375d9a560e21b5f5260045260245260445ffdfea2646970667358221220a6459067d7e4cad3c01d6316d6411cf00b0d112578b0e326c550e2c2ecdbea9e64736f6c634300081e0033","linkReferences":{}},"methodIdentifiers":{"authorizeDotnsController(address)":"88c5ef46","authorizeStore(address)":"b489b365","deleteValue(bytes32)":"ddd875d8","getValue(bytes32)":"69843940","getValueFor(address,bytes32)":"d7abb79f","getValues()":"19eb4a90","hasValue(bytes32)":"c47fe6ca","isAuthorized(address)":"fe9fbb80","isDotnsController(address)":"0bdd8aeb","isLocked(address,bytes32)":"31bf85fa","owner()":"8da5cb5b","renounceOwnership()":"715018a6","setValue(bytes32,string)":"c7bfebd6","setValueFor(address,bytes32,string)":"3ecfef6e","transferOwnership(address)":"f2fde38b","unauthorizeDotnsController(address)":"d0f5d136","unauthorizeStore(address)":"11182b97"},"storageLayout":{"storage":[{"astId":47262,"contract":"contracts/store/Store.sol:Store","label":"_owner","offset":0,"slot":"0","type":"t_address"},{"astId":5091,"contract":"contracts/store/Store.sol:Store","label":"store","offset":0,"slot":"1","type":"t_mapping(t_address,t_mapping(t_bytes32,t_string_storage))"},{"astId":5097,"contract":"contracts/store/Store.sol:Store","label":"values","offset":0,"slot":"2","type":"t_mapping(t_address,t_array(t_string_storage)dyn_storage)"},{"astId":5102,"contract":"contracts/store/Store.sol:Store","label":"authorizedStores","offset":0,"slot":"3","type":"t_mapping(t_address,t_bool)"},{"astId":5107,"contract":"contracts/store/Store.sol:Store","label":"dotnsControllers","offset":0,"slot":"4","type":"t_mapping(t_address,t_bool)"},{"astId":5114,"contract":"contracts/store/Store.sol:Store","label":"lockedKeys","offset":0,"slot":"5","type":"t_mapping(t_address,t_mapping(t_bytes32,t_bool))"}],"types":{"t_address":{"encoding":"inplace","label":"address","numberOfBytes":"20"},"t_array(t_string_storage)dyn_storage":{"encoding":"dynamic_array","label":"string[]","numberOfBytes":"32","base":"t_string_storage"},"t_bool":{"encoding":"inplace","label":"bool","numberOfBytes":"1"},"t_bytes32":{"encoding":"inplace","label":"bytes32","numberOfBytes":"32"},"t_mapping(t_address,t_array(t_string_storage)dyn_storage)":{"encoding":"mapping","key":"t_address","label":"mapping(address => string[])","numberOfBytes":"32","value":"t_array(t_string_storage)dyn_storage"},"t_mapping(t_address,t_bool)":{"encoding":"mapping","key":"t_address","label":"mapping(address => bool)","numberOfBytes":"32","value":"t_bool"},"t_mapping(t_address,t_mapping(t_bytes32,t_bool))":{"encoding":"mapping","key":"t_address","label":"mapping(address => mapping(bytes32 => bool))","numberOfBytes":"32","value":"t_mapping(t_bytes32,t_bool)"},"t_mapping(t_address,t_mapping(t_bytes32,t_string_storage))":{"encoding":"mapping","key":"t_address","label":"mapping(address => mapping(bytes32 => string))","numberOfBytes":"32","value":"t_mapping(t_bytes32,t_string_storage)"},"t_mapping(t_bytes32,t_bool)":{"encoding":"mapping","key":"t_bytes32","label":"mapping(bytes32 => bool)","numberOfBytes":"32","value":"t_bool"},"t_mapping(t_bytes32,t_string_storage)":{"encoding":"mapping","key":"t_bytes32","label":"mapping(bytes32 => string)","numberOfBytes":"32","value":"t_string_storage"},"t_string_storage":{"encoding":"bytes","label":"string","numberOfBytes":"32"}}},"id":18}