{
  "abi": [
    {
      "type": "constructor",
      "inputs": [],
      "stateMutability": "nonpayable"
    },
    {
      "type": "function",
      "name": "authorizeDotnsController",
      "inputs": [
        {
          "name": "controllerAddress",
          "type": "address",
          "internalType": "address"
        }
      ],
      "outputs": [],
      "stateMutability": "nonpayable"
    },
    {
      "type": "function",
      "name": "authorizeStore",
      "inputs": [
        {
          "name": "storeAddress",
          "type": "address",
          "internalType": "address"
        }
      ],
      "outputs": [],
      "stateMutability": "nonpayable"
    },
    {
      "type": "function",
      "name": "deleteValue",
      "inputs": [
        {
          "name": "key",
          "type": "bytes32",
          "internalType": "bytes32"
        }
      ],
      "outputs": [],
      "stateMutability": "nonpayable"
    },
    {
      "type": "function",
      "name": "getValue",
      "inputs": [
        {
          "name": "key",
          "type": "bytes32",
          "internalType": "bytes32"
        }
      ],
      "outputs": [
        {
          "name": "",
          "type": "string",
          "internalType": "string"
        }
      ],
      "stateMutability": "view"
    },
    {
      "type": "function",
      "name": "getValueFor",
      "inputs": [
        {
          "name": "user",
          "type": "address",
          "internalType": "address"
        },
        {
          "name": "key",
          "type": "bytes32",
          "internalType": "bytes32"
        }
      ],
      "outputs": [
        {
          "name": "",
          "type": "string",
          "internalType": "string"
        }
      ],
      "stateMutability": "view"
    },
    {
      "type": "function",
      "name": "getValues",
      "inputs": [],
      "outputs": [
        {
          "name": "",
          "type": "string[]",
          "internalType": "string[]"
        }
      ],
      "stateMutability": "view"
    },
    {
      "type": "function",
      "name": "hasValue",
      "inputs": [
        {
          "name": "key",
          "type": "bytes32",
          "internalType": "bytes32"
        }
      ],
      "outputs": [
        {
          "name": "exists",
          "type": "bool",
          "internalType": "bool"
        }
      ],
      "stateMutability": "view"
    },
    {
      "type": "function",
      "name": "isAuthorized",
      "inputs": [
        {
          "name": "storeAddress",
          "type": "address",
          "internalType": "address"
        }
      ],
      "outputs": [
        {
          "name": "authorized",
          "type": "bool",
          "internalType": "bool"
        }
      ],
      "stateMutability": "view"
    },
    {
      "type": "function",
      "name": "isDotnsController",
      "inputs": [
        {
          "name": "controllerAddress",
          "type": "address",
          "internalType": "address"
        }
      ],
      "outputs": [
        {
          "name": "isController",
          "type": "bool",
          "internalType": "bool"
        }
      ],
      "stateMutability": "view"
    },
    {
      "type": "function",
      "name": "isLocked",
      "inputs": [
        {
          "name": "user",
          "type": "address",
          "internalType": "address"
        },
        {
          "name": "key",
          "type": "bytes32",
          "internalType": "bytes32"
        }
      ],
      "outputs": [
        {
          "name": "locked",
          "type": "bool",
          "internalType": "bool"
        }
      ],
      "stateMutability": "view"
    },
    {
      "type": "function",
      "name": "owner",
      "inputs": [],
      "outputs": [
        {
          "name": "",
          "type": "address",
          "internalType": "address"
        }
      ],
      "stateMutability": "view"
    },
    {
      "type": "function",
      "name": "renounceOwnership",
      "inputs": [],
      "outputs": [],
      "stateMutability": "nonpayable"
    },
    {
      "type": "function",
      "name": "setValue",
      "inputs": [
        {
          "name": "key",
          "type": "bytes32",
          "internalType": "bytes32"
        },
        {
          "name": "value",
          "type": "string",
          "internalType": "string"
        }
      ],
      "outputs": [],
      "stateMutability": "nonpayable"
    },
    {
      "type": "function",
      "name": "setValueFor",
      "inputs": [
        {
          "name": "user",
          "type": "address",
          "internalType": "address"
        },
        {
          "name": "key",
          "type": "bytes32",
          "internalType": "bytes32"
        },
        {
          "name": "value",
          "type": "string",
          "internalType": "string"
        }
      ],
      "outputs": [],
      "stateMutability": "nonpayable"
    },
    {
      "type": "function",
      "name": "transferOwnership",
      "inputs": [
        {
          "name": "newOwner",
          "type": "address",
          "internalType": "address"
        }
      ],
      "outputs": [],
      "stateMutability": "nonpayable"
    },
    {
      "type": "function",
      "name": "unauthorizeDotnsController",
      "inputs": [
        {
          "name": "controllerAddress",
          "type": "address",
          "internalType": "address"
        }
      ],
      "outputs": [],
      "stateMutability": "nonpayable"
    },
    {
      "type": "function",
      "name": "unauthorizeStore",
      "inputs": [
        {
          "name": "storeAddress",
          "type": "address",
          "internalType": "address"
        }
      ],
      "outputs": [],
      "stateMutability": "nonpayable"
    },
    {
      "type": "event",
      "name": "DotnsControllerAuthorized",
      "inputs": [
        {
          "name": "controllerAddress",
          "type": "address",
          "indexed": true,
          "internalType": "address"
        }
      ],
      "anonymous": false
    },
    {
      "type": "event",
      "name": "DotnsControllerUnauthorized",
      "inputs": [
        {
          "name": "controllerAddress",
          "type": "address",
          "indexed": true,
          "internalType": "address"
        }
      ],
      "anonymous": false
    },
    {
      "type": "event",
      "name": "KeyLockedPermanently",
      "inputs": [
        {
          "name": "user",
          "type": "address",
          "indexed": true,
          "internalType": "address"
        },
        {
          "name": "key",
          "type": "bytes32",
          "indexed": true,
          "internalType": "bytes32"
        },
        {
          "name": "locker",
          "type": "address",
          "indexed": true,
          "internalType": "address"
        }
      ],
      "anonymous": false
    },
    {
      "type": "event",
      "name": "OwnershipTransferred",
      "inputs": [
        {
          "name": "previousOwner",
          "type": "address",
          "indexed": true,
          "internalType": "address"
        },
        {
          "name": "newOwner",
          "type": "address",
          "indexed": true,
          "internalType": "address"
        }
      ],
      "anonymous": false
    },
    {
      "type": "event",
      "name": "StoreAuthorized",
      "inputs": [
        {
          "name": "authorizedAddress",
          "type": "address",
          "indexed": true,
          "internalType": "address"
        }
      ],
      "anonymous": false
    },
    {
      "type": "event",
      "name": "StoreUnauthorized",
      "inputs": [
        {
          "name": "unauthorizedAddress",
          "type": "address",
          "indexed": true,
          "internalType": "address"
        }
      ],
      "anonymous": false
    },
    {
      "type": "event",
      "name": "ValueDeleted",
      "inputs": [
        {
          "name": "user",
          "type": "address",
          "indexed": true,
          "internalType": "address"
        },
        {
          "name": "key",
          "type": "bytes32",
          "indexed": true,
          "internalType": "bytes32"
        }
      ],
      "anonymous": false
    },
    {
      "type": "event",
      "name": "ValueStored",
      "inputs": [
        {
          "name": "user",
          "type": "address",
          "indexed": true,
          "internalType": "address"
        },
        {
          "name": "key",
          "type": "bytes32",
          "indexed": true,
          "internalType": "bytes32"
        },
        {
          "name": "value",
          "type": "string",
          "indexed": false,
          "internalType": "string"
        }
      ],
      "anonymous": false
    },
    {
      "type": "error",
      "name": "KeyLocked",
      "inputs": [
        {
          "name": "user",
          "type": "address",
          "internalType": "address"
        },
        {
          "name": "key",
          "type": "bytes32",
          "internalType": "bytes32"
        }
      ]
    },
    {
      "type": "error",
      "name": "NotAuthorised",
      "inputs": [
        {
          "name": "caller",
          "type": "address",
          "internalType": "address"
        }
      ]
    },
    {
      "type": "error",
      "name": "OwnableInvalidOwner",
      "inputs": [
        {
          "name": "owner",
          "type": "address",
          "internalType": "address"
        }
      ]
    },
    {
      "type": "error",
      "name": "OwnableUnauthorizedAccount",
      "inputs": [
        {
          "name": "account",
          "type": "address",
          "internalType": "address"
        }
      ]
    }
  ],
  "bytecode": {
    "object": "0x608080604052346071573315605e575f8054336001600160a01b0319821681178355916001600160a01b03909116907f8be0079c531659141344cd1fd0a4f28419497f9722a3daafe3b4186f6b6457e09080a3610cdc90816100768239f35b631e4fbdf760e01b5f525f60045260245ffd5b5f80fdfe6080806040526004361015610012575f80fd5b5f3560e01c9081630bdd8aeb146108f65750806311182b971461089257806319eb4a901461078457806331bf85fa1461073b5780633ecfef6e146105be578063698439401461058a578063715018a61461051b57806388c5ef46146104b45780638da5cb5b1461048f578063b489b36514610428578063c47fe6ca146103ea578063c7bfebd61461033c578063d0f5d136146102d8578063d7abb79f1461027c578063ddd875d8146101cc578063f2fde38b146101185763fe9fbb80146100d7575f80fd5b34610114576020600319360112610114576001600160a01b036100f861092f565b165f526003602052602060ff60405f2054166040519015158152f35b5f80fd5b34610114576020600319360112610114576001600160a01b0361013961092f565b610141610c0e565b1680156101a0576001600160a01b035f54827fffffffffffffffffffffffff00000000000000000000000000000000000000008216175f55167f8be0079c531659141344cd1fd0a4f28419497f9722a3daafe3b4186f6b6457e05f80a3005b7f1e4fbdf7000000000000000000000000000000000000000000000000000000005f525f60045260245ffd5b34610114576020600319360112610114576004356101ea8133610c4d565b335f52600160205260405f20815f5260205260405f2061020a81546109bb565b9081610239575b82337f6428dc73ea23d7708b9e0792e2c9b2ea9d258d7f9373d69b0b2643edf2b85a165f80a3005b81601f5f93116001146102505750555b8180610211565b8183526020832061026c91601f0160051c810190600101610a93565b8082528160208120915555610249565b34610114576040600319360112610114576001600160a01b0361029d61092f565b165f52600160205260405f206024355f526020526102d46102c060405f206109f3565b604051918291602083526020830190610945565b0390f35b34610114576020600319360112610114576001600160a01b036102f961092f565b610301610c0e565b16805f52600460205260405f2060ff1981541690557faa8fcdfccf445f021f8b4a213ae1a63f6f3267aa4522972c47c01d457ff3727b5f80a2005b346101145760406003193601126101145760043560243567ffffffffffffffff8111610114577f329b0bde0bfd3b1f63461d9197f2dea5bb1ed9040a3cc8dbe154b115c2e30a496103946103e592369060040161096a565b6103a18594929433610c4d565b335f52600160205260405f20855f526020526103c1818560405f20610aa9565b335f5260026020526103d7818560405f20610ba0565b604051918291339583610be7565b0390a3005b3461011457602060031936011261011457335f52600160205260405f206004355f52602052602061041e60405f20546109bb565b1515604051908152f35b34610114576020600319360112610114576001600160a01b0361044961092f565b610451610c0e565b16805f52600360205260405f20600160ff198254161790557fa7de06aa60b69f67f419b34647ad6da74e5177ecca58e49f670e63e078786ae75f80a2005b34610114575f6003193601126101145760206001600160a01b035f5416604051908152f35b34610114576020600319360112610114576001600160a01b036104d561092f565b6104dd610c0e565b16805f52600460205260405f20600160ff198254161790557faa64744d19b2d9220a88e1b74da1cd399b8b6c9e14605654149475ca15d259905f80a2005b34610114575f60031936011261011457610533610c0e565b5f6001600160a01b0381547fffffffffffffffffffffffff000000000000000000000000000000000000000081168355167f8be0079c531659141344cd1fd0a4f28419497f9722a3daafe3b4186f6b6457e08280a3005b3461011457602060031936011261011457335f52600160205260405f206004355f526020526102d46102c060405f206109f3565b34610114576060600319360112610114576105d761092f565b60243560443567ffffffffffffffff8111610114576105fb8291369060040161096a565b93335f52600460205260ff60405f205416156106f1575b6001600160a01b0381610646857f329b0bde0bfd3b1f63461d9197f2dea5bb1ed9040a3cc8dbe154b115c2e30a4994610c4d565b16948592835f52600160205260405f20855f5260205261066a828260405f20610aa9565b835f526002602052610680828260405f20610ba0565b61068f60405192839283610be7565b0390a3335f52600460205260ff60405f2054166106a857005b815f52600560205260405f20815f5260205260405f20600160ff1982541617905533917fd263f2dadb54eb8b54eb5d786c7ea4c6fd62c873b613deeee99c6ce71b4ed4f95f80a4005b9150335f52600360205260ff60405f2054161561070f578291610612565b7f10ac4965000000000000000000000000000000000000000000000000000000005f523360045260245ffd5b34610114576040600319360112610114576001600160a01b0361075c61092f565b165f52600560205260405f206024355f52602052602060ff60405f2054166040519015158152f35b34610114575f60031936011261011457335f52600260205260405f2080549067ffffffffffffffff821161087e57604051916107c660208260051b0184610998565b8083526020830180925f5260205f205f915b83831061086157848660405191829160208301906020845251809152604083019060408160051b85010192915f905b82821061081657505050500390f35b91936020610851827fffffffffffffffffffffffffffffffffffffffffffffffffffffffffffffffc060019597998495030186528851610945565b9601920192018594939192610807565b600160208192610870856109f3565b8152019201920191906107d8565b634e487b7160e01b5f52604160045260245ffd5b34610114576020600319360112610114576001600160a01b036108b361092f565b6108bb610c0e565b16805f52600360205260405f2060ff1981541690557f7bd79b6f5373362a5b314e087a7061c39b65f0d57ef52a4eb43610d6d4fb58095f80a2005b34610114576020600319360112610114576020906001600160a01b0361091a61092f565b165f526004825260ff60405f20541615158152f35b600435906001600160a01b038216820361011457565b90601f19601f602080948051918291828752018686015e5f8582860101520116010190565b9181601f840112156101145782359167ffffffffffffffff8311610114576020838186019501011161011457565b90601f601f19910116810190811067ffffffffffffffff82111761087e57604052565b90600182811c921680156109e9575b60208310146109d557565b634e487b7160e01b5f52602260045260245ffd5b91607f16916109ca565b9060405191825f825492610a06846109bb565b8084529360018116908115610a715750600114610a2d575b50610a2b92500383610998565b565b90505f9291925260205f20905f915b818310610a55575050906020610a2b928201015f610a1e565b6020919350806001915483858901015201910190918492610a3c565b60209350610a2b95925060ff1991501682840152151560051b8201015f610a1e565b818110610a9e575050565b5f8155600101610a93565b90929167ffffffffffffffff811161087e57610ac582546109bb565b601f8111610b65575b505f601f8211600114610b0657819293945f92610afb575b50508160011b915f199060031b1c1916179055565b013590505f80610ae6565b601f19821694835f5260205f20915f5b878110610b4d575083600195969710610b34575b505050811b019055565b01355f19600384901b60f8161c191690555f8080610b2a565b90926020600181928686013581550194019101610b16565b610b9090835f5260205f20601f840160051c81019160208510610b96575b601f0160051c0190610a93565b5f610ace565b9091508190610b83565b919082546801000000000000000081101561087e5760018101808555811015610bd357610a2b935f5260205f2001610aa9565b634e487b7160e01b5f52603260045260245ffd5b90601f83604094601f199360208652816020870152868601375f8582860101520116010190565b6001600160a01b035f54163303610c2157565b7f118cdaa7000000000000000000000000000000000000000000000000000000005f523360045260245ffd5b6001600160a01b0316805f52600560205260405f20825f5260205260ff60405f205416610c78575050565b7f0dd76694000000000000000000000000000000000000000000000000000000005f5260045260245260445ffdfea2646970667358221220451a4052425a56af89ac946fe09325e56b60e8f97a643f401ca793d77d8e67a064736f6c634300081e0033",
    "linkReferences": {}
  },
  "methodIdentifiers": {
    "authorizeDotnsController(address)": "88c5ef46",
    "authorizeStore(address)": "b489b365",
    "deleteValue(bytes32)": "ddd875d8",
    "getValue(bytes32)": "69843940",
    "getValueFor(address,bytes32)": "d7abb79f",
    "getValues()": "19eb4a90",
    "hasValue(bytes32)": "c47fe6ca",
    "isAuthorized(address)": "fe9fbb80",
    "isDotnsController(address)": "0bdd8aeb",
    "isLocked(address,bytes32)": "31bf85fa",
    "owner()": "8da5cb5b",
    "renounceOwnership()": "715018a6",
    "setValue(bytes32,string)": "c7bfebd6",
    "setValueFor(address,bytes32,string)": "3ecfef6e",
    "transferOwnership(address)": "f2fde38b",
    "unauthorizeDotnsController(address)": "d0f5d136",
    "unauthorizeStore(address)": "11182b97"
  },
  "storageLayout": {
    "storage": [
      {
        "astId": 45999,
        "contract": "contracts/store/Store.sol:Store",
        "label": "_owner",
        "offset": 0,
        "slot": "0",
        "type": "t_address"
      },
      {
        "astId": 4021,
        "contract": "contracts/store/Store.sol:Store",
        "label": "store",
        "offset": 0,
        "slot": "1",
        "type": "t_mapping(t_address,t_mapping(t_bytes32,t_string_storage))"
      },
      {
        "astId": 4027,
        "contract": "contracts/store/Store.sol:Store",
        "label": "values",
        "offset": 0,
        "slot": "2",
        "type": "t_mapping(t_address,t_array(t_string_storage)dyn_storage)"
      },
      {
        "astId": 4032,
        "contract": "contracts/store/Store.sol:Store",
        "label": "authorizedStores",
        "offset": 0,
        "slot": "3",
        "type": "t_mapping(t_address,t_bool)"
      },
      {
        "astId": 4037,
        "contract": "contracts/store/Store.sol:Store",
        "label": "dotnsControllers",
        "offset": 0,
        "slot": "4",
        "type": "t_mapping(t_address,t_bool)"
      },
      {
        "astId": 4044,
        "contract": "contracts/store/Store.sol:Store",
        "label": "lockedKeys",
        "offset": 0,
        "slot": "5",
        "type": "t_mapping(t_address,t_mapping(t_bytes32,t_bool))"
      }
    ],
    "types": {
      "t_address": {
        "encoding": "inplace",
        "label": "address",
        "numberOfBytes": "20"
      },
      "t_array(t_string_storage)dyn_storage": {
        "encoding": "dynamic_array",
        "label": "string[]",
        "numberOfBytes": "32",
        "base": "t_string_storage"
      },
      "t_bool": {
        "encoding": "inplace",
        "label": "bool",
        "numberOfBytes": "1"
      },
      "t_bytes32": {
        "encoding": "inplace",
        "label": "bytes32",
        "numberOfBytes": "32"
      },
      "t_mapping(t_address,t_array(t_string_storage)dyn_storage)": {
        "encoding": "mapping",
        "key": "t_address",
        "label": "mapping(address => string[])",
        "numberOfBytes": "32",
        "value": "t_array(t_string_storage)dyn_storage"
      },
      "t_mapping(t_address,t_bool)": {
        "encoding": "mapping",
        "key": "t_address",
        "label": "mapping(address => bool)",
        "numberOfBytes": "32",
        "value": "t_bool"
      },
      "t_mapping(t_address,t_mapping(t_bytes32,t_bool))": {
        "encoding": "mapping",
        "key": "t_address",
        "label": "mapping(address => mapping(bytes32 => bool))",
        "numberOfBytes": "32",
        "value": "t_mapping(t_bytes32,t_bool)"
      },
      "t_mapping(t_address,t_mapping(t_bytes32,t_string_storage))": {
        "encoding": "mapping",
        "key": "t_address",
        "label": "mapping(address => mapping(bytes32 => string))",
        "numberOfBytes": "32",
        "value": "t_mapping(t_bytes32,t_string_storage)"
      },
      "t_mapping(t_bytes32,t_bool)": {
        "encoding": "mapping",
        "key": "t_bytes32",
        "label": "mapping(bytes32 => bool)",
        "numberOfBytes": "32",
        "value": "t_bool"
      },
      "t_mapping(t_bytes32,t_string_storage)": {
        "encoding": "mapping",
        "key": "t_bytes32",
        "label": "mapping(bytes32 => string)",
        "numberOfBytes": "32",
        "value": "t_string_storage"
      },
      "t_string_storage": {
        "encoding": "bytes",
        "label": "string",
        "numberOfBytes": "32"
      }
    }
  },
  "id": 17
}